{
  "_format": "hh-sol-artifact-1",
  "contractName": "ClacFactoryV2",
  "sourceName": "contracts/v2/ClacFactoryV2.sol",
  "abi": [
    {
      "inputs": [
        {
          "internalType": "address",
          "name": "_implementation",
          "type": "address"
        },
        {
          "internalType": "address",
          "name": "_treasury",
          "type": "address"
        },
        {
          "internalType": "uint256",
          "name": "_defaultK",
          "type": "uint256"
        },
        {
          "internalType": "address",
          "name": "_randomnessProvider",
          "type": "address"
        },
        {
          "internalType": "address",
          "name": "_trophyNFT",
          "type": "address"
        }
      ],
      "stateMutability": "nonpayable",
      "type": "constructor"
    },
    {
      "inputs": [],
      "name": "FailedDeployment",
      "type": "error"
    },
    {
      "inputs": [
        {
          "internalType": "uint256",
          "name": "balance",
          "type": "uint256"
        },
        {
          "internalType": "uint256",
          "name": "needed",
          "type": "uint256"
        }
      ],
      "name": "InsufficientBalance",
      "type": "error"
    },
    {
      "inputs": [],
      "name": "ReentrancyGuardReentrantCall",
      "type": "error"
    },
    {
      "anonymous": false,
      "inputs": [
        {
          "indexed": false,
          "internalType": "uint256",
          "name": "fee",
          "type": "uint256"
        }
      ],
      "name": "CreationFeeUpdated",
      "type": "event"
    },
    {
      "anonymous": false,
      "inputs": [
        {
          "indexed": false,
          "internalType": "uint256",
          "name": "k",
          "type": "uint256"
        }
      ],
      "name": "DefaultKUpdated",
      "type": "event"
    },
    {
      "anonymous": false,
      "inputs": [
        {
          "indexed": true,
          "internalType": "address",
          "name": "previousOwner",
          "type": "address"
        },
        {
          "indexed": true,
          "internalType": "address",
          "name": "newOwner",
          "type": "address"
        }
      ],
      "name": "OwnershipTransferStarted",
      "type": "event"
    },
    {
      "anonymous": false,
      "inputs": [
        {
          "indexed": true,
          "internalType": "address",
          "name": "previousOwner",
          "type": "address"
        },
        {
          "indexed": true,
          "internalType": "address",
          "name": "newOwner",
          "type": "address"
        }
      ],
      "name": "OwnershipTransferred",
      "type": "event"
    },
    {
      "anonymous": false,
      "inputs": [
        {
          "indexed": false,
          "internalType": "bool",
          "name": "isPublic",
          "type": "bool"
        }
      ],
      "name": "PublicCreationUpdated",
      "type": "event"
    },
    {
      "anonymous": false,
      "inputs": [
        {
          "indexed": true,
          "internalType": "address",
          "name": "provider",
          "type": "address"
        }
      ],
      "name": "RandomnessProviderUpdated",
      "type": "event"
    },
    {
      "anonymous": false,
      "inputs": [
        {
          "indexed": true,
          "internalType": "address",
          "name": "token",
          "type": "address"
        },
        {
          "indexed": true,
          "internalType": "address",
          "name": "creator",
          "type": "address"
        },
        {
          "indexed": true,
          "internalType": "uint256",
          "name": "index",
          "type": "uint256"
        },
        {
          "indexed": false,
          "internalType": "string",
          "name": "name",
          "type": "string"
        },
        {
          "indexed": false,
          "internalType": "string",
          "name": "symbol",
          "type": "string"
        },
        {
          "indexed": false,
          "internalType": "string",
          "name": "imageURI",
          "type": "string"
        },
        {
          "indexed": false,
          "internalType": "uint256",
          "name": "duration",
          "type": "uint256"
        },
        {
          "indexed": false,
          "internalType": "uint256",
          "name": "k",
          "type": "uint256"
        }
      ],
      "name": "TokenCreated",
      "type": "event"
    },
    {
      "anonymous": false,
      "inputs": [
        {
          "indexed": true,
          "internalType": "address",
          "name": "treasury",
          "type": "address"
        }
      ],
      "name": "TreasuryUpdated",
      "type": "event"
    },
    {
      "anonymous": false,
      "inputs": [
        {
          "indexed": true,
          "internalType": "address",
          "name": "trophy",
          "type": "address"
        }
      ],
      "name": "TrophyNFTUpdated",
      "type": "event"
    },
    {
      "inputs": [],
      "name": "DURATION_12H",
      "outputs": [
        {
          "internalType": "uint256",
          "name": "",
          "type": "uint256"
        }
      ],
      "stateMutability": "view",
      "type": "function"
    },
    {
      "inputs": [],
      "name": "DURATION_24H",
      "outputs": [
        {
          "internalType": "uint256",
          "name": "",
          "type": "uint256"
        }
      ],
      "stateMutability": "view",
      "type": "function"
    },
    {
      "inputs": [],
      "name": "DURATION_6H",
      "outputs": [
        {
          "internalType": "uint256",
          "name": "",
          "type": "uint256"
        }
      ],
      "stateMutability": "view",
      "type": "function"
    },
    {
      "inputs": [],
      "name": "acceptOwnership",
      "outputs": [],
      "stateMutability": "nonpayable",
      "type": "function"
    },
    {
      "inputs": [
        {
          "internalType": "uint256",
          "name": "",
          "type": "uint256"
        }
      ],
      "name": "allTokens",
      "outputs": [
        {
          "internalType": "address",
          "name": "",
          "type": "address"
        }
      ],
      "stateMutability": "view",
      "type": "function"
    },
    {
      "inputs": [
        {
          "internalType": "string",
          "name": "name",
          "type": "string"
        },
        {
          "internalType": "string",
          "name": "symbol",
          "type": "string"
        },
        {
          "internalType": "string",
          "name": "imageURI",
          "type": "string"
        },
        {
          "internalType": "uint256",
          "name": "duration",
          "type": "uint256"
        },
        {
          "internalType": "uint256",
          "name": "minInitialTokens",
          "type": "uint256"
        }
      ],
      "name": "createToken",
      "outputs": [
        {
          "internalType": "address",
          "name": "token",
          "type": "address"
        }
      ],
      "stateMutability": "payable",
      "type": "function"
    },
    {
      "inputs": [],
      "name": "creationFee",
      "outputs": [
        {
          "internalType": "uint256",
          "name": "",
          "type": "uint256"
        }
      ],
      "stateMutability": "view",
      "type": "function"
    },
    {
      "inputs": [],
      "name": "defaultK",
      "outputs": [
        {
          "internalType": "uint256",
          "name": "",
          "type": "uint256"
        }
      ],
      "stateMutability": "view",
      "type": "function"
    },
    {
      "inputs": [],
      "name": "defaultRandomnessProvider",
      "outputs": [
        {
          "internalType": "address",
          "name": "",
          "type": "address"
        }
      ],
      "stateMutability": "view",
      "type": "function"
    },
    {
      "inputs": [],
      "name": "defaultTrophyNFT",
      "outputs": [
        {
          "internalType": "address",
          "name": "",
          "type": "address"
        }
      ],
      "stateMutability": "view",
      "type": "function"
    },
    {
      "inputs": [],
      "name": "getAllTokens",
      "outputs": [
        {
          "internalType": "address[]",
          "name": "",
          "type": "address[]"
        }
      ],
      "stateMutability": "view",
      "type": "function"
    },
    {
      "inputs": [
        {
          "internalType": "address",
          "name": "creator",
          "type": "address"
        }
      ],
      "name": "getTokensByCreator",
      "outputs": [
        {
          "internalType": "address[]",
          "name": "",
          "type": "address[]"
        }
      ],
      "stateMutability": "view",
      "type": "function"
    },
    {
      "inputs": [
        {
          "internalType": "address",
          "name": "",
          "type": "address"
        }
      ],
      "name": "isToken",
      "outputs": [
        {
          "internalType": "bool",
          "name": "",
          "type": "bool"
        }
      ],
      "stateMutability": "view",
      "type": "function"
    },
    {
      "inputs": [],
      "name": "owner",
      "outputs": [
        {
          "internalType": "address",
          "name": "",
          "type": "address"
        }
      ],
      "stateMutability": "view",
      "type": "function"
    },
    {
      "inputs": [],
      "name": "pendingOwner",
      "outputs": [
        {
          "internalType": "address",
          "name": "",
          "type": "address"
        }
      ],
      "stateMutability": "view",
      "type": "function"
    },
    {
      "inputs": [],
      "name": "publicCreation",
      "outputs": [
        {
          "internalType": "bool",
          "name": "",
          "type": "bool"
        }
      ],
      "stateMutability": "view",
      "type": "function"
    },
    {
      "inputs": [],
      "name": "renounceOwnership",
      "outputs": [],
      "stateMutability": "nonpayable",
      "type": "function"
    },
    {
      "inputs": [
        {
          "internalType": "uint256",
          "name": "_fee",
          "type": "uint256"
        }
      ],
      "name": "setCreationFee",
      "outputs": [],
      "stateMutability": "nonpayable",
      "type": "function"
    },
    {
      "inputs": [
        {
          "internalType": "uint256",
          "name": "_k",
          "type": "uint256"
        }
      ],
      "name": "setDefaultK",
      "outputs": [],
      "stateMutability": "nonpayable",
      "type": "function"
    },
    {
      "inputs": [
        {
          "internalType": "bool",
          "name": "_public",
          "type": "bool"
        }
      ],
      "name": "setPublicCreation",
      "outputs": [],
      "stateMutability": "nonpayable",
      "type": "function"
    },
    {
      "inputs": [
        {
          "internalType": "address",
          "name": "_provider",
          "type": "address"
        }
      ],
      "name": "setRandomnessProvider",
      "outputs": [],
      "stateMutability": "nonpayable",
      "type": "function"
    },
    {
      "inputs": [
        {
          "internalType": "address",
          "name": "_treasury",
          "type": "address"
        }
      ],
      "name": "setTreasury",
      "outputs": [],
      "stateMutability": "nonpayable",
      "type": "function"
    },
    {
      "inputs": [
        {
          "internalType": "address",
          "name": "_trophy",
          "type": "address"
        }
      ],
      "name": "setTrophyNFT",
      "outputs": [],
      "stateMutability": "nonpayable",
      "type": "function"
    },
    {
      "inputs": [],
      "name": "tokenCount",
      "outputs": [
        {
          "internalType": "uint256",
          "name": "",
          "type": "uint256"
        }
      ],
      "stateMutability": "view",
      "type": "function"
    },
    {
      "inputs": [],
      "name": "tokenImplementation",
      "outputs": [
        {
          "internalType": "address",
          "name": "",
          "type": "address"
        }
      ],
      "stateMutability": "view",
      "type": "function"
    },
    {
      "inputs": [
        {
          "internalType": "address",
          "name": "",
          "type": "address"
        },
        {
          "internalType": "uint256",
          "name": "",
          "type": "uint256"
        }
      ],
      "name": "tokensByCreator",
      "outputs": [
        {
          "internalType": "address",
          "name": "",
          "type": "address"
        }
      ],
      "stateMutability": "view",
      "type": "function"
    },
    {
      "inputs": [
        {
          "internalType": "uint256",
          "name": "offset",
          "type": "uint256"
        },
        {
          "internalType": "uint256",
          "name": "limit",
          "type": "uint256"
        }
      ],
      "name": "tokensSlice",
      "outputs": [
        {
          "internalType": "address[]",
          "name": "page",
          "type": "address[]"
        }
      ],
      "stateMutability": "view",
      "type": "function"
    },
    {
      "inputs": [
        {
          "internalType": "address",
          "name": "newOwner",
          "type": "address"
        }
      ],
      "name": "transferOwnership",
      "outputs": [],
      "stateMutability": "nonpayable",
      "type": "function"
    },
    {
      "inputs": [],
      "name": "treasury",
      "outputs": [
        {
          "internalType": "address",
          "name": "",
          "type": "address"
        }
      ],
      "stateMutability": "view",
      "type": "function"
    }
  ],
  "bytecode": "0x60a03461031757601f6115f638819003918201601f19168301916001600160401b0383118484101761031b5780849260a094604052833981010312610317576100478161032f565b906100546020820161032f565b6040820151610071608061006a6060860161032f565b940161032f565b60017f9b779b17422d0df92223018b32b4d1fa46e071723d6817e2486d003becc55f0055916001600160a01b038516156102e3576001600160a01b03169283156102ab57811561027a576001600160a01b0316918215610240576080949094525f8054336001600160a01b03199182168117835560028054831687179055600384905560048054831686179055600580546001600160a01b03909816979092168717909155678ac7230489e800006006556007805460ff191690556040517f88a973fd5506071e0cf878b30898776c47d5250a7ee1e6ee0b36df3b03c7c16a9660209690947fb1332e47adb7d8b6440f3e1da6d70300ce7b75b2f81645696ba96310a1182eb1948894919291907f8be0079c531659141344cd1fd0a4f28419497f9722a3daafe3b4186f6b6457e08180a37f7dae230f18360d76a040c81f050aa14eb9d6dc7901b20fc5d855e2a20fe814d15f80a28152a1604051917f87b050f471f7331bfd8fc9347cd54894f2ae6663e3339e49ca0d8b2dbe792eb25f80a27f2137e299a96c90407cc604a0ed9fa59ed10356c86a526549295a123fb59f0ed25f80a2678ac7230489e800008152a16040516112b29081610344823960805181818161057a0152610ef80152f35b60405162461bcd60e51b8152602060048201526012602482015271496e76616c69642072616e646f6d6e65737360701b6044820152606490fd5b60405162461bcd60e51b8152602060048201526009602482015268496e76616c6964206b60b81b6044820152606490fd5b60405162461bcd60e51b815260206004820152601060248201526f496e76616c696420747265617375727960801b6044820152606490fd5b60405162461bcd60e51b815260206004820152600c60248201526b125b9d985b1a59081a5b5c1b60a21b6044820152606490fd5b5f80fd5b634e487b7160e01b5f52604160045260245ffd5b51906001600160a01b03821682036103175756fe6080806040526004361015610012575f80fd5b5f905f3560e01c9081630932df8114611009575080630d92bb4414610fe157806319f3736114610fa45780632a5c792a14610f275780632f3a3d5d14610ee3578063328be8d314610ebb5780634e98b3ee14610e2b57806357ee933414610e0f5780635d8cc80814610df25780635ff67b1b14610dd057806361d027b314610da857806361e298d814610d86578063634282af14610d5d5780636973c9eb14610ceb578063715018a614610c7257806379ba509714610bc85780638da5cb5b14610ba15780639f181b5e14610b84578063b15fbc1414610ad8578063b7d8622514610a80578063bdaf068c1461044a578063c451bc95146103d6578063d5c712751461034b578063d80d03a2146102ea578063dce0b4e4146102cc578063e30c3978146102a3578063e69cb77c14610285578063f0f44260146101d75763f2fde38b1461015d575f80fd5b346101d45760203660031901126101d457610176611023565b81546001600160a01b03169061018d33831461110c565b600180546001600160a01b0319166001600160a01b03929092169182179055907f38d16b8cac22d99fc7c124b9cd0de2d3fa1faef420bfe791d8c362d765e227008380a380f35b80fd5b50346101d45760203660031901126101d4576101f1611023565b61020560018060a01b03835416331461110c565b6001600160a01b0316801561024d57600280546001600160a01b031916821790557f7dae230f18360d76a040c81f050aa14eb9d6dc7901b20fc5d855e2a20fe814d18280a280f35b60405162461bcd60e51b815260206004820152601060248201526f496e76616c696420747265617375727960801b6044820152606490fd5b50346101d457806003193601126101d4576020600354604051908152f35b50346101d457806003193601126101d4576001546040516001600160a01b039091168152602090f35b50346101d457806003193601126101d4576020600654604051908152f35b50346101d45760403660031901126101d457610304611023565b6001600160a01b03168152600a60205260408120805460243592908310156101d457602061033284846110a7565b905460405160039290921b1c6001600160a01b03168152f35b50346101d45760203660031901126101d4576001600160a01b0361036d611023565b168152600a60205260408120604051918260208354918281520192825260208220915b8181106103b7576103b3856103a7818703826110ea565b60405191829182611039565b0390f35b82546001600160a01b0316845260209093019260019283019201610390565b50346101d45760203660031901126101d4576004358015158091036104465760207f6f92219e5982e77ff9df253e055b5c35ae66d7d30004f4442cf956b99bcc9bcd9161042d60018060a01b03855416331461110c565b60ff196007541660ff821617600755604051908152a180f35b5080fd5b5060a03660031901126108745760043567ffffffffffffffff8111610874576104779036906004016110bc565b9160243567ffffffffffffffff8111610874576104989036906004016110bc565b9260443567ffffffffffffffff8111610874576104b99036906004016110bc565b6064359360027f9b779b17422d0df92223018b32b4d1fa46e071723d6817e2486d003becc55f005414610a715760027f9b779b17422d0df92223018b32b4d1fa46e071723d6817e2486d003becc55f005560ff6007541615610a25575b61546085148015610a1a575b8015610a0e575b156109d6576006548034106109915788151580610986575b15610956578715158061094b575b156109195761020083116108e557610567903461117d565b966e5af43d82803e903d91602b57fd5bf37f0000000000000000000000000000000000000000000000000000000000000000763d602d80600a3d3981f3363d3d373d3d3d363d7300000062ffffff8260881c16175f5260781b1760205260018060a01b03603760095ff0169788156108d6575f80808060018060a01b0360025416600654905af13d156108d1573d67ffffffffffffffff81116108bd576040519061061c601f8201601f1916602001836110ea565b81525f60203d92013e5b15610878576003546002546004546005546001600160a01b0391821694908216929091168c3b15610874578d8b87948f96978d948b998e8e6040519c8d9b8c9a8b9a631145e75160e31b8c523360048d015260248c0161014090526101448c01906106909261125c565b906003198b83030160448c01526106a69261125c565b906003198983030160648a01526106bc9261125c565b94608487015260a486015260c485015260e484015261010483015260843561012483015203915a945f95f1801561086957610854575b506008549687600160401b81101561084057806001610716920160085560086110a7565b81549060031b908b821b9160018060a01b03901b1916179055888152600960205260408120600160ff19825416179055338152600a60205260408120805491600160401b83101561082c5750936107e18a97946107ef946107a28560209f9960017fc3d0ad7f6670720d4faacb5955ce491e3e719b91621beb92e4e558d31b630cb89c980181556110a7565b81549060031b908c821b9160018060a01b03901b19161790556107d4600354976040519960a08b5260a08b019161125c565b918883038f8a015261125c565b91858303604087015261125c565b94606083015260808201528033940390a460017f9b779b17422d0df92223018b32b4d1fa46e071723d6817e2486d003becc55f0055604051908152f35b634e487b7160e01b81526041600452602490fd5b634e487b7160e01b82526041600452602482fd5b6108619197505f906110ea565b5f955f6106f2565b6040513d5f823e3d90fd5b5f80fd5b60405162461bcd60e51b815260206004820152601860248201527f5472656173757279207472616e73666572206661696c656400000000000000006044820152606490fd5b634e487b7160e01b5f52604160045260245ffd5b610626565b63b06ebf3d60e01b5f5260045ffd5b60405162461bcd60e51b815260206004820152600c60248201526b42616420696d61676555524960a01b6044820152606490fd5b60405162461bcd60e51b815260206004820152600a602482015269109859081cde5b589bdb60b21b6044820152606490fd5b50601088111561054f565b60405162461bcd60e51b8152602060048201526008602482015267426164206e616d6560c01b6044820152606490fd5b506040891115610541565b60405162461bcd60e51b815260206004820152601960248201527f496e73756666696369656e74206372656174696f6e20666565000000000000006044820152606490fd5b60405162461bcd60e51b815260206004820152601060248201526f24b73b30b634b210323ab930ba34b7b760811b6044820152606490fd5b50620151808514610529565b5061a8c08514610522565b5f546001600160a01b031633146105165760405162461bcd60e51b81526020600482015260136024820152724372656174696f6e206e6f74207075626c696360681b6044820152606490fd5b633ee5aeb560e01b5f5260045ffd5b34610874576020366003190112610874577f88a973fd5506071e0cf878b30898776c47d5250a7ee1e6ee0b36df3b03c7c16a6020600435610acb60018060a01b035f5416331461110c565b80600655604051908152a1005b3461087457602036600319011261087457610af1611023565b610b0560018060a01b035f5416331461110c565b6001600160a01b03168015610b4c57600480546001600160a01b031916821790557f87b050f471f7331bfd8fc9347cd54894f2ae6663e3339e49ca0d8b2dbe792eb25f80a2005b60405162461bcd60e51b815260206004820152601060248201526f24b73b30b634b210383937bb34b232b960811b6044820152606490fd5b34610874575f366003190112610874576020600854604051908152f35b34610874575f366003190112610874575f546040516001600160a01b039091168152602090f35b34610874575f366003190112610874576001546001600160a01b0381169033829003610c39575f80546001600160a01b0319808216851783559092166001556001600160a01b03909116907f8be0079c531659141344cd1fd0a4f28419497f9722a3daafe3b4186f6b6457e09080a3005b60405162461bcd60e51b81526020600482015260116024820152702737ba103832b73234b7339037bbb732b960791b6044820152606490fd5b34610874575f366003190112610874575f80546001600160a01b03811690610c9b33831461110c565b6bffffffffffffffffffffffff60a01b1682556bffffffffffffffffffffffff60a01b600154166001557f8be0079c531659141344cd1fd0a4f28419497f9722a3daafe3b4186f6b6457e08280a3005b3461087457602036600319011261087457610d04611023565b610d1860018060a01b035f5416331461110c565b600580546001600160a01b0319166001600160a01b039290921691821790557f2137e299a96c90407cc604a0ed9fa59ed10356c86a526549295a123fb59f0ed25f80a2005b34610874576020366003190112610874576004356008548110156108745761033260209161107b565b34610874576040366003190112610874576103b36103a760243560043561118a565b34610874575f366003190112610874576002546040516001600160a01b039091168152602090f35b34610874575f36600319011261087457602060ff600754166040519015158152f35b34610874575f366003190112610874576020604051620151808152f35b34610874575f3660031901126108745760206040516154608152f35b3461087457602036600319011261087457600435610e5360018060a01b035f5416331461110c565b8015610e8a576020817fb1332e47adb7d8b6440f3e1da6d70300ce7b75b2f81645696ba96310a1182eb192600355604051908152a1005b60405162461bcd60e51b8152602060048201526009602482015268496e76616c6964206b60b81b6044820152606490fd5b34610874575f366003190112610874576004546040516001600160a01b039091168152602090f35b34610874575f366003190112610874576040517f00000000000000000000000000000000000000000000000000000000000000006001600160a01b03168152602090f35b34610874575f3660031901126108745760405180602060085491828152019060085f527ff3f7a9fe364faab93b216da50a3214154f22a0a2b415b23a84c8169e8b636ee3905f5b818110610f85576103b3856103a7818703826110ea565b82546001600160a01b0316845260209093019260019283019201610f6e565b34610874576020366003190112610874576001600160a01b03610fc5611023565b165f526009602052602060ff60405f2054166040519015158152f35b34610874575f366003190112610874576005546040516001600160a01b039091168152602090f35b34610874575f366003190112610874578061a8c060209252f35b600435906001600160a01b038216820361087457565b60206040818301928281528451809452019201905f5b81811061105c5750505090565b82516001600160a01b031684526020938401939092019160010161104f565b6008548110156110935760085f5260205f2001905f90565b634e487b7160e01b5f52603260045260245ffd5b8054821015611093575f5260205f2001905f90565b9181601f840112156108745782359167ffffffffffffffff8311610874576020838186019501011161087457565b90601f8019910116810190811067ffffffffffffffff8211176108bd57604052565b1561111357565b60405162461bcd60e51b81526020600482015260096024820152682737ba1037bbb732b960b91b6044820152606490fd5b67ffffffffffffffff81116108bd5760051b60200190565b9190820180921161116957565b634e487b7160e01b5f52601160045260245ffd5b9190820391821161116957565b91906008549081841015611240576111b6916111a785928361115c565b90808211611238575b5061117d565b916111c083611144565b926111ce60405194856110ea565b8084526111dd601f1991611144565b01366020850137825f5b8451811015611232576112026111fd828561115c565b61107b565b9054865160039290921b1c6001600160a01b031691908110156110935760019160208260051b88010152016111e7565b50925050565b90505f6111b0565b505090506040516112526020826110ea565b5f81525f36813790565b908060209392818452848401375f828201840152601f01601f191601019056fea2646970667358221220865f31ddd1fdfa33cba1892ae2e1a56278f667fc25d6b9bc426e7bcd920268ab64736f6c634300081c0033",
  "linkReferences": {},
  "deployedLinkReferences": {}
}