{
  "_format": "hh-sol-artifact-1",
  "contractName": "ClacTrophyNFT",
  "sourceName": "contracts/v2/ClacTrophyNFT.sol",
  "abi": [
    {
      "inputs": [
        {
          "internalType": "address",
          "name": "_factory",
          "type": "address"
        }
      ],
      "stateMutability": "nonpayable",
      "type": "constructor"
    },
    {
      "inputs": [
        {
          "internalType": "address",
          "name": "sender",
          "type": "address"
        },
        {
          "internalType": "uint256",
          "name": "tokenId",
          "type": "uint256"
        },
        {
          "internalType": "address",
          "name": "owner",
          "type": "address"
        }
      ],
      "name": "ERC721IncorrectOwner",
      "type": "error"
    },
    {
      "inputs": [
        {
          "internalType": "address",
          "name": "operator",
          "type": "address"
        },
        {
          "internalType": "uint256",
          "name": "tokenId",
          "type": "uint256"
        }
      ],
      "name": "ERC721InsufficientApproval",
      "type": "error"
    },
    {
      "inputs": [
        {
          "internalType": "address",
          "name": "approver",
          "type": "address"
        }
      ],
      "name": "ERC721InvalidApprover",
      "type": "error"
    },
    {
      "inputs": [
        {
          "internalType": "address",
          "name": "operator",
          "type": "address"
        }
      ],
      "name": "ERC721InvalidOperator",
      "type": "error"
    },
    {
      "inputs": [
        {
          "internalType": "address",
          "name": "owner",
          "type": "address"
        }
      ],
      "name": "ERC721InvalidOwner",
      "type": "error"
    },
    {
      "inputs": [
        {
          "internalType": "address",
          "name": "receiver",
          "type": "address"
        }
      ],
      "name": "ERC721InvalidReceiver",
      "type": "error"
    },
    {
      "inputs": [
        {
          "internalType": "address",
          "name": "sender",
          "type": "address"
        }
      ],
      "name": "ERC721InvalidSender",
      "type": "error"
    },
    {
      "inputs": [
        {
          "internalType": "uint256",
          "name": "tokenId",
          "type": "uint256"
        }
      ],
      "name": "ERC721NonexistentToken",
      "type": "error"
    },
    {
      "inputs": [
        {
          "internalType": "uint256",
          "name": "value",
          "type": "uint256"
        },
        {
          "internalType": "uint256",
          "name": "length",
          "type": "uint256"
        }
      ],
      "name": "StringsInsufficientHexLength",
      "type": "error"
    },
    {
      "anonymous": false,
      "inputs": [
        {
          "indexed": true,
          "internalType": "address",
          "name": "owner",
          "type": "address"
        },
        {
          "indexed": true,
          "internalType": "address",
          "name": "approved",
          "type": "address"
        },
        {
          "indexed": true,
          "internalType": "uint256",
          "name": "tokenId",
          "type": "uint256"
        }
      ],
      "name": "Approval",
      "type": "event"
    },
    {
      "anonymous": false,
      "inputs": [
        {
          "indexed": true,
          "internalType": "address",
          "name": "owner",
          "type": "address"
        },
        {
          "indexed": true,
          "internalType": "address",
          "name": "operator",
          "type": "address"
        },
        {
          "indexed": false,
          "internalType": "bool",
          "name": "approved",
          "type": "bool"
        }
      ],
      "name": "ApprovalForAll",
      "type": "event"
    },
    {
      "anonymous": false,
      "inputs": [
        {
          "indexed": true,
          "internalType": "address",
          "name": "from",
          "type": "address"
        },
        {
          "indexed": true,
          "internalType": "address",
          "name": "to",
          "type": "address"
        },
        {
          "indexed": true,
          "internalType": "uint256",
          "name": "tokenId",
          "type": "uint256"
        }
      ],
      "name": "Transfer",
      "type": "event"
    },
    {
      "anonymous": false,
      "inputs": [
        {
          "indexed": true,
          "internalType": "uint256",
          "name": "nftId",
          "type": "uint256"
        },
        {
          "indexed": true,
          "internalType": "address",
          "name": "holder",
          "type": "address"
        },
        {
          "indexed": true,
          "internalType": "address",
          "name": "token",
          "type": "address"
        },
        {
          "indexed": false,
          "internalType": "uint256",
          "name": "claimedAmount",
          "type": "uint256"
        },
        {
          "indexed": false,
          "internalType": "bool",
          "name": "wasLotteryWinner",
          "type": "bool"
        }
      ],
      "name": "TrophyMinted",
      "type": "event"
    },
    {
      "inputs": [
        {
          "internalType": "address",
          "name": "to",
          "type": "address"
        },
        {
          "internalType": "uint256",
          "name": "tokenId",
          "type": "uint256"
        }
      ],
      "name": "approve",
      "outputs": [],
      "stateMutability": "nonpayable",
      "type": "function"
    },
    {
      "inputs": [
        {
          "internalType": "address",
          "name": "owner",
          "type": "address"
        }
      ],
      "name": "balanceOf",
      "outputs": [
        {
          "internalType": "uint256",
          "name": "",
          "type": "uint256"
        }
      ],
      "stateMutability": "view",
      "type": "function"
    },
    {
      "inputs": [],
      "name": "factory",
      "outputs": [
        {
          "internalType": "address",
          "name": "",
          "type": "address"
        }
      ],
      "stateMutability": "view",
      "type": "function"
    },
    {
      "inputs": [
        {
          "internalType": "uint256",
          "name": "tokenId",
          "type": "uint256"
        }
      ],
      "name": "getApproved",
      "outputs": [
        {
          "internalType": "address",
          "name": "",
          "type": "address"
        }
      ],
      "stateMutability": "view",
      "type": "function"
    },
    {
      "inputs": [
        {
          "internalType": "address",
          "name": "owner",
          "type": "address"
        },
        {
          "internalType": "address",
          "name": "operator",
          "type": "address"
        }
      ],
      "name": "isApprovedForAll",
      "outputs": [
        {
          "internalType": "bool",
          "name": "",
          "type": "bool"
        }
      ],
      "stateMutability": "view",
      "type": "function"
    },
    {
      "inputs": [
        {
          "internalType": "address",
          "name": "to",
          "type": "address"
        },
        {
          "internalType": "address",
          "name": "token",
          "type": "address"
        },
        {
          "internalType": "uint256",
          "name": "finalBalance",
          "type": "uint256"
        },
        {
          "internalType": "uint256",
          "name": "claimedAmount",
          "type": "uint256"
        },
        {
          "internalType": "bool",
          "name": "wasLotteryWinner",
          "type": "bool"
        }
      ],
      "name": "mint",
      "outputs": [
        {
          "internalType": "uint256",
          "name": "nftId",
          "type": "uint256"
        }
      ],
      "stateMutability": "nonpayable",
      "type": "function"
    },
    {
      "inputs": [],
      "name": "name",
      "outputs": [
        {
          "internalType": "string",
          "name": "",
          "type": "string"
        }
      ],
      "stateMutability": "view",
      "type": "function"
    },
    {
      "inputs": [],
      "name": "nextTokenId",
      "outputs": [
        {
          "internalType": "uint256",
          "name": "",
          "type": "uint256"
        }
      ],
      "stateMutability": "view",
      "type": "function"
    },
    {
      "inputs": [
        {
          "internalType": "uint256",
          "name": "tokenId",
          "type": "uint256"
        }
      ],
      "name": "ownerOf",
      "outputs": [
        {
          "internalType": "address",
          "name": "",
          "type": "address"
        }
      ],
      "stateMutability": "view",
      "type": "function"
    },
    {
      "inputs": [
        {
          "internalType": "address",
          "name": "from",
          "type": "address"
        },
        {
          "internalType": "address",
          "name": "to",
          "type": "address"
        },
        {
          "internalType": "uint256",
          "name": "tokenId",
          "type": "uint256"
        }
      ],
      "name": "safeTransferFrom",
      "outputs": [],
      "stateMutability": "nonpayable",
      "type": "function"
    },
    {
      "inputs": [
        {
          "internalType": "address",
          "name": "from",
          "type": "address"
        },
        {
          "internalType": "address",
          "name": "to",
          "type": "address"
        },
        {
          "internalType": "uint256",
          "name": "tokenId",
          "type": "uint256"
        },
        {
          "internalType": "bytes",
          "name": "data",
          "type": "bytes"
        }
      ],
      "name": "safeTransferFrom",
      "outputs": [],
      "stateMutability": "nonpayable",
      "type": "function"
    },
    {
      "inputs": [
        {
          "internalType": "address",
          "name": "operator",
          "type": "address"
        },
        {
          "internalType": "bool",
          "name": "approved",
          "type": "bool"
        }
      ],
      "name": "setApprovalForAll",
      "outputs": [],
      "stateMutability": "nonpayable",
      "type": "function"
    },
    {
      "inputs": [
        {
          "internalType": "bytes4",
          "name": "interfaceId",
          "type": "bytes4"
        }
      ],
      "name": "supportsInterface",
      "outputs": [
        {
          "internalType": "bool",
          "name": "",
          "type": "bool"
        }
      ],
      "stateMutability": "view",
      "type": "function"
    },
    {
      "inputs": [],
      "name": "symbol",
      "outputs": [
        {
          "internalType": "string",
          "name": "",
          "type": "string"
        }
      ],
      "stateMutability": "view",
      "type": "function"
    },
    {
      "inputs": [
        {
          "internalType": "uint256",
          "name": "nftId",
          "type": "uint256"
        }
      ],
      "name": "tokenURI",
      "outputs": [
        {
          "internalType": "string",
          "name": "",
          "type": "string"
        }
      ],
      "stateMutability": "view",
      "type": "function"
    },
    {
      "inputs": [
        {
          "internalType": "address",
          "name": "from",
          "type": "address"
        },
        {
          "internalType": "address",
          "name": "to",
          "type": "address"
        },
        {
          "internalType": "uint256",
          "name": "tokenId",
          "type": "uint256"
        }
      ],
      "name": "transferFrom",
      "outputs": [],
      "stateMutability": "nonpayable",
      "type": "function"
    },
    {
      "inputs": [
        {
          "internalType": "uint256",
          "name": "",
          "type": "uint256"
        }
      ],
      "name": "trophies",
      "outputs": [
        {
          "internalType": "address",
          "name": "token",
          "type": "address"
        },
        {
          "internalType": "uint256",
          "name": "finalBalance",
          "type": "uint256"
        },
        {
          "internalType": "uint256",
          "name": "claimedAmount",
          "type": "uint256"
        },
        {
          "internalType": "bool",
          "name": "wasLotteryWinner",
          "type": "bool"
        },
        {
          "internalType": "uint256",
          "name": "mintedAt",
          "type": "uint256"
        }
      ],
      "stateMutability": "view",
      "type": "function"
    }
  ],
  "bytecode": "0x60a06040523461037d57611af96020813803918261001c81610381565b93849283398101031261037d57516001600160a01b03811680820361037d576100456040610381565b91600f83526e636c61632e66756e2054726f70687960881b602084015261006c6040610381565b600581526410d31050d560da1b602082015283519092906001600160401b038111610291575f54600181811c91168015610373575b602082101461027357601f8111610311575b50602094601f82116001146102b0579481929394955f926102a5575b50508160011b915f199060031b1c1916175f555b82516001600160401b03811161029157600154600181811c91168015610287575b602082101461027357601f8111610210575b506020601f82116001146101ad57819293945f926101a2575b50508160011b915f199060031b1c1916176001555b1561016b5760805260405161175290816103a782396080518181816105f001526109c90152f35b60405162461bcd60e51b815260206004820152600f60248201526e496e76616c696420666163746f727960881b6044820152606490fd5b015190505f8061012f565b601f1982169060015f52805f20915f5b8181106101f8575095836001959697106101e0575b505050811b01600155610144565b01515f1960f88460031b161c191690555f80806101d2565b9192602060018192868b0151815501940192016101bd565b60015f527fb10e2d527612073b26eecdfd717e6a320cf44b4afac2b0732d9fcbe2b7fa0cf6601f830160051c81019160208410610269575b601f0160051c01905b81811061025e5750610116565b5f8155600101610251565b9091508190610248565b634e487b7160e01b5f52602260045260245ffd5b90607f1690610104565b634e487b7160e01b5f52604160045260245ffd5b015190505f806100cf565b601f198216955f8052805f20915f5b8881106102f9575083600195969798106102e1575b505050811b015f556100e3565b01515f1960f88460031b161c191690555f80806102d4565b919260206001819286850151815501940192016102bf565b5f80527f290decd9548b62a8d60345a988386fc84ba6bc95484008f6362f93160ef3e563601f830160051c81019160208410610369575b601f0160051c01905b81811061035e57506100b3565b5f8155600101610351565b9091508190610348565b90607f16906100a1565b5f80fd5b6040519190601f01601f191682016001600160401b038111838210176102915760405256fe6080806040526004361015610012575f80fd5b5f3560e01c90816301ffc9a7146110125750806306fdde0314610f5a578063081812fc14610f1e578063095ea7b314610e3457806323b872dd14610e1d57806342842e0e14610dee57806345fdd6911461097a5780636352211e1461094a57806370a08231146108f957806375794a3c146108dc57806395d89b41146107d4578063a06bb50f14610772578063a22cb465146106b5578063b88d4fde1461061f578063c45a0155146105db578063c87b56dd146101325763e985e9c5146100d7575f80fd5b3461012e57604036600319011261012e576100f06110a1565b6100f86110b7565b9060018060a01b03165f52600560205260405f209060018060a01b03165f52602052602060ff60405f2054166040519015158152f35b5f80fd5b3461012e57602036600319011261012e5760043561014f81611310565b50805f52600760205260405f206040519061016982611107565b60018060a01b03815416825260018101549260208301938452600282015491604084019283526101b5600460ff600384015416926060870193151584520154926080860193845261147a565b9351604051956001600160a01b039091169390846101d4606089611137565b602a8852602088019560403688378851156105c757603087538851600110156105c757607860218a015360295b6001811161056d5750610556575061021c610223915161147a565b915161147a565b91511561053057604051610238604082611137565b60048152637472756560e01b6020820152925b516102559061147a565b93604051968796602088017f7b226e616d65223a22636c61632e66756e2054726f7068792023000000000000905280516020819201603a8a015e7f222c226465736372697074696f6e223a22436f6d6d656d6f7261746976652074603a918901918201527f726f70687920666f7220737572766976696e67206120636c61632e66756e2074605a8201526f1a5b5959081b595b5958dbda5b8b888b60821b607a8201526d2261747472696275746573223a5b60901b608a8201527f7b2274726169745f74797065223a22546f6b656e222c2276616c7565223a22006098820152905191829060b783015e01603a0162089f4b60ea1b607d820152608081017f7b2274726169745f74797065223a2246696e616c2042616c616e6365222c227690526630b63ab2911d1160c91b60a08201528151602081930160a783015e01607d0162089f4b60ea1b602a820152602d81017f7b2274726169745f74797065223a22436c61696d6564202877656929222c227690526630b63ab2911d1160c91b604d82015281516020819301605483015e01602a0162089f4b60ea1b602a820152602d81017f7b2274726169745f74797065223a224c6f74746572792057696e6e6572222c229052673b30b63ab2911d1160c11b604d82015281516020819301605583015e01602a0162089f4b60ea1b602b820152602e81017f7b2274726169745f74797065223a224d696e746564204174222c2276616c7565905262111d1160e91b604e82015281516020819301605183015e61227d60f01b91016051810191909152615d7d60f01b6053820152036035810182526104b79060550182611137565b6104c0906115e7565b6040518091602082017f646174613a6170706c69636174696f6e2f6a736f6e3b6261736536342c000000905280516020819201603d84015e8101603d81015f905203603d01601f19810182526105169082611137565b6040518091602082526020820161052c9161107d565b0390f35b60405161053e604082611137565b600581526466616c736560d81b60208201529261024b565b63e22e27eb60e01b5f52600452601460245260445ffd5b90600f811660108110156105c7578a518310156105c7576f181899199a1a9b1b9c1cb0b131b232b360811b901a8a83016020015360041c9080156105b3575f1901610201565b634e487b7160e01b5f52601160045260245ffd5b634e487b7160e01b5f52603260045260245ffd5b3461012e575f36600319011261012e576040517f00000000000000000000000000000000000000000000000000000000000000006001600160a01b03168152602090f35b3461012e57608036600319011261012e576106386110a1565b6106406110b7565b906044356064359267ffffffffffffffff841161012e573660238501121561012e5783600401359261067184611159565b9361067f6040519586611137565b808552366024828801011161012e576020815f9260246106b3990183890137860101526106ad838383611175565b33611344565b005b3461012e57604036600319011261012e576106ce6110a1565b602435908115159081830361012e57331561075f576001600160a01b031691821561074c5761071e90335f52600560205260405f20845f5260205260405f209060ff801983541691151516179055565b6040519081527f17307eab39ab6107e8899845ad3d59bd9653f200f220920489ca2b5937696c3160203392a3005b82630b61174360e31b5f5260045260245ffd5b63a9fbf51f60e01b5f525f60045260245ffd5b3461012e57602036600319011261012e576004355f52600760205260a060405f20600180831b03815416906001810154906002810154600460ff6003840154169201549260405194855260208501526040840152151560608301526080820152f35b3461012e575f36600319011261012e576040515f6001548060011c906001811680156108d2575b6020831081146108be5782855290811561089a575060011461083c575b61052c8361082881850382611137565b60405191829160208352602083019061107d565b91905060015f527fb10e2d527612073b26eecdfd717e6a320cf44b4afac2b0732d9fcbe2b7fa0cf6915f905b80821061088057509091508101602001610828610818565b919260018160209254838588010152019101909291610868565b60ff191660208086019190915291151560051b840190910191506108289050610818565b634e487b7160e01b5f52602260045260245ffd5b91607f16916107fb565b3461012e575f36600319011261012e576020600654604051908152f35b3461012e57602036600319011261012e576001600160a01b0361091a6110a1565b168015610937575f526003602052602060405f2054604051908152f35b6322718ad960e21b5f525f60045260245ffd5b3461012e57602036600319011261012e576020610968600435611310565b6040516001600160a01b039091168152f35b3461012e5760a036600319011261012e576109936110a1565b61099b6110b7565b90606435916084359081151580920361012e576040516319f3736160e01b81523360048201526020816024817f00000000000000000000000000000000000000000000000000000000000000006001600160a01b03165afa908115610de3575f91610da8575b5015610d6a576001600160a01b031633819003610d34576001600160a01b038316938415610cff576006545f1981146105b3576001019283600655604051610a4881611107565b8381526004602082016044358152610ac560408401868152606085019086825260808601934285528a5f52600760205260405f209660018060a01b039060018060a01b03905116166001600160601b0360a01b885416178755516001870155516002860155511515600385019060ff801983541691151516179055565b51910155604051602095610ad98783611137565b5f8083528681526002885260409020546001600160a01b03168015159081610cce575b89610cb7575b875f526002895260405f208a6001600160601b0360a01b825416179055878a827fddf252ad1be2c89b69c2b068fc378daa952ba7f163c4a11628f55a4df523b3ef5f80a450610ca4573b610b8b575b507f34dd7ebe5f380a7b3798e7537e990323532ae53238edf65120d2a249186d5c1b604087938693825191825288820152a4604051908152f35b85610bc49160405180938192630a85bd0160e11b83523360048401525f602484015289604484015260806064840152608483019061107d565b03815f8b5af15f9181610c64575b50610c275786863d15610c1f573d90610bea82611159565b91610bf86040519384611137565b82523d5f8284013e5b81519182610c1c5783633250574960e11b5f5260045260245ffd5b01fd5b606090610c01565b949593949293926001600160e01b03191663757a42ff60e11b01610c515760409594939295610b51565b82633250574960e11b5f5260045260245ffd5b9091508681813d8311610c9d575b610c7c8183611137565b8101031261012e57516001600160e01b03198116810361012e579088610bd2565b503d610c72565b6339e3563760e11b5f525f60045260245ffd5b895f526003895260405f2060018154019055610b02565b5f8881526004602052604080822080546001600160a01b031916905582825260038b52902080545f19019055610afc565b60405162461bcd60e51b815260206004820152600d60248201526c109859081c9958da5c1a595b9d609a1b6044820152606490fd5b60405162461bcd60e51b815260206004820152600e60248201526d0a8ded6cadc40dad2e6dac2e8c6d60931b6044820152606490fd5b60405162461bcd60e51b81526020600482015260166024820152752737ba1030903932b3b4b9ba32b932b2103a37b5b2b760511b6044820152606490fd5b90506020813d602011610ddb575b81610dc360209383611137565b8101031261012e5751801515810361012e5785610a01565b3d9150610db6565b6040513d5f823e3d90fd5b3461012e576106b3610dff366110cd565b9060405192610e0f602085611137565b5f84526106ad838383611175565b3461012e576106b3610e2e366110cd565b91611175565b3461012e57604036600319011261012e57610e4d6110a1565b602435610e5981611310565b33151580610f0b575b80610ede575b610ecb5781906001600160a01b0384811691167f8c5be1e5ebec7d5bd14f71427d1e84f3dd0314c0f7b2291e5b200ac8c7c3b9255f80a45f90815260046020526040902080546001600160a01b0319166001600160a01b03909216919091179055005b63a9fbf51f60e01b5f523360045260245ffd5b506001600160a01b0381165f90815260056020908152604080832033845290915290205460ff1615610e68565b506001600160a01b038116331415610e62565b3461012e57602036600319011261012e57600435610f3b81611310565b505f526004602052602060018060a01b0360405f205416604051908152f35b3461012e575f36600319011261012e576040515f5f548060011c90600181168015611008575b6020831081146108be5782855290811561089a5750600114610fac5761052c8361082881850382611137565b5f8080527f290decd9548b62a8d60345a988386fc84ba6bc95484008f6362f93160ef3e563939250905b808210610fee57509091508101602001610828610818565b919260018160209254838588010152019101909291610fd6565b91607f1691610f80565b3461012e57602036600319011261012e576004359063ffffffff60e01b821680920361012e576020916380ac58cd60e01b811490811561106c575b811561105b575b5015158152f35b6301ffc9a760e01b14905083611054565b635b5e139f60e01b8114915061104d565b805180835260209291819084018484015e5f828201840152601f01601f1916010190565b600435906001600160a01b038216820361012e57565b602435906001600160a01b038216820361012e57565b606090600319011261012e576004356001600160a01b038116810361012e57906024356001600160a01b038116810361012e579060443590565b60a0810190811067ffffffffffffffff82111761112357604052565b634e487b7160e01b5f52604160045260245ffd5b90601f8019910116810190811067ffffffffffffffff82111761112357604052565b67ffffffffffffffff811161112357601f01601f191660200190565b6001600160a01b03909116919082156112fd575f828152600260205260409020546001600160a01b031692829033151580611268575b5084611235575b805f52600360205260405f2060018154019055815f52600260205260405f20816001600160601b0360a01b825416179055847fddf252ad1be2c89b69c2b068fc378daa952ba7f163c4a11628f55a4df523b3ef5f80a46001600160a01b031680830361121d57505050565b6364283d7b60e01b5f5260045260245260445260645ffd5b5f82815260046020526040902080546001600160a01b0319169055845f52600360205260405f205f1981540190556111b2565b909150806112ac575b1561127e5782905f6111ab565b828461129657637e27328960e01b5f5260045260245ffd5b63177e802f60e01b5f523360045260245260445ffd5b5033841480156112db575b8061127157505f838152600460205260409020546001600160a01b03163314611271565b505f84815260056020908152604080832033845290915290205460ff166112b7565b633250574960e11b5f525f60045260245ffd5b5f818152600260205260409020546001600160a01b0316908115611332575090565b637e27328960e01b5f5260045260245ffd5b823b611352575b5050505050565b604051630a85bd0160e11b81526001600160a01b03918216600482015291811660248301526044820193909352608060648201529116916020908290819061139e90608483019061107d565b03815f865af15f9181611435575b5061140157503d156113fa573d6113c281611159565b906113d06040519283611137565b81523d5f602083013e5b805190816113f55782633250574960e11b5f5260045260245ffd5b602001fd5b60606113da565b6001600160e01b03191663757a42ff60e11b0161142357505f8080808061134b565b633250574960e11b5f5260045260245ffd5b9091506020813d602011611472575b8161145160209383611137565b8101031261012e57516001600160e01b03198116810361012e57905f6113ac565b3d9150611444565b805f9172184f03e93ff9f4daa797ed6e38ed64bf6a1f0160401b8210156115c4575b806d04ee2d6d415b85acef8100000000600a9210156115a9575b662386f26fc10000811015611595575b6305f5e100811015611584575b612710811015611575575b6064811015611567575b101561155c575b600a6021600184019361150185611159565b9461150f6040519687611137565b80865261151e601f1991611159565b013660208701378401015b5f1901916f181899199a1a9b1b9c1cb0b131b232b360811b8282061a835304801561155757600a9091611529565b505090565b6001909101906114ef565b6064600291049301926114e8565b612710600491049301926114de565b6305f5e100600891049301926114d3565b662386f26fc10000601091049301926114c6565b6d04ee2d6d415b85acef8100000000602091049301926114b6565b506040915072184f03e93ff9f4daa797ed6e38ed64bf6a1f0160401b810461149c565b90815115611706578151600281018091116105b35760039004600281901b91906001600160fe1b038116036105b357604051917f4142434445464748494a4b4c4d4e4f505152535455565758595a616263646566601f527f6768696a6b6c6d6e6f707172737475767778797a303132333435363738392b2f603f52602083018480518101602081018051915f82525b8089106116ca57506020959697509060039291525106806001146116b5576002146116a8575b50808452830101604052565b603d905f1901535f61169c565b50603d90815f1982015360011901535f61169c565b939760036004910198603f8a51818160121c165183538181600c1c16516001840153818160061c16516002840153165160038201530193611676565b9050604051611716602082611137565b5f81529056fea26469706673582212202ada2df56f822ed7d037110ee5ecef6ccf69accb398f8d05ad8bc1496f9dffd564736f6c634300081c0033",
  "linkReferences": {},
  "deployedLinkReferences": {}
}