{
  "_format": "hh-sol-artifact-1",
  "contractName": "MockRandomnessProvider",
  "sourceName": "contracts/v2/randomness/MockRandomnessProvider.sol",
  "abi": [
    {
      "inputs": [
        {
          "internalType": "uint256",
          "name": "_fee",
          "type": "uint256"
        }
      ],
      "stateMutability": "nonpayable",
      "type": "constructor"
    },
    {
      "anonymous": false,
      "inputs": [
        {
          "indexed": false,
          "internalType": "uint64",
          "name": "sequence",
          "type": "uint64"
        },
        {
          "indexed": false,
          "internalType": "address",
          "name": "consumer",
          "type": "address"
        },
        {
          "indexed": false,
          "internalType": "bytes32",
          "name": "randomNumber",
          "type": "bytes32"
        }
      ],
      "name": "RandomnessFulfilled",
      "type": "event"
    },
    {
      "anonymous": false,
      "inputs": [
        {
          "indexed": false,
          "internalType": "uint64",
          "name": "sequence",
          "type": "uint64"
        },
        {
          "indexed": false,
          "internalType": "address",
          "name": "consumer",
          "type": "address"
        },
        {
          "indexed": false,
          "internalType": "bytes32",
          "name": "seed",
          "type": "bytes32"
        }
      ],
      "name": "RandomnessRequested",
      "type": "event"
    },
    {
      "inputs": [],
      "name": "fee",
      "outputs": [
        {
          "internalType": "uint256",
          "name": "",
          "type": "uint256"
        }
      ],
      "stateMutability": "view",
      "type": "function"
    },
    {
      "inputs": [],
      "name": "getFee",
      "outputs": [
        {
          "internalType": "uint256",
          "name": "",
          "type": "uint256"
        }
      ],
      "stateMutability": "view",
      "type": "function"
    },
    {
      "inputs": [
        {
          "internalType": "uint64",
          "name": "sequenceNumber",
          "type": "uint64"
        },
        {
          "internalType": "bytes32",
          "name": "randomNumber",
          "type": "bytes32"
        }
      ],
      "name": "manualFulfill",
      "outputs": [],
      "stateMutability": "nonpayable",
      "type": "function"
    },
    {
      "inputs": [],
      "name": "manualMode",
      "outputs": [
        {
          "internalType": "bool",
          "name": "",
          "type": "bool"
        }
      ],
      "stateMutability": "view",
      "type": "function"
    },
    {
      "inputs": [],
      "name": "nextSequence",
      "outputs": [
        {
          "internalType": "uint64",
          "name": "",
          "type": "uint64"
        }
      ],
      "stateMutability": "view",
      "type": "function"
    },
    {
      "inputs": [
        {
          "internalType": "address",
          "name": "consumer",
          "type": "address"
        },
        {
          "internalType": "bytes32",
          "name": "userSeed",
          "type": "bytes32"
        }
      ],
      "name": "requestRandomness",
      "outputs": [
        {
          "internalType": "uint64",
          "name": "sequenceNumber",
          "type": "uint64"
        }
      ],
      "stateMutability": "payable",
      "type": "function"
    },
    {
      "inputs": [
        {
          "internalType": "uint64",
          "name": "",
          "type": "uint64"
        }
      ],
      "name": "sequenceToConsumer",
      "outputs": [
        {
          "internalType": "address",
          "name": "",
          "type": "address"
        }
      ],
      "stateMutability": "view",
      "type": "function"
    },
    {
      "inputs": [
        {
          "internalType": "uint64",
          "name": "",
          "type": "uint64"
        }
      ],
      "name": "sequenceToSeed",
      "outputs": [
        {
          "internalType": "bytes32",
          "name": "",
          "type": "bytes32"
        }
      ],
      "stateMutability": "view",
      "type": "function"
    },
    {
      "inputs": [
        {
          "internalType": "uint256",
          "name": "_fee",
          "type": "uint256"
        }
      ],
      "name": "setFee",
      "outputs": [],
      "stateMutability": "nonpayable",
      "type": "function"
    },
    {
      "inputs": [
        {
          "internalType": "bool",
          "name": "_manual",
          "type": "bool"
        }
      ],
      "name": "setManualMode",
      "outputs": [],
      "stateMutability": "nonpayable",
      "type": "function"
    },
    {
      "stateMutability": "payable",
      "type": "receive"
    }
  ],
  "bytecode": "0x608034604d57601f6105fd38819003918201601f19168301916001600160401b03831184841017605157808492602094604052833981010312604d57515f5560405161059790816100668239f35b5f80fd5b634e487b7160e01b5f52604160045260245ffdfe608080604052600436101561001c575b50361561001a575f80fd5b005b5f3560e01c90816310c557f4146103ee575080632ce6e9ec146103c957806366c017a4146101ed57806369fe0e2d146101d557806382c8ff6d1461019d5780639951500514610117578063b9a51a8e146100f1578063c5af7121146100b6578063ced72f87146100965763ddca3f4314610096575f61000f565b346100b2575f3660031901126100b25760205f54604051908152f35b5f80fd5b346100b25760203660031901126100b2576004358015158091036100b25760ff60401b6001549160401b169060ff60401b1916176001555f80f35b346100b2575f3660031901126100b25760206001600160401b0360015416604051908152f35b346100b25760403660031901126100b25761013061042d565b6001600160401b0381165f908152600260205260409020546001600160a01b03169081156101655761001a9160243591610478565b60405162461bcd60e51b815260206004820152601060248201526f556e6b6e6f776e2073657175656e636560801b6044820152606490fd5b346100b25760203660031901126100b2576001600160401b036101be61042d565b165f526003602052602060405f2054604051908152f35b346100b25760203660031901126100b2576004355f55005b60403660031901126100b2576004356001600160a01b0381168082036100b257602435813303610384575f54341061034c57600154926001600160401b038416926001600160401b038414610338576020946001600160401b036001860116906001600160401b03191617600155835f526002855260405f20906bffffffffffffffffffffffff60a01b825416179055825f52600384528160405f20557f1131d9ae2061ca3703098c138bce47503515c216c3f3c4f6e94335a9c756db83604051806102dd858588846040919493926001600160401b03606083019616825260018060a01b031660208201520152565b0390a160ff60015460401c16156102f9575b5050604051908152f35b610331916040518581019182528460408201524260608201524460808201526080815261032760a082610443565b5190209083610478565b82806102ef565b634e487b7160e01b5f52601160045260245ffd5b60405162461bcd60e51b815260206004820152601060248201526f496e73756666696369656e742066656560801b6044820152606490fd5b60405162461bcd60e51b815260206004820152601960248201527f4f6e6c7920636f6e73756d65722063616e2072657175657374000000000000006044820152606490fd5b346100b2575f3660031901126100b257602060ff60015460401c166040519015158152f35b346100b25760203660031901126100b2576020906001600160401b0361041261042d565b165f9081526002835260409020546001600160a01b03168152f35b600435906001600160401b03821682036100b257565b90601f801991011681019081106001600160401b0382111761046457604052565b634e487b7160e01b5f52604160045260245ffd5b6001600160401b0381165f81815260026020908152604080832080546001600160a01b031916905560039091528120556001600160a01b0383169390843b156100b2575f94604486926040519788938492634131198960e11b845260048401528660248401525af1908115610556577fe7b8debec998fea54a6f87a3b8ffad0e11703dbe4b7a11e9d56fec53d1c66efa9461054192610546575b50604051938493846040919493926001600160401b03606083019616825260018060a01b031660208201520152565b0390a1565b5f61055091610443565b5f610512565b6040513d5f823e3d90fdfea2646970667358221220e7cb758abdacabaf7b44e0627af034ae3a51de5b95d75fe40bf83b3a4366b12364736f6c634300081c0033",
  "linkReferences": {},
  "deployedLinkReferences": {}
}