{
  "contracts/ClacFactory.sol": {
    "ClacFactory": {
      "abi": [
        {
          "inputs": [
            {
              "internalType": "address",
              "name": "_treasury",
              "type": "address"
            },
            {
              "internalType": "uint256",
              "name": "_k",
              "type": "uint256"
            }
          ],
          "stateMutability": "nonpayable",
          "type": "constructor"
        },
        {
          "inputs": [],
          "name": "ReentrancyGuardReentrantCall",
          "type": "error"
        },
        {
          "anonymous": false,
          "inputs": [
            {
              "indexed": true,
              "internalType": "uint256",
              "name": "tokenId",
              "type": "uint256"
            },
            {
              "indexed": true,
              "internalType": "address",
              "name": "holder",
              "type": "address"
            },
            {
              "indexed": false,
              "internalType": "uint256",
              "name": "amount",
              "type": "uint256"
            }
          ],
          "name": "Claimed",
          "type": "event"
        },
        {
          "anonymous": false,
          "inputs": [
            {
              "indexed": true,
              "internalType": "uint256",
              "name": "tokenId",
              "type": "uint256"
            },
            {
              "indexed": true,
              "internalType": "address",
              "name": "winner",
              "type": "address"
            },
            {
              "indexed": false,
              "internalType": "uint256",
              "name": "amount",
              "type": "uint256"
            }
          ],
          "name": "LotteryWin",
          "type": "event"
        },
        {
          "anonymous": false,
          "inputs": [
            {
              "indexed": true,
              "internalType": "uint256",
              "name": "tokenId",
              "type": "uint256"
            },
            {
              "indexed": false,
              "internalType": "uint256",
              "name": "poolRemaining",
              "type": "uint256"
            },
            {
              "indexed": false,
              "internalType": "address",
              "name": "triggeredBy",
              "type": "address"
            }
          ],
          "name": "TokenClacced",
          "type": "event"
        },
        {
          "anonymous": false,
          "inputs": [
            {
              "indexed": true,
              "internalType": "uint256",
              "name": "tokenId",
              "type": "uint256"
            },
            {
              "indexed": true,
              "internalType": "address",
              "name": "creator",
              "type": "address"
            },
            {
              "indexed": false,
              "internalType": "string",
              "name": "name",
              "type": "string"
            },
            {
              "indexed": false,
              "internalType": "string",
              "name": "symbol",
              "type": "string"
            },
            {
              "indexed": false,
              "internalType": "string",
              "name": "imageURI",
              "type": "string"
            },
            {
              "indexed": false,
              "internalType": "uint256",
              "name": "duration",
              "type": "uint256"
            }
          ],
          "name": "TokenCreated",
          "type": "event"
        },
        {
          "anonymous": false,
          "inputs": [
            {
              "indexed": true,
              "internalType": "uint256",
              "name": "tokenId",
              "type": "uint256"
            },
            {
              "indexed": true,
              "internalType": "address",
              "name": "trader",
              "type": "address"
            },
            {
              "indexed": false,
              "internalType": "bool",
              "name": "isBuy",
              "type": "bool"
            },
            {
              "indexed": false,
              "internalType": "uint256",
              "name": "tokenAmount",
              "type": "uint256"
            },
            {
              "indexed": false,
              "internalType": "uint256",
              "name": "monAmount",
              "type": "uint256"
            },
            {
              "indexed": false,
              "internalType": "uint256",
              "name": "protocolFee",
              "type": "uint256"
            },
            {
              "indexed": false,
              "internalType": "uint256",
              "name": "creatorFee",
              "type": "uint256"
            },
            {
              "indexed": false,
              "internalType": "uint256",
              "name": "newSupply",
              "type": "uint256"
            },
            {
              "indexed": false,
              "internalType": "uint256",
              "name": "newPrice",
              "type": "uint256"
            }
          ],
          "name": "Trade",
          "type": "event"
        },
        {
          "inputs": [],
          "name": "BPS",
          "outputs": [
            {
              "internalType": "uint256",
              "name": "",
              "type": "uint256"
            }
          ],
          "stateMutability": "view",
          "type": "function"
        },
        {
          "inputs": [],
          "name": "BUY_COOLDOWN_BLOCKS",
          "outputs": [
            {
              "internalType": "uint256",
              "name": "",
              "type": "uint256"
            }
          ],
          "stateMutability": "view",
          "type": "function"
        },
        {
          "inputs": [],
          "name": "CREATOR_FEE_BPS",
          "outputs": [
            {
              "internalType": "uint256",
              "name": "",
              "type": "uint256"
            }
          ],
          "stateMutability": "view",
          "type": "function"
        },
        {
          "inputs": [],
          "name": "DEATH_TAX_BPS",
          "outputs": [
            {
              "internalType": "uint256",
              "name": "",
              "type": "uint256"
            }
          ],
          "stateMutability": "view",
          "type": "function"
        },
        {
          "inputs": [],
          "name": "DEATH_TRIGGER_BONUS",
          "outputs": [
            {
              "internalType": "uint256",
              "name": "",
              "type": "uint256"
            }
          ],
          "stateMutability": "view",
          "type": "function"
        },
        {
          "inputs": [],
          "name": "DURATION_12H",
          "outputs": [
            {
              "internalType": "uint256",
              "name": "",
              "type": "uint256"
            }
          ],
          "stateMutability": "view",
          "type": "function"
        },
        {
          "inputs": [],
          "name": "DURATION_24H",
          "outputs": [
            {
              "internalType": "uint256",
              "name": "",
              "type": "uint256"
            }
          ],
          "stateMutability": "view",
          "type": "function"
        },
        {
          "inputs": [],
          "name": "DURATION_6H",
          "outputs": [
            {
              "internalType": "uint256",
              "name": "",
              "type": "uint256"
            }
          ],
          "stateMutability": "view",
          "type": "function"
        },
        {
          "inputs": [],
          "name": "LOTTERY_BPS",
          "outputs": [
            {
              "internalType": "uint256",
              "name": "",
              "type": "uint256"
            }
          ],
          "stateMutability": "view",
          "type": "function"
        },
        {
          "inputs": [],
          "name": "LOTTERY_WINNERS",
          "outputs": [
            {
              "internalType": "uint256",
              "name": "",
              "type": "uint256"
            }
          ],
          "stateMutability": "view",
          "type": "function"
        },
        {
          "inputs": [],
          "name": "MAX_BUY_BPS_EARLY",
          "outputs": [
            {
              "internalType": "uint256",
              "name": "",
              "type": "uint256"
            }
          ],
          "stateMutability": "view",
          "type": "function"
        },
        {
          "inputs": [],
          "name": "MAX_HOLDING_BPS",
          "outputs": [
            {
              "internalType": "uint256",
              "name": "",
              "type": "uint256"
            }
          ],
          "stateMutability": "view",
          "type": "function"
        },
        {
          "inputs": [],
          "name": "MAX_SUPPLY",
          "outputs": [
            {
              "internalType": "uint256",
              "name": "",
              "type": "uint256"
            }
          ],
          "stateMutability": "view",
          "type": "function"
        },
        {
          "inputs": [],
          "name": "MIN_BUY",
          "outputs": [
            {
              "internalType": "uint256",
              "name": "",
              "type": "uint256"
            }
          ],
          "stateMutability": "view",
          "type": "function"
        },
        {
          "inputs": [],
          "name": "PROTOCOL_FEE_BPS",
          "outputs": [
            {
              "internalType": "uint256",
              "name": "",
              "type": "uint256"
            }
          ],
          "stateMutability": "view",
          "type": "function"
        },
        {
          "inputs": [],
          "name": "PRO_RATA_BPS",
          "outputs": [
            {
              "internalType": "uint256",
              "name": "",
              "type": "uint256"
            }
          ],
          "stateMutability": "view",
          "type": "function"
        },
        {
          "inputs": [],
          "name": "SNIPER_BLOCKS",
          "outputs": [
            {
              "internalType": "uint256",
              "name": "",
              "type": "uint256"
            }
          ],
          "stateMutability": "view",
          "type": "function"
        },
        {
          "inputs": [
            {
              "internalType": "uint256",
              "name": "",
              "type": "uint256"
            },
            {
              "internalType": "address",
              "name": "",
              "type": "address"
            }
          ],
          "name": "balances",
          "outputs": [
            {
              "internalType": "uint256",
              "name": "",
              "type": "uint256"
            }
          ],
          "stateMutability": "view",
          "type": "function"
        },
        {
          "inputs": [
            {
              "internalType": "uint256",
              "name": "tokenId",
              "type": "uint256"
            },
            {
              "internalType": "uint256",
              "name": "minTokens",
              "type": "uint256"
            }
          ],
          "name": "buy",
          "outputs": [],
          "stateMutability": "payable",
          "type": "function"
        },
        {
          "inputs": [
            {
              "internalType": "uint256",
              "name": "tokenId",
              "type": "uint256"
            }
          ],
          "name": "claim",
          "outputs": [],
          "stateMutability": "nonpayable",
          "type": "function"
        },
        {
          "inputs": [
            {
              "internalType": "uint256",
              "name": "",
              "type": "uint256"
            },
            {
              "internalType": "address",
              "name": "",
              "type": "address"
            }
          ],
          "name": "claimable",
          "outputs": [
            {
              "internalType": "uint256",
              "name": "",
              "type": "uint256"
            }
          ],
          "stateMutability": "view",
          "type": "function"
        },
        {
          "inputs": [
            {
              "internalType": "string",
              "name": "name",
              "type": "string"
            },
            {
              "internalType": "string",
              "name": "symbol",
              "type": "string"
            },
            {
              "internalType": "string",
              "name": "imageURI",
              "type": "string"
            },
            {
              "internalType": "uint256",
              "name": "duration",
              "type": "uint256"
            }
          ],
          "name": "createToken",
          "outputs": [
            {
              "internalType": "uint256",
              "name": "tokenId",
              "type": "uint256"
            }
          ],
          "stateMutability": "payable",
          "type": "function"
        },
        {
          "inputs": [
            {
              "internalType": "uint256",
              "name": "",
              "type": "uint256"
            }
          ],
          "name": "creationBlock",
          "outputs": [
            {
              "internalType": "uint256",
              "name": "",
              "type": "uint256"
            }
          ],
          "stateMutability": "view",
          "type": "function"
        },
        {
          "inputs": [],
          "name": "creationFee",
          "outputs": [
            {
              "internalType": "uint256",
              "name": "",
              "type": "uint256"
            }
          ],
          "stateMutability": "view",
          "type": "function"
        },
        {
          "inputs": [
            {
              "internalType": "uint256",
              "name": "tokenId",
              "type": "uint256"
            },
            {
              "internalType": "address",
              "name": "user",
              "type": "address"
            }
          ],
          "name": "getBalance",
          "outputs": [
            {
              "internalType": "uint256",
              "name": "",
              "type": "uint256"
            }
          ],
          "stateMutability": "view",
          "type": "function"
        },
        {
          "inputs": [
            {
              "internalType": "uint256",
              "name": "tokenId",
              "type": "uint256"
            },
            {
              "internalType": "uint256",
              "name": "tokenAmount",
              "type": "uint256"
            }
          ],
          "name": "getBuyCost",
          "outputs": [
            {
              "internalType": "uint256",
              "name": "",
              "type": "uint256"
            }
          ],
          "stateMutability": "view",
          "type": "function"
        },
        {
          "inputs": [
            {
              "internalType": "uint256",
              "name": "tokenId",
              "type": "uint256"
            },
            {
              "internalType": "address",
              "name": "user",
              "type": "address"
            }
          ],
          "name": "getClaimable",
          "outputs": [
            {
              "internalType": "uint256",
              "name": "",
              "type": "uint256"
            }
          ],
          "stateMutability": "view",
          "type": "function"
        },
        {
          "inputs": [
            {
              "internalType": "uint256",
              "name": "tokenId",
              "type": "uint256"
            }
          ],
          "name": "getFirstBuyerMultiplier",
          "outputs": [
            {
              "internalType": "uint256",
              "name": "",
              "type": "uint256"
            }
          ],
          "stateMutability": "view",
          "type": "function"
        },
        {
          "inputs": [
            {
              "internalType": "uint256",
              "name": "tokenId",
              "type": "uint256"
            }
          ],
          "name": "getHolders",
          "outputs": [
            {
              "internalType": "address[]",
              "name": "",
              "type": "address[]"
            }
          ],
          "stateMutability": "view",
          "type": "function"
        },
        {
          "inputs": [
            {
              "internalType": "uint256",
              "name": "tokenId",
              "type": "uint256"
            }
          ],
          "name": "getPrice",
          "outputs": [
            {
              "internalType": "uint256",
              "name": "",
              "type": "uint256"
            }
          ],
          "stateMutability": "view",
          "type": "function"
        },
        {
          "inputs": [
            {
              "internalType": "uint256",
              "name": "tokenId",
              "type": "uint256"
            },
            {
              "internalType": "uint256",
              "name": "tokenAmount",
              "type": "uint256"
            }
          ],
          "name": "getSellQuote",
          "outputs": [
            {
              "internalType": "uint256",
              "name": "",
              "type": "uint256"
            }
          ],
          "stateMutability": "view",
          "type": "function"
        },
        {
          "inputs": [
            {
              "internalType": "uint256",
              "name": "tokenId",
              "type": "uint256"
            }
          ],
          "name": "getTimeLeft",
          "outputs": [
            {
              "internalType": "uint256",
              "name": "",
              "type": "uint256"
            }
          ],
          "stateMutability": "view",
          "type": "function"
        },
        {
          "inputs": [
            {
              "internalType": "uint256",
              "name": "tokenId",
              "type": "uint256"
            }
          ],
          "name": "getToken",
          "outputs": [
            {
              "components": [
                {
                  "internalType": "address",
                  "name": "creator",
                  "type": "address"
                },
                {
                  "internalType": "string",
                  "name": "name",
                  "type": "string"
                },
                {
                  "internalType": "string",
                  "name": "symbol",
                  "type": "string"
                },
                {
                  "internalType": "string",
                  "name": "imageURI",
                  "type": "string"
                },
                {
                  "internalType": "uint256",
                  "name": "virtualSupply",
                  "type": "uint256"
                },
                {
                  "internalType": "uint256",
                  "name": "poolBalance",
                  "type": "uint256"
                },
                {
                  "internalType": "uint256",
                  "name": "createdAt",
                  "type": "uint256"
                },
                {
                  "internalType": "uint256",
                  "name": "duration",
                  "type": "uint256"
                },
                {
                  "internalType": "bool",
                  "name": "dead",
                  "type": "bool"
                },
                {
                  "internalType": "bool",
                  "name": "deathProcessed",
                  "type": "bool"
                },
                {
                  "internalType": "uint256",
                  "name": "totalHolders",
                  "type": "uint256"
                }
              ],
              "internalType": "struct ClacFactory.Token",
              "name": "",
              "type": "tuple"
            }
          ],
          "stateMutability": "view",
          "type": "function"
        },
        {
          "inputs": [
            {
              "internalType": "uint256",
              "name": "tokenId",
              "type": "uint256"
            }
          ],
          "name": "isAlive",
          "outputs": [
            {
              "internalType": "bool",
              "name": "",
              "type": "bool"
            }
          ],
          "stateMutability": "view",
          "type": "function"
        },
        {
          "inputs": [
            {
              "internalType": "uint256",
              "name": "",
              "type": "uint256"
            },
            {
              "internalType": "address",
              "name": "",
              "type": "address"
            }
          ],
          "name": "isHolder",
          "outputs": [
            {
              "internalType": "bool",
              "name": "",
              "type": "bool"
            }
          ],
          "stateMutability": "view",
          "type": "function"
        },
        {
          "inputs": [],
          "name": "k",
          "outputs": [
            {
              "internalType": "uint256",
              "name": "",
              "type": "uint256"
            }
          ],
          "stateMutability": "view",
          "type": "function"
        },
        {
          "inputs": [
            {
              "internalType": "uint256",
              "name": "",
              "type": "uint256"
            },
            {
              "internalType": "address",
              "name": "",
              "type": "address"
            }
          ],
          "name": "lastBuyBlock",
          "outputs": [
            {
              "internalType": "uint256",
              "name": "",
              "type": "uint256"
            }
          ],
          "stateMutability": "view",
          "type": "function"
        },
        {
          "inputs": [],
          "name": "owner",
          "outputs": [
            {
              "internalType": "address",
              "name": "",
              "type": "address"
            }
          ],
          "stateMutability": "view",
          "type": "function"
        },
        {
          "inputs": [],
          "name": "publicCreation",
          "outputs": [
            {
              "internalType": "bool",
              "name": "",
              "type": "bool"
            }
          ],
          "stateMutability": "view",
          "type": "function"
        },
        {
          "inputs": [
            {
              "internalType": "uint256",
              "name": "tokenId",
              "type": "uint256"
            },
            {
              "internalType": "uint256",
              "name": "tokenAmount",
              "type": "uint256"
            },
            {
              "internalType": "uint256",
              "name": "minMON",
              "type": "uint256"
            }
          ],
          "name": "sell",
          "outputs": [],
          "stateMutability": "nonpayable",
          "type": "function"
        },
        {
          "inputs": [
            {
              "internalType": "uint256",
              "name": "_fee",
              "type": "uint256"
            }
          ],
          "name": "setCreationFee",
          "outputs": [],
          "stateMutability": "nonpayable",
          "type": "function"
        },
        {
          "inputs": [
            {
              "internalType": "uint256",
              "name": "_k",
              "type": "uint256"
            }
          ],
          "name": "setK",
          "outputs": [],
          "stateMutability": "nonpayable",
          "type": "function"
        },
        {
          "inputs": [
            {
              "internalType": "bool",
              "name": "_public",
              "type": "bool"
            }
          ],
          "name": "setPublicCreation",
          "outputs": [],
          "stateMutability": "nonpayable",
          "type": "function"
        },
        {
          "inputs": [
            {
              "internalType": "address",
              "name": "_treasury",
              "type": "address"
            }
          ],
          "name": "setTreasury",
          "outputs": [],
          "stateMutability": "nonpayable",
          "type": "function"
        },
        {
          "inputs": [],
          "name": "tokenCount",
          "outputs": [
            {
              "internalType": "uint256",
              "name": "",
              "type": "uint256"
            }
          ],
          "stateMutability": "view",
          "type": "function"
        },
        {
          "inputs": [
            {
              "internalType": "uint256",
              "name": "",
              "type": "uint256"
            }
          ],
          "name": "tokens",
          "outputs": [
            {
              "internalType": "address",
              "name": "creator",
              "type": "address"
            },
            {
              "internalType": "string",
              "name": "name",
              "type": "string"
            },
            {
              "internalType": "string",
              "name": "symbol",
              "type": "string"
            },
            {
              "internalType": "string",
              "name": "imageURI",
              "type": "string"
            },
            {
              "internalType": "uint256",
              "name": "virtualSupply",
              "type": "uint256"
            },
            {
              "internalType": "uint256",
              "name": "poolBalance",
              "type": "uint256"
            },
            {
              "internalType": "uint256",
              "name": "createdAt",
              "type": "uint256"
            },
            {
              "internalType": "uint256",
              "name": "duration",
              "type": "uint256"
            },
            {
              "internalType": "bool",
              "name": "dead",
              "type": "bool"
            },
            {
              "internalType": "bool",
              "name": "deathProcessed",
              "type": "bool"
            },
            {
              "internalType": "uint256",
              "name": "totalHolders",
              "type": "uint256"
            }
          ],
          "stateMutability": "view",
          "type": "function"
        },
        {
          "inputs": [],
          "name": "treasury",
          "outputs": [
            {
              "internalType": "address",
              "name": "",
              "type": "address"
            }
          ],
          "stateMutability": "view",
          "type": "function"
        },
        {
          "inputs": [
            {
              "internalType": "uint256",
              "name": "tokenId",
              "type": "uint256"
            }
          ],
          "name": "triggerDeath",
          "outputs": [],
          "stateMutability": "nonpayable",
          "type": "function"
        },
        {
          "stateMutability": "payable",
          "type": "receive"
        }
      ],
      "evm": {
        "bytecode": {
          "linkReferences": {},
          "object": "60803461010357601f6129dd38819003918201601f19168301916001600160401b038311848410176101085780849260409485528339810103126101035780516001600160a01b038116919082900361010357602001519060017f9b779b17422d0df92223018b32b4d1fa46e071723d6817e2486d003becc55f005580156100cb57600080546001600160a01b0319908116331790915560018054909116919091179055600255678ac7230489e800006003556004805460ff191690556040516128be908161011f8239f35b60405162461bcd60e51b815260206004820152601060248201526f496e76616c696420747265617375727960801b6044820152606490fd5b600080fd5b634e487b7160e01b600052604160045260246000fdfe60a080604052600436101561001d575b50361561001b57600080fd5b005b60003560e01c9081630932df8114611c1c575080630964b7ed14611bff5780630b4b71cc14611be2578063121a257f14611b575780631e5c622214611b345780631f320331146114ce578063249d39e914611b1757806332cb6b0c14611af057806336f732a114611aa3578063379607f51461193c5780633af96b901461191a5780634f5e74c2146118ee5780634f64b2be1461180357806357ee9334146117e65780635d8cc808146117c85780635ff67b1b146117a557806361d027b31461177c578063627d55f61461175f578063636bcebe1461174257806367de8be9146117145780637a447ed3146116f857806389228817146116b05780638da5cb5b1461168757806392707869146115bc5780639af4694d146115915780639beb5bad146115345780639f181b5e14611516578063a0c7f71c146113f5578063b0a79459146114ce578063b4f40c61146114b0578063b713cc401461146b578063b7d862251461143d578063b961cbe1146113f5578063be3782281461138e578063c451bc95146113af578063cc3cbd2a14611393578063d161c6a31461138e578063d3c9727c146110ba578063d6febde814610be6578063d84b236114610b7e578063dce0b4e414610b60578063dd7e852314610b44578063e4b50cb814610975578063e757223014610935578063e8c5876314610902578063ec5ae7e8146108e6578063efbe8fd1146102d55763f0f442601461023a573861000f565b346102d05760203660031901126102d0576004356001600160a01b038116908190036102d05761027560018060a01b03600054163314611e9b565b8015610298576bffffffffffffffffffffffff60a01b6001541617600155600080f35b60405162461bcd60e51b815260206004820152601060248201526f496e76616c696420747265617375727960801b6044820152606490fd5b600080fd5b60803660031901126102d05760043567ffffffffffffffff81116102d057610301903690600401611ddd565b9060243567ffffffffffffffff81116102d057610322903690600401611ddd565b9060443567ffffffffffffffff81116102d057610343903690600401611ddd565b90916064359360ff600454161561088f575b61546085148015610884575b8015610878575b15610840576003548034106107fb5760015461038d91906001600160a01b03166125c0565b6003548034116107e2575b50600554956103a687611f7f565b600555600087815260066020526040902080546001600160a01b031916331781556001810167ffffffffffffffff8a11610660576103e48154611c63565b601f811161079a575b50896000601f82116001146107375760009161072c575b508a60011b906000198c60031b1c19161790555b6002810167ffffffffffffffff8411610660576104358154611c63565b601f81116106e4575b50836000601f821160011461068157600091610676575b508460011b906000198660031b1c19161790555b6003810167ffffffffffffffff8611610660576104868154611c63565b601f8111610618575b50918760209a9694928a9896946000601f881160011461055f57937fc81330f0f38d8570a8eebd6a7c59421eb1fff865e2fa9fc3859f96506109b3ba999896936007899794610525946105409b61053299600091610554575b508a60011b906000198c60031b1c19161790555b42600682015501558a600052600b8e52436040600020556040519860808a5260808a0191612563565b918783038d890152612563565b918483036040860152612563565b9360608201528033940390a3604051908152f35b90508b0135386104e8565b99989796959493929190601f198716818c528e8c20908c5b8181106105e7575061052593899896936105329896937fc81330f0f38d8570a8eebd6a7c59421eb1fff865e2fa9fc3859f96506109b3ba9e9f6105409d9c600795106105cd575b505060018a811b0190556104fc565b8c013560001960038d901b60f8161c1916905538806105be565b9396989a9c9450919496989a508e60018192868e013581550194019201928d9a989694918d949c9a9896939c610577565b816000526020600020601f880160051c81019160208910610656575b601f0160051c01905b81811061064a575061048f565b6000815560010161063d565b9091508190610634565b634e487b7160e01b600052604160045260246000fd5b90508501358b610455565b82815260208120915085601f198116825b8181106106c95750106106af575b5050600184811b019055610469565b860135600019600387901b60f8161c191690558a806106a0565b89840135855560019094019360209384019389935001610692565b816000526020600020601f860160051c81019160208710610722575b601f0160051c01905b818110610716575061043e565b60008155600101610709565b9091508190610700565b90508301358b610404565b8281526020812091508b601f198116825b81811061077f575010610765575b505060018a811b019055610418565b84013560001960038d901b60f8161c191690558a80610756565b8784013585556001909401936020938401938f935001610748565b816000526020600020601f8c0160051c81019160208d106107d8575b601f0160051c01905b8181106107cc57506103ed565b600081556001016107bf565b90915081906107b6565b6107ef6107f59134611e6e565b336125c0565b87610398565b60405162461bcd60e51b815260206004820152601960248201527f496e73756666696369656e74206372656174696f6e20666565000000000000006044820152606490fd5b60405162461bcd60e51b815260206004820152601060248201526f24b73b30b634b210323ab930ba34b7b760811b6044820152606490fd5b50620151808514610368565b5061a8c08514610361565b6000546001600160a01b031633146103555760405162461bcd60e51b815260206004820152601760248201527f4372656174696f6e206e6f74207075626c6963207965740000000000000000006044820152606490fd5b346102d05760003660031901126102d057602060405160028152f35b346102d05760203660031901126102d057602061092d6004356109286005548210611e0b565b612530565b604051908152f35b346102d05760203660031901126102d0576004356109566005548210611e0b565b6000526006602052602061092d6004604060002001546002549061265e565b346102d05760203660031901126102d057600435600061014060405161099a81611c9d565b82815260606020820152606060408201526060808201528260808201528260a08201528260c08201528260e0820152826101008201528261012082015201526109e66005548210611e0b565b6000526006602052610180604060002060405190610a0382611c9d565b80546001600160a01b03168252610a1c60018201611cdc565b91602081019283528060ff610a3360028501611cdc565b9360408301948552610a4760038201611cdc565b946060840195865260048201549560808501968752610b0d60058401549160a08701928352610afa60068601549460c08901958652610ae7600960078901549860e08c01998a528a61012060088301549d8e61010082019e8f911615159052019c60081c1615158c5201549a61014081019b8c526040519e8f9e8f926020845260018060a01b039051166020840152519161016060408201520190611d80565b90518c8203601f190160608e0152611d80565b90518a8203601f190160808c0152611d80565b965160a08901525160c08801525160e087015251610100860152511515610120850152511515610140840152516101608301520390f35b346102d05760003660031901126102d057602060405160058152f35b346102d05760003660031901126102d0576020600354604051908152f35b346102d05760203660031901126102d057600435610b9f6005548210611e0b565b60005260066020526020604060002060ff600882015416159081610bc9575b506040519015158152f35b610bde91506007600682015491015490611e4e565b421082610bbe565b610bef36611c37565b90610bf8612584565b610c056005548210611e0b565b806000526006602052610c2360ff6008604060002001541615612479565b806000526006602052610c5a610c5360066040600020015483600052600660205260076040600020015490611e4e565b42106124b5565b662386f26fc100003410611082576000818152600c6020908152604080832033845290915290205460028101908110610ff757431115611047576000818152600c602090815260408083203384528252808320439055838352600690915290203480159190606481810291820414831715610ff75761271090049160323402903482046032141715610ff757612710900490610cff82610cfa8534611e6e565b611e6e565b9060048101918254610d1d610d1483836126e8565b988910156124f0565b6b033b2e3c9fd0803ce8000000610d348983611e4e565b1161100d5786600052600b60205260406000205460058101809111610ff7574310610f74575b866000526007602052604060002060018060a01b0333166000526020526a52b7d2dcc80cd2e4000000610d9289604060002054611e4e565b11610f2f5787610da191611e4e565b8355610db260058301918254611e4e565b9055846000526007602052604060002060018060a01b0333166000526020526040600020610de1878254611e4e565b90556000858152600960209081526040808320338452909152902054839060ff1615610ea3575b600154610e339290610e249087906001600160a01b03166125c0565b546001600160a01b03166125c0565b5490610e416002548361265e565b92604051956001875260208701523460408701526060860152608085015260a084015260c08301527f21fb2ef4db4bf31f6d1e357c56a918e6fb61d5b270a2f9c5075ff638093819d760e03393a3600160008051602061286983398151915255005b5060008581526009602090815260408083203384528252808320805460ff1916600117905587835260089091529020805490916801000000000000000082101561066057610efb82610e339460018895018155611f51565b81546001600160a01b0360039290921b91821b19163390911b179055600981018054610f2690611f7f565b90559150610e08565b60405162461bcd60e51b815260206004820152601860248201527f4d617820686f6c64696e672031302520657863656564656400000000000000006044820152606490fd5b866000526007602052604060002060018060a01b0333166000526020526a084595161401484a000000610fac89604060002054611e4e565b1115610d5a5760405162461bcd60e51b815260206004820152601d60248201527f416e74692d736e697065723a206d6178206275792065786365656465640000006044820152606490fd5b634e487b7160e01b600052601160045260246000fd5b60405162461bcd60e51b815260206004820152601260248201527113585e081cdd5c1c1b1e481c995858da195960721b6044820152606490fd5b60405162461bcd60e51b815260206004820152601360248201527242757920636f6f6c646f776e2061637469766560681b6044820152606490fd5b60405162461bcd60e51b815260206004820152601060248201526f26b4b710313abc90181718189026a7a760811b6044820152606490fd5b346102d05760603660031901126102d0576024356004356110d9612584565b6110e66005548210611e0b565b80600052600660205261110460ff6008604060002001541615612479565b806000526006602052611134610c5360066040600020015483600052600660205260076040600020015490611e4e565b811561135457600081815260076020908152604080832033845290915290205482116113185780600052600660205260406000206004810180549161117c600254868561267e565b91600582019182549283851161130f575b60648502851590868104606414821715610ff75761271090049560328102918183046032141715610ff7576127106111e99204956111e28b6111d389610cfa8c87611e6e565b9a610cfa6044358d10156124f0565b8655611e6e565b9055856000526007602052604060002060018060a01b0333166000526020526040600020611218888254611e6e565b905560008681526007602090815260408083203384529091529020548390156112d1575b6001546112589290610e249087906001600160a01b03166125c0565b61126284336125c0565b54916112706002548461265e565b936040519660008852602088015260408701526060860152608085015260a084015260c08301527f21fb2ef4db4bf31f6d1e357c56a918e6fb61d5b270a2f9c5075ff638093819d760e03393a3600160008051602061286983398151915255005b506000868152600960208181526040808420338552909152909120805460ff191690558101805490918115610ff7576000199091019091558261123c565b9350829361118d565b60405162461bcd60e51b8152602060048201526014602482015273496e73756666696369656e742062616c616e636560601b6044820152606490fd5b60405162461bcd60e51b81526020600482015260126024820152710416d6f756e74206d757374206265203e20360741b6044820152606490fd5b611dc1565b346102d05760003660031901126102d057602060405160328152f35b346102d05760203660031901126102d0576004358015158091036102d0576113e260018060a01b03600054163314611e9b565b60ff801960045416911617600455600080f35b346102d05760403660031901126102d05761140e611c4d565b600435600052600a60205260406000209060018060a01b03166000526020526020604060002054604051908152f35b346102d05760203660031901126102d05761146360018060a01b03600054163314611e9b565b600435600355005b346102d05760203660031901126102d05761149c60043561148a612584565b6114976005548210611e0b565b611f8e565b600160008051602061286983398151915255005b346102d05760003660031901126102d0576020600254604051908152f35b346102d05760403660031901126102d0576114e7611c4d565b600435600052600760205260406000209060018060a01b03166000526020526020604060002054604051908152f35b346102d05760003660031901126102d0576020600554604051908152f35b346102d05761156e61154536611c37565b906115536005548210611e0b565b6000526006602052600460406000200154906002549161267e565b6096810281810460961482151715610ff75760209161271061092d920490611e6e565b346102d05760203660031901126102d057602061092d6004356115b76005548210611e0b565b611ed3565b346102d05760203660031901126102d0576004356115dd6005548210611e0b565b600052600860205260406000206040518060208354918281520190819360005260206000209060005b818110611668575050508161161c910382611cba565b6040519182916020830190602084525180915260408301919060005b818110611646575050500390f35b82516001600160a01b0316845285945060209384019390920191600101611638565b82546001600160a01b0316845260209093019260019283019201611606565b346102d05760003660031901126102d0576000546040516001600160a01b039091168152602090f35b346102d05760403660031901126102d0576116c9611c4d565b600435600052600c60205260406000209060018060a01b03166000526020526020604060002054604051908152f35b346102d05760003660031901126102d057602060405160038152f35b346102d05760203660031901126102d05761173a60018060a01b03600054163314611e9b565b600435600255005b346102d05760003660031901126102d0576020604051611e148152f35b346102d05760003660031901126102d05760206040516103e88152f35b346102d05760003660031901126102d0576001546040516001600160a01b039091168152602090f35b346102d05760003660031901126102d057602060ff600454166040519015158152f35b346102d05760003660031901126102d0576020604051620151808152f35b346102d05760003660031901126102d05760206040516154608152f35b346102d05760203660031901126102d0576004356000526006602052610160604060002060018060a01b038154169061183e60018201611cdc565b60ff61184c60028401611cdc565b9261185960038201611cdc565b9360048201549460058301546118b86006850154926118aa60078701549561189c600960088a01549901549a6040519e8f9e8f9081528160208201520190611d80565b8c810360408e015290611d80565b908a820360608c0152611d80565b96608089015260a088015260c087015260e0860152818116151561010086015260081c1615156101208401526101408301520390f35b346102d05760203660031901126102d057600435600052600b6020526020604060002054604051908152f35b346102d05760003660031901126102d0576020604051662386f26fc100008152f35b346102d05760203660031901126102d057600435611958612584565b6119656005548210611e0b565b80600052600660205260ff6008604060002001541680611a85575b15611a4c576000818152600a60209081526040808320338452909152902054908115611a145780600052600a602052604060002060018060a01b033316600052602052600060408120556119d482336125c0565b6040519182527f4ec90e965519d92681267467f775ada5bd214aa92c0dc93d90a5e880ce9ed02660203393a3600160008051602061286983398151915255005b60405162461bcd60e51b815260206004820152601060248201526f4e6f7468696e6720746f20636c61696d60801b6044820152606490fd5b60405162461bcd60e51b8152602060048201526011602482015270139bdd0818db185a5b58589b19481e595d607a1b6044820152606490fd5b5080600052600660205260ff60086040600020015460081c16611980565b346102d05760403660031901126102d057611abc611c4d565b600435600052600960205260406000209060018060a01b0316600052602052602060ff604060002054166040519015158152f35b346102d05760003660031901126102d05760206040516b033b2e3c9fd0803ce80000008152f35b346102d05760003660031901126102d05760206040516127108152f35b346102d05760003660031901126102d057602060405167016345785d8a00008152f35b346102d057670de0b6b3a7640000611bbd611b7136611c37565b90611b7f6005548210611e0b565b6000526006602052611bb7600460406000200154611bb1611bab611ba66002549584611e4e565b6127cd565b916127cd565b90611e6e565b90611e5b565b046127108102908082046127101490151715610ff75761267a60209104604051908152f35b346102d05760003660031901126102d05760206040516108fc8152f35b346102d05760003660031901126102d057602060405161012c8152f35b346102d05760003660031901126102d0578061a8c060209252f35b60409060031901126102d0576004359060243590565b602435906001600160a01b03821682036102d057565b90600182811c92168015611c93575b6020831014611c7d57565b634e487b7160e01b600052602260045260246000fd5b91607f1691611c72565b610160810190811067ffffffffffffffff82111761066057604052565b90601f8019910116810190811067ffffffffffffffff82111761066057604052565b9060405191826000825492611cf084611c63565b8084529360018116908115611d5e5750600114611d17575b50611d1592500383611cba565b565b90506000929192526020600020906000915b818310611d42575050906020611d159282010138611d08565b6020919350806001915483858901015201910190918492611d29565b905060209250611d1594915060ff191682840152151560051b82010138611d08565b919082519283825260005b848110611dac575050826000602080949584010152601f8019910116010190565b80602080928401015182828601015201611d8b565b346102d05760003660031901126102d057602060405160648152f35b9181601f840112156102d05782359167ffffffffffffffff83116102d057602083818601950101116102d057565b15611e1257565b60405162461bcd60e51b8152602060048201526014602482015273151bdad95b88191bd95cc81b9bdd08195e1a5cdd60621b6044820152606490fd5b91908201809211610ff757565b81810292918115918404141715610ff757565b91908203918211610ff757565b8115611e85570490565b634e487b7160e01b600052601260045260246000fd5b15611ea257565b60405162461bcd60e51b81526020600482015260096024820152682737ba1037bbb732b960b91b6044820152606490fd5b80600052600660205260046040600020015415611f4b576000526006602052600460406000200154670de0b6b3a7640000611f1e611f14600254809461265e565b92611bb783612804565b048015611f4457606482029180830460641490151715610ff757611f4191611e7b565b90565b5050600090565b50600090565b8054821015611f695760005260206000200190600090565b634e487b7160e01b600052603260045260246000fd5b6000198114610ff75760010190565b80600052600660205260406000206008810180549060ff821661244557611fbe6006840154600785015490611e4e565b421061240e5760ff1982166001178155600583018054909281156123cc5750600067016345785d8a000082106123c1575061200267016345785d8a00008092611e6e565b61012c810281810461012c1482151715610ff75761271061202591048092611e6e565b94611e148602868104611e141487151715610ff75761271090049061204a8288611e6e565b9088600052600860205260406000205460805260805115928315918280936123b4575b6122fc575b5050806122f3575b612103575b5050927f0f005309a8a7fc7ef4fe267d20b85954d99222bed1e4e1dacc388fc820a8659e94926000926120be60409660018060a01b03600154166125c0565b801515806120f9575b6120e9575b50805461ff001916610100179055558151908152336020820152a2565b6120f390336125c0565b386120cc565b50804710156120c7565b959391969492600360009992999704946000946000194301948540965b60038110806122e8575b1561226d57438711610ff75760405160208101908982528b604082015282606082015260805160808201524260a082015260a0815261216a60c082611cba565b51902060008e5b608051821061218c575b50505061218790611f7f565b612120565b6121968284611e4e565b90611e85576121b7908d600052600860205260805190066040600020611f51565b905460008e815260076020908152604080832060039590951b9390931c6001600160a01b031680835293905220546121f957506121f390611f7f565b8e612171565b9c612187939250612238915060408e8e600052600a6020528160002060009160018060a01b03168252602052206122318d8254611e4e565b9055611f7f565b9b8b7f327dc80a042147e77d98c1f6d26ebc8aef4078af7e6ab437f1d6452a19cb108b60208d604051908152a390388e61217b565b5095509592995095979250956003811061228c575b959293949561207f565b6003959492939195039560038711610ff7576120be6122da6000956122d46040997f0f005309a8a7fc7ef4fe267d20b85954d99222bed1e4e1dacc388fc820a8659e9b611e5b565b90611e4e565b939596505095819350612282565b50608051811061212a565b5080151561207a565b60005b608051811061230e5750612072565b6001908c60005260086020528c612329826040600020611f51565b848060a01b0391549060031b1c16816000526007602052604080600020600090868060a01b0384168252602052205480612367575b505050016122ff565b6123aa9161238561237a6040938a611e5b565b600489015490611e7b565b93600052600a60205281600020600091878060a01b0316825260205220918254611e4e565b90558c388061235e565b506004810154151561206d565b612002908092611e6e565b61ffff191661010117909155505060408051600081523360208201527f0f005309a8a7fc7ef4fe267d20b85954d99222bed1e4e1dacc388fc820a8659e9250a2565b60405162461bcd60e51b815260206004820152600f60248201526e139bdd08195e1c1a5c9959081e595d608a1b6044820152606490fd5b60405162461bcd60e51b815260206004820152600c60248201526b105b1c9958591e481919585960a21b6044820152606490fd5b1561248057565b60405162461bcd60e51b815260206004820152600d60248201526c151bdad95b881a5cc819195859609a1b6044820152606490fd5b156124bc57565b60405162461bcd60e51b815260206004820152600c60248201526b151a5b5948195e1c1a5c995960a21b6044820152606490fd5b156124f757565b60405162461bcd60e51b815260206004820152601160248201527014db1a5c1c1859d948195e18d959591959607a1b6044820152606490fd5b600052600660205261255060406000206007600682015491015490611e4e565b80421015611f4b57611f41904290611e6e565b908060209392818452848401376000828201840152601f01601f1916010190565b600260008051602061286983398151915254146125af57600260008051602061286983398151915255565b633ee5aeb560e01b60005260046000fd5b811561265a576000918291829182916001600160a01b03165af13d15612655573d67ffffffffffffffff81116106605760405190612608601f8201601f191660200183611cba565b8152600060203d92013e5b1561261a57565b60405162461bcd60e51b81526020600482015260136024820152721353d3881d1c985b9cd9995c8819985a5b1959606a1b6044820152606490fd5b612613565b5050565b8015611f4457670de0b6b3a764000091611bb761267a92612804565b0490565b90918183116126ad57611bb782611bb1611bab6126a7670de0b6b3a76400009761267a97611e6e565b926127cd565b60405162461bcd60e51b815260206004820152601360248201527253656c6c206578636565647320737570706c7960681b6044820152606490fd5b600091816b033b2e3c9fd0803ce8000000036b033b2e3c9fd0803ce800000081116127b957826b033b2e3c9fd0803ce8000000146127b35791906002545b838510612734575050505090565b909192936127428582611e4e565b60018101809111610ff75760011c9083670de0b6b3a764000061277d61277761276e611ba6878b611e4e565b611bb18a6127cd565b86611e5b565b041161278e5750935b929190612726565b945060001981019081111561278657634e487b7160e01b600052601160045260246000fd5b50505090565b634e487b7160e01b84526011600452602484fd5b8015611f4b576127e981611bb7670de0b6b3a764000093612804565b046001600160ff1b0381168103610ff75760039060011b0490565b90811561286257670de0b6b3a76400008202918204670de0b6b3a764000003610ff7578160018101808211610ff75760011c905b838210612843575050565b909250612859836128548184611e7b565b611e4e565b60011c90612838565b6000915056fe9b779b17422d0df92223018b32b4d1fa46e071723d6817e2486d003becc55f00a26469706673582212201a286967bcc1f30bb5b08ddc7ca72803b3e15c04df24a39ddef9850a329e099c64736f6c634300081c0033",
          "opcodes": "PUSH1 0x80 CALLVALUE PUSH2 0x103 JUMPI PUSH1 0x1F PUSH2 0x29DD CODESIZE DUP2 SWAP1 SUB SWAP2 DUP3 ADD PUSH1 0x1F NOT AND DUP4 ADD SWAP2 PUSH1 0x1 PUSH1 0x1 PUSH1 0x40 SHL SUB DUP4 GT DUP5 DUP5 LT OR PUSH2 0x108 JUMPI DUP1 DUP5 SWAP3 PUSH1 0x40 SWAP5 DUP6 MSTORE DUP4 CODECOPY DUP2 ADD SUB SLT PUSH2 0x103 JUMPI DUP1 MLOAD PUSH1 0x1 PUSH1 0x1 PUSH1 0xA0 SHL SUB DUP2 AND SWAP2 SWAP1 DUP3 SWAP1 SUB PUSH2 0x103 JUMPI PUSH1 0x20 ADD MLOAD SWAP1 PUSH1 0x1 PUSH32 0x9B779B17422D0DF92223018B32B4D1FA46E071723D6817E2486D003BECC55F00 SSTORE DUP1 ISZERO PUSH2 0xCB JUMPI PUSH1 0x0 DUP1 SLOAD PUSH1 0x1 PUSH1 0x1 PUSH1 0xA0 SHL SUB NOT SWAP1 DUP2 AND CALLER OR SWAP1 SWAP2 SSTORE PUSH1 0x1 DUP1 SLOAD SWAP1 SWAP2 AND SWAP2 SWAP1 SWAP2 OR SWAP1 SSTORE PUSH1 0x2 SSTORE PUSH8 0x8AC7230489E80000 PUSH1 0x3 SSTORE PUSH1 0x4 DUP1 SLOAD PUSH1 0xFF NOT AND SWAP1 SSTORE PUSH1 0x40 MLOAD PUSH2 0x28BE SWAP1 DUP2 PUSH2 0x11F DUP3 CODECOPY RETURN JUMPDEST PUSH1 0x40 MLOAD PUSH3 0x461BCD PUSH1 0xE5 SHL DUP2 MSTORE PUSH1 0x20 PUSH1 0x4 DUP3 ADD MSTORE PUSH1 0x10 PUSH1 0x24 DUP3 ADD MSTORE PUSH16 0x496E76616C6964207472656173757279 PUSH1 0x80 SHL PUSH1 0x44 DUP3 ADD MSTORE PUSH1 0x64 SWAP1 REVERT JUMPDEST PUSH1 0x0 DUP1 REVERT JUMPDEST PUSH4 0x4E487B71 PUSH1 0xE0 SHL PUSH1 0x0 MSTORE PUSH1 0x41 PUSH1 0x4 MSTORE PUSH1 0x24 PUSH1 0x0 REVERT INVALID PUSH1 0xA0 DUP1 PUSH1 0x40 MSTORE PUSH1 0x4 CALLDATASIZE LT ISZERO PUSH2 0x1D JUMPI JUMPDEST POP CALLDATASIZE ISZERO PUSH2 0x1B JUMPI PUSH1 0x0 DUP1 REVERT JUMPDEST STOP JUMPDEST PUSH1 0x0 CALLDATALOAD PUSH1 0xE0 SHR SWAP1 DUP2 PUSH4 0x932DF81 EQ PUSH2 0x1C1C JUMPI POP DUP1 PUSH4 0x964B7ED EQ PUSH2 0x1BFF JUMPI DUP1 PUSH4 0xB4B71CC EQ PUSH2 0x1BE2 JUMPI DUP1 PUSH4 0x121A257F EQ PUSH2 0x1B57 JUMPI DUP1 PUSH4 0x1E5C6222 EQ PUSH2 0x1B34 JUMPI DUP1 PUSH4 0x1F320331 EQ PUSH2 0x14CE JUMPI DUP1 PUSH4 0x249D39E9 EQ PUSH2 0x1B17 JUMPI DUP1 PUSH4 0x32CB6B0C EQ PUSH2 0x1AF0 JUMPI DUP1 PUSH4 0x36F732A1 EQ PUSH2 0x1AA3 JUMPI DUP1 PUSH4 0x379607F5 EQ PUSH2 0x193C JUMPI DUP1 PUSH4 0x3AF96B90 EQ PUSH2 0x191A JUMPI DUP1 PUSH4 0x4F5E74C2 EQ PUSH2 0x18EE JUMPI DUP1 PUSH4 0x4F64B2BE EQ PUSH2 0x1803 JUMPI DUP1 PUSH4 0x57EE9334 EQ PUSH2 0x17E6 JUMPI DUP1 PUSH4 0x5D8CC808 EQ PUSH2 0x17C8 JUMPI DUP1 PUSH4 0x5FF67B1B EQ PUSH2 0x17A5 JUMPI DUP1 PUSH4 0x61D027B3 EQ PUSH2 0x177C JUMPI DUP1 PUSH4 0x627D55F6 EQ PUSH2 0x175F JUMPI DUP1 PUSH4 0x636BCEBE EQ PUSH2 0x1742 JUMPI DUP1 PUSH4 0x67DE8BE9 EQ PUSH2 0x1714 JUMPI DUP1 PUSH4 0x7A447ED3 EQ PUSH2 0x16F8 JUMPI DUP1 PUSH4 0x89228817 EQ PUSH2 0x16B0 JUMPI DUP1 PUSH4 0x8DA5CB5B EQ PUSH2 0x1687 JUMPI DUP1 PUSH4 0x92707869 EQ PUSH2 0x15BC JUMPI DUP1 PUSH4 0x9AF4694D EQ PUSH2 0x1591 JUMPI DUP1 PUSH4 0x9BEB5BAD EQ PUSH2 0x1534 JUMPI DUP1 PUSH4 0x9F181B5E EQ PUSH2 0x1516 JUMPI DUP1 PUSH4 0xA0C7F71C EQ PUSH2 0x13F5 JUMPI DUP1 PUSH4 0xB0A79459 EQ PUSH2 0x14CE JUMPI DUP1 PUSH4 0xB4F40C61 EQ PUSH2 0x14B0 JUMPI DUP1 PUSH4 0xB713CC40 EQ PUSH2 0x146B JUMPI DUP1 PUSH4 0xB7D86225 EQ PUSH2 0x143D JUMPI DUP1 PUSH4 0xB961CBE1 EQ PUSH2 0x13F5 JUMPI DUP1 PUSH4 0xBE378228 EQ PUSH2 0x138E JUMPI DUP1 PUSH4 0xC451BC95 EQ PUSH2 0x13AF JUMPI DUP1 PUSH4 0xCC3CBD2A EQ PUSH2 0x1393 JUMPI DUP1 PUSH4 0xD161C6A3 EQ PUSH2 0x138E JUMPI DUP1 PUSH4 0xD3C9727C EQ PUSH2 0x10BA JUMPI DUP1 PUSH4 0xD6FEBDE8 EQ PUSH2 0xBE6 JUMPI DUP1 PUSH4 0xD84B2361 EQ PUSH2 0xB7E JUMPI DUP1 PUSH4 0xDCE0B4E4 EQ PUSH2 0xB60 JUMPI DUP1 PUSH4 0xDD7E8523 EQ PUSH2 0xB44 JUMPI DUP1 PUSH4 0xE4B50CB8 EQ PUSH2 0x975 JUMPI DUP1 PUSH4 0xE7572230 EQ PUSH2 0x935 JUMPI DUP1 PUSH4 0xE8C58763 EQ PUSH2 0x902 JUMPI DUP1 PUSH4 0xEC5AE7E8 EQ PUSH2 0x8E6 JUMPI DUP1 PUSH4 0xEFBE8FD1 EQ PUSH2 0x2D5 JUMPI PUSH4 0xF0F44260 EQ PUSH2 0x23A JUMPI CODESIZE PUSH2 0xF JUMP JUMPDEST CALLVALUE PUSH2 0x2D0 JUMPI PUSH1 0x20 CALLDATASIZE PUSH1 0x3 NOT ADD SLT PUSH2 0x2D0 JUMPI PUSH1 0x4 CALLDATALOAD PUSH1 0x1 PUSH1 0x1 PUSH1 0xA0 SHL SUB DUP2 AND SWAP1 DUP2 SWAP1 SUB PUSH2 0x2D0 JUMPI PUSH2 0x275 PUSH1 0x1 DUP1 PUSH1 0xA0 SHL SUB PUSH1 0x0 SLOAD AND CALLER EQ PUSH2 0x1E9B JUMP JUMPDEST DUP1 ISZERO PUSH2 0x298 JUMPI PUSH12 0xFFFFFFFFFFFFFFFFFFFFFFFF PUSH1 0xA0 SHL PUSH1 0x1 SLOAD AND OR PUSH1 0x1 SSTORE PUSH1 0x0 DUP1 RETURN JUMPDEST PUSH1 0x40 MLOAD PUSH3 0x461BCD PUSH1 0xE5 SHL DUP2 MSTORE PUSH1 0x20 PUSH1 0x4 DUP3 ADD MSTORE PUSH1 0x10 PUSH1 0x24 DUP3 ADD MSTORE PUSH16 0x496E76616C6964207472656173757279 PUSH1 0x80 SHL PUSH1 0x44 DUP3 ADD MSTORE PUSH1 0x64 SWAP1 REVERT JUMPDEST PUSH1 0x0 DUP1 REVERT JUMPDEST PUSH1 0x80 CALLDATASIZE PUSH1 0x3 NOT ADD SLT PUSH2 0x2D0 JUMPI PUSH1 0x4 CALLDATALOAD PUSH8 0xFFFFFFFFFFFFFFFF DUP2 GT PUSH2 0x2D0 JUMPI PUSH2 0x301 SWAP1 CALLDATASIZE SWAP1 PUSH1 0x4 ADD PUSH2 0x1DDD JUMP JUMPDEST SWAP1 PUSH1 0x24 CALLDATALOAD PUSH8 0xFFFFFFFFFFFFFFFF DUP2 GT PUSH2 0x2D0 JUMPI PUSH2 0x322 SWAP1 CALLDATASIZE SWAP1 PUSH1 0x4 ADD PUSH2 0x1DDD JUMP JUMPDEST SWAP1 PUSH1 0x44 CALLDATALOAD PUSH8 0xFFFFFFFFFFFFFFFF DUP2 GT PUSH2 0x2D0 JUMPI PUSH2 0x343 SWAP1 CALLDATASIZE SWAP1 PUSH1 0x4 ADD PUSH2 0x1DDD JUMP JUMPDEST SWAP1 SWAP2 PUSH1 0x64 CALLDATALOAD SWAP4 PUSH1 0xFF PUSH1 0x4 SLOAD AND ISZERO PUSH2 0x88F JUMPI JUMPDEST PUSH2 0x5460 DUP6 EQ DUP1 ISZERO PUSH2 0x884 JUMPI JUMPDEST DUP1 ISZERO PUSH2 0x878 JUMPI JUMPDEST ISZERO PUSH2 0x840 JUMPI PUSH1 0x3 SLOAD DUP1 CALLVALUE LT PUSH2 0x7FB JUMPI PUSH1 0x1 SLOAD PUSH2 0x38D SWAP2 SWAP1 PUSH1 0x1 PUSH1 0x1 PUSH1 0xA0 SHL SUB AND PUSH2 0x25C0 JUMP JUMPDEST PUSH1 0x3 SLOAD DUP1 CALLVALUE GT PUSH2 0x7E2 JUMPI JUMPDEST POP PUSH1 0x5 SLOAD SWAP6 PUSH2 0x3A6 DUP8 PUSH2 0x1F7F JUMP JUMPDEST PUSH1 0x5 SSTORE PUSH1 0x0 DUP8 DUP2 MSTORE PUSH1 0x6 PUSH1 0x20 MSTORE PUSH1 0x40 SWAP1 KECCAK256 DUP1 SLOAD PUSH1 0x1 PUSH1 0x1 PUSH1 0xA0 SHL SUB NOT AND CALLER OR DUP2 SSTORE PUSH1 0x1 DUP2 ADD PUSH8 0xFFFFFFFFFFFFFFFF DUP11 GT PUSH2 0x660 JUMPI PUSH2 0x3E4 DUP2 SLOAD PUSH2 0x1C63 JUMP JUMPDEST PUSH1 0x1F DUP2 GT PUSH2 0x79A JUMPI JUMPDEST POP DUP10 PUSH1 0x0 PUSH1 0x1F DUP3 GT PUSH1 0x1 EQ PUSH2 0x737 JUMPI PUSH1 0x0 SWAP2 PUSH2 0x72C JUMPI JUMPDEST POP DUP11 PUSH1 0x1 SHL SWAP1 PUSH1 0x0 NOT DUP13 PUSH1 0x3 SHL SHR NOT AND OR SWAP1 SSTORE JUMPDEST PUSH1 0x2 DUP2 ADD PUSH8 0xFFFFFFFFFFFFFFFF DUP5 GT PUSH2 0x660 JUMPI PUSH2 0x435 DUP2 SLOAD PUSH2 0x1C63 JUMP JUMPDEST PUSH1 0x1F DUP2 GT PUSH2 0x6E4 JUMPI JUMPDEST POP DUP4 PUSH1 0x0 PUSH1 0x1F DUP3 GT PUSH1 0x1 EQ PUSH2 0x681 JUMPI PUSH1 0x0 SWAP2 PUSH2 0x676 JUMPI JUMPDEST POP DUP5 PUSH1 0x1 SHL SWAP1 PUSH1 0x0 NOT DUP7 PUSH1 0x3 SHL SHR NOT AND OR SWAP1 SSTORE JUMPDEST PUSH1 0x3 DUP2 ADD PUSH8 0xFFFFFFFFFFFFFFFF DUP7 GT PUSH2 0x660 JUMPI PUSH2 0x486 DUP2 SLOAD PUSH2 0x1C63 JUMP JUMPDEST PUSH1 0x1F DUP2 GT PUSH2 0x618 JUMPI JUMPDEST POP SWAP2 DUP8 PUSH1 0x20 SWAP11 SWAP7 SWAP5 SWAP3 DUP11 SWAP9 SWAP7 SWAP5 PUSH1 0x0 PUSH1 0x1F DUP9 GT PUSH1 0x1 EQ PUSH2 0x55F JUMPI SWAP4 PUSH32 0xC81330F0F38D8570A8EEBD6A7C59421EB1FFF865E2FA9FC3859F96506109B3BA SWAP10 SWAP9 SWAP7 SWAP4 PUSH1 0x7 DUP10 SWAP8 SWAP5 PUSH2 0x525 SWAP5 PUSH2 0x540 SWAP12 PUSH2 0x532 SWAP10 PUSH1 0x0 SWAP2 PUSH2 0x554 JUMPI JUMPDEST POP DUP11 PUSH1 0x1 SHL SWAP1 PUSH1 0x0 NOT DUP13 PUSH1 0x3 SHL SHR NOT AND OR SWAP1 SSTORE JUMPDEST TIMESTAMP PUSH1 0x6 DUP3 ADD SSTORE ADD SSTORE DUP11 PUSH1 0x0 MSTORE PUSH1 0xB DUP15 MSTORE NUMBER PUSH1 0x40 PUSH1 0x0 KECCAK256 SSTORE PUSH1 0x40 MLOAD SWAP9 PUSH1 0x80 DUP11 MSTORE PUSH1 0x80 DUP11 ADD SWAP2 PUSH2 0x2563 JUMP JUMPDEST SWAP2 DUP8 DUP4 SUB DUP14 DUP10 ADD MSTORE PUSH2 0x2563 JUMP JUMPDEST SWAP2 DUP5 DUP4 SUB PUSH1 0x40 DUP7 ADD MSTORE PUSH2 0x2563 JUMP JUMPDEST SWAP4 PUSH1 0x60 DUP3 ADD MSTORE DUP1 CALLER SWAP5 SUB SWAP1 LOG3 PUSH1 0x40 MLOAD SWAP1 DUP2 MSTORE RETURN JUMPDEST SWAP1 POP DUP12 ADD CALLDATALOAD CODESIZE PUSH2 0x4E8 JUMP JUMPDEST SWAP10 SWAP9 SWAP8 SWAP7 SWAP6 SWAP5 SWAP4 SWAP3 SWAP2 SWAP1 PUSH1 0x1F NOT DUP8 AND DUP2 DUP13 MSTORE DUP15 DUP13 KECCAK256 SWAP1 DUP13 JUMPDEST DUP2 DUP2 LT PUSH2 0x5E7 JUMPI POP PUSH2 0x525 SWAP4 DUP10 SWAP9 SWAP7 SWAP4 PUSH2 0x532 SWAP9 SWAP7 SWAP4 PUSH32 0xC81330F0F38D8570A8EEBD6A7C59421EB1FFF865E2FA9FC3859F96506109B3BA SWAP15 SWAP16 PUSH2 0x540 SWAP14 SWAP13 PUSH1 0x7 SWAP6 LT PUSH2 0x5CD JUMPI JUMPDEST POP POP PUSH1 0x1 DUP11 DUP2 SHL ADD SWAP1 SSTORE PUSH2 0x4FC JUMP JUMPDEST DUP13 ADD CALLDATALOAD PUSH1 0x0 NOT PUSH1 0x3 DUP14 SWAP1 SHL PUSH1 0xF8 AND SHR NOT AND SWAP1 SSTORE CODESIZE DUP1 PUSH2 0x5BE JUMP JUMPDEST SWAP4 SWAP7 SWAP9 SWAP11 SWAP13 SWAP5 POP SWAP2 SWAP5 SWAP7 SWAP9 SWAP11 POP DUP15 PUSH1 0x1 DUP2 SWAP3 DUP7 DUP15 ADD CALLDATALOAD DUP2 SSTORE ADD SWAP5 ADD SWAP3 ADD SWAP3 DUP14 SWAP11 SWAP9 SWAP7 SWAP5 SWAP2 DUP14 SWAP5 SWAP13 SWAP11 SWAP9 SWAP7 SWAP4 SWAP13 PUSH2 0x577 JUMP JUMPDEST DUP2 PUSH1 0x0 MSTORE PUSH1 0x20 PUSH1 0x0 KECCAK256 PUSH1 0x1F DUP9 ADD PUSH1 0x5 SHR DUP2 ADD SWAP2 PUSH1 0x20 DUP10 LT PUSH2 0x656 JUMPI JUMPDEST PUSH1 0x1F ADD PUSH1 0x5 SHR ADD SWAP1 JUMPDEST DUP2 DUP2 LT PUSH2 0x64A JUMPI POP PUSH2 0x48F JUMP JUMPDEST PUSH1 0x0 DUP2 SSTORE PUSH1 0x1 ADD PUSH2 0x63D JUMP JUMPDEST SWAP1 SWAP2 POP DUP2 SWAP1 PUSH2 0x634 JUMP JUMPDEST PUSH4 0x4E487B71 PUSH1 0xE0 SHL PUSH1 0x0 MSTORE PUSH1 0x41 PUSH1 0x4 MSTORE PUSH1 0x24 PUSH1 0x0 REVERT JUMPDEST SWAP1 POP DUP6 ADD CALLDATALOAD DUP12 PUSH2 0x455 JUMP JUMPDEST DUP3 DUP2 MSTORE PUSH1 0x20 DUP2 KECCAK256 SWAP2 POP DUP6 PUSH1 0x1F NOT DUP2 AND DUP3 JUMPDEST DUP2 DUP2 LT PUSH2 0x6C9 JUMPI POP LT PUSH2 0x6AF JUMPI JUMPDEST POP POP PUSH1 0x1 DUP5 DUP2 SHL ADD SWAP1 SSTORE PUSH2 0x469 JUMP JUMPDEST DUP7 ADD CALLDATALOAD PUSH1 0x0 NOT PUSH1 0x3 DUP8 SWAP1 SHL PUSH1 0xF8 AND SHR NOT AND SWAP1 SSTORE DUP11 DUP1 PUSH2 0x6A0 JUMP JUMPDEST DUP10 DUP5 ADD CALLDATALOAD DUP6 SSTORE PUSH1 0x1 SWAP1 SWAP5 ADD SWAP4 PUSH1 0x20 SWAP4 DUP5 ADD SWAP4 DUP10 SWAP4 POP ADD PUSH2 0x692 JUMP JUMPDEST DUP2 PUSH1 0x0 MSTORE PUSH1 0x20 PUSH1 0x0 KECCAK256 PUSH1 0x1F DUP7 ADD PUSH1 0x5 SHR DUP2 ADD SWAP2 PUSH1 0x20 DUP8 LT PUSH2 0x722 JUMPI JUMPDEST PUSH1 0x1F ADD PUSH1 0x5 SHR ADD SWAP1 JUMPDEST DUP2 DUP2 LT PUSH2 0x716 JUMPI POP PUSH2 0x43E JUMP JUMPDEST PUSH1 0x0 DUP2 SSTORE PUSH1 0x1 ADD PUSH2 0x709 JUMP JUMPDEST SWAP1 SWAP2 POP DUP2 SWAP1 PUSH2 0x700 JUMP JUMPDEST SWAP1 POP DUP4 ADD CALLDATALOAD DUP12 PUSH2 0x404 JUMP JUMPDEST DUP3 DUP2 MSTORE PUSH1 0x20 DUP2 KECCAK256 SWAP2 POP DUP12 PUSH1 0x1F NOT DUP2 AND DUP3 JUMPDEST DUP2 DUP2 LT PUSH2 0x77F JUMPI POP LT PUSH2 0x765 JUMPI JUMPDEST POP POP PUSH1 0x1 DUP11 DUP2 SHL ADD SWAP1 SSTORE PUSH2 0x418 JUMP JUMPDEST DUP5 ADD CALLDATALOAD PUSH1 0x0 NOT PUSH1 0x3 DUP14 SWAP1 SHL PUSH1 0xF8 AND SHR NOT AND SWAP1 SSTORE DUP11 DUP1 PUSH2 0x756 JUMP JUMPDEST DUP8 DUP5 ADD CALLDATALOAD DUP6 SSTORE PUSH1 0x1 SWAP1 SWAP5 ADD SWAP4 PUSH1 0x20 SWAP4 DUP5 ADD SWAP4 DUP16 SWAP4 POP ADD PUSH2 0x748 JUMP JUMPDEST DUP2 PUSH1 0x0 MSTORE PUSH1 0x20 PUSH1 0x0 KECCAK256 PUSH1 0x1F DUP13 ADD PUSH1 0x5 SHR DUP2 ADD SWAP2 PUSH1 0x20 DUP14 LT PUSH2 0x7D8 JUMPI JUMPDEST PUSH1 0x1F ADD PUSH1 0x5 SHR ADD SWAP1 JUMPDEST DUP2 DUP2 LT PUSH2 0x7CC JUMPI POP PUSH2 0x3ED JUMP JUMPDEST PUSH1 0x0 DUP2 SSTORE PUSH1 0x1 ADD PUSH2 0x7BF JUMP JUMPDEST SWAP1 SWAP2 POP DUP2 SWAP1 PUSH2 0x7B6 JUMP JUMPDEST PUSH2 0x7EF PUSH2 0x7F5 SWAP2 CALLVALUE PUSH2 0x1E6E JUMP JUMPDEST CALLER PUSH2 0x25C0 JUMP JUMPDEST DUP8 PUSH2 0x398 JUMP JUMPDEST PUSH1 0x40 MLOAD PUSH3 0x461BCD PUSH1 0xE5 SHL DUP2 MSTORE PUSH1 0x20 PUSH1 0x4 DUP3 ADD MSTORE PUSH1 0x19 PUSH1 0x24 DUP3 ADD MSTORE PUSH32 0x496E73756666696369656E74206372656174696F6E2066656500000000000000 PUSH1 0x44 DUP3 ADD MSTORE PUSH1 0x64 SWAP1 REVERT JUMPDEST PUSH1 0x40 MLOAD PUSH3 0x461BCD PUSH1 0xE5 SHL DUP2 MSTORE PUSH1 0x20 PUSH1 0x4 DUP3 ADD MSTORE PUSH1 0x10 PUSH1 0x24 DUP3 ADD MSTORE PUSH16 0x24B73B30B634B210323AB930BA34B7B7 PUSH1 0x81 SHL PUSH1 0x44 DUP3 ADD MSTORE PUSH1 0x64 SWAP1 REVERT JUMPDEST POP PUSH3 0x15180 DUP6 EQ PUSH2 0x368 JUMP JUMPDEST POP PUSH2 0xA8C0 DUP6 EQ PUSH2 0x361 JUMP JUMPDEST PUSH1 0x0 SLOAD PUSH1 0x1 PUSH1 0x1 PUSH1 0xA0 SHL SUB AND CALLER EQ PUSH2 0x355 JUMPI PUSH1 0x40 MLOAD PUSH3 0x461BCD PUSH1 0xE5 SHL DUP2 MSTORE PUSH1 0x20 PUSH1 0x4 DUP3 ADD MSTORE PUSH1 0x17 PUSH1 0x24 DUP3 ADD MSTORE PUSH32 0x4372656174696F6E206E6F74207075626C696320796574000000000000000000 PUSH1 0x44 DUP3 ADD MSTORE PUSH1 0x64 SWAP1 REVERT JUMPDEST CALLVALUE PUSH2 0x2D0 JUMPI PUSH1 0x0 CALLDATASIZE PUSH1 0x3 NOT ADD SLT PUSH2 0x2D0 JUMPI PUSH1 0x20 PUSH1 0x40 MLOAD PUSH1 0x2 DUP2 MSTORE RETURN JUMPDEST CALLVALUE PUSH2 0x2D0 JUMPI PUSH1 0x20 CALLDATASIZE PUSH1 0x3 NOT ADD SLT PUSH2 0x2D0 JUMPI PUSH1 0x20 PUSH2 0x92D PUSH1 0x4 CALLDATALOAD PUSH2 0x928 PUSH1 0x5 SLOAD DUP3 LT PUSH2 0x1E0B JUMP JUMPDEST PUSH2 0x2530 JUMP JUMPDEST PUSH1 0x40 MLOAD SWAP1 DUP2 MSTORE RETURN JUMPDEST CALLVALUE PUSH2 0x2D0 JUMPI PUSH1 0x20 CALLDATASIZE PUSH1 0x3 NOT ADD SLT PUSH2 0x2D0 JUMPI PUSH1 0x4 CALLDATALOAD PUSH2 0x956 PUSH1 0x5 SLOAD DUP3 LT PUSH2 0x1E0B JUMP JUMPDEST PUSH1 0x0 MSTORE PUSH1 0x6 PUSH1 0x20 MSTORE PUSH1 0x20 PUSH2 0x92D PUSH1 0x4 PUSH1 0x40 PUSH1 0x0 KECCAK256 ADD SLOAD PUSH1 0x2 SLOAD SWAP1 PUSH2 0x265E JUMP JUMPDEST CALLVALUE PUSH2 0x2D0 JUMPI PUSH1 0x20 CALLDATASIZE PUSH1 0x3 NOT ADD SLT PUSH2 0x2D0 JUMPI PUSH1 0x4 CALLDATALOAD PUSH1 0x0 PUSH2 0x140 PUSH1 0x40 MLOAD PUSH2 0x99A DUP2 PUSH2 0x1C9D JUMP JUMPDEST DUP3 DUP2 MSTORE PUSH1 0x60 PUSH1 0x20 DUP3 ADD MSTORE PUSH1 0x60 PUSH1 0x40 DUP3 ADD MSTORE PUSH1 0x60 DUP1 DUP3 ADD MSTORE DUP3 PUSH1 0x80 DUP3 ADD MSTORE DUP3 PUSH1 0xA0 DUP3 ADD MSTORE DUP3 PUSH1 0xC0 DUP3 ADD MSTORE DUP3 PUSH1 0xE0 DUP3 ADD MSTORE DUP3 PUSH2 0x100 DUP3 ADD MSTORE DUP3 PUSH2 0x120 DUP3 ADD MSTORE ADD MSTORE PUSH2 0x9E6 PUSH1 0x5 SLOAD DUP3 LT PUSH2 0x1E0B JUMP JUMPDEST PUSH1 0x0 MSTORE PUSH1 0x6 PUSH1 0x20 MSTORE PUSH2 0x180 PUSH1 0x40 PUSH1 0x0 KECCAK256 PUSH1 0x40 MLOAD SWAP1 PUSH2 0xA03 DUP3 PUSH2 0x1C9D JUMP JUMPDEST DUP1 SLOAD PUSH1 0x1 PUSH1 0x1 PUSH1 0xA0 SHL SUB AND DUP3 MSTORE PUSH2 0xA1C PUSH1 0x1 DUP3 ADD PUSH2 0x1CDC JUMP JUMPDEST SWAP2 PUSH1 0x20 DUP2 ADD SWAP3 DUP4 MSTORE DUP1 PUSH1 0xFF PUSH2 0xA33 PUSH1 0x2 DUP6 ADD PUSH2 0x1CDC JUMP JUMPDEST SWAP4 PUSH1 0x40 DUP4 ADD SWAP5 DUP6 MSTORE PUSH2 0xA47 PUSH1 0x3 DUP3 ADD PUSH2 0x1CDC JUMP JUMPDEST SWAP5 PUSH1 0x60 DUP5 ADD SWAP6 DUP7 MSTORE PUSH1 0x4 DUP3 ADD SLOAD SWAP6 PUSH1 0x80 DUP6 ADD SWAP7 DUP8 MSTORE PUSH2 0xB0D PUSH1 0x5 DUP5 ADD SLOAD SWAP2 PUSH1 0xA0 DUP8 ADD SWAP3 DUP4 MSTORE PUSH2 0xAFA PUSH1 0x6 DUP7 ADD SLOAD SWAP5 PUSH1 0xC0 DUP10 ADD SWAP6 DUP7 MSTORE PUSH2 0xAE7 PUSH1 0x9 PUSH1 0x7 DUP10 ADD SLOAD SWAP9 PUSH1 0xE0 DUP13 ADD SWAP10 DUP11 MSTORE DUP11 PUSH2 0x120 PUSH1 0x8 DUP4 ADD SLOAD SWAP14 DUP15 PUSH2 0x100 DUP3 ADD SWAP15 DUP16 SWAP2 AND ISZERO ISZERO SWAP1 MSTORE ADD SWAP13 PUSH1 0x8 SHR AND ISZERO ISZERO DUP13 MSTORE ADD SLOAD SWAP11 PUSH2 0x140 DUP2 ADD SWAP12 DUP13 MSTORE PUSH1 0x40 MLOAD SWAP15 DUP16 SWAP15 DUP16 SWAP3 PUSH1 0x20 DUP5 MSTORE PUSH1 0x1 DUP1 PUSH1 0xA0 SHL SUB SWAP1 MLOAD AND PUSH1 0x20 DUP5 ADD MSTORE MLOAD SWAP2 PUSH2 0x160 PUSH1 0x40 DUP3 ADD MSTORE ADD SWAP1 PUSH2 0x1D80 JUMP JUMPDEST SWAP1 MLOAD DUP13 DUP3 SUB PUSH1 0x1F NOT ADD PUSH1 0x60 DUP15 ADD MSTORE PUSH2 0x1D80 JUMP JUMPDEST SWAP1 MLOAD DUP11 DUP3 SUB PUSH1 0x1F NOT ADD PUSH1 0x80 DUP13 ADD MSTORE PUSH2 0x1D80 JUMP JUMPDEST SWAP7 MLOAD PUSH1 0xA0 DUP10 ADD MSTORE MLOAD PUSH1 0xC0 DUP9 ADD MSTORE MLOAD PUSH1 0xE0 DUP8 ADD MSTORE MLOAD PUSH2 0x100 DUP7 ADD MSTORE MLOAD ISZERO ISZERO PUSH2 0x120 DUP6 ADD MSTORE MLOAD ISZERO ISZERO PUSH2 0x140 DUP5 ADD MSTORE MLOAD PUSH2 0x160 DUP4 ADD MSTORE SUB SWAP1 RETURN JUMPDEST CALLVALUE PUSH2 0x2D0 JUMPI PUSH1 0x0 CALLDATASIZE PUSH1 0x3 NOT ADD SLT PUSH2 0x2D0 JUMPI PUSH1 0x20 PUSH1 0x40 MLOAD PUSH1 0x5 DUP2 MSTORE RETURN JUMPDEST CALLVALUE PUSH2 0x2D0 JUMPI PUSH1 0x0 CALLDATASIZE PUSH1 0x3 NOT ADD SLT PUSH2 0x2D0 JUMPI PUSH1 0x20 PUSH1 0x3 SLOAD PUSH1 0x40 MLOAD SWAP1 DUP2 MSTORE RETURN JUMPDEST CALLVALUE PUSH2 0x2D0 JUMPI PUSH1 0x20 CALLDATASIZE PUSH1 0x3 NOT ADD SLT PUSH2 0x2D0 JUMPI PUSH1 0x4 CALLDATALOAD PUSH2 0xB9F PUSH1 0x5 SLOAD DUP3 LT PUSH2 0x1E0B JUMP JUMPDEST PUSH1 0x0 MSTORE PUSH1 0x6 PUSH1 0x20 MSTORE PUSH1 0x20 PUSH1 0x40 PUSH1 0x0 KECCAK256 PUSH1 0xFF PUSH1 0x8 DUP3 ADD SLOAD AND ISZERO SWAP1 DUP2 PUSH2 0xBC9 JUMPI JUMPDEST POP PUSH1 0x40 MLOAD SWAP1 ISZERO ISZERO DUP2 MSTORE RETURN JUMPDEST PUSH2 0xBDE SWAP2 POP PUSH1 0x7 PUSH1 0x6 DUP3 ADD SLOAD SWAP2 ADD SLOAD SWAP1 PUSH2 0x1E4E JUMP JUMPDEST TIMESTAMP LT DUP3 PUSH2 0xBBE JUMP JUMPDEST PUSH2 0xBEF CALLDATASIZE PUSH2 0x1C37 JUMP JUMPDEST SWAP1 PUSH2 0xBF8 PUSH2 0x2584 JUMP JUMPDEST PUSH2 0xC05 PUSH1 0x5 SLOAD DUP3 LT PUSH2 0x1E0B JUMP JUMPDEST DUP1 PUSH1 0x0 MSTORE PUSH1 0x6 PUSH1 0x20 MSTORE PUSH2 0xC23 PUSH1 0xFF PUSH1 0x8 PUSH1 0x40 PUSH1 0x0 KECCAK256 ADD SLOAD AND ISZERO PUSH2 0x2479 JUMP JUMPDEST DUP1 PUSH1 0x0 MSTORE PUSH1 0x6 PUSH1 0x20 MSTORE PUSH2 0xC5A PUSH2 0xC53 PUSH1 0x6 PUSH1 0x40 PUSH1 0x0 KECCAK256 ADD SLOAD DUP4 PUSH1 0x0 MSTORE PUSH1 0x6 PUSH1 0x20 MSTORE PUSH1 0x7 PUSH1 0x40 PUSH1 0x0 KECCAK256 ADD SLOAD SWAP1 PUSH2 0x1E4E JUMP JUMPDEST TIMESTAMP LT PUSH2 0x24B5 JUMP JUMPDEST PUSH7 0x2386F26FC10000 CALLVALUE LT PUSH2 0x1082 JUMPI PUSH1 0x0 DUP2 DUP2 MSTORE PUSH1 0xC PUSH1 0x20 SWAP1 DUP2 MSTORE PUSH1 0x40 DUP1 DUP4 KECCAK256 CALLER DUP5 MSTORE SWAP1 SWAP2 MSTORE SWAP1 KECCAK256 SLOAD PUSH1 0x2 DUP2 ADD SWAP1 DUP2 LT PUSH2 0xFF7 JUMPI NUMBER GT ISZERO PUSH2 0x1047 JUMPI PUSH1 0x0 DUP2 DUP2 MSTORE PUSH1 0xC PUSH1 0x20 SWAP1 DUP2 MSTORE PUSH1 0x40 DUP1 DUP4 KECCAK256 CALLER DUP5 MSTORE DUP3 MSTORE DUP1 DUP4 KECCAK256 NUMBER SWAP1 SSTORE DUP4 DUP4 MSTORE PUSH1 0x6 SWAP1 SWAP2 MSTORE SWAP1 KECCAK256 CALLVALUE DUP1 ISZERO SWAP2 SWAP1 PUSH1 0x64 DUP2 DUP2 MUL SWAP2 DUP3 DIV EQ DUP4 OR ISZERO PUSH2 0xFF7 JUMPI PUSH2 0x2710 SWAP1 DIV SWAP2 PUSH1 0x32 CALLVALUE MUL SWAP1 CALLVALUE DUP3 DIV PUSH1 0x32 EQ OR ISZERO PUSH2 0xFF7 JUMPI PUSH2 0x2710 SWAP1 DIV SWAP1 PUSH2 0xCFF DUP3 PUSH2 0xCFA DUP6 CALLVALUE PUSH2 0x1E6E JUMP JUMPDEST PUSH2 0x1E6E JUMP JUMPDEST SWAP1 PUSH1 0x4 DUP2 ADD SWAP2 DUP3 SLOAD PUSH2 0xD1D PUSH2 0xD14 DUP4 DUP4 PUSH2 0x26E8 JUMP JUMPDEST SWAP9 DUP10 LT ISZERO PUSH2 0x24F0 JUMP JUMPDEST PUSH12 0x33B2E3C9FD0803CE8000000 PUSH2 0xD34 DUP10 DUP4 PUSH2 0x1E4E JUMP JUMPDEST GT PUSH2 0x100D JUMPI DUP7 PUSH1 0x0 MSTORE PUSH1 0xB PUSH1 0x20 MSTORE PUSH1 0x40 PUSH1 0x0 KECCAK256 SLOAD PUSH1 0x5 DUP2 ADD DUP1 SWAP2 GT PUSH2 0xFF7 JUMPI NUMBER LT PUSH2 0xF74 JUMPI JUMPDEST DUP7 PUSH1 0x0 MSTORE PUSH1 0x7 PUSH1 0x20 MSTORE PUSH1 0x40 PUSH1 0x0 KECCAK256 PUSH1 0x1 DUP1 PUSH1 0xA0 SHL SUB CALLER AND PUSH1 0x0 MSTORE PUSH1 0x20 MSTORE PUSH11 0x52B7D2DCC80CD2E4000000 PUSH2 0xD92 DUP10 PUSH1 0x40 PUSH1 0x0 KECCAK256 SLOAD PUSH2 0x1E4E JUMP JUMPDEST GT PUSH2 0xF2F JUMPI DUP8 PUSH2 0xDA1 SWAP2 PUSH2 0x1E4E JUMP JUMPDEST DUP4 SSTORE PUSH2 0xDB2 PUSH1 0x5 DUP4 ADD SWAP2 DUP3 SLOAD PUSH2 0x1E4E JUMP JUMPDEST SWAP1 SSTORE DUP5 PUSH1 0x0 MSTORE PUSH1 0x7 PUSH1 0x20 MSTORE PUSH1 0x40 PUSH1 0x0 KECCAK256 PUSH1 0x1 DUP1 PUSH1 0xA0 SHL SUB CALLER AND PUSH1 0x0 MSTORE PUSH1 0x20 MSTORE PUSH1 0x40 PUSH1 0x0 KECCAK256 PUSH2 0xDE1 DUP8 DUP3 SLOAD PUSH2 0x1E4E JUMP JUMPDEST SWAP1 SSTORE PUSH1 0x0 DUP6 DUP2 MSTORE PUSH1 0x9 PUSH1 0x20 SWAP1 DUP2 MSTORE PUSH1 0x40 DUP1 DUP4 KECCAK256 CALLER DUP5 MSTORE SWAP1 SWAP2 MSTORE SWAP1 KECCAK256 SLOAD DUP4 SWAP1 PUSH1 0xFF AND ISZERO PUSH2 0xEA3 JUMPI JUMPDEST PUSH1 0x1 SLOAD PUSH2 0xE33 SWAP3 SWAP1 PUSH2 0xE24 SWAP1 DUP8 SWAP1 PUSH1 0x1 PUSH1 0x1 PUSH1 0xA0 SHL SUB AND PUSH2 0x25C0 JUMP JUMPDEST SLOAD PUSH1 0x1 PUSH1 0x1 PUSH1 0xA0 SHL SUB AND PUSH2 0x25C0 JUMP JUMPDEST SLOAD SWAP1 PUSH2 0xE41 PUSH1 0x2 SLOAD DUP4 PUSH2 0x265E JUMP JUMPDEST SWAP3 PUSH1 0x40 MLOAD SWAP6 PUSH1 0x1 DUP8 MSTORE PUSH1 0x20 DUP8 ADD MSTORE CALLVALUE PUSH1 0x40 DUP8 ADD MSTORE PUSH1 0x60 DUP7 ADD MSTORE PUSH1 0x80 DUP6 ADD MSTORE PUSH1 0xA0 DUP5 ADD MSTORE PUSH1 0xC0 DUP4 ADD MSTORE PUSH32 0x21FB2EF4DB4BF31F6D1E357C56A918E6FB61D5B270A2F9C5075FF638093819D7 PUSH1 0xE0 CALLER SWAP4 LOG3 PUSH1 0x1 PUSH1 0x0 DUP1 MLOAD PUSH1 0x20 PUSH2 0x2869 DUP4 CODECOPY DUP2 MLOAD SWAP2 MSTORE SSTORE STOP JUMPDEST POP PUSH1 0x0 DUP6 DUP2 MSTORE PUSH1 0x9 PUSH1 0x20 SWAP1 DUP2 MSTORE PUSH1 0x40 DUP1 DUP4 KECCAK256 CALLER DUP5 MSTORE DUP3 MSTORE DUP1 DUP4 KECCAK256 DUP1 SLOAD PUSH1 0xFF NOT AND PUSH1 0x1 OR SWAP1 SSTORE DUP8 DUP4 MSTORE PUSH1 0x8 SWAP1 SWAP2 MSTORE SWAP1 KECCAK256 DUP1 SLOAD SWAP1 SWAP2 PUSH9 0x10000000000000000 DUP3 LT ISZERO PUSH2 0x660 JUMPI PUSH2 0xEFB DUP3 PUSH2 0xE33 SWAP5 PUSH1 0x1 DUP9 SWAP6 ADD DUP2 SSTORE PUSH2 0x1F51 JUMP JUMPDEST DUP2 SLOAD PUSH1 0x1 PUSH1 0x1 PUSH1 0xA0 SHL SUB PUSH1 0x3 SWAP3 SWAP1 SWAP3 SHL SWAP2 DUP3 SHL NOT AND CALLER SWAP1 SWAP2 SHL OR SWAP1 SSTORE PUSH1 0x9 DUP2 ADD DUP1 SLOAD PUSH2 0xF26 SWAP1 PUSH2 0x1F7F JUMP JUMPDEST SWAP1 SSTORE SWAP2 POP PUSH2 0xE08 JUMP JUMPDEST PUSH1 0x40 MLOAD PUSH3 0x461BCD PUSH1 0xE5 SHL DUP2 MSTORE PUSH1 0x20 PUSH1 0x4 DUP3 ADD MSTORE PUSH1 0x18 PUSH1 0x24 DUP3 ADD MSTORE PUSH32 0x4D617820686F6C64696E67203130252065786365656465640000000000000000 PUSH1 0x44 DUP3 ADD MSTORE PUSH1 0x64 SWAP1 REVERT JUMPDEST DUP7 PUSH1 0x0 MSTORE PUSH1 0x7 PUSH1 0x20 MSTORE PUSH1 0x40 PUSH1 0x0 KECCAK256 PUSH1 0x1 DUP1 PUSH1 0xA0 SHL SUB CALLER AND PUSH1 0x0 MSTORE PUSH1 0x20 MSTORE PUSH11 0x84595161401484A000000 PUSH2 0xFAC DUP10 PUSH1 0x40 PUSH1 0x0 KECCAK256 SLOAD PUSH2 0x1E4E JUMP JUMPDEST GT ISZERO PUSH2 0xD5A JUMPI PUSH1 0x40 MLOAD PUSH3 0x461BCD PUSH1 0xE5 SHL DUP2 MSTORE PUSH1 0x20 PUSH1 0x4 DUP3 ADD MSTORE PUSH1 0x1D PUSH1 0x24 DUP3 ADD MSTORE PUSH32 0x416E74692D736E697065723A206D617820627579206578636565646564000000 PUSH1 0x44 DUP3 ADD MSTORE PUSH1 0x64 SWAP1 REVERT JUMPDEST PUSH4 0x4E487B71 PUSH1 0xE0 SHL PUSH1 0x0 MSTORE PUSH1 0x11 PUSH1 0x4 MSTORE PUSH1 0x24 PUSH1 0x0 REVERT JUMPDEST PUSH1 0x40 MLOAD PUSH3 0x461BCD PUSH1 0xE5 SHL DUP2 MSTORE PUSH1 0x20 PUSH1 0x4 DUP3 ADD MSTORE PUSH1 0x12 PUSH1 0x24 DUP3 ADD MSTORE PUSH18 0x13585E081CDD5C1C1B1E481C995858DA1959 PUSH1 0x72 SHL PUSH1 0x44 DUP3 ADD MSTORE PUSH1 0x64 SWAP1 REVERT JUMPDEST PUSH1 0x40 MLOAD PUSH3 0x461BCD PUSH1 0xE5 SHL DUP2 MSTORE PUSH1 0x20 PUSH1 0x4 DUP3 ADD MSTORE PUSH1 0x13 PUSH1 0x24 DUP3 ADD MSTORE PUSH19 0x42757920636F6F6C646F776E20616374697665 PUSH1 0x68 SHL PUSH1 0x44 DUP3 ADD MSTORE PUSH1 0x64 SWAP1 REVERT JUMPDEST PUSH1 0x40 MLOAD PUSH3 0x461BCD PUSH1 0xE5 SHL DUP2 MSTORE PUSH1 0x20 PUSH1 0x4 DUP3 ADD MSTORE PUSH1 0x10 PUSH1 0x24 DUP3 ADD MSTORE PUSH16 0x26B4B710313ABC90181718189026A7A7 PUSH1 0x81 SHL PUSH1 0x44 DUP3 ADD MSTORE PUSH1 0x64 SWAP1 REVERT JUMPDEST CALLVALUE PUSH2 0x2D0 JUMPI PUSH1 0x60 CALLDATASIZE PUSH1 0x3 NOT ADD SLT PUSH2 0x2D0 JUMPI PUSH1 0x24 CALLDATALOAD PUSH1 0x4 CALLDATALOAD PUSH2 0x10D9 PUSH2 0x2584 JUMP JUMPDEST PUSH2 0x10E6 PUSH1 0x5 SLOAD DUP3 LT PUSH2 0x1E0B JUMP JUMPDEST DUP1 PUSH1 0x0 MSTORE PUSH1 0x6 PUSH1 0x20 MSTORE PUSH2 0x1104 PUSH1 0xFF PUSH1 0x8 PUSH1 0x40 PUSH1 0x0 KECCAK256 ADD SLOAD AND ISZERO PUSH2 0x2479 JUMP JUMPDEST DUP1 PUSH1 0x0 MSTORE PUSH1 0x6 PUSH1 0x20 MSTORE PUSH2 0x1134 PUSH2 0xC53 PUSH1 0x6 PUSH1 0x40 PUSH1 0x0 KECCAK256 ADD SLOAD DUP4 PUSH1 0x0 MSTORE PUSH1 0x6 PUSH1 0x20 MSTORE PUSH1 0x7 PUSH1 0x40 PUSH1 0x0 KECCAK256 ADD SLOAD SWAP1 PUSH2 0x1E4E JUMP JUMPDEST DUP2 ISZERO PUSH2 0x1354 JUMPI PUSH1 0x0 DUP2 DUP2 MSTORE PUSH1 0x7 PUSH1 0x20 SWAP1 DUP2 MSTORE PUSH1 0x40 DUP1 DUP4 KECCAK256 CALLER DUP5 MSTORE SWAP1 SWAP2 MSTORE SWAP1 KECCAK256 SLOAD DUP3 GT PUSH2 0x1318 JUMPI DUP1 PUSH1 0x0 MSTORE PUSH1 0x6 PUSH1 0x20 MSTORE PUSH1 0x40 PUSH1 0x0 KECCAK256 PUSH1 0x4 DUP2 ADD DUP1 SLOAD SWAP2 PUSH2 0x117C PUSH1 0x2 SLOAD DUP7 DUP6 PUSH2 0x267E JUMP JUMPDEST SWAP2 PUSH1 0x5 DUP3 ADD SWAP2 DUP3 SLOAD SWAP3 DUP4 DUP6 GT PUSH2 0x130F JUMPI JUMPDEST PUSH1 0x64 DUP6 MUL DUP6 ISZERO SWAP1 DUP7 DUP2 DIV PUSH1 0x64 EQ DUP3 OR ISZERO PUSH2 0xFF7 JUMPI PUSH2 0x2710 SWAP1 DIV SWAP6 PUSH1 0x32 DUP2 MUL SWAP2 DUP2 DUP4 DIV PUSH1 0x32 EQ OR ISZERO PUSH2 0xFF7 JUMPI PUSH2 0x2710 PUSH2 0x11E9 SWAP3 DIV SWAP6 PUSH2 0x11E2 DUP12 PUSH2 0x11D3 DUP10 PUSH2 0xCFA DUP13 DUP8 PUSH2 0x1E6E JUMP JUMPDEST SWAP11 PUSH2 0xCFA PUSH1 0x44 CALLDATALOAD DUP14 LT ISZERO PUSH2 0x24F0 JUMP JUMPDEST DUP7 SSTORE PUSH2 0x1E6E JUMP JUMPDEST SWAP1 SSTORE DUP6 PUSH1 0x0 MSTORE PUSH1 0x7 PUSH1 0x20 MSTORE PUSH1 0x40 PUSH1 0x0 KECCAK256 PUSH1 0x1 DUP1 PUSH1 0xA0 SHL SUB CALLER AND PUSH1 0x0 MSTORE PUSH1 0x20 MSTORE PUSH1 0x40 PUSH1 0x0 KECCAK256 PUSH2 0x1218 DUP9 DUP3 SLOAD PUSH2 0x1E6E JUMP JUMPDEST SWAP1 SSTORE PUSH1 0x0 DUP7 DUP2 MSTORE PUSH1 0x7 PUSH1 0x20 SWAP1 DUP2 MSTORE PUSH1 0x40 DUP1 DUP4 KECCAK256 CALLER DUP5 MSTORE SWAP1 SWAP2 MSTORE SWAP1 KECCAK256 SLOAD DUP4 SWAP1 ISZERO PUSH2 0x12D1 JUMPI JUMPDEST PUSH1 0x1 SLOAD PUSH2 0x1258 SWAP3 SWAP1 PUSH2 0xE24 SWAP1 DUP8 SWAP1 PUSH1 0x1 PUSH1 0x1 PUSH1 0xA0 SHL SUB AND PUSH2 0x25C0 JUMP JUMPDEST PUSH2 0x1262 DUP5 CALLER PUSH2 0x25C0 JUMP JUMPDEST SLOAD SWAP2 PUSH2 0x1270 PUSH1 0x2 SLOAD DUP5 PUSH2 0x265E JUMP JUMPDEST SWAP4 PUSH1 0x40 MLOAD SWAP7 PUSH1 0x0 DUP9 MSTORE PUSH1 0x20 DUP9 ADD MSTORE PUSH1 0x40 DUP8 ADD MSTORE PUSH1 0x60 DUP7 ADD MSTORE PUSH1 0x80 DUP6 ADD MSTORE PUSH1 0xA0 DUP5 ADD MSTORE PUSH1 0xC0 DUP4 ADD MSTORE PUSH32 0x21FB2EF4DB4BF31F6D1E357C56A918E6FB61D5B270A2F9C5075FF638093819D7 PUSH1 0xE0 CALLER SWAP4 LOG3 PUSH1 0x1 PUSH1 0x0 DUP1 MLOAD PUSH1 0x20 PUSH2 0x2869 DUP4 CODECOPY DUP2 MLOAD SWAP2 MSTORE SSTORE STOP JUMPDEST POP PUSH1 0x0 DUP7 DUP2 MSTORE PUSH1 0x9 PUSH1 0x20 DUP2 DUP2 MSTORE PUSH1 0x40 DUP1 DUP5 KECCAK256 CALLER DUP6 MSTORE SWAP1 SWAP2 MSTORE SWAP1 SWAP2 KECCAK256 DUP1 SLOAD PUSH1 0xFF NOT AND SWAP1 SSTORE DUP2 ADD DUP1 SLOAD SWAP1 SWAP2 DUP2 ISZERO PUSH2 0xFF7 JUMPI PUSH1 0x0 NOT SWAP1 SWAP2 ADD SWAP1 SWAP2 SSTORE DUP3 PUSH2 0x123C JUMP JUMPDEST SWAP4 POP DUP3 SWAP4 PUSH2 0x118D JUMP JUMPDEST PUSH1 0x40 MLOAD PUSH3 0x461BCD PUSH1 0xE5 SHL DUP2 MSTORE PUSH1 0x20 PUSH1 0x4 DUP3 ADD MSTORE PUSH1 0x14 PUSH1 0x24 DUP3 ADD MSTORE PUSH20 0x496E73756666696369656E742062616C616E6365 PUSH1 0x60 SHL PUSH1 0x44 DUP3 ADD MSTORE PUSH1 0x64 SWAP1 REVERT JUMPDEST PUSH1 0x40 MLOAD PUSH3 0x461BCD PUSH1 0xE5 SHL DUP2 MSTORE PUSH1 0x20 PUSH1 0x4 DUP3 ADD MSTORE PUSH1 0x12 PUSH1 0x24 DUP3 ADD MSTORE PUSH18 0x416D6F756E74206D757374206265203E203 PUSH1 0x74 SHL PUSH1 0x44 DUP3 ADD MSTORE PUSH1 0x64 SWAP1 REVERT JUMPDEST PUSH2 0x1DC1 JUMP JUMPDEST CALLVALUE PUSH2 0x2D0 JUMPI PUSH1 0x0 CALLDATASIZE PUSH1 0x3 NOT ADD SLT PUSH2 0x2D0 JUMPI PUSH1 0x20 PUSH1 0x40 MLOAD PUSH1 0x32 DUP2 MSTORE RETURN JUMPDEST CALLVALUE PUSH2 0x2D0 JUMPI PUSH1 0x20 CALLDATASIZE PUSH1 0x3 NOT ADD SLT PUSH2 0x2D0 JUMPI PUSH1 0x4 CALLDATALOAD DUP1 ISZERO ISZERO DUP1 SWAP2 SUB PUSH2 0x2D0 JUMPI PUSH2 0x13E2 PUSH1 0x1 DUP1 PUSH1 0xA0 SHL SUB PUSH1 0x0 SLOAD AND CALLER EQ PUSH2 0x1E9B JUMP JUMPDEST PUSH1 0xFF DUP1 NOT PUSH1 0x4 SLOAD AND SWAP2 AND OR PUSH1 0x4 SSTORE PUSH1 0x0 DUP1 RETURN JUMPDEST CALLVALUE PUSH2 0x2D0 JUMPI PUSH1 0x40 CALLDATASIZE PUSH1 0x3 NOT ADD SLT PUSH2 0x2D0 JUMPI PUSH2 0x140E PUSH2 0x1C4D JUMP JUMPDEST PUSH1 0x4 CALLDATALOAD PUSH1 0x0 MSTORE PUSH1 0xA PUSH1 0x20 MSTORE PUSH1 0x40 PUSH1 0x0 KECCAK256 SWAP1 PUSH1 0x1 DUP1 PUSH1 0xA0 SHL SUB AND PUSH1 0x0 MSTORE PUSH1 0x20 MSTORE PUSH1 0x20 PUSH1 0x40 PUSH1 0x0 KECCAK256 SLOAD PUSH1 0x40 MLOAD SWAP1 DUP2 MSTORE RETURN JUMPDEST CALLVALUE PUSH2 0x2D0 JUMPI PUSH1 0x20 CALLDATASIZE PUSH1 0x3 NOT ADD SLT PUSH2 0x2D0 JUMPI PUSH2 0x1463 PUSH1 0x1 DUP1 PUSH1 0xA0 SHL SUB PUSH1 0x0 SLOAD AND CALLER EQ PUSH2 0x1E9B JUMP JUMPDEST PUSH1 0x4 CALLDATALOAD PUSH1 0x3 SSTORE STOP JUMPDEST CALLVALUE PUSH2 0x2D0 JUMPI PUSH1 0x20 CALLDATASIZE PUSH1 0x3 NOT ADD SLT PUSH2 0x2D0 JUMPI PUSH2 0x149C PUSH1 0x4 CALLDATALOAD PUSH2 0x148A PUSH2 0x2584 JUMP JUMPDEST PUSH2 0x1497 PUSH1 0x5 SLOAD DUP3 LT PUSH2 0x1E0B JUMP JUMPDEST PUSH2 0x1F8E JUMP JUMPDEST PUSH1 0x1 PUSH1 0x0 DUP1 MLOAD PUSH1 0x20 PUSH2 0x2869 DUP4 CODECOPY DUP2 MLOAD SWAP2 MSTORE SSTORE STOP JUMPDEST CALLVALUE PUSH2 0x2D0 JUMPI PUSH1 0x0 CALLDATASIZE PUSH1 0x3 NOT ADD SLT PUSH2 0x2D0 JUMPI PUSH1 0x20 PUSH1 0x2 SLOAD PUSH1 0x40 MLOAD SWAP1 DUP2 MSTORE RETURN JUMPDEST CALLVALUE PUSH2 0x2D0 JUMPI PUSH1 0x40 CALLDATASIZE PUSH1 0x3 NOT ADD SLT PUSH2 0x2D0 JUMPI PUSH2 0x14E7 PUSH2 0x1C4D JUMP JUMPDEST PUSH1 0x4 CALLDATALOAD PUSH1 0x0 MSTORE PUSH1 0x7 PUSH1 0x20 MSTORE PUSH1 0x40 PUSH1 0x0 KECCAK256 SWAP1 PUSH1 0x1 DUP1 PUSH1 0xA0 SHL SUB AND PUSH1 0x0 MSTORE PUSH1 0x20 MSTORE PUSH1 0x20 PUSH1 0x40 PUSH1 0x0 KECCAK256 SLOAD PUSH1 0x40 MLOAD SWAP1 DUP2 MSTORE RETURN JUMPDEST CALLVALUE PUSH2 0x2D0 JUMPI PUSH1 0x0 CALLDATASIZE PUSH1 0x3 NOT ADD SLT PUSH2 0x2D0 JUMPI PUSH1 0x20 PUSH1 0x5 SLOAD PUSH1 0x40 MLOAD SWAP1 DUP2 MSTORE RETURN JUMPDEST CALLVALUE PUSH2 0x2D0 JUMPI PUSH2 0x156E PUSH2 0x1545 CALLDATASIZE PUSH2 0x1C37 JUMP JUMPDEST SWAP1 PUSH2 0x1553 PUSH1 0x5 SLOAD DUP3 LT PUSH2 0x1E0B JUMP JUMPDEST PUSH1 0x0 MSTORE PUSH1 0x6 PUSH1 0x20 MSTORE PUSH1 0x4 PUSH1 0x40 PUSH1 0x0 KECCAK256 ADD SLOAD SWAP1 PUSH1 0x2 SLOAD SWAP2 PUSH2 0x267E JUMP JUMPDEST PUSH1 0x96 DUP2 MUL DUP2 DUP2 DIV PUSH1 0x96 EQ DUP3 ISZERO OR ISZERO PUSH2 0xFF7 JUMPI PUSH1 0x20 SWAP2 PUSH2 0x2710 PUSH2 0x92D SWAP3 DIV SWAP1 PUSH2 0x1E6E JUMP JUMPDEST CALLVALUE PUSH2 0x2D0 JUMPI PUSH1 0x20 CALLDATASIZE PUSH1 0x3 NOT ADD SLT PUSH2 0x2D0 JUMPI PUSH1 0x20 PUSH2 0x92D PUSH1 0x4 CALLDATALOAD PUSH2 0x15B7 PUSH1 0x5 SLOAD DUP3 LT PUSH2 0x1E0B JUMP JUMPDEST PUSH2 0x1ED3 JUMP JUMPDEST CALLVALUE PUSH2 0x2D0 JUMPI PUSH1 0x20 CALLDATASIZE PUSH1 0x3 NOT ADD SLT PUSH2 0x2D0 JUMPI PUSH1 0x4 CALLDATALOAD PUSH2 0x15DD PUSH1 0x5 SLOAD DUP3 LT PUSH2 0x1E0B JUMP JUMPDEST PUSH1 0x0 MSTORE PUSH1 0x8 PUSH1 0x20 MSTORE PUSH1 0x40 PUSH1 0x0 KECCAK256 PUSH1 0x40 MLOAD DUP1 PUSH1 0x20 DUP4 SLOAD SWAP2 DUP3 DUP2 MSTORE ADD SWAP1 DUP2 SWAP4 PUSH1 0x0 MSTORE PUSH1 0x20 PUSH1 0x0 KECCAK256 SWAP1 PUSH1 0x0 JUMPDEST DUP2 DUP2 LT PUSH2 0x1668 JUMPI POP POP POP DUP2 PUSH2 0x161C SWAP2 SUB DUP3 PUSH2 0x1CBA JUMP JUMPDEST PUSH1 0x40 MLOAD SWAP2 DUP3 SWAP2 PUSH1 0x20 DUP4 ADD SWAP1 PUSH1 0x20 DUP5 MSTORE MLOAD DUP1 SWAP2 MSTORE PUSH1 0x40 DUP4 ADD SWAP2 SWAP1 PUSH1 0x0 JUMPDEST DUP2 DUP2 LT PUSH2 0x1646 JUMPI POP POP POP SUB SWAP1 RETURN JUMPDEST DUP3 MLOAD PUSH1 0x1 PUSH1 0x1 PUSH1 0xA0 SHL SUB AND DUP5 MSTORE DUP6 SWAP5 POP PUSH1 0x20 SWAP4 DUP5 ADD SWAP4 SWAP1 SWAP3 ADD SWAP2 PUSH1 0x1 ADD PUSH2 0x1638 JUMP JUMPDEST DUP3 SLOAD PUSH1 0x1 PUSH1 0x1 PUSH1 0xA0 SHL SUB AND DUP5 MSTORE PUSH1 0x20 SWAP1 SWAP4 ADD SWAP3 PUSH1 0x1 SWAP3 DUP4 ADD SWAP3 ADD PUSH2 0x1606 JUMP JUMPDEST CALLVALUE PUSH2 0x2D0 JUMPI PUSH1 0x0 CALLDATASIZE PUSH1 0x3 NOT ADD SLT PUSH2 0x2D0 JUMPI PUSH1 0x0 SLOAD PUSH1 0x40 MLOAD PUSH1 0x1 PUSH1 0x1 PUSH1 0xA0 SHL SUB SWAP1 SWAP2 AND DUP2 MSTORE PUSH1 0x20 SWAP1 RETURN JUMPDEST CALLVALUE PUSH2 0x2D0 JUMPI PUSH1 0x40 CALLDATASIZE PUSH1 0x3 NOT ADD SLT PUSH2 0x2D0 JUMPI PUSH2 0x16C9 PUSH2 0x1C4D JUMP JUMPDEST PUSH1 0x4 CALLDATALOAD PUSH1 0x0 MSTORE PUSH1 0xC PUSH1 0x20 MSTORE PUSH1 0x40 PUSH1 0x0 KECCAK256 SWAP1 PUSH1 0x1 DUP1 PUSH1 0xA0 SHL SUB AND PUSH1 0x0 MSTORE PUSH1 0x20 MSTORE PUSH1 0x20 PUSH1 0x40 PUSH1 0x0 KECCAK256 SLOAD PUSH1 0x40 MLOAD SWAP1 DUP2 MSTORE RETURN JUMPDEST CALLVALUE PUSH2 0x2D0 JUMPI PUSH1 0x0 CALLDATASIZE PUSH1 0x3 NOT ADD SLT PUSH2 0x2D0 JUMPI PUSH1 0x20 PUSH1 0x40 MLOAD PUSH1 0x3 DUP2 MSTORE RETURN JUMPDEST CALLVALUE PUSH2 0x2D0 JUMPI PUSH1 0x20 CALLDATASIZE PUSH1 0x3 NOT ADD SLT PUSH2 0x2D0 JUMPI PUSH2 0x173A PUSH1 0x1 DUP1 PUSH1 0xA0 SHL SUB PUSH1 0x0 SLOAD AND CALLER EQ PUSH2 0x1E9B JUMP JUMPDEST PUSH1 0x4 CALLDATALOAD PUSH1 0x2 SSTORE STOP JUMPDEST CALLVALUE PUSH2 0x2D0 JUMPI PUSH1 0x0 CALLDATASIZE PUSH1 0x3 NOT ADD SLT PUSH2 0x2D0 JUMPI PUSH1 0x20 PUSH1 0x40 MLOAD PUSH2 0x1E14 DUP2 MSTORE RETURN JUMPDEST CALLVALUE PUSH2 0x2D0 JUMPI PUSH1 0x0 CALLDATASIZE PUSH1 0x3 NOT ADD SLT PUSH2 0x2D0 JUMPI PUSH1 0x20 PUSH1 0x40 MLOAD PUSH2 0x3E8 DUP2 MSTORE RETURN JUMPDEST CALLVALUE PUSH2 0x2D0 JUMPI PUSH1 0x0 CALLDATASIZE PUSH1 0x3 NOT ADD SLT PUSH2 0x2D0 JUMPI PUSH1 0x1 SLOAD PUSH1 0x40 MLOAD PUSH1 0x1 PUSH1 0x1 PUSH1 0xA0 SHL SUB SWAP1 SWAP2 AND DUP2 MSTORE PUSH1 0x20 SWAP1 RETURN JUMPDEST CALLVALUE PUSH2 0x2D0 JUMPI PUSH1 0x0 CALLDATASIZE PUSH1 0x3 NOT ADD SLT PUSH2 0x2D0 JUMPI PUSH1 0x20 PUSH1 0xFF PUSH1 0x4 SLOAD AND PUSH1 0x40 MLOAD SWAP1 ISZERO ISZERO DUP2 MSTORE RETURN JUMPDEST CALLVALUE PUSH2 0x2D0 JUMPI PUSH1 0x0 CALLDATASIZE PUSH1 0x3 NOT ADD SLT PUSH2 0x2D0 JUMPI PUSH1 0x20 PUSH1 0x40 MLOAD PUSH3 0x15180 DUP2 MSTORE RETURN JUMPDEST CALLVALUE PUSH2 0x2D0 JUMPI PUSH1 0x0 CALLDATASIZE PUSH1 0x3 NOT ADD SLT PUSH2 0x2D0 JUMPI PUSH1 0x20 PUSH1 0x40 MLOAD PUSH2 0x5460 DUP2 MSTORE RETURN JUMPDEST CALLVALUE PUSH2 0x2D0 JUMPI PUSH1 0x20 CALLDATASIZE PUSH1 0x3 NOT ADD SLT PUSH2 0x2D0 JUMPI PUSH1 0x4 CALLDATALOAD PUSH1 0x0 MSTORE PUSH1 0x6 PUSH1 0x20 MSTORE PUSH2 0x160 PUSH1 0x40 PUSH1 0x0 KECCAK256 PUSH1 0x1 DUP1 PUSH1 0xA0 SHL SUB DUP2 SLOAD AND SWAP1 PUSH2 0x183E PUSH1 0x1 DUP3 ADD PUSH2 0x1CDC JUMP JUMPDEST PUSH1 0xFF PUSH2 0x184C PUSH1 0x2 DUP5 ADD PUSH2 0x1CDC JUMP JUMPDEST SWAP3 PUSH2 0x1859 PUSH1 0x3 DUP3 ADD PUSH2 0x1CDC JUMP JUMPDEST SWAP4 PUSH1 0x4 DUP3 ADD SLOAD SWAP5 PUSH1 0x5 DUP4 ADD SLOAD PUSH2 0x18B8 PUSH1 0x6 DUP6 ADD SLOAD SWAP3 PUSH2 0x18AA PUSH1 0x7 DUP8 ADD SLOAD SWAP6 PUSH2 0x189C PUSH1 0x9 PUSH1 0x8 DUP11 ADD SLOAD SWAP10 ADD SLOAD SWAP11 PUSH1 0x40 MLOAD SWAP15 DUP16 SWAP15 DUP16 SWAP1 DUP2 MSTORE DUP2 PUSH1 0x20 DUP3 ADD MSTORE ADD SWAP1 PUSH2 0x1D80 JUMP JUMPDEST DUP13 DUP2 SUB PUSH1 0x40 DUP15 ADD MSTORE SWAP1 PUSH2 0x1D80 JUMP JUMPDEST SWAP1 DUP11 DUP3 SUB PUSH1 0x60 DUP13 ADD MSTORE PUSH2 0x1D80 JUMP JUMPDEST SWAP7 PUSH1 0x80 DUP10 ADD MSTORE PUSH1 0xA0 DUP9 ADD MSTORE PUSH1 0xC0 DUP8 ADD MSTORE PUSH1 0xE0 DUP7 ADD MSTORE DUP2 DUP2 AND ISZERO ISZERO PUSH2 0x100 DUP7 ADD MSTORE PUSH1 0x8 SHR AND ISZERO ISZERO PUSH2 0x120 DUP5 ADD MSTORE PUSH2 0x140 DUP4 ADD MSTORE SUB SWAP1 RETURN JUMPDEST CALLVALUE PUSH2 0x2D0 JUMPI PUSH1 0x20 CALLDATASIZE PUSH1 0x3 NOT ADD SLT PUSH2 0x2D0 JUMPI PUSH1 0x4 CALLDATALOAD PUSH1 0x0 MSTORE PUSH1 0xB PUSH1 0x20 MSTORE PUSH1 0x20 PUSH1 0x40 PUSH1 0x0 KECCAK256 SLOAD PUSH1 0x40 MLOAD SWAP1 DUP2 MSTORE RETURN JUMPDEST CALLVALUE PUSH2 0x2D0 JUMPI PUSH1 0x0 CALLDATASIZE PUSH1 0x3 NOT ADD SLT PUSH2 0x2D0 JUMPI PUSH1 0x20 PUSH1 0x40 MLOAD PUSH7 0x2386F26FC10000 DUP2 MSTORE RETURN JUMPDEST CALLVALUE PUSH2 0x2D0 JUMPI PUSH1 0x20 CALLDATASIZE PUSH1 0x3 NOT ADD SLT PUSH2 0x2D0 JUMPI PUSH1 0x4 CALLDATALOAD PUSH2 0x1958 PUSH2 0x2584 JUMP JUMPDEST PUSH2 0x1965 PUSH1 0x5 SLOAD DUP3 LT PUSH2 0x1E0B JUMP JUMPDEST DUP1 PUSH1 0x0 MSTORE PUSH1 0x6 PUSH1 0x20 MSTORE PUSH1 0xFF PUSH1 0x8 PUSH1 0x40 PUSH1 0x0 KECCAK256 ADD SLOAD AND DUP1 PUSH2 0x1A85 JUMPI JUMPDEST ISZERO PUSH2 0x1A4C JUMPI PUSH1 0x0 DUP2 DUP2 MSTORE PUSH1 0xA PUSH1 0x20 SWAP1 DUP2 MSTORE PUSH1 0x40 DUP1 DUP4 KECCAK256 CALLER DUP5 MSTORE SWAP1 SWAP2 MSTORE SWAP1 KECCAK256 SLOAD SWAP1 DUP2 ISZERO PUSH2 0x1A14 JUMPI DUP1 PUSH1 0x0 MSTORE PUSH1 0xA PUSH1 0x20 MSTORE PUSH1 0x40 PUSH1 0x0 KECCAK256 PUSH1 0x1 DUP1 PUSH1 0xA0 SHL SUB CALLER AND PUSH1 0x0 MSTORE PUSH1 0x20 MSTORE PUSH1 0x0 PUSH1 0x40 DUP2 KECCAK256 SSTORE PUSH2 0x19D4 DUP3 CALLER PUSH2 0x25C0 JUMP JUMPDEST PUSH1 0x40 MLOAD SWAP2 DUP3 MSTORE PUSH32 0x4EC90E965519D92681267467F775ADA5BD214AA92C0DC93D90A5E880CE9ED026 PUSH1 0x20 CALLER SWAP4 LOG3 PUSH1 0x1 PUSH1 0x0 DUP1 MLOAD PUSH1 0x20 PUSH2 0x2869 DUP4 CODECOPY DUP2 MLOAD SWAP2 MSTORE SSTORE STOP JUMPDEST PUSH1 0x40 MLOAD PUSH3 0x461BCD PUSH1 0xE5 SHL DUP2 MSTORE PUSH1 0x20 PUSH1 0x4 DUP3 ADD MSTORE PUSH1 0x10 PUSH1 0x24 DUP3 ADD MSTORE PUSH16 0x4E6F7468696E6720746F20636C61696D PUSH1 0x80 SHL PUSH1 0x44 DUP3 ADD MSTORE PUSH1 0x64 SWAP1 REVERT JUMPDEST PUSH1 0x40 MLOAD PUSH3 0x461BCD PUSH1 0xE5 SHL DUP2 MSTORE PUSH1 0x20 PUSH1 0x4 DUP3 ADD MSTORE PUSH1 0x11 PUSH1 0x24 DUP3 ADD MSTORE PUSH17 0x139BDD0818DB185A5B58589B19481E595D PUSH1 0x7A SHL PUSH1 0x44 DUP3 ADD MSTORE PUSH1 0x64 SWAP1 REVERT JUMPDEST POP DUP1 PUSH1 0x0 MSTORE PUSH1 0x6 PUSH1 0x20 MSTORE PUSH1 0xFF PUSH1 0x8 PUSH1 0x40 PUSH1 0x0 KECCAK256 ADD SLOAD PUSH1 0x8 SHR AND PUSH2 0x1980 JUMP JUMPDEST CALLVALUE PUSH2 0x2D0 JUMPI PUSH1 0x40 CALLDATASIZE PUSH1 0x3 NOT ADD SLT PUSH2 0x2D0 JUMPI PUSH2 0x1ABC PUSH2 0x1C4D JUMP JUMPDEST PUSH1 0x4 CALLDATALOAD PUSH1 0x0 MSTORE PUSH1 0x9 PUSH1 0x20 MSTORE PUSH1 0x40 PUSH1 0x0 KECCAK256 SWAP1 PUSH1 0x1 DUP1 PUSH1 0xA0 SHL SUB AND PUSH1 0x0 MSTORE PUSH1 0x20 MSTORE PUSH1 0x20 PUSH1 0xFF PUSH1 0x40 PUSH1 0x0 KECCAK256 SLOAD AND PUSH1 0x40 MLOAD SWAP1 ISZERO ISZERO DUP2 MSTORE RETURN JUMPDEST CALLVALUE PUSH2 0x2D0 JUMPI PUSH1 0x0 CALLDATASIZE PUSH1 0x3 NOT ADD SLT PUSH2 0x2D0 JUMPI PUSH1 0x20 PUSH1 0x40 MLOAD PUSH12 0x33B2E3C9FD0803CE8000000 DUP2 MSTORE RETURN JUMPDEST CALLVALUE PUSH2 0x2D0 JUMPI PUSH1 0x0 CALLDATASIZE PUSH1 0x3 NOT ADD SLT PUSH2 0x2D0 JUMPI PUSH1 0x20 PUSH1 0x40 MLOAD PUSH2 0x2710 DUP2 MSTORE RETURN JUMPDEST CALLVALUE PUSH2 0x2D0 JUMPI PUSH1 0x0 CALLDATASIZE PUSH1 0x3 NOT ADD SLT PUSH2 0x2D0 JUMPI PUSH1 0x20 PUSH1 0x40 MLOAD PUSH8 0x16345785D8A0000 DUP2 MSTORE RETURN JUMPDEST CALLVALUE PUSH2 0x2D0 JUMPI PUSH8 0xDE0B6B3A7640000 PUSH2 0x1BBD PUSH2 0x1B71 CALLDATASIZE PUSH2 0x1C37 JUMP JUMPDEST SWAP1 PUSH2 0x1B7F PUSH1 0x5 SLOAD DUP3 LT PUSH2 0x1E0B JUMP JUMPDEST PUSH1 0x0 MSTORE PUSH1 0x6 PUSH1 0x20 MSTORE PUSH2 0x1BB7 PUSH1 0x4 PUSH1 0x40 PUSH1 0x0 KECCAK256 ADD SLOAD PUSH2 0x1BB1 PUSH2 0x1BAB PUSH2 0x1BA6 PUSH1 0x2 SLOAD SWAP6 DUP5 PUSH2 0x1E4E JUMP JUMPDEST PUSH2 0x27CD JUMP JUMPDEST SWAP2 PUSH2 0x27CD JUMP JUMPDEST SWAP1 PUSH2 0x1E6E JUMP JUMPDEST SWAP1 PUSH2 0x1E5B JUMP JUMPDEST DIV PUSH2 0x2710 DUP2 MUL SWAP1 DUP1 DUP3 DIV PUSH2 0x2710 EQ SWAP1 ISZERO OR ISZERO PUSH2 0xFF7 JUMPI PUSH2 0x267A PUSH1 0x20 SWAP2 DIV PUSH1 0x40 MLOAD SWAP1 DUP2 MSTORE RETURN JUMPDEST CALLVALUE PUSH2 0x2D0 JUMPI PUSH1 0x0 CALLDATASIZE PUSH1 0x3 NOT ADD SLT PUSH2 0x2D0 JUMPI PUSH1 0x20 PUSH1 0x40 MLOAD PUSH2 0x8FC DUP2 MSTORE RETURN JUMPDEST CALLVALUE PUSH2 0x2D0 JUMPI PUSH1 0x0 CALLDATASIZE PUSH1 0x3 NOT ADD SLT PUSH2 0x2D0 JUMPI PUSH1 0x20 PUSH1 0x40 MLOAD PUSH2 0x12C DUP2 MSTORE RETURN JUMPDEST CALLVALUE PUSH2 0x2D0 JUMPI PUSH1 0x0 CALLDATASIZE PUSH1 0x3 NOT ADD SLT PUSH2 0x2D0 JUMPI DUP1 PUSH2 0xA8C0 PUSH1 0x20 SWAP3 MSTORE RETURN JUMPDEST PUSH1 0x40 SWAP1 PUSH1 0x3 NOT ADD SLT PUSH2 0x2D0 JUMPI PUSH1 0x4 CALLDATALOAD SWAP1 PUSH1 0x24 CALLDATALOAD SWAP1 JUMP JUMPDEST PUSH1 0x24 CALLDATALOAD SWAP1 PUSH1 0x1 PUSH1 0x1 PUSH1 0xA0 SHL SUB DUP3 AND DUP3 SUB PUSH2 0x2D0 JUMPI JUMP JUMPDEST SWAP1 PUSH1 0x1 DUP3 DUP2 SHR SWAP3 AND DUP1 ISZERO PUSH2 0x1C93 JUMPI JUMPDEST PUSH1 0x20 DUP4 LT EQ PUSH2 0x1C7D JUMPI JUMP JUMPDEST PUSH4 0x4E487B71 PUSH1 0xE0 SHL PUSH1 0x0 MSTORE PUSH1 0x22 PUSH1 0x4 MSTORE PUSH1 0x24 PUSH1 0x0 REVERT JUMPDEST SWAP2 PUSH1 0x7F AND SWAP2 PUSH2 0x1C72 JUMP JUMPDEST PUSH2 0x160 DUP2 ADD SWAP1 DUP2 LT PUSH8 0xFFFFFFFFFFFFFFFF DUP3 GT OR PUSH2 0x660 JUMPI PUSH1 0x40 MSTORE JUMP JUMPDEST SWAP1 PUSH1 0x1F DUP1 NOT SWAP2 ADD AND DUP2 ADD SWAP1 DUP2 LT PUSH8 0xFFFFFFFFFFFFFFFF DUP3 GT OR PUSH2 0x660 JUMPI PUSH1 0x40 MSTORE JUMP JUMPDEST SWAP1 PUSH1 0x40 MLOAD SWAP2 DUP3 PUSH1 0x0 DUP3 SLOAD SWAP3 PUSH2 0x1CF0 DUP5 PUSH2 0x1C63 JUMP JUMPDEST DUP1 DUP5 MSTORE SWAP4 PUSH1 0x1 DUP2 AND SWAP1 DUP2 ISZERO PUSH2 0x1D5E JUMPI POP PUSH1 0x1 EQ PUSH2 0x1D17 JUMPI JUMPDEST POP PUSH2 0x1D15 SWAP3 POP SUB DUP4 PUSH2 0x1CBA JUMP JUMPDEST JUMP JUMPDEST SWAP1 POP PUSH1 0x0 SWAP3 SWAP2 SWAP3 MSTORE PUSH1 0x20 PUSH1 0x0 KECCAK256 SWAP1 PUSH1 0x0 SWAP2 JUMPDEST DUP2 DUP4 LT PUSH2 0x1D42 JUMPI POP POP SWAP1 PUSH1 0x20 PUSH2 0x1D15 SWAP3 DUP3 ADD ADD CODESIZE PUSH2 0x1D08 JUMP JUMPDEST PUSH1 0x20 SWAP2 SWAP4 POP DUP1 PUSH1 0x1 SWAP2 SLOAD DUP4 DUP6 DUP10 ADD ADD MSTORE ADD SWAP2 ADD SWAP1 SWAP2 DUP5 SWAP3 PUSH2 0x1D29 JUMP JUMPDEST SWAP1 POP PUSH1 0x20 SWAP3 POP PUSH2 0x1D15 SWAP5 SWAP2 POP PUSH1 0xFF NOT AND DUP3 DUP5 ADD MSTORE ISZERO ISZERO PUSH1 0x5 SHL DUP3 ADD ADD CODESIZE PUSH2 0x1D08 JUMP JUMPDEST SWAP2 SWAP1 DUP3 MLOAD SWAP3 DUP4 DUP3 MSTORE PUSH1 0x0 JUMPDEST DUP5 DUP2 LT PUSH2 0x1DAC JUMPI POP POP DUP3 PUSH1 0x0 PUSH1 0x20 DUP1 SWAP5 SWAP6 DUP5 ADD ADD MSTORE PUSH1 0x1F DUP1 NOT SWAP2 ADD AND ADD ADD SWAP1 JUMP JUMPDEST DUP1 PUSH1 0x20 DUP1 SWAP3 DUP5 ADD ADD MLOAD DUP3 DUP3 DUP7 ADD ADD MSTORE ADD PUSH2 0x1D8B JUMP JUMPDEST CALLVALUE PUSH2 0x2D0 JUMPI PUSH1 0x0 CALLDATASIZE PUSH1 0x3 NOT ADD SLT PUSH2 0x2D0 JUMPI PUSH1 0x20 PUSH1 0x40 MLOAD PUSH1 0x64 DUP2 MSTORE RETURN JUMPDEST SWAP2 DUP2 PUSH1 0x1F DUP5 ADD SLT ISZERO PUSH2 0x2D0 JUMPI DUP3 CALLDATALOAD SWAP2 PUSH8 0xFFFFFFFFFFFFFFFF DUP4 GT PUSH2 0x2D0 JUMPI PUSH1 0x20 DUP4 DUP2 DUP7 ADD SWAP6 ADD ADD GT PUSH2 0x2D0 JUMPI JUMP JUMPDEST ISZERO PUSH2 0x1E12 JUMPI JUMP JUMPDEST PUSH1 0x40 MLOAD PUSH3 0x461BCD PUSH1 0xE5 SHL DUP2 MSTORE PUSH1 0x20 PUSH1 0x4 DUP3 ADD MSTORE PUSH1 0x14 PUSH1 0x24 DUP3 ADD MSTORE PUSH20 0x151BDAD95B88191BD95CC81B9BDD08195E1A5CDD PUSH1 0x62 SHL PUSH1 0x44 DUP3 ADD MSTORE PUSH1 0x64 SWAP1 REVERT JUMPDEST SWAP2 SWAP1 DUP3 ADD DUP1 SWAP3 GT PUSH2 0xFF7 JUMPI JUMP JUMPDEST DUP2 DUP2 MUL SWAP3 SWAP2 DUP2 ISZERO SWAP2 DUP5 DIV EQ OR ISZERO PUSH2 0xFF7 JUMPI JUMP JUMPDEST SWAP2 SWAP1 DUP3 SUB SWAP2 DUP3 GT PUSH2 0xFF7 JUMPI JUMP JUMPDEST DUP2 ISZERO PUSH2 0x1E85 JUMPI DIV SWAP1 JUMP JUMPDEST PUSH4 0x4E487B71 PUSH1 0xE0 SHL PUSH1 0x0 MSTORE PUSH1 0x12 PUSH1 0x4 MSTORE PUSH1 0x24 PUSH1 0x0 REVERT JUMPDEST ISZERO PUSH2 0x1EA2 JUMPI JUMP JUMPDEST PUSH1 0x40 MLOAD PUSH3 0x461BCD PUSH1 0xE5 SHL DUP2 MSTORE PUSH1 0x20 PUSH1 0x4 DUP3 ADD MSTORE PUSH1 0x9 PUSH1 0x24 DUP3 ADD MSTORE PUSH9 0x2737BA1037BBB732B9 PUSH1 0xB9 SHL PUSH1 0x44 DUP3 ADD MSTORE PUSH1 0x64 SWAP1 REVERT JUMPDEST DUP1 PUSH1 0x0 MSTORE PUSH1 0x6 PUSH1 0x20 MSTORE PUSH1 0x4 PUSH1 0x40 PUSH1 0x0 KECCAK256 ADD SLOAD ISZERO PUSH2 0x1F4B JUMPI PUSH1 0x0 MSTORE PUSH1 0x6 PUSH1 0x20 MSTORE PUSH1 0x4 PUSH1 0x40 PUSH1 0x0 KECCAK256 ADD SLOAD PUSH8 0xDE0B6B3A7640000 PUSH2 0x1F1E PUSH2 0x1F14 PUSH1 0x2 SLOAD DUP1 SWAP5 PUSH2 0x265E JUMP JUMPDEST SWAP3 PUSH2 0x1BB7 DUP4 PUSH2 0x2804 JUMP JUMPDEST DIV DUP1 ISZERO PUSH2 0x1F44 JUMPI PUSH1 0x64 DUP3 MUL SWAP2 DUP1 DUP4 DIV PUSH1 0x64 EQ SWAP1 ISZERO OR ISZERO PUSH2 0xFF7 JUMPI PUSH2 0x1F41 SWAP2 PUSH2 0x1E7B JUMP JUMPDEST SWAP1 JUMP JUMPDEST POP POP PUSH1 0x0 SWAP1 JUMP JUMPDEST POP PUSH1 0x0 SWAP1 JUMP JUMPDEST DUP1 SLOAD DUP3 LT ISZERO PUSH2 0x1F69 JUMPI PUSH1 0x0 MSTORE PUSH1 0x20 PUSH1 0x0 KECCAK256 ADD SWAP1 PUSH1 0x0 SWAP1 JUMP JUMPDEST PUSH4 0x4E487B71 PUSH1 0xE0 SHL PUSH1 0x0 MSTORE PUSH1 0x32 PUSH1 0x4 MSTORE PUSH1 0x24 PUSH1 0x0 REVERT JUMPDEST PUSH1 0x0 NOT DUP2 EQ PUSH2 0xFF7 JUMPI PUSH1 0x1 ADD SWAP1 JUMP JUMPDEST DUP1 PUSH1 0x0 MSTORE PUSH1 0x6 PUSH1 0x20 MSTORE PUSH1 0x40 PUSH1 0x0 KECCAK256 PUSH1 0x8 DUP2 ADD DUP1 SLOAD SWAP1 PUSH1 0xFF DUP3 AND PUSH2 0x2445 JUMPI PUSH2 0x1FBE PUSH1 0x6 DUP5 ADD SLOAD PUSH1 0x7 DUP6 ADD SLOAD SWAP1 PUSH2 0x1E4E JUMP JUMPDEST TIMESTAMP LT PUSH2 0x240E JUMPI PUSH1 0xFF NOT DUP3 AND PUSH1 0x1 OR DUP2 SSTORE PUSH1 0x5 DUP4 ADD DUP1 SLOAD SWAP1 SWAP3 DUP2 ISZERO PUSH2 0x23CC JUMPI POP PUSH1 0x0 PUSH8 0x16345785D8A0000 DUP3 LT PUSH2 0x23C1 JUMPI POP PUSH2 0x2002 PUSH8 0x16345785D8A0000 DUP1 SWAP3 PUSH2 0x1E6E JUMP JUMPDEST PUSH2 0x12C DUP2 MUL DUP2 DUP2 DIV PUSH2 0x12C EQ DUP3 ISZERO OR ISZERO PUSH2 0xFF7 JUMPI PUSH2 0x2710 PUSH2 0x2025 SWAP2 DIV DUP1 SWAP3 PUSH2 0x1E6E JUMP JUMPDEST SWAP5 PUSH2 0x1E14 DUP7 MUL DUP7 DUP2 DIV PUSH2 0x1E14 EQ DUP8 ISZERO OR ISZERO PUSH2 0xFF7 JUMPI PUSH2 0x2710 SWAP1 DIV SWAP1 PUSH2 0x204A DUP3 DUP9 PUSH2 0x1E6E JUMP JUMPDEST SWAP1 DUP9 PUSH1 0x0 MSTORE PUSH1 0x8 PUSH1 0x20 MSTORE PUSH1 0x40 PUSH1 0x0 KECCAK256 SLOAD PUSH1 0x80 MSTORE PUSH1 0x80 MLOAD ISZERO SWAP3 DUP4 ISZERO SWAP2 DUP3 DUP1 SWAP4 PUSH2 0x23B4 JUMPI JUMPDEST PUSH2 0x22FC JUMPI JUMPDEST POP POP DUP1 PUSH2 0x22F3 JUMPI JUMPDEST PUSH2 0x2103 JUMPI JUMPDEST POP POP SWAP3 PUSH32 0xF005309A8A7FC7EF4FE267D20B85954D99222BED1E4E1DACC388FC820A8659E SWAP5 SWAP3 PUSH1 0x0 SWAP3 PUSH2 0x20BE PUSH1 0x40 SWAP7 PUSH1 0x1 DUP1 PUSH1 0xA0 SHL SUB PUSH1 0x1 SLOAD AND PUSH2 0x25C0 JUMP JUMPDEST DUP1 ISZERO ISZERO DUP1 PUSH2 0x20F9 JUMPI JUMPDEST PUSH2 0x20E9 JUMPI JUMPDEST POP DUP1 SLOAD PUSH2 0xFF00 NOT AND PUSH2 0x100 OR SWAP1 SSTORE SSTORE DUP2 MLOAD SWAP1 DUP2 MSTORE CALLER PUSH1 0x20 DUP3 ADD MSTORE LOG2 JUMP JUMPDEST PUSH2 0x20F3 SWAP1 CALLER PUSH2 0x25C0 JUMP JUMPDEST CODESIZE PUSH2 0x20CC JUMP JUMPDEST POP DUP1 SELFBALANCE LT ISZERO PUSH2 0x20C7 JUMP JUMPDEST SWAP6 SWAP4 SWAP2 SWAP7 SWAP5 SWAP3 PUSH1 0x3 PUSH1 0x0 SWAP10 SWAP3 SWAP10 SWAP8 DIV SWAP5 PUSH1 0x0 SWAP5 PUSH1 0x0 NOT NUMBER ADD SWAP5 DUP6 BLOCKHASH SWAP7 JUMPDEST PUSH1 0x3 DUP2 LT DUP1 PUSH2 0x22E8 JUMPI JUMPDEST ISZERO PUSH2 0x226D JUMPI NUMBER DUP8 GT PUSH2 0xFF7 JUMPI PUSH1 0x40 MLOAD PUSH1 0x20 DUP2 ADD SWAP1 DUP10 DUP3 MSTORE DUP12 PUSH1 0x40 DUP3 ADD MSTORE DUP3 PUSH1 0x60 DUP3 ADD MSTORE PUSH1 0x80 MLOAD PUSH1 0x80 DUP3 ADD MSTORE TIMESTAMP PUSH1 0xA0 DUP3 ADD MSTORE PUSH1 0xA0 DUP2 MSTORE PUSH2 0x216A PUSH1 0xC0 DUP3 PUSH2 0x1CBA JUMP JUMPDEST MLOAD SWAP1 KECCAK256 PUSH1 0x0 DUP15 JUMPDEST PUSH1 0x80 MLOAD DUP3 LT PUSH2 0x218C JUMPI JUMPDEST POP POP POP PUSH2 0x2187 SWAP1 PUSH2 0x1F7F JUMP JUMPDEST PUSH2 0x2120 JUMP JUMPDEST PUSH2 0x2196 DUP3 DUP5 PUSH2 0x1E4E JUMP JUMPDEST SWAP1 PUSH2 0x1E85 JUMPI PUSH2 0x21B7 SWAP1 DUP14 PUSH1 0x0 MSTORE PUSH1 0x8 PUSH1 0x20 MSTORE PUSH1 0x80 MLOAD SWAP1 MOD PUSH1 0x40 PUSH1 0x0 KECCAK256 PUSH2 0x1F51 JUMP JUMPDEST SWAP1 SLOAD PUSH1 0x0 DUP15 DUP2 MSTORE PUSH1 0x7 PUSH1 0x20 SWAP1 DUP2 MSTORE PUSH1 0x40 DUP1 DUP4 KECCAK256 PUSH1 0x3 SWAP6 SWAP1 SWAP6 SHL SWAP4 SWAP1 SWAP4 SHR PUSH1 0x1 PUSH1 0x1 PUSH1 0xA0 SHL SUB AND DUP1 DUP4 MSTORE SWAP4 SWAP1 MSTORE KECCAK256 SLOAD PUSH2 0x21F9 JUMPI POP PUSH2 0x21F3 SWAP1 PUSH2 0x1F7F JUMP JUMPDEST DUP15 PUSH2 0x2171 JUMP JUMPDEST SWAP13 PUSH2 0x2187 SWAP4 SWAP3 POP PUSH2 0x2238 SWAP2 POP PUSH1 0x40 DUP15 DUP15 PUSH1 0x0 MSTORE PUSH1 0xA PUSH1 0x20 MSTORE DUP2 PUSH1 0x0 KECCAK256 PUSH1 0x0 SWAP2 PUSH1 0x1 DUP1 PUSH1 0xA0 SHL SUB AND DUP3 MSTORE PUSH1 0x20 MSTORE KECCAK256 PUSH2 0x2231 DUP14 DUP3 SLOAD PUSH2 0x1E4E JUMP JUMPDEST SWAP1 SSTORE PUSH2 0x1F7F JUMP JUMPDEST SWAP12 DUP12 PUSH32 0x327DC80A042147E77D98C1F6D26EBC8AEF4078AF7E6AB437F1D6452A19CB108B PUSH1 0x20 DUP14 PUSH1 0x40 MLOAD SWAP1 DUP2 MSTORE LOG3 SWAP1 CODESIZE DUP15 PUSH2 0x217B JUMP JUMPDEST POP SWAP6 POP SWAP6 SWAP3 SWAP10 POP SWAP6 SWAP8 SWAP3 POP SWAP6 PUSH1 0x3 DUP2 LT PUSH2 0x228C JUMPI JUMPDEST SWAP6 SWAP3 SWAP4 SWAP5 SWAP6 PUSH2 0x207F JUMP JUMPDEST PUSH1 0x3 SWAP6 SWAP5 SWAP3 SWAP4 SWAP2 SWAP6 SUB SWAP6 PUSH1 0x3 DUP8 GT PUSH2 0xFF7 JUMPI PUSH2 0x20BE PUSH2 0x22DA PUSH1 0x0 SWAP6 PUSH2 0x22D4 PUSH1 0x40 SWAP10 PUSH32 0xF005309A8A7FC7EF4FE267D20B85954D99222BED1E4E1DACC388FC820A8659E SWAP12 PUSH2 0x1E5B JUMP JUMPDEST SWAP1 PUSH2 0x1E4E JUMP JUMPDEST SWAP4 SWAP6 SWAP7 POP POP SWAP6 DUP2 SWAP4 POP PUSH2 0x2282 JUMP JUMPDEST POP PUSH1 0x80 MLOAD DUP2 LT PUSH2 0x212A JUMP JUMPDEST POP DUP1 ISZERO ISZERO PUSH2 0x207A JUMP JUMPDEST PUSH1 0x0 JUMPDEST PUSH1 0x80 MLOAD DUP2 LT PUSH2 0x230E JUMPI POP PUSH2 0x2072 JUMP JUMPDEST PUSH1 0x1 SWAP1 DUP13 PUSH1 0x0 MSTORE PUSH1 0x8 PUSH1 0x20 MSTORE DUP13 PUSH2 0x2329 DUP3 PUSH1 0x40 PUSH1 0x0 KECCAK256 PUSH2 0x1F51 JUMP JUMPDEST DUP5 DUP1 PUSH1 0xA0 SHL SUB SWAP2 SLOAD SWAP1 PUSH1 0x3 SHL SHR AND DUP2 PUSH1 0x0 MSTORE PUSH1 0x7 PUSH1 0x20 MSTORE PUSH1 0x40 DUP1 PUSH1 0x0 KECCAK256 PUSH1 0x0 SWAP1 DUP7 DUP1 PUSH1 0xA0 SHL SUB DUP5 AND DUP3 MSTORE PUSH1 0x20 MSTORE KECCAK256 SLOAD DUP1 PUSH2 0x2367 JUMPI JUMPDEST POP POP POP ADD PUSH2 0x22FF JUMP JUMPDEST PUSH2 0x23AA SWAP2 PUSH2 0x2385 PUSH2 0x237A PUSH1 0x40 SWAP4 DUP11 PUSH2 0x1E5B JUMP JUMPDEST PUSH1 0x4 DUP10 ADD SLOAD SWAP1 PUSH2 0x1E7B JUMP JUMPDEST SWAP4 PUSH1 0x0 MSTORE PUSH1 0xA PUSH1 0x20 MSTORE DUP2 PUSH1 0x0 KECCAK256 PUSH1 0x0 SWAP2 DUP8 DUP1 PUSH1 0xA0 SHL SUB AND DUP3 MSTORE PUSH1 0x20 MSTORE KECCAK256 SWAP2 DUP3 SLOAD PUSH2 0x1E4E JUMP JUMPDEST SWAP1 SSTORE DUP13 CODESIZE DUP1 PUSH2 0x235E JUMP JUMPDEST POP PUSH1 0x4 DUP2 ADD SLOAD ISZERO ISZERO PUSH2 0x206D JUMP JUMPDEST PUSH2 0x2002 SWAP1 DUP1 SWAP3 PUSH2 0x1E6E JUMP JUMPDEST PUSH2 0xFFFF NOT AND PUSH2 0x101 OR SWAP1 SWAP2 SSTORE POP POP PUSH1 0x40 DUP1 MLOAD PUSH1 0x0 DUP2 MSTORE CALLER PUSH1 0x20 DUP3 ADD MSTORE PUSH32 0xF005309A8A7FC7EF4FE267D20B85954D99222BED1E4E1DACC388FC820A8659E SWAP3 POP LOG2 JUMP JUMPDEST PUSH1 0x40 MLOAD PUSH3 0x461BCD PUSH1 0xE5 SHL DUP2 MSTORE PUSH1 0x20 PUSH1 0x4 DUP3 ADD MSTORE PUSH1 0xF PUSH1 0x24 DUP3 ADD MSTORE PUSH15 0x139BDD08195E1C1A5C9959081E595D PUSH1 0x8A SHL PUSH1 0x44 DUP3 ADD MSTORE PUSH1 0x64 SWAP1 REVERT JUMPDEST PUSH1 0x40 MLOAD PUSH3 0x461BCD PUSH1 0xE5 SHL DUP2 MSTORE PUSH1 0x20 PUSH1 0x4 DUP3 ADD MSTORE PUSH1 0xC PUSH1 0x24 DUP3 ADD MSTORE PUSH12 0x105B1C9958591E4819195859 PUSH1 0xA2 SHL PUSH1 0x44 DUP3 ADD MSTORE PUSH1 0x64 SWAP1 REVERT JUMPDEST ISZERO PUSH2 0x2480 JUMPI JUMP JUMPDEST PUSH1 0x40 MLOAD PUSH3 0x461BCD PUSH1 0xE5 SHL DUP2 MSTORE PUSH1 0x20 PUSH1 0x4 DUP3 ADD MSTORE PUSH1 0xD PUSH1 0x24 DUP3 ADD MSTORE PUSH13 0x151BDAD95B881A5CC819195859 PUSH1 0x9A SHL PUSH1 0x44 DUP3 ADD MSTORE PUSH1 0x64 SWAP1 REVERT JUMPDEST ISZERO PUSH2 0x24BC JUMPI JUMP JUMPDEST PUSH1 0x40 MLOAD PUSH3 0x461BCD PUSH1 0xE5 SHL DUP2 MSTORE PUSH1 0x20 PUSH1 0x4 DUP3 ADD MSTORE PUSH1 0xC PUSH1 0x24 DUP3 ADD MSTORE PUSH12 0x151A5B5948195E1C1A5C9959 PUSH1 0xA2 SHL PUSH1 0x44 DUP3 ADD MSTORE PUSH1 0x64 SWAP1 REVERT JUMPDEST ISZERO PUSH2 0x24F7 JUMPI JUMP JUMPDEST PUSH1 0x40 MLOAD PUSH3 0x461BCD PUSH1 0xE5 SHL DUP2 MSTORE PUSH1 0x20 PUSH1 0x4 DUP3 ADD MSTORE PUSH1 0x11 PUSH1 0x24 DUP3 ADD MSTORE PUSH17 0x14DB1A5C1C1859D948195E18D959591959 PUSH1 0x7A SHL PUSH1 0x44 DUP3 ADD MSTORE PUSH1 0x64 SWAP1 REVERT JUMPDEST PUSH1 0x0 MSTORE PUSH1 0x6 PUSH1 0x20 MSTORE PUSH2 0x2550 PUSH1 0x40 PUSH1 0x0 KECCAK256 PUSH1 0x7 PUSH1 0x6 DUP3 ADD SLOAD SWAP2 ADD SLOAD SWAP1 PUSH2 0x1E4E JUMP JUMPDEST DUP1 TIMESTAMP LT ISZERO PUSH2 0x1F4B JUMPI PUSH2 0x1F41 SWAP1 TIMESTAMP SWAP1 PUSH2 0x1E6E JUMP JUMPDEST SWAP1 DUP1 PUSH1 0x20 SWAP4 SWAP3 DUP2 DUP5 MSTORE DUP5 DUP5 ADD CALLDATACOPY PUSH1 0x0 DUP3 DUP3 ADD DUP5 ADD MSTORE PUSH1 0x1F ADD PUSH1 0x1F NOT AND ADD ADD SWAP1 JUMP JUMPDEST PUSH1 0x2 PUSH1 0x0 DUP1 MLOAD PUSH1 0x20 PUSH2 0x2869 DUP4 CODECOPY DUP2 MLOAD SWAP2 MSTORE SLOAD EQ PUSH2 0x25AF JUMPI PUSH1 0x2 PUSH1 0x0 DUP1 MLOAD PUSH1 0x20 PUSH2 0x2869 DUP4 CODECOPY DUP2 MLOAD SWAP2 MSTORE SSTORE JUMP JUMPDEST PUSH4 0x3EE5AEB5 PUSH1 0xE0 SHL PUSH1 0x0 MSTORE PUSH1 0x4 PUSH1 0x0 REVERT JUMPDEST DUP2 ISZERO PUSH2 0x265A JUMPI PUSH1 0x0 SWAP2 DUP3 SWAP2 DUP3 SWAP2 DUP3 SWAP2 PUSH1 0x1 PUSH1 0x1 PUSH1 0xA0 SHL SUB AND GAS CALL RETURNDATASIZE ISZERO PUSH2 0x2655 JUMPI RETURNDATASIZE PUSH8 0xFFFFFFFFFFFFFFFF DUP2 GT PUSH2 0x660 JUMPI PUSH1 0x40 MLOAD SWAP1 PUSH2 0x2608 PUSH1 0x1F DUP3 ADD PUSH1 0x1F NOT AND PUSH1 0x20 ADD DUP4 PUSH2 0x1CBA JUMP JUMPDEST DUP2 MSTORE PUSH1 0x0 PUSH1 0x20 RETURNDATASIZE SWAP3 ADD RETURNDATACOPY JUMPDEST ISZERO PUSH2 0x261A JUMPI JUMP JUMPDEST PUSH1 0x40 MLOAD PUSH3 0x461BCD PUSH1 0xE5 SHL DUP2 MSTORE PUSH1 0x20 PUSH1 0x4 DUP3 ADD MSTORE PUSH1 0x13 PUSH1 0x24 DUP3 ADD MSTORE PUSH19 0x1353D3881D1C985B9CD9995C8819985A5B1959 PUSH1 0x6A SHL PUSH1 0x44 DUP3 ADD MSTORE PUSH1 0x64 SWAP1 REVERT JUMPDEST PUSH2 0x2613 JUMP JUMPDEST POP POP JUMP JUMPDEST DUP1 ISZERO PUSH2 0x1F44 JUMPI PUSH8 0xDE0B6B3A7640000 SWAP2 PUSH2 0x1BB7 PUSH2 0x267A SWAP3 PUSH2 0x2804 JUMP JUMPDEST DIV SWAP1 JUMP JUMPDEST SWAP1 SWAP2 DUP2 DUP4 GT PUSH2 0x26AD JUMPI PUSH2 0x1BB7 DUP3 PUSH2 0x1BB1 PUSH2 0x1BAB PUSH2 0x26A7 PUSH8 0xDE0B6B3A7640000 SWAP8 PUSH2 0x267A SWAP8 PUSH2 0x1E6E JUMP JUMPDEST SWAP3 PUSH2 0x27CD JUMP JUMPDEST PUSH1 0x40 MLOAD PUSH3 0x461BCD PUSH1 0xE5 SHL DUP2 MSTORE PUSH1 0x20 PUSH1 0x4 DUP3 ADD MSTORE PUSH1 0x13 PUSH1 0x24 DUP3 ADD MSTORE PUSH19 0x53656C6C206578636565647320737570706C79 PUSH1 0x68 SHL PUSH1 0x44 DUP3 ADD MSTORE PUSH1 0x64 SWAP1 REVERT JUMPDEST PUSH1 0x0 SWAP2 DUP2 PUSH12 0x33B2E3C9FD0803CE8000000 SUB PUSH12 0x33B2E3C9FD0803CE8000000 DUP2 GT PUSH2 0x27B9 JUMPI DUP3 PUSH12 0x33B2E3C9FD0803CE8000000 EQ PUSH2 0x27B3 JUMPI SWAP2 SWAP1 PUSH1 0x2 SLOAD JUMPDEST DUP4 DUP6 LT PUSH2 0x2734 JUMPI POP POP POP POP SWAP1 JUMP JUMPDEST SWAP1 SWAP2 SWAP3 SWAP4 PUSH2 0x2742 DUP6 DUP3 PUSH2 0x1E4E JUMP JUMPDEST PUSH1 0x1 DUP2 ADD DUP1 SWAP2 GT PUSH2 0xFF7 JUMPI PUSH1 0x1 SHR SWAP1 DUP4 PUSH8 0xDE0B6B3A7640000 PUSH2 0x277D PUSH2 0x2777 PUSH2 0x276E PUSH2 0x1BA6 DUP8 DUP12 PUSH2 0x1E4E JUMP JUMPDEST PUSH2 0x1BB1 DUP11 PUSH2 0x27CD JUMP JUMPDEST DUP7 PUSH2 0x1E5B JUMP JUMPDEST DIV GT PUSH2 0x278E JUMPI POP SWAP4 JUMPDEST SWAP3 SWAP2 SWAP1 PUSH2 0x2726 JUMP JUMPDEST SWAP5 POP PUSH1 0x0 NOT DUP2 ADD SWAP1 DUP2 GT ISZERO PUSH2 0x2786 JUMPI PUSH4 0x4E487B71 PUSH1 0xE0 SHL PUSH1 0x0 MSTORE PUSH1 0x11 PUSH1 0x4 MSTORE PUSH1 0x24 PUSH1 0x0 REVERT JUMPDEST POP POP POP SWAP1 JUMP JUMPDEST PUSH4 0x4E487B71 PUSH1 0xE0 SHL DUP5 MSTORE PUSH1 0x11 PUSH1 0x4 MSTORE PUSH1 0x24 DUP5 REVERT JUMPDEST DUP1 ISZERO PUSH2 0x1F4B JUMPI PUSH2 0x27E9 DUP2 PUSH2 0x1BB7 PUSH8 0xDE0B6B3A7640000 SWAP4 PUSH2 0x2804 JUMP JUMPDEST DIV PUSH1 0x1 PUSH1 0x1 PUSH1 0xFF SHL SUB DUP2 AND DUP2 SUB PUSH2 0xFF7 JUMPI PUSH1 0x3 SWAP1 PUSH1 0x1 SHL DIV SWAP1 JUMP JUMPDEST SWAP1 DUP2 ISZERO PUSH2 0x2862 JUMPI PUSH8 0xDE0B6B3A7640000 DUP3 MUL SWAP2 DUP3 DIV PUSH8 0xDE0B6B3A7640000 SUB PUSH2 0xFF7 JUMPI DUP2 PUSH1 0x1 DUP2 ADD DUP1 DUP3 GT PUSH2 0xFF7 JUMPI PUSH1 0x1 SHR SWAP1 JUMPDEST DUP4 DUP3 LT PUSH2 0x2843 JUMPI POP POP JUMP JUMPDEST SWAP1 SWAP3 POP PUSH2 0x2859 DUP4 PUSH2 0x2854 DUP2 DUP5 PUSH2 0x1E7B JUMP JUMPDEST PUSH2 0x1E4E JUMP JUMPDEST PUSH1 0x1 SHR SWAP1 PUSH2 0x2838 JUMP JUMPDEST PUSH1 0x0 SWAP2 POP JUMP INVALID SWAP12 PUSH24 0x9B17422D0DF92223018B32B4D1FA46E071723D6817E2486D STOP EXTCODESIZE 0xEC 0xC5 PUSH0 STOP LOG2 PUSH5 0x6970667358 0x22 SLT KECCAK256 BYTE 0x28 PUSH10 0x67BCC1F30BB5B08DDC7C 0xA7 0x28 SUB 0xB3 0xE1 TLOAD DIV 0xDF 0x24 LOG3 SWAP14 0xDE 0xF9 DUP6 EXP ORIGIN SWAP15 MULMOD SWAP13 PUSH5 0x736F6C6343 STOP ADDMOD SHR STOP CALLER "
        },
        "methodIdentifiers": {
          "BPS()": "249d39e9",
          "BUY_COOLDOWN_BLOCKS()": "ec5ae7e8",
          "CREATOR_FEE_BPS()": "cc3cbd2a",
          "DEATH_TAX_BPS()": "0964b7ed",
          "DEATH_TRIGGER_BONUS()": "1e5c6222",
          "DURATION_12H()": "0932df81",
          "DURATION_24H()": "5d8cc808",
          "DURATION_6H()": "57ee9334",
          "LOTTERY_BPS()": "0b4b71cc",
          "LOTTERY_WINNERS()": "7a447ed3",
          "MAX_BUY_BPS_EARLY()": "d161c6a3",
          "MAX_HOLDING_BPS()": "627d55f6",
          "MAX_SUPPLY()": "32cb6b0c",
          "MIN_BUY()": "3af96b90",
          "PROTOCOL_FEE_BPS()": "be378228",
          "PRO_RATA_BPS()": "636bcebe",
          "SNIPER_BLOCKS()": "dd7e8523",
          "balances(uint256,address)": "1f320331",
          "buy(uint256,uint256)": "d6febde8",
          "claim(uint256)": "379607f5",
          "claimable(uint256,address)": "a0c7f71c",
          "createToken(string,string,string,uint256)": "efbe8fd1",
          "creationBlock(uint256)": "4f5e74c2",
          "creationFee()": "dce0b4e4",
          "getBalance(uint256,address)": "b0a79459",
          "getBuyCost(uint256,uint256)": "121a257f",
          "getClaimable(uint256,address)": "b961cbe1",
          "getFirstBuyerMultiplier(uint256)": "9af4694d",
          "getHolders(uint256)": "92707869",
          "getPrice(uint256)": "e7572230",
          "getSellQuote(uint256,uint256)": "9beb5bad",
          "getTimeLeft(uint256)": "e8c58763",
          "getToken(uint256)": "e4b50cb8",
          "isAlive(uint256)": "d84b2361",
          "isHolder(uint256,address)": "36f732a1",
          "k()": "b4f40c61",
          "lastBuyBlock(uint256,address)": "89228817",
          "owner()": "8da5cb5b",
          "publicCreation()": "5ff67b1b",
          "sell(uint256,uint256,uint256)": "d3c9727c",
          "setCreationFee(uint256)": "b7d86225",
          "setK(uint256)": "67de8be9",
          "setPublicCreation(bool)": "c451bc95",
          "setTreasury(address)": "f0f44260",
          "tokenCount()": "9f181b5e",
          "tokens(uint256)": "4f64b2be",
          "treasury()": "61d027b3",
          "triggerDeath(uint256)": "b713cc40"
        }
      }
    }
  }
}