{
  "contracts/v2/ClacFactoryV2.sol": {
    "ClacFactoryV2": {
      "abi": [
        {
          "inputs": [
            {
              "internalType": "address",
              "name": "_implementation",
              "type": "address"
            },
            {
              "internalType": "address",
              "name": "_treasury",
              "type": "address"
            },
            {
              "internalType": "uint256",
              "name": "_defaultK",
              "type": "uint256"
            },
            {
              "internalType": "address",
              "name": "_randomnessProvider",
              "type": "address"
            },
            {
              "internalType": "address",
              "name": "_trophyNFT",
              "type": "address"
            }
          ],
          "stateMutability": "nonpayable",
          "type": "constructor"
        },
        {
          "inputs": [],
          "name": "FailedDeployment",
          "type": "error"
        },
        {
          "inputs": [
            {
              "internalType": "uint256",
              "name": "balance",
              "type": "uint256"
            },
            {
              "internalType": "uint256",
              "name": "needed",
              "type": "uint256"
            }
          ],
          "name": "InsufficientBalance",
          "type": "error"
        },
        {
          "inputs": [],
          "name": "ReentrancyGuardReentrantCall",
          "type": "error"
        },
        {
          "anonymous": false,
          "inputs": [
            {
              "indexed": false,
              "internalType": "uint256",
              "name": "fee",
              "type": "uint256"
            }
          ],
          "name": "CreationFeeUpdated",
          "type": "event"
        },
        {
          "anonymous": false,
          "inputs": [
            {
              "indexed": false,
              "internalType": "uint256",
              "name": "k",
              "type": "uint256"
            }
          ],
          "name": "DefaultKUpdated",
          "type": "event"
        },
        {
          "anonymous": false,
          "inputs": [
            {
              "indexed": true,
              "internalType": "address",
              "name": "previousOwner",
              "type": "address"
            },
            {
              "indexed": true,
              "internalType": "address",
              "name": "newOwner",
              "type": "address"
            }
          ],
          "name": "OwnershipTransferStarted",
          "type": "event"
        },
        {
          "anonymous": false,
          "inputs": [
            {
              "indexed": true,
              "internalType": "address",
              "name": "previousOwner",
              "type": "address"
            },
            {
              "indexed": true,
              "internalType": "address",
              "name": "newOwner",
              "type": "address"
            }
          ],
          "name": "OwnershipTransferred",
          "type": "event"
        },
        {
          "anonymous": false,
          "inputs": [
            {
              "indexed": false,
              "internalType": "bool",
              "name": "isPublic",
              "type": "bool"
            }
          ],
          "name": "PublicCreationUpdated",
          "type": "event"
        },
        {
          "anonymous": false,
          "inputs": [
            {
              "indexed": true,
              "internalType": "address",
              "name": "provider",
              "type": "address"
            }
          ],
          "name": "RandomnessProviderUpdated",
          "type": "event"
        },
        {
          "anonymous": false,
          "inputs": [
            {
              "indexed": true,
              "internalType": "address",
              "name": "token",
              "type": "address"
            },
            {
              "indexed": true,
              "internalType": "address",
              "name": "creator",
              "type": "address"
            },
            {
              "indexed": true,
              "internalType": "uint256",
              "name": "index",
              "type": "uint256"
            },
            {
              "indexed": false,
              "internalType": "string",
              "name": "name",
              "type": "string"
            },
            {
              "indexed": false,
              "internalType": "string",
              "name": "symbol",
              "type": "string"
            },
            {
              "indexed": false,
              "internalType": "string",
              "name": "imageURI",
              "type": "string"
            },
            {
              "indexed": false,
              "internalType": "uint256",
              "name": "duration",
              "type": "uint256"
            },
            {
              "indexed": false,
              "internalType": "uint256",
              "name": "k",
              "type": "uint256"
            }
          ],
          "name": "TokenCreated",
          "type": "event"
        },
        {
          "anonymous": false,
          "inputs": [
            {
              "indexed": true,
              "internalType": "address",
              "name": "treasury",
              "type": "address"
            }
          ],
          "name": "TreasuryUpdated",
          "type": "event"
        },
        {
          "anonymous": false,
          "inputs": [
            {
              "indexed": true,
              "internalType": "address",
              "name": "trophy",
              "type": "address"
            }
          ],
          "name": "TrophyNFTUpdated",
          "type": "event"
        },
        {
          "inputs": [],
          "name": "DURATION_12H",
          "outputs": [
            {
              "internalType": "uint256",
              "name": "",
              "type": "uint256"
            }
          ],
          "stateMutability": "view",
          "type": "function"
        },
        {
          "inputs": [],
          "name": "DURATION_24H",
          "outputs": [
            {
              "internalType": "uint256",
              "name": "",
              "type": "uint256"
            }
          ],
          "stateMutability": "view",
          "type": "function"
        },
        {
          "inputs": [],
          "name": "DURATION_6H",
          "outputs": [
            {
              "internalType": "uint256",
              "name": "",
              "type": "uint256"
            }
          ],
          "stateMutability": "view",
          "type": "function"
        },
        {
          "inputs": [],
          "name": "acceptOwnership",
          "outputs": [],
          "stateMutability": "nonpayable",
          "type": "function"
        },
        {
          "inputs": [
            {
              "internalType": "uint256",
              "name": "",
              "type": "uint256"
            }
          ],
          "name": "allTokens",
          "outputs": [
            {
              "internalType": "address",
              "name": "",
              "type": "address"
            }
          ],
          "stateMutability": "view",
          "type": "function"
        },
        {
          "inputs": [
            {
              "internalType": "string",
              "name": "name",
              "type": "string"
            },
            {
              "internalType": "string",
              "name": "symbol",
              "type": "string"
            },
            {
              "internalType": "string",
              "name": "imageURI",
              "type": "string"
            },
            {
              "internalType": "uint256",
              "name": "duration",
              "type": "uint256"
            },
            {
              "internalType": "uint256",
              "name": "minInitialTokens",
              "type": "uint256"
            }
          ],
          "name": "createToken",
          "outputs": [
            {
              "internalType": "address",
              "name": "token",
              "type": "address"
            }
          ],
          "stateMutability": "payable",
          "type": "function"
        },
        {
          "inputs": [],
          "name": "creationFee",
          "outputs": [
            {
              "internalType": "uint256",
              "name": "",
              "type": "uint256"
            }
          ],
          "stateMutability": "view",
          "type": "function"
        },
        {
          "inputs": [],
          "name": "defaultK",
          "outputs": [
            {
              "internalType": "uint256",
              "name": "",
              "type": "uint256"
            }
          ],
          "stateMutability": "view",
          "type": "function"
        },
        {
          "inputs": [],
          "name": "defaultRandomnessProvider",
          "outputs": [
            {
              "internalType": "address",
              "name": "",
              "type": "address"
            }
          ],
          "stateMutability": "view",
          "type": "function"
        },
        {
          "inputs": [],
          "name": "defaultTrophyNFT",
          "outputs": [
            {
              "internalType": "address",
              "name": "",
              "type": "address"
            }
          ],
          "stateMutability": "view",
          "type": "function"
        },
        {
          "inputs": [],
          "name": "getAllTokens",
          "outputs": [
            {
              "internalType": "address[]",
              "name": "",
              "type": "address[]"
            }
          ],
          "stateMutability": "view",
          "type": "function"
        },
        {
          "inputs": [
            {
              "internalType": "address",
              "name": "creator",
              "type": "address"
            }
          ],
          "name": "getTokensByCreator",
          "outputs": [
            {
              "internalType": "address[]",
              "name": "",
              "type": "address[]"
            }
          ],
          "stateMutability": "view",
          "type": "function"
        },
        {
          "inputs": [
            {
              "internalType": "address",
              "name": "",
              "type": "address"
            }
          ],
          "name": "isToken",
          "outputs": [
            {
              "internalType": "bool",
              "name": "",
              "type": "bool"
            }
          ],
          "stateMutability": "view",
          "type": "function"
        },
        {
          "inputs": [],
          "name": "owner",
          "outputs": [
            {
              "internalType": "address",
              "name": "",
              "type": "address"
            }
          ],
          "stateMutability": "view",
          "type": "function"
        },
        {
          "inputs": [],
          "name": "pendingOwner",
          "outputs": [
            {
              "internalType": "address",
              "name": "",
              "type": "address"
            }
          ],
          "stateMutability": "view",
          "type": "function"
        },
        {
          "inputs": [],
          "name": "publicCreation",
          "outputs": [
            {
              "internalType": "bool",
              "name": "",
              "type": "bool"
            }
          ],
          "stateMutability": "view",
          "type": "function"
        },
        {
          "inputs": [],
          "name": "renounceOwnership",
          "outputs": [],
          "stateMutability": "nonpayable",
          "type": "function"
        },
        {
          "inputs": [
            {
              "internalType": "uint256",
              "name": "_fee",
              "type": "uint256"
            }
          ],
          "name": "setCreationFee",
          "outputs": [],
          "stateMutability": "nonpayable",
          "type": "function"
        },
        {
          "inputs": [
            {
              "internalType": "uint256",
              "name": "_k",
              "type": "uint256"
            }
          ],
          "name": "setDefaultK",
          "outputs": [],
          "stateMutability": "nonpayable",
          "type": "function"
        },
        {
          "inputs": [
            {
              "internalType": "bool",
              "name": "_public",
              "type": "bool"
            }
          ],
          "name": "setPublicCreation",
          "outputs": [],
          "stateMutability": "nonpayable",
          "type": "function"
        },
        {
          "inputs": [
            {
              "internalType": "address",
              "name": "_provider",
              "type": "address"
            }
          ],
          "name": "setRandomnessProvider",
          "outputs": [],
          "stateMutability": "nonpayable",
          "type": "function"
        },
        {
          "inputs": [
            {
              "internalType": "address",
              "name": "_treasury",
              "type": "address"
            }
          ],
          "name": "setTreasury",
          "outputs": [],
          "stateMutability": "nonpayable",
          "type": "function"
        },
        {
          "inputs": [
            {
              "internalType": "address",
              "name": "_trophy",
              "type": "address"
            }
          ],
          "name": "setTrophyNFT",
          "outputs": [],
          "stateMutability": "nonpayable",
          "type": "function"
        },
        {
          "inputs": [],
          "name": "tokenCount",
          "outputs": [
            {
              "internalType": "uint256",
              "name": "",
              "type": "uint256"
            }
          ],
          "stateMutability": "view",
          "type": "function"
        },
        {
          "inputs": [],
          "name": "tokenImplementation",
          "outputs": [
            {
              "internalType": "address",
              "name": "",
              "type": "address"
            }
          ],
          "stateMutability": "view",
          "type": "function"
        },
        {
          "inputs": [
            {
              "internalType": "address",
              "name": "",
              "type": "address"
            },
            {
              "internalType": "uint256",
              "name": "",
              "type": "uint256"
            }
          ],
          "name": "tokensByCreator",
          "outputs": [
            {
              "internalType": "address",
              "name": "",
              "type": "address"
            }
          ],
          "stateMutability": "view",
          "type": "function"
        },
        {
          "inputs": [
            {
              "internalType": "uint256",
              "name": "offset",
              "type": "uint256"
            },
            {
              "internalType": "uint256",
              "name": "limit",
              "type": "uint256"
            }
          ],
          "name": "tokensSlice",
          "outputs": [
            {
              "internalType": "address[]",
              "name": "page",
              "type": "address[]"
            }
          ],
          "stateMutability": "view",
          "type": "function"
        },
        {
          "inputs": [
            {
              "internalType": "address",
              "name": "newOwner",
              "type": "address"
            }
          ],
          "name": "transferOwnership",
          "outputs": [],
          "stateMutability": "nonpayable",
          "type": "function"
        },
        {
          "inputs": [],
          "name": "treasury",
          "outputs": [
            {
              "internalType": "address",
              "name": "",
              "type": "address"
            }
          ],
          "stateMutability": "view",
          "type": "function"
        }
      ],
      "evm": {
        "bytecode": {
          "linkReferences": {},
          "object": "60a03461031757601f6115f638819003918201601f19168301916001600160401b0383118484101761031b5780849260a094604052833981010312610317576100478161032f565b906100546020820161032f565b6040820151610071608061006a6060860161032f565b940161032f565b60017f9b779b17422d0df92223018b32b4d1fa46e071723d6817e2486d003becc55f0055916001600160a01b038516156102e3576001600160a01b03169283156102ab57811561027a576001600160a01b0316918215610240576080949094525f8054336001600160a01b03199182168117835560028054831687179055600384905560048054831686179055600580546001600160a01b03909816979092168717909155678ac7230489e800006006556007805460ff191690556040517f88a973fd5506071e0cf878b30898776c47d5250a7ee1e6ee0b36df3b03c7c16a9660209690947fb1332e47adb7d8b6440f3e1da6d70300ce7b75b2f81645696ba96310a1182eb1948894919291907f8be0079c531659141344cd1fd0a4f28419497f9722a3daafe3b4186f6b6457e08180a37f7dae230f18360d76a040c81f050aa14eb9d6dc7901b20fc5d855e2a20fe814d15f80a28152a1604051917f87b050f471f7331bfd8fc9347cd54894f2ae6663e3339e49ca0d8b2dbe792eb25f80a27f2137e299a96c90407cc604a0ed9fa59ed10356c86a526549295a123fb59f0ed25f80a2678ac7230489e800008152a16040516112b29081610344823960805181818161057a0152610ef80152f35b60405162461bcd60e51b8152602060048201526012602482015271496e76616c69642072616e646f6d6e65737360701b6044820152606490fd5b60405162461bcd60e51b8152602060048201526009602482015268496e76616c6964206b60b81b6044820152606490fd5b60405162461bcd60e51b815260206004820152601060248201526f496e76616c696420747265617375727960801b6044820152606490fd5b60405162461bcd60e51b815260206004820152600c60248201526b125b9d985b1a59081a5b5c1b60a21b6044820152606490fd5b5f80fd5b634e487b7160e01b5f52604160045260245ffd5b51906001600160a01b03821682036103175756fe6080806040526004361015610012575f80fd5b5f905f3560e01c9081630932df8114611009575080630d92bb4414610fe157806319f3736114610fa45780632a5c792a14610f275780632f3a3d5d14610ee3578063328be8d314610ebb5780634e98b3ee14610e2b57806357ee933414610e0f5780635d8cc80814610df25780635ff67b1b14610dd057806361d027b314610da857806361e298d814610d86578063634282af14610d5d5780636973c9eb14610ceb578063715018a614610c7257806379ba509714610bc85780638da5cb5b14610ba15780639f181b5e14610b84578063b15fbc1414610ad8578063b7d8622514610a80578063bdaf068c1461044a578063c451bc95146103d6578063d5c712751461034b578063d80d03a2146102ea578063dce0b4e4146102cc578063e30c3978146102a3578063e69cb77c14610285578063f0f44260146101d75763f2fde38b1461015d575f80fd5b346101d45760203660031901126101d457610176611023565b81546001600160a01b03169061018d33831461110c565b600180546001600160a01b0319166001600160a01b03929092169182179055907f38d16b8cac22d99fc7c124b9cd0de2d3fa1faef420bfe791d8c362d765e227008380a380f35b80fd5b50346101d45760203660031901126101d4576101f1611023565b61020560018060a01b03835416331461110c565b6001600160a01b0316801561024d57600280546001600160a01b031916821790557f7dae230f18360d76a040c81f050aa14eb9d6dc7901b20fc5d855e2a20fe814d18280a280f35b60405162461bcd60e51b815260206004820152601060248201526f496e76616c696420747265617375727960801b6044820152606490fd5b50346101d457806003193601126101d4576020600354604051908152f35b50346101d457806003193601126101d4576001546040516001600160a01b039091168152602090f35b50346101d457806003193601126101d4576020600654604051908152f35b50346101d45760403660031901126101d457610304611023565b6001600160a01b03168152600a60205260408120805460243592908310156101d457602061033284846110a7565b905460405160039290921b1c6001600160a01b03168152f35b50346101d45760203660031901126101d4576001600160a01b0361036d611023565b168152600a60205260408120604051918260208354918281520192825260208220915b8181106103b7576103b3856103a7818703826110ea565b60405191829182611039565b0390f35b82546001600160a01b0316845260209093019260019283019201610390565b50346101d45760203660031901126101d4576004358015158091036104465760207f6f92219e5982e77ff9df253e055b5c35ae66d7d30004f4442cf956b99bcc9bcd9161042d60018060a01b03855416331461110c565b60ff196007541660ff821617600755604051908152a180f35b5080fd5b5060a03660031901126108745760043567ffffffffffffffff8111610874576104779036906004016110bc565b9160243567ffffffffffffffff8111610874576104989036906004016110bc565b9260443567ffffffffffffffff8111610874576104b99036906004016110bc565b6064359360027f9b779b17422d0df92223018b32b4d1fa46e071723d6817e2486d003becc55f005414610a715760027f9b779b17422d0df92223018b32b4d1fa46e071723d6817e2486d003becc55f005560ff6007541615610a25575b61546085148015610a1a575b8015610a0e575b156109d6576006548034106109915788151580610986575b15610956578715158061094b575b156109195761020083116108e557610567903461117d565b966e5af43d82803e903d91602b57fd5bf37f0000000000000000000000000000000000000000000000000000000000000000763d602d80600a3d3981f3363d3d373d3d3d363d7300000062ffffff8260881c16175f5260781b1760205260018060a01b03603760095ff0169788156108d6575f80808060018060a01b0360025416600654905af13d156108d1573d67ffffffffffffffff81116108bd576040519061061c601f8201601f1916602001836110ea565b81525f60203d92013e5b15610878576003546002546004546005546001600160a01b0391821694908216929091168c3b15610874578d8b87948f96978d948b998e8e6040519c8d9b8c9a8b9a631145e75160e31b8c523360048d015260248c0161014090526101448c01906106909261125c565b906003198b83030160448c01526106a69261125c565b906003198983030160648a01526106bc9261125c565b94608487015260a486015260c485015260e484015261010483015260843561012483015203915a945f95f1801561086957610854575b506008549687600160401b81101561084057806001610716920160085560086110a7565b81549060031b908b821b9160018060a01b03901b1916179055888152600960205260408120600160ff19825416179055338152600a60205260408120805491600160401b83101561082c5750936107e18a97946107ef946107a28560209f9960017fc3d0ad7f6670720d4faacb5955ce491e3e719b91621beb92e4e558d31b630cb89c980181556110a7565b81549060031b908c821b9160018060a01b03901b19161790556107d4600354976040519960a08b5260a08b019161125c565b918883038f8a015261125c565b91858303604087015261125c565b94606083015260808201528033940390a460017f9b779b17422d0df92223018b32b4d1fa46e071723d6817e2486d003becc55f0055604051908152f35b634e487b7160e01b81526041600452602490fd5b634e487b7160e01b82526041600452602482fd5b6108619197505f906110ea565b5f955f6106f2565b6040513d5f823e3d90fd5b5f80fd5b60405162461bcd60e51b815260206004820152601860248201527f5472656173757279207472616e73666572206661696c656400000000000000006044820152606490fd5b634e487b7160e01b5f52604160045260245ffd5b610626565b63b06ebf3d60e01b5f5260045ffd5b60405162461bcd60e51b815260206004820152600c60248201526b42616420696d61676555524960a01b6044820152606490fd5b60405162461bcd60e51b815260206004820152600a602482015269109859081cde5b589bdb60b21b6044820152606490fd5b50601088111561054f565b60405162461bcd60e51b8152602060048201526008602482015267426164206e616d6560c01b6044820152606490fd5b506040891115610541565b60405162461bcd60e51b815260206004820152601960248201527f496e73756666696369656e74206372656174696f6e20666565000000000000006044820152606490fd5b60405162461bcd60e51b815260206004820152601060248201526f24b73b30b634b210323ab930ba34b7b760811b6044820152606490fd5b50620151808514610529565b5061a8c08514610522565b5f546001600160a01b031633146105165760405162461bcd60e51b81526020600482015260136024820152724372656174696f6e206e6f74207075626c696360681b6044820152606490fd5b633ee5aeb560e01b5f5260045ffd5b34610874576020366003190112610874577f88a973fd5506071e0cf878b30898776c47d5250a7ee1e6ee0b36df3b03c7c16a6020600435610acb60018060a01b035f5416331461110c565b80600655604051908152a1005b3461087457602036600319011261087457610af1611023565b610b0560018060a01b035f5416331461110c565b6001600160a01b03168015610b4c57600480546001600160a01b031916821790557f87b050f471f7331bfd8fc9347cd54894f2ae6663e3339e49ca0d8b2dbe792eb25f80a2005b60405162461bcd60e51b815260206004820152601060248201526f24b73b30b634b210383937bb34b232b960811b6044820152606490fd5b34610874575f366003190112610874576020600854604051908152f35b34610874575f366003190112610874575f546040516001600160a01b039091168152602090f35b34610874575f366003190112610874576001546001600160a01b0381169033829003610c39575f80546001600160a01b0319808216851783559092166001556001600160a01b03909116907f8be0079c531659141344cd1fd0a4f28419497f9722a3daafe3b4186f6b6457e09080a3005b60405162461bcd60e51b81526020600482015260116024820152702737ba103832b73234b7339037bbb732b960791b6044820152606490fd5b34610874575f366003190112610874575f80546001600160a01b03811690610c9b33831461110c565b6bffffffffffffffffffffffff60a01b1682556bffffffffffffffffffffffff60a01b600154166001557f8be0079c531659141344cd1fd0a4f28419497f9722a3daafe3b4186f6b6457e08280a3005b3461087457602036600319011261087457610d04611023565b610d1860018060a01b035f5416331461110c565b600580546001600160a01b0319166001600160a01b039290921691821790557f2137e299a96c90407cc604a0ed9fa59ed10356c86a526549295a123fb59f0ed25f80a2005b34610874576020366003190112610874576004356008548110156108745761033260209161107b565b34610874576040366003190112610874576103b36103a760243560043561118a565b34610874575f366003190112610874576002546040516001600160a01b039091168152602090f35b34610874575f36600319011261087457602060ff600754166040519015158152f35b34610874575f366003190112610874576020604051620151808152f35b34610874575f3660031901126108745760206040516154608152f35b3461087457602036600319011261087457600435610e5360018060a01b035f5416331461110c565b8015610e8a576020817fb1332e47adb7d8b6440f3e1da6d70300ce7b75b2f81645696ba96310a1182eb192600355604051908152a1005b60405162461bcd60e51b8152602060048201526009602482015268496e76616c6964206b60b81b6044820152606490fd5b34610874575f366003190112610874576004546040516001600160a01b039091168152602090f35b34610874575f366003190112610874576040517f00000000000000000000000000000000000000000000000000000000000000006001600160a01b03168152602090f35b34610874575f3660031901126108745760405180602060085491828152019060085f527ff3f7a9fe364faab93b216da50a3214154f22a0a2b415b23a84c8169e8b636ee3905f5b818110610f85576103b3856103a7818703826110ea565b82546001600160a01b0316845260209093019260019283019201610f6e565b34610874576020366003190112610874576001600160a01b03610fc5611023565b165f526009602052602060ff60405f2054166040519015158152f35b34610874575f366003190112610874576005546040516001600160a01b039091168152602090f35b34610874575f366003190112610874578061a8c060209252f35b600435906001600160a01b038216820361087457565b60206040818301928281528451809452019201905f5b81811061105c5750505090565b82516001600160a01b031684526020938401939092019160010161104f565b6008548110156110935760085f5260205f2001905f90565b634e487b7160e01b5f52603260045260245ffd5b8054821015611093575f5260205f2001905f90565b9181601f840112156108745782359167ffffffffffffffff8311610874576020838186019501011161087457565b90601f8019910116810190811067ffffffffffffffff8211176108bd57604052565b1561111357565b60405162461bcd60e51b81526020600482015260096024820152682737ba1037bbb732b960b91b6044820152606490fd5b67ffffffffffffffff81116108bd5760051b60200190565b9190820180921161116957565b634e487b7160e01b5f52601160045260245ffd5b9190820391821161116957565b91906008549081841015611240576111b6916111a785928361115c565b90808211611238575b5061117d565b916111c083611144565b926111ce60405194856110ea565b8084526111dd601f1991611144565b01366020850137825f5b8451811015611232576112026111fd828561115c565b61107b565b9054865160039290921b1c6001600160a01b031691908110156110935760019160208260051b88010152016111e7565b50925050565b90505f6111b0565b505090506040516112526020826110ea565b5f81525f36813790565b908060209392818452848401375f828201840152601f01601f191601019056fea2646970667358221220865f31ddd1fdfa33cba1892ae2e1a56278f667fc25d6b9bc426e7bcd920268ab64736f6c634300081c0033",
          "opcodes": "PUSH1 0xA0 CALLVALUE PUSH2 0x317 JUMPI PUSH1 0x1F PUSH2 0x15F6 CODESIZE DUP2 SWAP1 SUB SWAP2 DUP3 ADD PUSH1 0x1F NOT AND DUP4 ADD SWAP2 PUSH1 0x1 PUSH1 0x1 PUSH1 0x40 SHL SUB DUP4 GT DUP5 DUP5 LT OR PUSH2 0x31B JUMPI DUP1 DUP5 SWAP3 PUSH1 0xA0 SWAP5 PUSH1 0x40 MSTORE DUP4 CODECOPY DUP2 ADD SUB SLT PUSH2 0x317 JUMPI PUSH2 0x47 DUP2 PUSH2 0x32F JUMP JUMPDEST SWAP1 PUSH2 0x54 PUSH1 0x20 DUP3 ADD PUSH2 0x32F JUMP JUMPDEST PUSH1 0x40 DUP3 ADD MLOAD PUSH2 0x71 PUSH1 0x80 PUSH2 0x6A PUSH1 0x60 DUP7 ADD PUSH2 0x32F JUMP JUMPDEST SWAP5 ADD PUSH2 0x32F JUMP JUMPDEST PUSH1 0x1 PUSH32 0x9B779B17422D0DF92223018B32B4D1FA46E071723D6817E2486D003BECC55F00 SSTORE SWAP2 PUSH1 0x1 PUSH1 0x1 PUSH1 0xA0 SHL SUB DUP6 AND ISZERO PUSH2 0x2E3 JUMPI PUSH1 0x1 PUSH1 0x1 PUSH1 0xA0 SHL SUB AND SWAP3 DUP4 ISZERO PUSH2 0x2AB JUMPI DUP2 ISZERO PUSH2 0x27A JUMPI PUSH1 0x1 PUSH1 0x1 PUSH1 0xA0 SHL SUB AND SWAP2 DUP3 ISZERO PUSH2 0x240 JUMPI PUSH1 0x80 SWAP5 SWAP1 SWAP5 MSTORE PUSH0 DUP1 SLOAD CALLER PUSH1 0x1 PUSH1 0x1 PUSH1 0xA0 SHL SUB NOT SWAP2 DUP3 AND DUP2 OR DUP4 SSTORE PUSH1 0x2 DUP1 SLOAD DUP4 AND DUP8 OR SWAP1 SSTORE PUSH1 0x3 DUP5 SWAP1 SSTORE PUSH1 0x4 DUP1 SLOAD DUP4 AND DUP7 OR SWAP1 SSTORE PUSH1 0x5 DUP1 SLOAD PUSH1 0x1 PUSH1 0x1 PUSH1 0xA0 SHL SUB SWAP1 SWAP9 AND SWAP8 SWAP1 SWAP3 AND DUP8 OR SWAP1 SWAP2 SSTORE PUSH8 0x8AC7230489E80000 PUSH1 0x6 SSTORE PUSH1 0x7 DUP1 SLOAD PUSH1 0xFF NOT AND SWAP1 SSTORE PUSH1 0x40 MLOAD PUSH32 0x88A973FD5506071E0CF878B30898776C47D5250A7EE1E6EE0B36DF3B03C7C16A SWAP7 PUSH1 0x20 SWAP7 SWAP1 SWAP5 PUSH32 0xB1332E47ADB7D8B6440F3E1DA6D70300CE7B75B2F81645696BA96310A1182EB1 SWAP5 DUP9 SWAP5 SWAP2 SWAP3 SWAP2 SWAP1 PUSH32 0x8BE0079C531659141344CD1FD0A4F28419497F9722A3DAAFE3B4186F6B6457E0 DUP2 DUP1 LOG3 PUSH32 0x7DAE230F18360D76A040C81F050AA14EB9D6DC7901B20FC5D855E2A20FE814D1 PUSH0 DUP1 LOG2 DUP2 MSTORE LOG1 PUSH1 0x40 MLOAD SWAP2 PUSH32 0x87B050F471F7331BFD8FC9347CD54894F2AE6663E3339E49CA0D8B2DBE792EB2 PUSH0 DUP1 LOG2 PUSH32 0x2137E299A96C90407CC604A0ED9FA59ED10356C86A526549295A123FB59F0ED2 PUSH0 DUP1 LOG2 PUSH8 0x8AC7230489E80000 DUP2 MSTORE LOG1 PUSH1 0x40 MLOAD PUSH2 0x12B2 SWAP1 DUP2 PUSH2 0x344 DUP3 CODECOPY PUSH1 0x80 MLOAD DUP2 DUP2 DUP2 PUSH2 0x57A ADD MSTORE PUSH2 0xEF8 ADD MSTORE RETURN JUMPDEST PUSH1 0x40 MLOAD PUSH3 0x461BCD PUSH1 0xE5 SHL DUP2 MSTORE PUSH1 0x20 PUSH1 0x4 DUP3 ADD MSTORE PUSH1 0x12 PUSH1 0x24 DUP3 ADD MSTORE PUSH18 0x496E76616C69642072616E646F6D6E657373 PUSH1 0x70 SHL PUSH1 0x44 DUP3 ADD MSTORE PUSH1 0x64 SWAP1 REVERT JUMPDEST PUSH1 0x40 MLOAD PUSH3 0x461BCD PUSH1 0xE5 SHL DUP2 MSTORE PUSH1 0x20 PUSH1 0x4 DUP3 ADD MSTORE PUSH1 0x9 PUSH1 0x24 DUP3 ADD MSTORE PUSH9 0x496E76616C6964206B PUSH1 0xB8 SHL PUSH1 0x44 DUP3 ADD MSTORE PUSH1 0x64 SWAP1 REVERT JUMPDEST PUSH1 0x40 MLOAD PUSH3 0x461BCD PUSH1 0xE5 SHL DUP2 MSTORE PUSH1 0x20 PUSH1 0x4 DUP3 ADD MSTORE PUSH1 0x10 PUSH1 0x24 DUP3 ADD MSTORE PUSH16 0x496E76616C6964207472656173757279 PUSH1 0x80 SHL PUSH1 0x44 DUP3 ADD MSTORE PUSH1 0x64 SWAP1 REVERT JUMPDEST PUSH1 0x40 MLOAD PUSH3 0x461BCD PUSH1 0xE5 SHL DUP2 MSTORE PUSH1 0x20 PUSH1 0x4 DUP3 ADD MSTORE PUSH1 0xC PUSH1 0x24 DUP3 ADD MSTORE PUSH12 0x125B9D985B1A59081A5B5C1B PUSH1 0xA2 SHL PUSH1 0x44 DUP3 ADD MSTORE PUSH1 0x64 SWAP1 REVERT JUMPDEST PUSH0 DUP1 REVERT JUMPDEST PUSH4 0x4E487B71 PUSH1 0xE0 SHL PUSH0 MSTORE PUSH1 0x41 PUSH1 0x4 MSTORE PUSH1 0x24 PUSH0 REVERT JUMPDEST MLOAD SWAP1 PUSH1 0x1 PUSH1 0x1 PUSH1 0xA0 SHL SUB DUP3 AND DUP3 SUB PUSH2 0x317 JUMPI JUMP INVALID PUSH1 0x80 DUP1 PUSH1 0x40 MSTORE PUSH1 0x4 CALLDATASIZE LT ISZERO PUSH2 0x12 JUMPI PUSH0 DUP1 REVERT JUMPDEST PUSH0 SWAP1 PUSH0 CALLDATALOAD PUSH1 0xE0 SHR SWAP1 DUP2 PUSH4 0x932DF81 EQ PUSH2 0x1009 JUMPI POP DUP1 PUSH4 0xD92BB44 EQ PUSH2 0xFE1 JUMPI DUP1 PUSH4 0x19F37361 EQ PUSH2 0xFA4 JUMPI DUP1 PUSH4 0x2A5C792A EQ PUSH2 0xF27 JUMPI DUP1 PUSH4 0x2F3A3D5D EQ PUSH2 0xEE3 JUMPI DUP1 PUSH4 0x328BE8D3 EQ PUSH2 0xEBB JUMPI DUP1 PUSH4 0x4E98B3EE EQ PUSH2 0xE2B JUMPI DUP1 PUSH4 0x57EE9334 EQ PUSH2 0xE0F JUMPI DUP1 PUSH4 0x5D8CC808 EQ PUSH2 0xDF2 JUMPI DUP1 PUSH4 0x5FF67B1B EQ PUSH2 0xDD0 JUMPI DUP1 PUSH4 0x61D027B3 EQ PUSH2 0xDA8 JUMPI DUP1 PUSH4 0x61E298D8 EQ PUSH2 0xD86 JUMPI DUP1 PUSH4 0x634282AF EQ PUSH2 0xD5D JUMPI DUP1 PUSH4 0x6973C9EB EQ PUSH2 0xCEB JUMPI DUP1 PUSH4 0x715018A6 EQ PUSH2 0xC72 JUMPI DUP1 PUSH4 0x79BA5097 EQ PUSH2 0xBC8 JUMPI DUP1 PUSH4 0x8DA5CB5B EQ PUSH2 0xBA1 JUMPI DUP1 PUSH4 0x9F181B5E EQ PUSH2 0xB84 JUMPI DUP1 PUSH4 0xB15FBC14 EQ PUSH2 0xAD8 JUMPI DUP1 PUSH4 0xB7D86225 EQ PUSH2 0xA80 JUMPI DUP1 PUSH4 0xBDAF068C EQ PUSH2 0x44A JUMPI DUP1 PUSH4 0xC451BC95 EQ PUSH2 0x3D6 JUMPI DUP1 PUSH4 0xD5C71275 EQ PUSH2 0x34B JUMPI DUP1 PUSH4 0xD80D03A2 EQ PUSH2 0x2EA JUMPI DUP1 PUSH4 0xDCE0B4E4 EQ PUSH2 0x2CC JUMPI DUP1 PUSH4 0xE30C3978 EQ PUSH2 0x2A3 JUMPI DUP1 PUSH4 0xE69CB77C EQ PUSH2 0x285 JUMPI DUP1 PUSH4 0xF0F44260 EQ PUSH2 0x1D7 JUMPI PUSH4 0xF2FDE38B EQ PUSH2 0x15D JUMPI PUSH0 DUP1 REVERT JUMPDEST CALLVALUE PUSH2 0x1D4 JUMPI PUSH1 0x20 CALLDATASIZE PUSH1 0x3 NOT ADD SLT PUSH2 0x1D4 JUMPI PUSH2 0x176 PUSH2 0x1023 JUMP JUMPDEST DUP2 SLOAD PUSH1 0x1 PUSH1 0x1 PUSH1 0xA0 SHL SUB AND SWAP1 PUSH2 0x18D CALLER DUP4 EQ PUSH2 0x110C JUMP JUMPDEST PUSH1 0x1 DUP1 SLOAD PUSH1 0x1 PUSH1 0x1 PUSH1 0xA0 SHL SUB NOT AND PUSH1 0x1 PUSH1 0x1 PUSH1 0xA0 SHL SUB SWAP3 SWAP1 SWAP3 AND SWAP2 DUP3 OR SWAP1 SSTORE SWAP1 PUSH32 0x38D16B8CAC22D99FC7C124B9CD0DE2D3FA1FAEF420BFE791D8C362D765E22700 DUP4 DUP1 LOG3 DUP1 RETURN JUMPDEST DUP1 REVERT JUMPDEST POP CALLVALUE PUSH2 0x1D4 JUMPI PUSH1 0x20 CALLDATASIZE PUSH1 0x3 NOT ADD SLT PUSH2 0x1D4 JUMPI PUSH2 0x1F1 PUSH2 0x1023 JUMP JUMPDEST PUSH2 0x205 PUSH1 0x1 DUP1 PUSH1 0xA0 SHL SUB DUP4 SLOAD AND CALLER EQ PUSH2 0x110C JUMP JUMPDEST PUSH1 0x1 PUSH1 0x1 PUSH1 0xA0 SHL SUB AND DUP1 ISZERO PUSH2 0x24D JUMPI PUSH1 0x2 DUP1 SLOAD PUSH1 0x1 PUSH1 0x1 PUSH1 0xA0 SHL SUB NOT AND DUP3 OR SWAP1 SSTORE PUSH32 0x7DAE230F18360D76A040C81F050AA14EB9D6DC7901B20FC5D855E2A20FE814D1 DUP3 DUP1 LOG2 DUP1 RETURN JUMPDEST PUSH1 0x40 MLOAD PUSH3 0x461BCD PUSH1 0xE5 SHL DUP2 MSTORE PUSH1 0x20 PUSH1 0x4 DUP3 ADD MSTORE PUSH1 0x10 PUSH1 0x24 DUP3 ADD MSTORE PUSH16 0x496E76616C6964207472656173757279 PUSH1 0x80 SHL PUSH1 0x44 DUP3 ADD MSTORE PUSH1 0x64 SWAP1 REVERT JUMPDEST POP CALLVALUE PUSH2 0x1D4 JUMPI DUP1 PUSH1 0x3 NOT CALLDATASIZE ADD SLT PUSH2 0x1D4 JUMPI PUSH1 0x20 PUSH1 0x3 SLOAD PUSH1 0x40 MLOAD SWAP1 DUP2 MSTORE RETURN JUMPDEST POP CALLVALUE PUSH2 0x1D4 JUMPI DUP1 PUSH1 0x3 NOT CALLDATASIZE ADD SLT PUSH2 0x1D4 JUMPI PUSH1 0x1 SLOAD PUSH1 0x40 MLOAD PUSH1 0x1 PUSH1 0x1 PUSH1 0xA0 SHL SUB SWAP1 SWAP2 AND DUP2 MSTORE PUSH1 0x20 SWAP1 RETURN JUMPDEST POP CALLVALUE PUSH2 0x1D4 JUMPI DUP1 PUSH1 0x3 NOT CALLDATASIZE ADD SLT PUSH2 0x1D4 JUMPI PUSH1 0x20 PUSH1 0x6 SLOAD PUSH1 0x40 MLOAD SWAP1 DUP2 MSTORE RETURN JUMPDEST POP CALLVALUE PUSH2 0x1D4 JUMPI PUSH1 0x40 CALLDATASIZE PUSH1 0x3 NOT ADD SLT PUSH2 0x1D4 JUMPI PUSH2 0x304 PUSH2 0x1023 JUMP JUMPDEST PUSH1 0x1 PUSH1 0x1 PUSH1 0xA0 SHL SUB AND DUP2 MSTORE PUSH1 0xA PUSH1 0x20 MSTORE PUSH1 0x40 DUP2 KECCAK256 DUP1 SLOAD PUSH1 0x24 CALLDATALOAD SWAP3 SWAP1 DUP4 LT ISZERO PUSH2 0x1D4 JUMPI PUSH1 0x20 PUSH2 0x332 DUP5 DUP5 PUSH2 0x10A7 JUMP JUMPDEST SWAP1 SLOAD PUSH1 0x40 MLOAD PUSH1 0x3 SWAP3 SWAP1 SWAP3 SHL SHR PUSH1 0x1 PUSH1 0x1 PUSH1 0xA0 SHL SUB AND DUP2 MSTORE RETURN JUMPDEST POP CALLVALUE PUSH2 0x1D4 JUMPI PUSH1 0x20 CALLDATASIZE PUSH1 0x3 NOT ADD SLT PUSH2 0x1D4 JUMPI PUSH1 0x1 PUSH1 0x1 PUSH1 0xA0 SHL SUB PUSH2 0x36D PUSH2 0x1023 JUMP JUMPDEST AND DUP2 MSTORE PUSH1 0xA PUSH1 0x20 MSTORE PUSH1 0x40 DUP2 KECCAK256 PUSH1 0x40 MLOAD SWAP2 DUP3 PUSH1 0x20 DUP4 SLOAD SWAP2 DUP3 DUP2 MSTORE ADD SWAP3 DUP3 MSTORE PUSH1 0x20 DUP3 KECCAK256 SWAP2 JUMPDEST DUP2 DUP2 LT PUSH2 0x3B7 JUMPI PUSH2 0x3B3 DUP6 PUSH2 0x3A7 DUP2 DUP8 SUB DUP3 PUSH2 0x10EA JUMP JUMPDEST PUSH1 0x40 MLOAD SWAP2 DUP3 SWAP2 DUP3 PUSH2 0x1039 JUMP JUMPDEST SUB SWAP1 RETURN JUMPDEST DUP3 SLOAD PUSH1 0x1 PUSH1 0x1 PUSH1 0xA0 SHL SUB AND DUP5 MSTORE PUSH1 0x20 SWAP1 SWAP4 ADD SWAP3 PUSH1 0x1 SWAP3 DUP4 ADD SWAP3 ADD PUSH2 0x390 JUMP JUMPDEST POP CALLVALUE PUSH2 0x1D4 JUMPI PUSH1 0x20 CALLDATASIZE PUSH1 0x3 NOT ADD SLT PUSH2 0x1D4 JUMPI PUSH1 0x4 CALLDATALOAD DUP1 ISZERO ISZERO DUP1 SWAP2 SUB PUSH2 0x446 JUMPI PUSH1 0x20 PUSH32 0x6F92219E5982E77FF9DF253E055B5C35AE66D7D30004F4442CF956B99BCC9BCD SWAP2 PUSH2 0x42D PUSH1 0x1 DUP1 PUSH1 0xA0 SHL SUB DUP6 SLOAD AND CALLER EQ PUSH2 0x110C JUMP JUMPDEST PUSH1 0xFF NOT PUSH1 0x7 SLOAD AND PUSH1 0xFF DUP3 AND OR PUSH1 0x7 SSTORE PUSH1 0x40 MLOAD SWAP1 DUP2 MSTORE LOG1 DUP1 RETURN JUMPDEST POP DUP1 REVERT JUMPDEST POP PUSH1 0xA0 CALLDATASIZE PUSH1 0x3 NOT ADD SLT PUSH2 0x874 JUMPI PUSH1 0x4 CALLDATALOAD PUSH8 0xFFFFFFFFFFFFFFFF DUP2 GT PUSH2 0x874 JUMPI PUSH2 0x477 SWAP1 CALLDATASIZE SWAP1 PUSH1 0x4 ADD PUSH2 0x10BC JUMP JUMPDEST SWAP2 PUSH1 0x24 CALLDATALOAD PUSH8 0xFFFFFFFFFFFFFFFF DUP2 GT PUSH2 0x874 JUMPI PUSH2 0x498 SWAP1 CALLDATASIZE SWAP1 PUSH1 0x4 ADD PUSH2 0x10BC JUMP JUMPDEST SWAP3 PUSH1 0x44 CALLDATALOAD PUSH8 0xFFFFFFFFFFFFFFFF DUP2 GT PUSH2 0x874 JUMPI PUSH2 0x4B9 SWAP1 CALLDATASIZE SWAP1 PUSH1 0x4 ADD PUSH2 0x10BC JUMP JUMPDEST PUSH1 0x64 CALLDATALOAD SWAP4 PUSH1 0x2 PUSH32 0x9B779B17422D0DF92223018B32B4D1FA46E071723D6817E2486D003BECC55F00 SLOAD EQ PUSH2 0xA71 JUMPI PUSH1 0x2 PUSH32 0x9B779B17422D0DF92223018B32B4D1FA46E071723D6817E2486D003BECC55F00 SSTORE PUSH1 0xFF PUSH1 0x7 SLOAD AND ISZERO PUSH2 0xA25 JUMPI JUMPDEST PUSH2 0x5460 DUP6 EQ DUP1 ISZERO PUSH2 0xA1A JUMPI JUMPDEST DUP1 ISZERO PUSH2 0xA0E JUMPI JUMPDEST ISZERO PUSH2 0x9D6 JUMPI PUSH1 0x6 SLOAD DUP1 CALLVALUE LT PUSH2 0x991 JUMPI DUP9 ISZERO ISZERO DUP1 PUSH2 0x986 JUMPI JUMPDEST ISZERO PUSH2 0x956 JUMPI DUP8 ISZERO ISZERO DUP1 PUSH2 0x94B JUMPI JUMPDEST ISZERO PUSH2 0x919 JUMPI PUSH2 0x200 DUP4 GT PUSH2 0x8E5 JUMPI PUSH2 0x567 SWAP1 CALLVALUE PUSH2 0x117D JUMP JUMPDEST SWAP7 PUSH15 0x5AF43D82803E903D91602B57FD5BF3 PUSH32 0x0 PUSH23 0x3D602D80600A3D3981F3363D3D373D3D3D363D73000000 PUSH3 0xFFFFFF DUP3 PUSH1 0x88 SHR AND OR PUSH0 MSTORE PUSH1 0x78 SHL OR PUSH1 0x20 MSTORE PUSH1 0x1 DUP1 PUSH1 0xA0 SHL SUB PUSH1 0x37 PUSH1 0x9 PUSH0 CREATE AND SWAP8 DUP9 ISZERO PUSH2 0x8D6 JUMPI PUSH0 DUP1 DUP1 DUP1 PUSH1 0x1 DUP1 PUSH1 0xA0 SHL SUB PUSH1 0x2 SLOAD AND PUSH1 0x6 SLOAD SWAP1 GAS CALL RETURNDATASIZE ISZERO PUSH2 0x8D1 JUMPI RETURNDATASIZE PUSH8 0xFFFFFFFFFFFFFFFF DUP2 GT PUSH2 0x8BD JUMPI PUSH1 0x40 MLOAD SWAP1 PUSH2 0x61C PUSH1 0x1F DUP3 ADD PUSH1 0x1F NOT AND PUSH1 0x20 ADD DUP4 PUSH2 0x10EA JUMP JUMPDEST DUP2 MSTORE PUSH0 PUSH1 0x20 RETURNDATASIZE SWAP3 ADD RETURNDATACOPY JUMPDEST ISZERO PUSH2 0x878 JUMPI PUSH1 0x3 SLOAD PUSH1 0x2 SLOAD PUSH1 0x4 SLOAD PUSH1 0x5 SLOAD PUSH1 0x1 PUSH1 0x1 PUSH1 0xA0 SHL SUB SWAP2 DUP3 AND SWAP5 SWAP1 DUP3 AND SWAP3 SWAP1 SWAP2 AND DUP13 EXTCODESIZE ISZERO PUSH2 0x874 JUMPI DUP14 DUP12 DUP8 SWAP5 DUP16 SWAP7 SWAP8 DUP14 SWAP5 DUP12 SWAP10 DUP15 DUP15 PUSH1 0x40 MLOAD SWAP13 DUP14 SWAP12 DUP13 SWAP11 DUP12 SWAP11 PUSH4 0x1145E751 PUSH1 0xE3 SHL DUP13 MSTORE CALLER PUSH1 0x4 DUP14 ADD MSTORE PUSH1 0x24 DUP13 ADD PUSH2 0x140 SWAP1 MSTORE PUSH2 0x144 DUP13 ADD SWAP1 PUSH2 0x690 SWAP3 PUSH2 0x125C JUMP JUMPDEST SWAP1 PUSH1 0x3 NOT DUP12 DUP4 SUB ADD PUSH1 0x44 DUP13 ADD MSTORE PUSH2 0x6A6 SWAP3 PUSH2 0x125C JUMP JUMPDEST SWAP1 PUSH1 0x3 NOT DUP10 DUP4 SUB ADD PUSH1 0x64 DUP11 ADD MSTORE PUSH2 0x6BC SWAP3 PUSH2 0x125C JUMP JUMPDEST SWAP5 PUSH1 0x84 DUP8 ADD MSTORE PUSH1 0xA4 DUP7 ADD MSTORE PUSH1 0xC4 DUP6 ADD MSTORE PUSH1 0xE4 DUP5 ADD MSTORE PUSH2 0x104 DUP4 ADD MSTORE PUSH1 0x84 CALLDATALOAD PUSH2 0x124 DUP4 ADD MSTORE SUB SWAP2 GAS SWAP5 PUSH0 SWAP6 CALL DUP1 ISZERO PUSH2 0x869 JUMPI PUSH2 0x854 JUMPI JUMPDEST POP PUSH1 0x8 SLOAD SWAP7 DUP8 PUSH1 0x1 PUSH1 0x40 SHL DUP2 LT ISZERO PUSH2 0x840 JUMPI DUP1 PUSH1 0x1 PUSH2 0x716 SWAP3 ADD PUSH1 0x8 SSTORE PUSH1 0x8 PUSH2 0x10A7 JUMP JUMPDEST DUP2 SLOAD SWAP1 PUSH1 0x3 SHL SWAP1 DUP12 DUP3 SHL SWAP2 PUSH1 0x1 DUP1 PUSH1 0xA0 SHL SUB SWAP1 SHL NOT AND OR SWAP1 SSTORE DUP9 DUP2 MSTORE PUSH1 0x9 PUSH1 0x20 MSTORE PUSH1 0x40 DUP2 KECCAK256 PUSH1 0x1 PUSH1 0xFF NOT DUP3 SLOAD AND OR SWAP1 SSTORE CALLER DUP2 MSTORE PUSH1 0xA PUSH1 0x20 MSTORE PUSH1 0x40 DUP2 KECCAK256 DUP1 SLOAD SWAP2 PUSH1 0x1 PUSH1 0x40 SHL DUP4 LT ISZERO PUSH2 0x82C JUMPI POP SWAP4 PUSH2 0x7E1 DUP11 SWAP8 SWAP5 PUSH2 0x7EF SWAP5 PUSH2 0x7A2 DUP6 PUSH1 0x20 SWAP16 SWAP10 PUSH1 0x1 PUSH32 0xC3D0AD7F6670720D4FAACB5955CE491E3E719B91621BEB92E4E558D31B630CB8 SWAP13 SWAP9 ADD DUP2 SSTORE PUSH2 0x10A7 JUMP JUMPDEST DUP2 SLOAD SWAP1 PUSH1 0x3 SHL SWAP1 DUP13 DUP3 SHL SWAP2 PUSH1 0x1 DUP1 PUSH1 0xA0 SHL SUB SWAP1 SHL NOT AND OR SWAP1 SSTORE PUSH2 0x7D4 PUSH1 0x3 SLOAD SWAP8 PUSH1 0x40 MLOAD SWAP10 PUSH1 0xA0 DUP12 MSTORE PUSH1 0xA0 DUP12 ADD SWAP2 PUSH2 0x125C JUMP JUMPDEST SWAP2 DUP9 DUP4 SUB DUP16 DUP11 ADD MSTORE PUSH2 0x125C JUMP JUMPDEST SWAP2 DUP6 DUP4 SUB PUSH1 0x40 DUP8 ADD MSTORE PUSH2 0x125C JUMP JUMPDEST SWAP5 PUSH1 0x60 DUP4 ADD MSTORE PUSH1 0x80 DUP3 ADD MSTORE DUP1 CALLER SWAP5 SUB SWAP1 LOG4 PUSH1 0x1 PUSH32 0x9B779B17422D0DF92223018B32B4D1FA46E071723D6817E2486D003BECC55F00 SSTORE PUSH1 0x40 MLOAD SWAP1 DUP2 MSTORE RETURN JUMPDEST PUSH4 0x4E487B71 PUSH1 0xE0 SHL DUP2 MSTORE PUSH1 0x41 PUSH1 0x4 MSTORE PUSH1 0x24 SWAP1 REVERT JUMPDEST PUSH4 0x4E487B71 PUSH1 0xE0 SHL DUP3 MSTORE PUSH1 0x41 PUSH1 0x4 MSTORE PUSH1 0x24 DUP3 REVERT JUMPDEST PUSH2 0x861 SWAP2 SWAP8 POP PUSH0 SWAP1 PUSH2 0x10EA JUMP JUMPDEST PUSH0 SWAP6 PUSH0 PUSH2 0x6F2 JUMP JUMPDEST PUSH1 0x40 MLOAD RETURNDATASIZE PUSH0 DUP3 RETURNDATACOPY RETURNDATASIZE SWAP1 REVERT JUMPDEST PUSH0 DUP1 REVERT JUMPDEST PUSH1 0x40 MLOAD PUSH3 0x461BCD PUSH1 0xE5 SHL DUP2 MSTORE PUSH1 0x20 PUSH1 0x4 DUP3 ADD MSTORE PUSH1 0x18 PUSH1 0x24 DUP3 ADD MSTORE PUSH32 0x5472656173757279207472616E73666572206661696C65640000000000000000 PUSH1 0x44 DUP3 ADD MSTORE PUSH1 0x64 SWAP1 REVERT JUMPDEST PUSH4 0x4E487B71 PUSH1 0xE0 SHL PUSH0 MSTORE PUSH1 0x41 PUSH1 0x4 MSTORE PUSH1 0x24 PUSH0 REVERT JUMPDEST PUSH2 0x626 JUMP JUMPDEST PUSH4 0xB06EBF3D PUSH1 0xE0 SHL PUSH0 MSTORE PUSH1 0x4 PUSH0 REVERT JUMPDEST PUSH1 0x40 MLOAD PUSH3 0x461BCD PUSH1 0xE5 SHL DUP2 MSTORE PUSH1 0x20 PUSH1 0x4 DUP3 ADD MSTORE PUSH1 0xC PUSH1 0x24 DUP3 ADD MSTORE PUSH12 0x42616420696D616765555249 PUSH1 0xA0 SHL PUSH1 0x44 DUP3 ADD MSTORE PUSH1 0x64 SWAP1 REVERT JUMPDEST PUSH1 0x40 MLOAD PUSH3 0x461BCD PUSH1 0xE5 SHL DUP2 MSTORE PUSH1 0x20 PUSH1 0x4 DUP3 ADD MSTORE PUSH1 0xA PUSH1 0x24 DUP3 ADD MSTORE PUSH10 0x109859081CDE5B589BDB PUSH1 0xB2 SHL PUSH1 0x44 DUP3 ADD MSTORE PUSH1 0x64 SWAP1 REVERT JUMPDEST POP PUSH1 0x10 DUP9 GT ISZERO PUSH2 0x54F JUMP JUMPDEST PUSH1 0x40 MLOAD PUSH3 0x461BCD PUSH1 0xE5 SHL DUP2 MSTORE PUSH1 0x20 PUSH1 0x4 DUP3 ADD MSTORE PUSH1 0x8 PUSH1 0x24 DUP3 ADD MSTORE PUSH8 0x426164206E616D65 PUSH1 0xC0 SHL PUSH1 0x44 DUP3 ADD MSTORE PUSH1 0x64 SWAP1 REVERT JUMPDEST POP PUSH1 0x40 DUP10 GT ISZERO PUSH2 0x541 JUMP JUMPDEST PUSH1 0x40 MLOAD PUSH3 0x461BCD PUSH1 0xE5 SHL DUP2 MSTORE PUSH1 0x20 PUSH1 0x4 DUP3 ADD MSTORE PUSH1 0x19 PUSH1 0x24 DUP3 ADD MSTORE PUSH32 0x496E73756666696369656E74206372656174696F6E2066656500000000000000 PUSH1 0x44 DUP3 ADD MSTORE PUSH1 0x64 SWAP1 REVERT JUMPDEST PUSH1 0x40 MLOAD PUSH3 0x461BCD PUSH1 0xE5 SHL DUP2 MSTORE PUSH1 0x20 PUSH1 0x4 DUP3 ADD MSTORE PUSH1 0x10 PUSH1 0x24 DUP3 ADD MSTORE PUSH16 0x24B73B30B634B210323AB930BA34B7B7 PUSH1 0x81 SHL PUSH1 0x44 DUP3 ADD MSTORE PUSH1 0x64 SWAP1 REVERT JUMPDEST POP PUSH3 0x15180 DUP6 EQ PUSH2 0x529 JUMP JUMPDEST POP PUSH2 0xA8C0 DUP6 EQ PUSH2 0x522 JUMP JUMPDEST PUSH0 SLOAD PUSH1 0x1 PUSH1 0x1 PUSH1 0xA0 SHL SUB AND CALLER EQ PUSH2 0x516 JUMPI PUSH1 0x40 MLOAD PUSH3 0x461BCD PUSH1 0xE5 SHL DUP2 MSTORE PUSH1 0x20 PUSH1 0x4 DUP3 ADD MSTORE PUSH1 0x13 PUSH1 0x24 DUP3 ADD MSTORE PUSH19 0x4372656174696F6E206E6F74207075626C6963 PUSH1 0x68 SHL PUSH1 0x44 DUP3 ADD MSTORE PUSH1 0x64 SWAP1 REVERT JUMPDEST PUSH4 0x3EE5AEB5 PUSH1 0xE0 SHL PUSH0 MSTORE PUSH1 0x4 PUSH0 REVERT JUMPDEST CALLVALUE PUSH2 0x874 JUMPI PUSH1 0x20 CALLDATASIZE PUSH1 0x3 NOT ADD SLT PUSH2 0x874 JUMPI PUSH32 0x88A973FD5506071E0CF878B30898776C47D5250A7EE1E6EE0B36DF3B03C7C16A PUSH1 0x20 PUSH1 0x4 CALLDATALOAD PUSH2 0xACB PUSH1 0x1 DUP1 PUSH1 0xA0 SHL SUB PUSH0 SLOAD AND CALLER EQ PUSH2 0x110C JUMP JUMPDEST DUP1 PUSH1 0x6 SSTORE PUSH1 0x40 MLOAD SWAP1 DUP2 MSTORE LOG1 STOP JUMPDEST CALLVALUE PUSH2 0x874 JUMPI PUSH1 0x20 CALLDATASIZE PUSH1 0x3 NOT ADD SLT PUSH2 0x874 JUMPI PUSH2 0xAF1 PUSH2 0x1023 JUMP JUMPDEST PUSH2 0xB05 PUSH1 0x1 DUP1 PUSH1 0xA0 SHL SUB PUSH0 SLOAD AND CALLER EQ PUSH2 0x110C JUMP JUMPDEST PUSH1 0x1 PUSH1 0x1 PUSH1 0xA0 SHL SUB AND DUP1 ISZERO PUSH2 0xB4C JUMPI PUSH1 0x4 DUP1 SLOAD PUSH1 0x1 PUSH1 0x1 PUSH1 0xA0 SHL SUB NOT AND DUP3 OR SWAP1 SSTORE PUSH32 0x87B050F471F7331BFD8FC9347CD54894F2AE6663E3339E49CA0D8B2DBE792EB2 PUSH0 DUP1 LOG2 STOP JUMPDEST PUSH1 0x40 MLOAD PUSH3 0x461BCD PUSH1 0xE5 SHL DUP2 MSTORE PUSH1 0x20 PUSH1 0x4 DUP3 ADD MSTORE PUSH1 0x10 PUSH1 0x24 DUP3 ADD MSTORE PUSH16 0x24B73B30B634B210383937BB34B232B9 PUSH1 0x81 SHL PUSH1 0x44 DUP3 ADD MSTORE PUSH1 0x64 SWAP1 REVERT JUMPDEST CALLVALUE PUSH2 0x874 JUMPI PUSH0 CALLDATASIZE PUSH1 0x3 NOT ADD SLT PUSH2 0x874 JUMPI PUSH1 0x20 PUSH1 0x8 SLOAD PUSH1 0x40 MLOAD SWAP1 DUP2 MSTORE RETURN JUMPDEST CALLVALUE PUSH2 0x874 JUMPI PUSH0 CALLDATASIZE PUSH1 0x3 NOT ADD SLT PUSH2 0x874 JUMPI PUSH0 SLOAD PUSH1 0x40 MLOAD PUSH1 0x1 PUSH1 0x1 PUSH1 0xA0 SHL SUB SWAP1 SWAP2 AND DUP2 MSTORE PUSH1 0x20 SWAP1 RETURN JUMPDEST CALLVALUE PUSH2 0x874 JUMPI PUSH0 CALLDATASIZE PUSH1 0x3 NOT ADD SLT PUSH2 0x874 JUMPI PUSH1 0x1 SLOAD PUSH1 0x1 PUSH1 0x1 PUSH1 0xA0 SHL SUB DUP2 AND SWAP1 CALLER DUP3 SWAP1 SUB PUSH2 0xC39 JUMPI PUSH0 DUP1 SLOAD PUSH1 0x1 PUSH1 0x1 PUSH1 0xA0 SHL SUB NOT DUP1 DUP3 AND DUP6 OR DUP4 SSTORE SWAP1 SWAP3 AND PUSH1 0x1 SSTORE PUSH1 0x1 PUSH1 0x1 PUSH1 0xA0 SHL SUB SWAP1 SWAP2 AND SWAP1 PUSH32 0x8BE0079C531659141344CD1FD0A4F28419497F9722A3DAAFE3B4186F6B6457E0 SWAP1 DUP1 LOG3 STOP JUMPDEST PUSH1 0x40 MLOAD PUSH3 0x461BCD PUSH1 0xE5 SHL DUP2 MSTORE PUSH1 0x20 PUSH1 0x4 DUP3 ADD MSTORE PUSH1 0x11 PUSH1 0x24 DUP3 ADD MSTORE PUSH17 0x2737BA103832B73234B7339037BBB732B9 PUSH1 0x79 SHL PUSH1 0x44 DUP3 ADD MSTORE PUSH1 0x64 SWAP1 REVERT JUMPDEST CALLVALUE PUSH2 0x874 JUMPI PUSH0 CALLDATASIZE PUSH1 0x3 NOT ADD SLT PUSH2 0x874 JUMPI PUSH0 DUP1 SLOAD PUSH1 0x1 PUSH1 0x1 PUSH1 0xA0 SHL SUB DUP2 AND SWAP1 PUSH2 0xC9B CALLER DUP4 EQ PUSH2 0x110C JUMP JUMPDEST PUSH12 0xFFFFFFFFFFFFFFFFFFFFFFFF PUSH1 0xA0 SHL AND DUP3 SSTORE PUSH12 0xFFFFFFFFFFFFFFFFFFFFFFFF PUSH1 0xA0 SHL PUSH1 0x1 SLOAD AND PUSH1 0x1 SSTORE PUSH32 0x8BE0079C531659141344CD1FD0A4F28419497F9722A3DAAFE3B4186F6B6457E0 DUP3 DUP1 LOG3 STOP JUMPDEST CALLVALUE PUSH2 0x874 JUMPI PUSH1 0x20 CALLDATASIZE PUSH1 0x3 NOT ADD SLT PUSH2 0x874 JUMPI PUSH2 0xD04 PUSH2 0x1023 JUMP JUMPDEST PUSH2 0xD18 PUSH1 0x1 DUP1 PUSH1 0xA0 SHL SUB PUSH0 SLOAD AND CALLER EQ PUSH2 0x110C JUMP JUMPDEST PUSH1 0x5 DUP1 SLOAD PUSH1 0x1 PUSH1 0x1 PUSH1 0xA0 SHL SUB NOT AND PUSH1 0x1 PUSH1 0x1 PUSH1 0xA0 SHL SUB SWAP3 SWAP1 SWAP3 AND SWAP2 DUP3 OR SWAP1 SSTORE PUSH32 0x2137E299A96C90407CC604A0ED9FA59ED10356C86A526549295A123FB59F0ED2 PUSH0 DUP1 LOG2 STOP JUMPDEST CALLVALUE PUSH2 0x874 JUMPI PUSH1 0x20 CALLDATASIZE PUSH1 0x3 NOT ADD SLT PUSH2 0x874 JUMPI PUSH1 0x4 CALLDATALOAD PUSH1 0x8 SLOAD DUP2 LT ISZERO PUSH2 0x874 JUMPI PUSH2 0x332 PUSH1 0x20 SWAP2 PUSH2 0x107B JUMP JUMPDEST CALLVALUE PUSH2 0x874 JUMPI PUSH1 0x40 CALLDATASIZE PUSH1 0x3 NOT ADD SLT PUSH2 0x874 JUMPI PUSH2 0x3B3 PUSH2 0x3A7 PUSH1 0x24 CALLDATALOAD PUSH1 0x4 CALLDATALOAD PUSH2 0x118A JUMP JUMPDEST CALLVALUE PUSH2 0x874 JUMPI PUSH0 CALLDATASIZE PUSH1 0x3 NOT ADD SLT PUSH2 0x874 JUMPI PUSH1 0x2 SLOAD PUSH1 0x40 MLOAD PUSH1 0x1 PUSH1 0x1 PUSH1 0xA0 SHL SUB SWAP1 SWAP2 AND DUP2 MSTORE PUSH1 0x20 SWAP1 RETURN JUMPDEST CALLVALUE PUSH2 0x874 JUMPI PUSH0 CALLDATASIZE PUSH1 0x3 NOT ADD SLT PUSH2 0x874 JUMPI PUSH1 0x20 PUSH1 0xFF PUSH1 0x7 SLOAD AND PUSH1 0x40 MLOAD SWAP1 ISZERO ISZERO DUP2 MSTORE RETURN JUMPDEST CALLVALUE PUSH2 0x874 JUMPI PUSH0 CALLDATASIZE PUSH1 0x3 NOT ADD SLT PUSH2 0x874 JUMPI PUSH1 0x20 PUSH1 0x40 MLOAD PUSH3 0x15180 DUP2 MSTORE RETURN JUMPDEST CALLVALUE PUSH2 0x874 JUMPI PUSH0 CALLDATASIZE PUSH1 0x3 NOT ADD SLT PUSH2 0x874 JUMPI PUSH1 0x20 PUSH1 0x40 MLOAD PUSH2 0x5460 DUP2 MSTORE RETURN JUMPDEST CALLVALUE PUSH2 0x874 JUMPI PUSH1 0x20 CALLDATASIZE PUSH1 0x3 NOT ADD SLT PUSH2 0x874 JUMPI PUSH1 0x4 CALLDATALOAD PUSH2 0xE53 PUSH1 0x1 DUP1 PUSH1 0xA0 SHL SUB PUSH0 SLOAD AND CALLER EQ PUSH2 0x110C JUMP JUMPDEST DUP1 ISZERO PUSH2 0xE8A JUMPI PUSH1 0x20 DUP2 PUSH32 0xB1332E47ADB7D8B6440F3E1DA6D70300CE7B75B2F81645696BA96310A1182EB1 SWAP3 PUSH1 0x3 SSTORE PUSH1 0x40 MLOAD SWAP1 DUP2 MSTORE LOG1 STOP JUMPDEST PUSH1 0x40 MLOAD PUSH3 0x461BCD PUSH1 0xE5 SHL DUP2 MSTORE PUSH1 0x20 PUSH1 0x4 DUP3 ADD MSTORE PUSH1 0x9 PUSH1 0x24 DUP3 ADD MSTORE PUSH9 0x496E76616C6964206B PUSH1 0xB8 SHL PUSH1 0x44 DUP3 ADD MSTORE PUSH1 0x64 SWAP1 REVERT JUMPDEST CALLVALUE PUSH2 0x874 JUMPI PUSH0 CALLDATASIZE PUSH1 0x3 NOT ADD SLT PUSH2 0x874 JUMPI PUSH1 0x4 SLOAD PUSH1 0x40 MLOAD PUSH1 0x1 PUSH1 0x1 PUSH1 0xA0 SHL SUB SWAP1 SWAP2 AND DUP2 MSTORE PUSH1 0x20 SWAP1 RETURN JUMPDEST CALLVALUE PUSH2 0x874 JUMPI PUSH0 CALLDATASIZE PUSH1 0x3 NOT ADD SLT PUSH2 0x874 JUMPI PUSH1 0x40 MLOAD PUSH32 0x0 PUSH1 0x1 PUSH1 0x1 PUSH1 0xA0 SHL SUB AND DUP2 MSTORE PUSH1 0x20 SWAP1 RETURN JUMPDEST CALLVALUE PUSH2 0x874 JUMPI PUSH0 CALLDATASIZE PUSH1 0x3 NOT ADD SLT PUSH2 0x874 JUMPI PUSH1 0x40 MLOAD DUP1 PUSH1 0x20 PUSH1 0x8 SLOAD SWAP2 DUP3 DUP2 MSTORE ADD SWAP1 PUSH1 0x8 PUSH0 MSTORE PUSH32 0xF3F7A9FE364FAAB93B216DA50A3214154F22A0A2B415B23A84C8169E8B636EE3 SWAP1 PUSH0 JUMPDEST DUP2 DUP2 LT PUSH2 0xF85 JUMPI PUSH2 0x3B3 DUP6 PUSH2 0x3A7 DUP2 DUP8 SUB DUP3 PUSH2 0x10EA JUMP JUMPDEST DUP3 SLOAD PUSH1 0x1 PUSH1 0x1 PUSH1 0xA0 SHL SUB AND DUP5 MSTORE PUSH1 0x20 SWAP1 SWAP4 ADD SWAP3 PUSH1 0x1 SWAP3 DUP4 ADD SWAP3 ADD PUSH2 0xF6E JUMP JUMPDEST CALLVALUE PUSH2 0x874 JUMPI PUSH1 0x20 CALLDATASIZE PUSH1 0x3 NOT ADD SLT PUSH2 0x874 JUMPI PUSH1 0x1 PUSH1 0x1 PUSH1 0xA0 SHL SUB PUSH2 0xFC5 PUSH2 0x1023 JUMP JUMPDEST AND PUSH0 MSTORE PUSH1 0x9 PUSH1 0x20 MSTORE PUSH1 0x20 PUSH1 0xFF PUSH1 0x40 PUSH0 KECCAK256 SLOAD AND PUSH1 0x40 MLOAD SWAP1 ISZERO ISZERO DUP2 MSTORE RETURN JUMPDEST CALLVALUE PUSH2 0x874 JUMPI PUSH0 CALLDATASIZE PUSH1 0x3 NOT ADD SLT PUSH2 0x874 JUMPI PUSH1 0x5 SLOAD PUSH1 0x40 MLOAD PUSH1 0x1 PUSH1 0x1 PUSH1 0xA0 SHL SUB SWAP1 SWAP2 AND DUP2 MSTORE PUSH1 0x20 SWAP1 RETURN JUMPDEST CALLVALUE PUSH2 0x874 JUMPI PUSH0 CALLDATASIZE PUSH1 0x3 NOT ADD SLT PUSH2 0x874 JUMPI DUP1 PUSH2 0xA8C0 PUSH1 0x20 SWAP3 MSTORE RETURN JUMPDEST PUSH1 0x4 CALLDATALOAD SWAP1 PUSH1 0x1 PUSH1 0x1 PUSH1 0xA0 SHL SUB DUP3 AND DUP3 SUB PUSH2 0x874 JUMPI JUMP JUMPDEST PUSH1 0x20 PUSH1 0x40 DUP2 DUP4 ADD SWAP3 DUP3 DUP2 MSTORE DUP5 MLOAD DUP1 SWAP5 MSTORE ADD SWAP3 ADD SWAP1 PUSH0 JUMPDEST DUP2 DUP2 LT PUSH2 0x105C JUMPI POP POP POP SWAP1 JUMP JUMPDEST DUP3 MLOAD PUSH1 0x1 PUSH1 0x1 PUSH1 0xA0 SHL SUB AND DUP5 MSTORE PUSH1 0x20 SWAP4 DUP5 ADD SWAP4 SWAP1 SWAP3 ADD SWAP2 PUSH1 0x1 ADD PUSH2 0x104F JUMP JUMPDEST PUSH1 0x8 SLOAD DUP2 LT ISZERO PUSH2 0x1093 JUMPI PUSH1 0x8 PUSH0 MSTORE PUSH1 0x20 PUSH0 KECCAK256 ADD SWAP1 PUSH0 SWAP1 JUMP JUMPDEST PUSH4 0x4E487B71 PUSH1 0xE0 SHL PUSH0 MSTORE PUSH1 0x32 PUSH1 0x4 MSTORE PUSH1 0x24 PUSH0 REVERT JUMPDEST DUP1 SLOAD DUP3 LT ISZERO PUSH2 0x1093 JUMPI PUSH0 MSTORE PUSH1 0x20 PUSH0 KECCAK256 ADD SWAP1 PUSH0 SWAP1 JUMP JUMPDEST SWAP2 DUP2 PUSH1 0x1F DUP5 ADD SLT ISZERO PUSH2 0x874 JUMPI DUP3 CALLDATALOAD SWAP2 PUSH8 0xFFFFFFFFFFFFFFFF DUP4 GT PUSH2 0x874 JUMPI PUSH1 0x20 DUP4 DUP2 DUP7 ADD SWAP6 ADD ADD GT PUSH2 0x874 JUMPI JUMP JUMPDEST SWAP1 PUSH1 0x1F DUP1 NOT SWAP2 ADD AND DUP2 ADD SWAP1 DUP2 LT PUSH8 0xFFFFFFFFFFFFFFFF DUP3 GT OR PUSH2 0x8BD JUMPI PUSH1 0x40 MSTORE JUMP JUMPDEST ISZERO PUSH2 0x1113 JUMPI JUMP JUMPDEST PUSH1 0x40 MLOAD PUSH3 0x461BCD PUSH1 0xE5 SHL DUP2 MSTORE PUSH1 0x20 PUSH1 0x4 DUP3 ADD MSTORE PUSH1 0x9 PUSH1 0x24 DUP3 ADD MSTORE PUSH9 0x2737BA1037BBB732B9 PUSH1 0xB9 SHL PUSH1 0x44 DUP3 ADD MSTORE PUSH1 0x64 SWAP1 REVERT JUMPDEST PUSH8 0xFFFFFFFFFFFFFFFF DUP2 GT PUSH2 0x8BD JUMPI PUSH1 0x5 SHL PUSH1 0x20 ADD SWAP1 JUMP JUMPDEST SWAP2 SWAP1 DUP3 ADD DUP1 SWAP3 GT PUSH2 0x1169 JUMPI JUMP JUMPDEST PUSH4 0x4E487B71 PUSH1 0xE0 SHL PUSH0 MSTORE PUSH1 0x11 PUSH1 0x4 MSTORE PUSH1 0x24 PUSH0 REVERT JUMPDEST SWAP2 SWAP1 DUP3 SUB SWAP2 DUP3 GT PUSH2 0x1169 JUMPI JUMP JUMPDEST SWAP2 SWAP1 PUSH1 0x8 SLOAD SWAP1 DUP2 DUP5 LT ISZERO PUSH2 0x1240 JUMPI PUSH2 0x11B6 SWAP2 PUSH2 0x11A7 DUP6 SWAP3 DUP4 PUSH2 0x115C JUMP JUMPDEST SWAP1 DUP1 DUP3 GT PUSH2 0x1238 JUMPI JUMPDEST POP PUSH2 0x117D JUMP JUMPDEST SWAP2 PUSH2 0x11C0 DUP4 PUSH2 0x1144 JUMP JUMPDEST SWAP3 PUSH2 0x11CE PUSH1 0x40 MLOAD SWAP5 DUP6 PUSH2 0x10EA JUMP JUMPDEST DUP1 DUP5 MSTORE PUSH2 0x11DD PUSH1 0x1F NOT SWAP2 PUSH2 0x1144 JUMP JUMPDEST ADD CALLDATASIZE PUSH1 0x20 DUP6 ADD CALLDATACOPY DUP3 PUSH0 JUMPDEST DUP5 MLOAD DUP2 LT ISZERO PUSH2 0x1232 JUMPI PUSH2 0x1202 PUSH2 0x11FD DUP3 DUP6 PUSH2 0x115C JUMP JUMPDEST PUSH2 0x107B JUMP JUMPDEST SWAP1 SLOAD DUP7 MLOAD PUSH1 0x3 SWAP3 SWAP1 SWAP3 SHL SHR PUSH1 0x1 PUSH1 0x1 PUSH1 0xA0 SHL SUB AND SWAP2 SWAP1 DUP2 LT ISZERO PUSH2 0x1093 JUMPI PUSH1 0x1 SWAP2 PUSH1 0x20 DUP3 PUSH1 0x5 SHL DUP9 ADD ADD MSTORE ADD PUSH2 0x11E7 JUMP JUMPDEST POP SWAP3 POP POP JUMP JUMPDEST SWAP1 POP PUSH0 PUSH2 0x11B0 JUMP JUMPDEST POP POP SWAP1 POP PUSH1 0x40 MLOAD PUSH2 0x1252 PUSH1 0x20 DUP3 PUSH2 0x10EA JUMP JUMPDEST PUSH0 DUP2 MSTORE PUSH0 CALLDATASIZE DUP2 CALLDATACOPY SWAP1 JUMP JUMPDEST SWAP1 DUP1 PUSH1 0x20 SWAP4 SWAP3 DUP2 DUP5 MSTORE DUP5 DUP5 ADD CALLDATACOPY PUSH0 DUP3 DUP3 ADD DUP5 ADD MSTORE PUSH1 0x1F ADD PUSH1 0x1F NOT AND ADD ADD SWAP1 JUMP INVALID LOG2 PUSH5 0x6970667358 0x22 SLT KECCAK256 DUP7 PUSH0 BALANCE 0xDD 0xD1 REVERT STATICCALL CALLER 0xCB LOG1 DUP10 0x2A 0xE2 0xE1 0xA5 PUSH3 0x78F667 0xFC 0x25 0xD6 0xB9 0xBC TIMESTAMP PUSH15 0x7BCD920268AB64736F6C634300081C STOP CALLER "
        },
        "methodIdentifiers": {
          "DURATION_12H()": "0932df81",
          "DURATION_24H()": "5d8cc808",
          "DURATION_6H()": "57ee9334",
          "acceptOwnership()": "79ba5097",
          "allTokens(uint256)": "634282af",
          "createToken(string,string,string,uint256,uint256)": "bdaf068c",
          "creationFee()": "dce0b4e4",
          "defaultK()": "e69cb77c",
          "defaultRandomnessProvider()": "328be8d3",
          "defaultTrophyNFT()": "0d92bb44",
          "getAllTokens()": "2a5c792a",
          "getTokensByCreator(address)": "d5c71275",
          "isToken(address)": "19f37361",
          "owner()": "8da5cb5b",
          "pendingOwner()": "e30c3978",
          "publicCreation()": "5ff67b1b",
          "renounceOwnership()": "715018a6",
          "setCreationFee(uint256)": "b7d86225",
          "setDefaultK(uint256)": "4e98b3ee",
          "setPublicCreation(bool)": "c451bc95",
          "setRandomnessProvider(address)": "b15fbc14",
          "setTreasury(address)": "f0f44260",
          "setTrophyNFT(address)": "6973c9eb",
          "tokenCount()": "9f181b5e",
          "tokenImplementation()": "2f3a3d5d",
          "tokensByCreator(address,uint256)": "d80d03a2",
          "tokensSlice(uint256,uint256)": "61e298d8",
          "transferOwnership(address)": "f2fde38b",
          "treasury()": "61d027b3"
        }
      }
    }
  }
}