{
  "contracts/v2/ClacTokenImpl.sol": {
    "ClacTokenImpl": {
      "abi": [
        {
          "inputs": [],
          "stateMutability": "nonpayable",
          "type": "constructor"
        },
        {
          "inputs": [],
          "name": "ReentrancyGuardReentrantCall",
          "type": "error"
        },
        {
          "anonymous": false,
          "inputs": [
            {
              "indexed": true,
              "internalType": "address",
              "name": "holder",
              "type": "address"
            },
            {
              "indexed": false,
              "internalType": "uint256",
              "name": "proRataAmount",
              "type": "uint256"
            },
            {
              "indexed": false,
              "internalType": "uint256",
              "name": "lotteryAmount",
              "type": "uint256"
            }
          ],
          "name": "Claimed",
          "type": "event"
        },
        {
          "anonymous": false,
          "inputs": [
            {
              "indexed": false,
              "internalType": "uint256",
              "name": "proRataPool",
              "type": "uint256"
            },
            {
              "indexed": false,
              "internalType": "uint256",
              "name": "lotteryPool",
              "type": "uint256"
            },
            {
              "indexed": false,
              "internalType": "address[3]",
              "name": "winners",
              "type": "address[3]"
            }
          ],
          "name": "DeathFinalized",
          "type": "event"
        },
        {
          "anonymous": false,
          "inputs": [
            {
              "indexed": true,
              "internalType": "address",
              "name": "requestedBy",
              "type": "address"
            },
            {
              "indexed": false,
              "internalType": "uint64",
              "name": "sequenceNumber",
              "type": "uint64"
            },
            {
              "indexed": false,
              "internalType": "uint256",
              "name": "lotteryFeePaid",
              "type": "uint256"
            }
          ],
          "name": "DeathRequested",
          "type": "event"
        },
        {
          "anonymous": false,
          "inputs": [
            {
              "indexed": true,
              "internalType": "address",
              "name": "who",
              "type": "address"
            },
            {
              "indexed": false,
              "internalType": "uint256",
              "name": "amount",
              "type": "uint256"
            }
          ],
          "name": "FeeWithdrawn",
          "type": "event"
        },
        {
          "anonymous": false,
          "inputs": [
            {
              "indexed": true,
              "internalType": "address",
              "name": "factory",
              "type": "address"
            },
            {
              "indexed": true,
              "internalType": "address",
              "name": "creator",
              "type": "address"
            },
            {
              "indexed": false,
              "internalType": "uint256",
              "name": "deathTime",
              "type": "uint256"
            }
          ],
          "name": "Initialized",
          "type": "event"
        },
        {
          "anonymous": false,
          "inputs": [
            {
              "indexed": true,
              "internalType": "address",
              "name": "holder",
              "type": "address"
            },
            {
              "indexed": false,
              "internalType": "uint256",
              "name": "newWeight",
              "type": "uint256"
            },
            {
              "indexed": false,
              "internalType": "uint256",
              "name": "newTotalWeight",
              "type": "uint256"
            }
          ],
          "name": "LotteryWeightChanged",
          "type": "event"
        },
        {
          "anonymous": false,
          "inputs": [
            {
              "indexed": true,
              "internalType": "address",
              "name": "trader",
              "type": "address"
            },
            {
              "indexed": true,
              "internalType": "bool",
              "name": "isBuy",
              "type": "bool"
            },
            {
              "indexed": false,
              "internalType": "uint256",
              "name": "tokenAmount",
              "type": "uint256"
            },
            {
              "indexed": false,
              "internalType": "uint256",
              "name": "monAmount",
              "type": "uint256"
            },
            {
              "indexed": false,
              "internalType": "uint256",
              "name": "protocolFee",
              "type": "uint256"
            },
            {
              "indexed": false,
              "internalType": "uint256",
              "name": "creatorFee",
              "type": "uint256"
            },
            {
              "indexed": false,
              "internalType": "uint256",
              "name": "newSupply",
              "type": "uint256"
            },
            {
              "indexed": false,
              "internalType": "uint256",
              "name": "newPrice",
              "type": "uint256"
            }
          ],
          "name": "Trade",
          "type": "event"
        },
        {
          "anonymous": false,
          "inputs": [
            {
              "indexed": true,
              "internalType": "address",
              "name": "holder",
              "type": "address"
            },
            {
              "indexed": false,
              "internalType": "uint256",
              "name": "nftId",
              "type": "uint256"
            }
          ],
          "name": "TrophyMinted",
          "type": "event"
        },
        {
          "anonymous": false,
          "inputs": [
            {
              "indexed": true,
              "internalType": "address",
              "name": "treasury",
              "type": "address"
            },
            {
              "indexed": false,
              "internalType": "uint256",
              "name": "amount",
              "type": "uint256"
            }
          ],
          "name": "UnclaimedSwept",
          "type": "event"
        },
        {
          "inputs": [],
          "name": "BPS",
          "outputs": [
            {
              "internalType": "uint256",
              "name": "",
              "type": "uint256"
            }
          ],
          "stateMutability": "view",
          "type": "function"
        },
        {
          "inputs": [],
          "name": "BUY_COOLDOWN_BLOCKS",
          "outputs": [
            {
              "internalType": "uint256",
              "name": "",
              "type": "uint256"
            }
          ],
          "stateMutability": "view",
          "type": "function"
        },
        {
          "inputs": [],
          "name": "CLAIM_DEADLINE",
          "outputs": [
            {
              "internalType": "uint256",
              "name": "",
              "type": "uint256"
            }
          ],
          "stateMutability": "view",
          "type": "function"
        },
        {
          "inputs": [],
          "name": "CREATOR_FEE_BPS",
          "outputs": [
            {
              "internalType": "uint256",
              "name": "",
              "type": "uint256"
            }
          ],
          "stateMutability": "view",
          "type": "function"
        },
        {
          "inputs": [],
          "name": "DEATH_TAX_BPS",
          "outputs": [
            {
              "internalType": "uint256",
              "name": "",
              "type": "uint256"
            }
          ],
          "stateMutability": "view",
          "type": "function"
        },
        {
          "inputs": [],
          "name": "DEATH_TRIGGER_BONUS",
          "outputs": [
            {
              "internalType": "uint256",
              "name": "",
              "type": "uint256"
            }
          ],
          "stateMutability": "view",
          "type": "function"
        },
        {
          "inputs": [],
          "name": "DURATION_12H",
          "outputs": [
            {
              "internalType": "uint256",
              "name": "",
              "type": "uint256"
            }
          ],
          "stateMutability": "view",
          "type": "function"
        },
        {
          "inputs": [],
          "name": "DURATION_24H",
          "outputs": [
            {
              "internalType": "uint256",
              "name": "",
              "type": "uint256"
            }
          ],
          "stateMutability": "view",
          "type": "function"
        },
        {
          "inputs": [],
          "name": "DURATION_6H",
          "outputs": [
            {
              "internalType": "uint256",
              "name": "",
              "type": "uint256"
            }
          ],
          "stateMutability": "view",
          "type": "function"
        },
        {
          "inputs": [],
          "name": "LAST_HOUR_DURATION",
          "outputs": [
            {
              "internalType": "uint256",
              "name": "",
              "type": "uint256"
            }
          ],
          "stateMutability": "view",
          "type": "function"
        },
        {
          "inputs": [],
          "name": "LOTTERY_BPS",
          "outputs": [
            {
              "internalType": "uint256",
              "name": "",
              "type": "uint256"
            }
          ],
          "stateMutability": "view",
          "type": "function"
        },
        {
          "inputs": [],
          "name": "LOTTERY_WINNERS_COUNT",
          "outputs": [
            {
              "internalType": "uint256",
              "name": "",
              "type": "uint256"
            }
          ],
          "stateMutability": "view",
          "type": "function"
        },
        {
          "inputs": [],
          "name": "MAX_BUY_BPS_EARLY",
          "outputs": [
            {
              "internalType": "uint256",
              "name": "",
              "type": "uint256"
            }
          ],
          "stateMutability": "view",
          "type": "function"
        },
        {
          "inputs": [],
          "name": "MAX_HOLDERS",
          "outputs": [
            {
              "internalType": "uint256",
              "name": "",
              "type": "uint256"
            }
          ],
          "stateMutability": "view",
          "type": "function"
        },
        {
          "inputs": [],
          "name": "MAX_HOLDING_BPS",
          "outputs": [
            {
              "internalType": "uint256",
              "name": "",
              "type": "uint256"
            }
          ],
          "stateMutability": "view",
          "type": "function"
        },
        {
          "inputs": [],
          "name": "MAX_INITIAL_BUY_BPS",
          "outputs": [
            {
              "internalType": "uint256",
              "name": "",
              "type": "uint256"
            }
          ],
          "stateMutability": "view",
          "type": "function"
        },
        {
          "inputs": [],
          "name": "MAX_SUPPLY",
          "outputs": [
            {
              "internalType": "uint256",
              "name": "",
              "type": "uint256"
            }
          ],
          "stateMutability": "view",
          "type": "function"
        },
        {
          "inputs": [],
          "name": "MIN_BUY",
          "outputs": [
            {
              "internalType": "uint256",
              "name": "",
              "type": "uint256"
            }
          ],
          "stateMutability": "view",
          "type": "function"
        },
        {
          "inputs": [],
          "name": "MIN_LOTTERY_WEIGHT_BPS",
          "outputs": [
            {
              "internalType": "uint256",
              "name": "",
              "type": "uint256"
            }
          ],
          "stateMutability": "view",
          "type": "function"
        },
        {
          "inputs": [],
          "name": "PROTOCOL_FEE_BPS",
          "outputs": [
            {
              "internalType": "uint256",
              "name": "",
              "type": "uint256"
            }
          ],
          "stateMutability": "view",
          "type": "function"
        },
        {
          "inputs": [],
          "name": "PRO_RATA_BPS",
          "outputs": [
            {
              "internalType": "uint256",
              "name": "",
              "type": "uint256"
            }
          ],
          "stateMutability": "view",
          "type": "function"
        },
        {
          "inputs": [],
          "name": "SNIPER_DURATION",
          "outputs": [
            {
              "internalType": "uint256",
              "name": "",
              "type": "uint256"
            }
          ],
          "stateMutability": "view",
          "type": "function"
        },
        {
          "inputs": [
            {
              "internalType": "address",
              "name": "",
              "type": "address"
            }
          ],
          "name": "balances",
          "outputs": [
            {
              "internalType": "uint256",
              "name": "",
              "type": "uint256"
            }
          ],
          "stateMutability": "view",
          "type": "function"
        },
        {
          "inputs": [
            {
              "internalType": "uint256",
              "name": "minTokens",
              "type": "uint256"
            }
          ],
          "name": "buy",
          "outputs": [],
          "stateMutability": "payable",
          "type": "function"
        },
        {
          "inputs": [],
          "name": "claim",
          "outputs": [],
          "stateMutability": "nonpayable",
          "type": "function"
        },
        {
          "inputs": [
            {
              "internalType": "address",
              "name": "",
              "type": "address"
            }
          ],
          "name": "claimed",
          "outputs": [
            {
              "internalType": "bool",
              "name": "",
              "type": "bool"
            }
          ],
          "stateMutability": "view",
          "type": "function"
        },
        {
          "inputs": [],
          "name": "createdAt",
          "outputs": [
            {
              "internalType": "uint256",
              "name": "",
              "type": "uint256"
            }
          ],
          "stateMutability": "view",
          "type": "function"
        },
        {
          "inputs": [],
          "name": "creationBlock",
          "outputs": [
            {
              "internalType": "uint256",
              "name": "",
              "type": "uint256"
            }
          ],
          "stateMutability": "view",
          "type": "function"
        },
        {
          "inputs": [],
          "name": "creator",
          "outputs": [
            {
              "internalType": "address",
              "name": "",
              "type": "address"
            }
          ],
          "stateMutability": "view",
          "type": "function"
        },
        {
          "inputs": [],
          "name": "deathFinalized",
          "outputs": [
            {
              "internalType": "bool",
              "name": "",
              "type": "bool"
            }
          ],
          "stateMutability": "view",
          "type": "function"
        },
        {
          "inputs": [],
          "name": "deathProcessedAt",
          "outputs": [
            {
              "internalType": "uint256",
              "name": "",
              "type": "uint256"
            }
          ],
          "stateMutability": "view",
          "type": "function"
        },
        {
          "inputs": [],
          "name": "deathRequested",
          "outputs": [
            {
              "internalType": "bool",
              "name": "",
              "type": "bool"
            }
          ],
          "stateMutability": "view",
          "type": "function"
        },
        {
          "inputs": [],
          "name": "deathRequestedBy",
          "outputs": [
            {
              "internalType": "address",
              "name": "",
              "type": "address"
            }
          ],
          "stateMutability": "view",
          "type": "function"
        },
        {
          "inputs": [],
          "name": "deathSequenceNumber",
          "outputs": [
            {
              "internalType": "uint64",
              "name": "",
              "type": "uint64"
            }
          ],
          "stateMutability": "view",
          "type": "function"
        },
        {
          "inputs": [],
          "name": "deathTime",
          "outputs": [
            {
              "internalType": "uint256",
              "name": "",
              "type": "uint256"
            }
          ],
          "stateMutability": "view",
          "type": "function"
        },
        {
          "inputs": [],
          "name": "factory",
          "outputs": [
            {
              "internalType": "address",
              "name": "",
              "type": "address"
            }
          ],
          "stateMutability": "view",
          "type": "function"
        },
        {
          "inputs": [
            {
              "internalType": "uint64",
              "name": "sequenceNumber",
              "type": "uint64"
            },
            {
              "internalType": "bytes32",
              "name": "randomNumber",
              "type": "bytes32"
            }
          ],
          "name": "fulfillRandomness",
          "outputs": [],
          "stateMutability": "nonpayable",
          "type": "function"
        },
        {
          "inputs": [
            {
              "internalType": "uint256",
              "name": "tokenAmount",
              "type": "uint256"
            }
          ],
          "name": "getBuyCost",
          "outputs": [
            {
              "internalType": "uint256",
              "name": "",
              "type": "uint256"
            }
          ],
          "stateMutability": "view",
          "type": "function"
        },
        {
          "inputs": [
            {
              "internalType": "address",
              "name": "user",
              "type": "address"
            }
          ],
          "name": "getClaimable",
          "outputs": [
            {
              "internalType": "uint256",
              "name": "proRataAmount",
              "type": "uint256"
            },
            {
              "internalType": "uint256",
              "name": "lotteryAmount",
              "type": "uint256"
            }
          ],
          "stateMutability": "view",
          "type": "function"
        },
        {
          "inputs": [],
          "name": "getHolders",
          "outputs": [
            {
              "internalType": "address[]",
              "name": "",
              "type": "address[]"
            }
          ],
          "stateMutability": "view",
          "type": "function"
        },
        {
          "inputs": [],
          "name": "getLotteryWinners",
          "outputs": [
            {
              "internalType": "address[3]",
              "name": "",
              "type": "address[3]"
            }
          ],
          "stateMutability": "view",
          "type": "function"
        },
        {
          "inputs": [],
          "name": "getPrice",
          "outputs": [
            {
              "internalType": "uint256",
              "name": "",
              "type": "uint256"
            }
          ],
          "stateMutability": "view",
          "type": "function"
        },
        {
          "inputs": [],
          "name": "getRandomnessFee",
          "outputs": [
            {
              "internalType": "uint256",
              "name": "",
              "type": "uint256"
            }
          ],
          "stateMutability": "view",
          "type": "function"
        },
        {
          "inputs": [
            {
              "internalType": "uint256",
              "name": "tokenAmount",
              "type": "uint256"
            }
          ],
          "name": "getSellQuote",
          "outputs": [
            {
              "internalType": "uint256",
              "name": "",
              "type": "uint256"
            }
          ],
          "stateMutability": "view",
          "type": "function"
        },
        {
          "inputs": [],
          "name": "getTimeLeft",
          "outputs": [
            {
              "internalType": "uint256",
              "name": "",
              "type": "uint256"
            }
          ],
          "stateMutability": "view",
          "type": "function"
        },
        {
          "inputs": [],
          "name": "imageURI",
          "outputs": [
            {
              "internalType": "string",
              "name": "",
              "type": "string"
            }
          ],
          "stateMutability": "view",
          "type": "function"
        },
        {
          "inputs": [
            {
              "internalType": "address",
              "name": "_creator",
              "type": "address"
            },
            {
              "internalType": "string",
              "name": "_name",
              "type": "string"
            },
            {
              "internalType": "string",
              "name": "_symbol",
              "type": "string"
            },
            {
              "internalType": "string",
              "name": "_imageURI",
              "type": "string"
            },
            {
              "internalType": "uint256",
              "name": "_duration",
              "type": "uint256"
            },
            {
              "internalType": "uint256",
              "name": "_k",
              "type": "uint256"
            },
            {
              "internalType": "address",
              "name": "_treasury",
              "type": "address"
            },
            {
              "internalType": "address",
              "name": "_randomnessProvider",
              "type": "address"
            },
            {
              "internalType": "address",
              "name": "_trophyNFT",
              "type": "address"
            },
            {
              "internalType": "uint256",
              "name": "minInitialTokens",
              "type": "uint256"
            }
          ],
          "name": "initialize",
          "outputs": [],
          "stateMutability": "payable",
          "type": "function"
        },
        {
          "inputs": [],
          "name": "isAlive",
          "outputs": [
            {
              "internalType": "bool",
              "name": "",
              "type": "bool"
            }
          ],
          "stateMutability": "view",
          "type": "function"
        },
        {
          "inputs": [
            {
              "internalType": "address",
              "name": "",
              "type": "address"
            }
          ],
          "name": "isHolder",
          "outputs": [
            {
              "internalType": "bool",
              "name": "",
              "type": "bool"
            }
          ],
          "stateMutability": "view",
          "type": "function"
        },
        {
          "inputs": [],
          "name": "isInLastHour",
          "outputs": [
            {
              "internalType": "bool",
              "name": "",
              "type": "bool"
            }
          ],
          "stateMutability": "view",
          "type": "function"
        },
        {
          "inputs": [],
          "name": "k",
          "outputs": [
            {
              "internalType": "uint256",
              "name": "",
              "type": "uint256"
            }
          ],
          "stateMutability": "view",
          "type": "function"
        },
        {
          "inputs": [
            {
              "internalType": "address",
              "name": "",
              "type": "address"
            }
          ],
          "name": "lastBuyBlock",
          "outputs": [
            {
              "internalType": "uint256",
              "name": "",
              "type": "uint256"
            }
          ],
          "stateMutability": "view",
          "type": "function"
        },
        {
          "inputs": [],
          "name": "lotteryPool",
          "outputs": [
            {
              "internalType": "uint256",
              "name": "",
              "type": "uint256"
            }
          ],
          "stateMutability": "view",
          "type": "function"
        },
        {
          "inputs": [],
          "name": "lotteryRandomness",
          "outputs": [
            {
              "internalType": "bytes32",
              "name": "",
              "type": "bytes32"
            }
          ],
          "stateMutability": "view",
          "type": "function"
        },
        {
          "inputs": [],
          "name": "lotteryShare",
          "outputs": [
            {
              "internalType": "uint256",
              "name": "",
              "type": "uint256"
            }
          ],
          "stateMutability": "view",
          "type": "function"
        },
        {
          "inputs": [
            {
              "internalType": "address",
              "name": "",
              "type": "address"
            }
          ],
          "name": "lotteryWeight",
          "outputs": [
            {
              "internalType": "uint256",
              "name": "",
              "type": "uint256"
            }
          ],
          "stateMutability": "view",
          "type": "function"
        },
        {
          "inputs": [
            {
              "internalType": "uint256",
              "name": "",
              "type": "uint256"
            }
          ],
          "name": "lotteryWinners",
          "outputs": [
            {
              "internalType": "address",
              "name": "",
              "type": "address"
            }
          ],
          "stateMutability": "view",
          "type": "function"
        },
        {
          "inputs": [],
          "name": "lotteryWinnersCount",
          "outputs": [
            {
              "internalType": "uint256",
              "name": "",
              "type": "uint256"
            }
          ],
          "stateMutability": "view",
          "type": "function"
        },
        {
          "inputs": [],
          "name": "mintTrophy",
          "outputs": [
            {
              "internalType": "uint256",
              "name": "nftId",
              "type": "uint256"
            }
          ],
          "stateMutability": "nonpayable",
          "type": "function"
        },
        {
          "inputs": [],
          "name": "name",
          "outputs": [
            {
              "internalType": "string",
              "name": "",
              "type": "string"
            }
          ],
          "stateMutability": "view",
          "type": "function"
        },
        {
          "inputs": [
            {
              "internalType": "address",
              "name": "",
              "type": "address"
            }
          ],
          "name": "pendingFees",
          "outputs": [
            {
              "internalType": "uint256",
              "name": "",
              "type": "uint256"
            }
          ],
          "stateMutability": "view",
          "type": "function"
        },
        {
          "inputs": [],
          "name": "poolBalance",
          "outputs": [
            {
              "internalType": "uint256",
              "name": "",
              "type": "uint256"
            }
          ],
          "stateMutability": "view",
          "type": "function"
        },
        {
          "inputs": [],
          "name": "proRataPool",
          "outputs": [
            {
              "internalType": "uint256",
              "name": "",
              "type": "uint256"
            }
          ],
          "stateMutability": "view",
          "type": "function"
        },
        {
          "inputs": [],
          "name": "randomnessProvider",
          "outputs": [
            {
              "internalType": "address",
              "name": "",
              "type": "address"
            }
          ],
          "stateMutability": "view",
          "type": "function"
        },
        {
          "inputs": [],
          "name": "requestDeath",
          "outputs": [],
          "stateMutability": "payable",
          "type": "function"
        },
        {
          "inputs": [
            {
              "internalType": "uint256",
              "name": "tokenAmount",
              "type": "uint256"
            },
            {
              "internalType": "uint256",
              "name": "minMON",
              "type": "uint256"
            }
          ],
          "name": "sell",
          "outputs": [],
          "stateMutability": "nonpayable",
          "type": "function"
        },
        {
          "inputs": [],
          "name": "sweepUnclaimed",
          "outputs": [],
          "stateMutability": "nonpayable",
          "type": "function"
        },
        {
          "inputs": [],
          "name": "swept",
          "outputs": [
            {
              "internalType": "bool",
              "name": "",
              "type": "bool"
            }
          ],
          "stateMutability": "view",
          "type": "function"
        },
        {
          "inputs": [],
          "name": "symbol",
          "outputs": [
            {
              "internalType": "string",
              "name": "",
              "type": "string"
            }
          ],
          "stateMutability": "view",
          "type": "function"
        },
        {
          "inputs": [],
          "name": "totalHolders",
          "outputs": [
            {
              "internalType": "uint256",
              "name": "",
              "type": "uint256"
            }
          ],
          "stateMutability": "view",
          "type": "function"
        },
        {
          "inputs": [],
          "name": "totalLotteryWeight",
          "outputs": [
            {
              "internalType": "uint256",
              "name": "",
              "type": "uint256"
            }
          ],
          "stateMutability": "view",
          "type": "function"
        },
        {
          "inputs": [],
          "name": "totalPendingFees",
          "outputs": [
            {
              "internalType": "uint256",
              "name": "",
              "type": "uint256"
            }
          ],
          "stateMutability": "view",
          "type": "function"
        },
        {
          "inputs": [],
          "name": "totalSupplySnapshot",
          "outputs": [
            {
              "internalType": "uint256",
              "name": "",
              "type": "uint256"
            }
          ],
          "stateMutability": "view",
          "type": "function"
        },
        {
          "inputs": [],
          "name": "treasury",
          "outputs": [
            {
              "internalType": "address",
              "name": "",
              "type": "address"
            }
          ],
          "stateMutability": "view",
          "type": "function"
        },
        {
          "inputs": [
            {
              "internalType": "address",
              "name": "",
              "type": "address"
            }
          ],
          "name": "trophyMinted",
          "outputs": [
            {
              "internalType": "bool",
              "name": "",
              "type": "bool"
            }
          ],
          "stateMutability": "view",
          "type": "function"
        },
        {
          "inputs": [],
          "name": "trophyNFT",
          "outputs": [
            {
              "internalType": "address",
              "name": "",
              "type": "address"
            }
          ],
          "stateMutability": "view",
          "type": "function"
        },
        {
          "inputs": [],
          "name": "virtualSupply",
          "outputs": [
            {
              "internalType": "uint256",
              "name": "",
              "type": "uint256"
            }
          ],
          "stateMutability": "view",
          "type": "function"
        },
        {
          "inputs": [],
          "name": "withdrawFees",
          "outputs": [],
          "stateMutability": "nonpayable",
          "type": "function"
        },
        {
          "stateMutability": "payable",
          "type": "receive"
        }
      ],
      "evm": {
        "bytecode": {
          "linkReferences": {},
          "object": "6080806040523460445760017f9b779b17422d0df92223018b32b4d1fa46e071723d6817e2486d003becc55f0055600160ff195f5416175f5561389890816100498239f35b5f80fdfe608080604052600436101561001c575b50361561001a575f80fd5b005b5f3560e01c90816302d05d3f14612fc65750806306fdde0314612f345780630812530e14612eed5780630932df8114612ed15780630964b7ed14612eb55780630ae6682014612e465780630b0cf9d814612e2b5780630b4b71cc14612a85578063109e62ea14612e0e578063135d088d14612d7c57806315e3b12d14612d575780631763451414612d3a57806317b0263c14612ace5780631e5c622214612aac5780632113eaca14612a8a57806322e1272014612a85578063249d39e914612a6957806325d2a3f314612a3157806325fb077a14612a0d578063277b2f97146129f057806327e235e3146129b85780632c8316331461299b578063310d8fd61461297f578063317be0ac1461296257806332cb6b0c1461293c57806337b28bfd1461290457806337bca1cf146128e757806339b7d98e146128bf5780633af96b901461289e5780634136aa351461286957806342f815801461284c578063476343ee1461278c5780634e584e111461276f5780634e71d92d146125cc5780634fdd777f146125af5780635141a2011461259257806353d74fdf146125755780635592fc71146124e15780635686661d146124a957806357ee93341461248d5780635d8cc808146124705780635fe8e7cc146123a857806361d027b314612380578063627d55f614612364578063636bcebe1461234857806363d2d8af1461231f57806378efe539146123025780637a0dc231146122e0578063818e0a36146122b45780638262331214611eb15780638a2f3a88146115ea57806395d89b411461152357806396365d4414611506578063975c7745146114ea57806398d5fdca146114c9578063a2ced305146114ac578063a583024b1461147d578063a833656a146113fc578063af6c52ad14610f85578063b4f40c6114610f68578063be37822814610d0c578063c44337b414610e16578063c45a015514610deb578063c7e284b814610dc9578063c884ef8314610d8c578063cab2901014610d71578063cc3cbd2a14610d56578063ce9bf5ac14610d2e578063cf09e0d014610d11578063d161c6a314610d0c578063d4d7b19a14610ccf578063d79875eb146108cc578063d7a1a5b914610896578063d96a094a14610416578063ddee1ee2146103d9578063e3758a32146103be578063ec5ae7e8146103a35763ecadc3b014610382575f61000f565b3461039f575f36600319011261039f576020602154604051908152f35b5f80fd5b3461039f575f36600319011261039f57602060405160028152f35b3461039f575f36600319011261039f576020604051600a8152f35b3461039f57602036600319011261039f576001600160a01b036103fa613088565b165f526024602052602060ff60405f2054166040519015158152f35b602036600319011261039f5761042a61345d565b61043760065442106132a2565b61044660ff6018541615613266565b662386f26fc10000341061085e57335f52601360205260405f2054600281018091116106b95743111561082357335f5260136020524360405f2055606434023415903481046064148217156106b957612710900490603234029034820460321417156106b95761271090046104c4816104bf8434613110565b613110565b90600c546104d2838261366a565b926104de841515613336565b6104ec6004358510156132de565b6b033b2e3c9fd0803ce800000061050385846130e6565b116107e957600554601e81018091116106b957421061078e575b335f5260106020526a52b7d2dcc80cd2e400000061053f8560405f20546130e6565b11610757576105518461055c936130e6565b600c55600d546130e6565b600d55335f52601060205260405f206105768382546130e6565b9055335f52601160205260ff60405f205416156106cd575b600654610e0f198101919082116106b9576001937f0c668488dc690d00c35c03638df49a1c8a7b63511eba0f88eeed1bd471719b1692421061064c575b6105de81868060a01b0360085416613596565b6105f082868060a01b03875416613596565b610636600c5461060260075482613574565b9060405194859433983490879260a094919796959260c0850198855260208501526040840152606083015260808201520152565b0390a360015f5160206138435f395f51905f5255005b335f52601460205260405f206106638582546130e6565b9055610671846015546130e6565b80601555335f52601460205260405f20549060405191825260208201527f4ee2f082c253bc65e23c22a1e459fe8464d526efca135e65f80012a9f908b6f760403392a26105cb565b634e487b7160e01b5f52601160045260245ffd5b6107d0600f54101561071c57335f52601160205260405f20600160ff19825416179055600f54335f52601260205260405f205561070933613374565b610714600e546133e1565b600e5561058e565b60405162461bcd60e51b815260206004820152601360248201527213585e081a1bdb19195c9cc81c995858da1959606a1b6044820152606490fd5b60405162461bcd60e51b815260206004820152600f60248201526e4d617820686f6c64696e672031302560881b6044820152606490fd5b335f5260106020526a084595161401484a0000006107b08560405f20546130e6565b111561051d5760405162461bcd60e51b815260206004820152600b60248201526a20b73a3496b9b734b832b960a91b6044820152606490fd5b60405162461bcd60e51b815260206004820152601260248201527113585e081cdd5c1c1b1e481c995858da195960721b6044820152606490fd5b60405162461bcd60e51b815260206004820152601360248201527242757920636f6f6c646f776e2061637469766560681b6044820152606490fd5b60405162461bcd60e51b815260206004820152601060248201526f26b4b710313abc90181718189026a7a760811b6044820152606490fd5b3461039f57602036600319011261039f57600435600381101561039f57601e01546040516001600160a01b039091168152602090f35b3461039f57604036600319011261039f576004356108e861345d565b6108f760ff6018541615613266565b6006546109058142106132a2565b610e0f1981019081116106b957421015610c8a578015610c5857335f5260106020528060405f205410610c1c57600c549061094360075482846133ef565b600d54808211610c14575b606482028215908381046064148217156106b957612710900492603281029181830460321417156106b9576127106109ab9204926109a386610994866104bf8987613110565b986104bf6024358b10156132de565b600c55613110565b600d55335f52601060205260405f206109c5848254613110565b9055335f52601460205260405f205483115f14610c0e57335f52601460205260405f20545b80610ba0575b50335f52601060205260405f205415610aa2575b905f936106367f0c668488dc690d00c35c03638df49a1c8a7b63511eba0f88eeed1bd471719b1693610a408460018060a01b0360085416613596565b600154610a579082906001600160a01b0316613596565b610a6183336134d9565b600c54610a7060075482613574565b916040519586953399879260a094919796959260c0850198855260208501526040840152606083015260808201520152565b90335f52601260205260405f2054600f545f1981019081116106b957808203610b41575b5050600f548015610b2d575f1901610add8161331e565b81549060018060a01b039060031b1b19169055600f55335f52601160205260405f2060ff198154169055335f5260126020525f6040812055600e549384156106b9575f19909401600e5590610a04565b634e487b7160e01b5f52603160045260245ffd5b610b4a9061331e565b905460039190911b1c6001600160a01b0316610b8d81610b698461331e565b81546001600160a01b0393841660039290921b91821b9390911b1916919091179055565b5f52601260205260405f20558480610ac6565b610bc590335f52601460205260405f20610bbb828254613110565b9055601554613110565b80601555335f52601460205260405f20549060405191825260208201527f4ee2f082c253bc65e23c22a1e459fe8464d526efca135e65f80012a9f908b6f760403392a2846109f0565b826109ea565b90508061094e565b60405162461bcd60e51b8152602060048201526014602482015273496e73756666696369656e742062616c616e636560601b6044820152606490fd5b60405162461bcd60e51b815260206004820152600a6024820152690416d6f756e74203e20360b41b6044820152606490fd5b60405162461bcd60e51b815260206004820152601860248201527f53656c6c20636c6f73656420696e206c61737420686f757200000000000000006044820152606490fd5b3461039f57602036600319011261039f576001600160a01b03610cf0613088565b165f526011602052602060ff60405f2054166040519015158152f35b6130cb565b3461039f575f36600319011261039f576020600554604051908152f35b3461039f575f36600319011261039f576009546040516001600160a01b039091168152602090f35b3461039f575f36600319011261039f57602060405160328152f35b3461039f575f36600319011261039f576020604051601e8152f35b3461039f57602036600319011261039f576001600160a01b03610dad613088565b165f526023602052602060ff60405f2054166040519015158152f35b3461039f575f36600319011261039f576020610de361324d565b604051908152f35b3461039f575f36600319011261039f575f5460405160089190911c6001600160a01b03168152602090f35b3461039f575f36600319011261039f57610e2e61345d565b610e3f60ff60185460081c1661311d565b60255460ff8116610f3357601a5462278d0081018091116106b9574210610ef75760ff1916600117602555601754479080821115610eef57610e8091613110565b80610e99575b60015f5160206138435f395f51905f5255005b600854610eb09082906001600160a01b0316613596565b6008546040519182526001600160a01b0316907ffb518729fe519091f8dd997a899a92dcf814cc8101d7181f2b505fb7daf4607690602090a280610e86565b50505f610e80565b60405162461bcd60e51b8152602060048201526014602482015273111958591b1a5b99481b9bdd081c995858da195960621b6044820152606490fd5b60405162461bcd60e51b815260206004820152600d60248201526c105b1c9958591e481cddd95c1d609a1b6044820152606490fd5b3461039f575f36600319011261039f576020600754604051908152f35b5f36600319011261039f57610f9861345d565b60185460ff81166113c35760065442106113905761ff01600160b01b0319163360101b62010000600160b01b031617600117601855600c54601b55600d5467016345785d8a0000811061138557610ff867016345785d8a00008092613110565b9061012c82029180159281810461012c148417156106b9576127109004926107d08202908282046107d01417156106b95783916104bf61271061103e9304938492613110565b601c55601d5580611375575b5080611359575b50601d548015158061134e575b80611343575b15611262575060095460405163ced72f8760e01b8152906001600160a01b0316602082600481845afa9182156111de575f9261122e575b508134106111e95760208291604460405183810190428252446040820152336060820152306080820152608081526110d460a082613021565b51902060405195869384926319b005e960e21b845230600485015260248401525af19182156111de575f9261119a575b506018805467ffffffffffffffff60b01b191660b084901b67ffffffffffffffff60b01b161790556111368134613110565b8061118a575b506001600160401b036040519216825260208201527f879efe594f9a28292dec1e98a0569fe8896f904bf51cbd2672d8b5e24712aaa160403392a260015f5160206138435f395f51905f5255005b61119490336134d9565b8261113c565b9091506020813d6020116111d6575b816111b660209383613021565b8101031261039f57516001600160401b038116810361039f579082611104565b3d91506111a9565b6040513d5f823e3d90fd5b60405162461bcd60e51b815260206004820152601b60248201527f496e73756666696369656e742072616e646f6d6e6573732066656500000000006044820152606490fd5b9091506020813d60201161125a575b8161124a60209383613021565b8101031261039f5751908261109b565b3d915061123d565b61126e90601c546130e6565b601c555f601d5534611334575b61010061ff001960185416176018555f60195542601a55601c54601d54604051918252602082015260408101601e905f905b600382106113145750505060a07fa66b5799020c9a7c7892f91d807f3d3ccf2ae87ee57036a3b2209ce45d4ab8e791a16040515f81525f60208201527f879efe594f9a28292dec1e98a0569fe8896f904bf51cbd2672d8b5e24712aaa160403392a2610e86565b82546001600160a01b0316815260019283019291909101906020016112ad565b61133e34336134d9565b61127b565b50600f541515611064565b50601554151561105e565b60085461136f91906001600160a01b0316613596565b80611051565b61137f9033613596565b8161104a565b610ff85f8092613110565b60405162461bcd60e51b815260206004820152600b60248201526a139bdd08195e1c1a5c995960aa1b6044820152606490fd5b60405162461bcd60e51b8152602060048201526011602482015270105b1c9958591e481c995c5d595cdd1959607a1b6044820152606490fd5b3461039f575f36600319011261039f5760095460405163ced72f8760e01b815290602090829060049082906001600160a01b03165afa80156111de575f9061144a575b602090604051908152f35b506020813d602011611475575b8161146460209383613021565b8101031261039f576020905161143f565b3d9150611457565b3461039f57602036600319011261039f5760406114a061149b613088565b61317c565b82519182526020820152f35b3461039f575f36600319011261039f576020600654604051908152f35b3461039f575f36600319011261039f576020610de3600c5460075490613574565b3461039f575f36600319011261039f576020604051611efb8152f35b3461039f575f36600319011261039f576020600d54604051908152f35b3461039f575f36600319011261039f576040515f60035461154381612fe9565b80845290600181169081156115c6575060011461157b575b6115778361156b81850382613021565b60405191829182613042565b0390f35b60035f9081525f5160206138035f395f51905f52939250905b8082106115ac5750909150810160200161156b61155b565b919260018160209254838588010152019101909291611594565b60ff191660208086019190915291151560051b8401909101915061156b905061155b565b61014036600319011261039f576115ff613088565b6024356001600160401b03811161039f5761161e90369060040161309e565b91906044356001600160401b03811161039f5761163f90369060040161309e565b936064356001600160401b03811161039f5761165f90369060040161309e565b909560a435939160c4356001600160a01b03811692608435929184900361039f5760e4356001600160a01b038116959086900361039f57610104356001600160a01b038116979088900361039f575f549960ff8b16611e765761546086148015611e6b575b8015611e5f575b15611e27576001600160a01b038c169a8b15611df0578715611db8578815611d73578a15611d42576001600160a81b0319163360081b610100600160a81b03161760019081175f5580546001600160a01b0319168c1790556001600160401b038211611b4e57819061173e600254612fe9565b601f8111611cd0575b505f90601f8311600114611c5d575f92611c52575b50508160011b915f199060031b1c1916176002555b6001600160401b038211611b4e57819061178c600354612fe9565b601f8111611be0575b505f90601f8311600114611b6d575f92611b62575b50508160011b915f199060031b1c1916176003555b6001600160401b038111611b4e576117d8600454612fe9565b601f8111611ae6575b505f601f8211600114611a7057908061181e9392899a9b5f92611a65575b50508160011b915f199060031b1c1916176004555b42600555426130e6565b93846006556007556001600160601b0360a01b60085416176008556001600160601b0360a01b60095416176009556001600160601b0360a01b600a541617600a5543600b556040519081527f10f27652c1015195ca7e6bc9b4c724cbf18e91c42117d92124703a3f49bb240f60203392a3341591821561189a57005b606434023481046064148417156106b957612710900492603234029034820460321417156106b9576127109004926118d6846104bf8334613110565b6118df816135ce565b906118eb821515613336565b6118fa610124358310156132de565b6b029009752660ad62af8000008211611a2057856119da6001977f0c668488dc690d00c35c03638df49a1c8a7b63511eba0f88eeed1bd471719b1696611a1b9486600c55600d55885f5260106020528560405f2055885f52601160205260405f208a60ff19825416179055885f5260126020525f604081205561197c81613374565b89600e55885f5260146020528560405f205585601555887f4ee2f082c253bc65e23c22a1e459fe8464d526efca135e65f80012a9f908b6f760408051898152896020820152a26119d5878b8060a01b0360085416613596565b613596565b600c546119e960075482613574565b916040519586953490879260a094919796959260c0850198855260208501526040840152606083015260808201520152565b0390a3005b60405162461bcd60e51b815260206004820152601a60248201527f496e697469616c2062757920657863656564732037392e3331250000000000006044820152606490fd5b013590508b806117ff565b601f1982169060045f525f5160206138235f395f51905f52915f5b818110611ace575091899a9b849261181e969560019510611ab5575b505050811b01600455611814565b01355f19600384901b60f8161c191690558b8080611aa7565b91926020600181928f87013581550194019201611a8b565b60045f52601f820160051c5f5160206138235f395f51905f52019060208310611b39575b601f0160051c5f5160206138235f395f51905f5201905b818110611b2e57506117e1565b5f8155600101611b21565b5f5160206138235f395f51905f529150611b0a565b634e487b7160e01b5f52604160045260245ffd5b013590508b806117aa565b909150601f1983169160035f525f5160206138035f395f51905f52925f5b818110611bc85750908460019594939210611baf575b505050811b016003556117bf565b01355f19600384901b60f8161c191690558b8080611ba1565b91936020600181928787013581550195019201611b8b565b90915060035f52601f830160051c5f5160206138035f395f51905f52019060208410611c3d575b90601f8493920160051c5f5160206138035f395f51905f5201905b818110611c2f5750611795565b5f8155849350600101611c22565b5f5160206138035f395f51905f529150611c07565b013590508d8061175c565b909150601f1983169160025f525f5160206137e35f395f51905f52925f5b818110611cb85750908460019594939210611c9f575b505050811b01600255611771565b01355f19600384901b60f8161c191690558d8080611c91565b91936020600181928787013581550195019201611c7b565b90915060025f52601f830160051c5f5160206137e35f395f51905f52019060208410611d2d575b90601f8493920160051c5f5160206137e35f395f51905f5201905b818110611d1f5750611747565b5f8155849350600101611d12565b5f5160206137e35f395f51905f529150611cf7565b60405162461bcd60e51b8152602060048201526009602482015268496e76616c6964206b60b81b6044820152606490fd5b60405162461bcd60e51b815260206004820152601b60248201527f496e76616c69642072616e646f6d6e6573732070726f766964657200000000006044820152606490fd5b60405162461bcd60e51b815260206004820152601060248201526f496e76616c696420747265617375727960801b6044820152606490fd5b60405162461bcd60e51b815260206004820152600f60248201526e24b73b30b634b21031b932b0ba37b960891b6044820152606490fd5b60405162461bcd60e51b815260206004820152601060248201526f24b73b30b634b210323ab930ba34b7b760811b6044820152606490fd5b506201518086146116cb565b5061a8c086146116c4565b60405162461bcd60e51b8152602060048201526013602482015272105b1c9958591e481a5b9a5d1a585b1a5e9959606a1b6044820152606490fd5b3461039f57604036600319011261039f576004356001600160401b03811680910361039f5760095460243591906001600160a01b031633036122805760185460ff811680612272575b156122415760b01c6001600160401b03160361220d5761010061ff001960185416176018558060195542601a5580151580612202575b806121f7575b806121ec575b611fac575b50601c54601d54604051918252602082015260408101601e905f905b60038210611f8c577fa66b5799020c9a7c7892f91d807f3d3ccf2ae87ee57036a3b2209ce45d4ab8e760a085a1005b82546001600160a01b031681526001928301929190910190602001611f5d565b601554600a810290808204600a14901517156106b95761271090049081156121e3575b600f54905f915f5f5b828110612182575080151580612179575b1561215a57806003115f1461215157925b5f5b848110612053575050505061203091508060215561202a601d54916120218184613106565b806022556130f3565b90613110565b8061203e575b505b80611f41565b61204a90601c546130e6565b601c5580612036565b604051602081019085825282604082015260408152612073606082613021565b519020821561213d578290065f905f5b858110612096575b505050600101611ffc565b61209f8161331e565b905460039190911b1c6001600160a01b03165f8181526014602052604090205490938a821061213257906120d2916130e6565b928284116120e557506001905b01612083565b9392505050600381101561211e57601e810180546001600160a01b0319166001600160a01b03909316929092179091556001878061208b565b634e487b7160e01b5f52603260045260245ffd5b9350506001906120df565b634e487b7160e01b5f52601260045260245ffd5b50600392611ffa565b505050505061216d601d54601c546130e6565b601c555f601d55612038565b50831515611fe9565b61218b8161331e565b60018060a01b0391549060031b1c16805f5260146020528660405f205410156121b8575b50600101611fd8565b6121d660019293966121dc925f52601460205260405f2054906130e6565b956133e1565b91906121af565b60019150611fcf565b50601d541515611f3c565b50600f541515611f36565b506015541515611f30565b60405162461bcd60e51b815260206004820152600c60248201526b4261642073657175656e636560a01b6044820152606490fd5b60405162461bcd60e51b815260206004820152600960248201526842616420737461746560b81b6044820152606490fd5b5060ff8160081c1615611efa565b60405162461bcd60e51b815260206004820152600c60248201526b2737ba10383937bb34b232b960a11b6044820152606490fd5b3461039f575f36600319011261039f5760185460405160109190911c6001600160a01b03168152602090f35b3461039f575f36600319011261039f57602060ff601854166040519015158152f35b3461039f575f36600319011261039f576020601b54604051908152f35b3461039f575f36600319011261039f5760206001600160401b0360185460b01c16604051908152f35b3461039f575f36600319011261039f576020604051611e148152f35b3461039f575f36600319011261039f5760206040516103e88152f35b3461039f575f36600319011261039f576008546040516001600160a01b039091168152602090f35b3461039f575f36600319011261039f57604051806020600f5492838152018092600f5f527f8d1108e10bcb7c27dddfc02ed9d693a074039d026cf4ea4240b40f7d581ac802905f5b8181106124515750505081612406910382613021565b604051918291602083019060208452518091526040830191905f5b81811061242f575050500390f35b82516001600160a01b0316845285945060209384019390920191600101612421565b82546001600160a01b03168452602090930192600192830192016123f0565b3461039f575f36600319011261039f576020604051620151808152f35b3461039f575f36600319011261039f5760206040516154608152f35b3461039f57602036600319011261039f576001600160a01b036124ca613088565b165f526014602052602060405f2054604051908152f35b3461039f575f36600319011261039f576060806040516125018282613021565b369037604051601e5f825b60038210612555575050506125218282613021565b604051905f825b6003821061253557505050f35b82516001600160a01b031681526020928301926001929092019101612528565b82546001600160a01b03168152600192830192919091019060200161250c565b3461039f575f36600319011261039f576020600e54604051908152f35b3461039f575f36600319011261039f576020601554604051908152f35b3461039f575f36600319011261039f576020601954604051908152f35b3461039f575f36600319011261039f576125e461345d565b6125f560ff60185460081c1661311d565b335f52602360205260ff60405f20541661273857335f90815260106020526040902054601b5480156127305761263061263592601c546130f3565b613106565b5f5f602154905b8181106126f257505061264f81836130e6565b80156126ba5761267690335f52602360205260405f20600160ff19825416179055336134d9565b60405191825260208201527f987d620f307ff6b94d58743cb7a7509f24071586a77759b77c2d4e29f75a2f9a60403392a260015f5160206138435f395f51905f5255005b60405162461bcd60e51b815260206004820152601060248201526f4e6f7468696e6720746f20636c61696d60801b6044820152606490fd5b600381101561211e57601e8101546001600160a01b03163314612718575b60010161263c565b91612728600191602254906130e6565b929050612710565b50505f612635565b60405162461bcd60e51b815260206004820152600f60248201526e105b1c9958591e4818db185a5b5959608a1b6044820152606490fd5b3461039f575f36600319011261039f576020602254604051908152f35b3461039f575f36600319011261039f576127a461345d565b335f52601660205260405f2054801561281d57335f5260166020525f60408120556127d181601754613110565b6017556127de81336134d9565b6040519081527f78473f3f373f7673597f4f0fa5873cb4d375fea6d4339ad6b56dbd411513cb3f60203392a260015f5160206138435f395f51905f5255005b60405162461bcd60e51b81526020600482015260076024820152664e6f206665657360c81b6044820152606490fd5b3461039f575f36600319011261039f57602060405162278d008152f35b3461039f575f36600319011261039f5760ff601854161580612893575b6020906040519015158152f35b506006544210612886565b3461039f575f36600319011261039f576020604051662386f26fc100008152f35b3461039f575f36600319011261039f57600a546040516001600160a01b039091168152602090f35b3461039f575f36600319011261039f576020601a54604051908152f35b3461039f57602036600319011261039f576001600160a01b03612925613088565b165f526013602052602060405f2054604051908152f35b3461039f575f36600319011261039f5760206040516b033b2e3c9fd0803ce80000008152f35b3461039f575f36600319011261039f576020601c54604051908152f35b3461039f575f36600319011261039f576020604051610e108152f35b3461039f575f36600319011261039f576020601d54604051908152f35b3461039f57602036600319011261039f576001600160a01b036129d9613088565b165f526010602052602060405f2054604051908152f35b3461039f575f36600319011261039f576020600c54604051908152f35b3461039f575f36600319011261039f576020612a27613159565b6040519015158152f35b3461039f57602036600319011261039f576001600160a01b03612a52613088565b165f526016602052602060405f2054604051908152f35b3461039f575f36600319011261039f5760206040516127108152f35b61306c565b3461039f575f36600319011261039f57602060ff602554166040519015158152f35b3461039f575f36600319011261039f57602060405167016345785d8a00008152f35b3461039f575f36600319011261039f57612ae661345d565b612af760ff60185460081c1661311d565b335f52602360205260ff60405f20541615612d0757335f52602460205260ff60405f205416612cd157600a546001600160a01b031615612ca057335f908152602460209081526040808320805460ff191660011790556010909152902054601b548015612c9957612b6e9061263083601c546130f3565b612b7733613495565b9182612c48575b9060a46020925f60018060a01b03600a541660405196879586946345fdd69160e01b865233600487015230602487015260448601526064850152151560848401525af180156111de575f90612c15575b6020906040518181527f40e0fad75d161c82d49af9e03ec076efa4ff442a3954c75339fd02218374e2dc833392a260015f5160206138435f395f51905f5255604051908152f35b506020813d602011612c40575b81612c2f60209383613021565b8101031261039f5760209051612bce565b3d9150612c22565b6021545f5b818110612c5b575050612b7e565b600381101561211e57601e8101546001600160a01b03163314612c81575b600101612c4d565b92612c91600191602254906130e6565b939050612c79565b505f612b6e565b60405162461bcd60e51b81526020600482015260096024820152684e6f2074726f70687960b81b6044820152606490fd5b60405162461bcd60e51b815260206004820152600e60248201526d105b1c9958591e481b5a5b9d195960921b6044820152606490fd5b60405162461bcd60e51b815260206004820152600b60248201526a10db185a5b48199a5c9cdd60aa1b6044820152606490fd5b3461039f575f36600319011261039f576020600b54604051908152f35b3461039f575f36600319011261039f57602060ff60185460081c166040519015158152f35b3461039f575f36600319011261039f576040515f600454612d9c81612fe9565b80845290600181169081156115c65750600114612dc3576115778361156b81850382613021565b60045f9081525f5160206138235f395f51905f52939250905b808210612df45750909150810160200161156b61155b565b919260018160209254838588010152019101909291612ddc565b3461039f575f36600319011261039f576020601754604051908152f35b3461039f575f36600319011261039f57602060405160038152f35b3461039f57602036600319011261039f57670de0b6b3a7640000612e90600c54612e8a6007549161202a612e84612e7f600435846130e6565b613748565b91613748565b906130f3565b0461271081029080820461271014901517156106b95761267a60209104604051908152f35b3461039f575f36600319011261039f57602060405161012c8152f35b3461039f575f36600319011261039f57602060405161a8c08152f35b3461039f57602036600319011261039f57612f11600c5460075490600435906133ef565b60968102818104609614821517156106b957602091612710610de3920490613110565b3461039f575f36600319011261039f576040515f600254612f5481612fe9565b80845290600181169081156115c65750600114612f7b576115778361156b81850382613021565b60025f9081525f5160206137e35f395f51905f52939250905b808210612fac5750909150810160200161156b61155b565b919260018160209254838588010152019101909291612f94565b3461039f575f36600319011261039f576001546001600160a01b03168152602090f35b90600182811c92168015613017575b602083101461300357565b634e487b7160e01b5f52602260045260245ffd5b91607f1691612ff8565b90601f801991011681019081106001600160401b03821117611b4e57604052565b602060409281835280519182918282860152018484015e5f828201840152601f01601f1916010190565b3461039f575f36600319011261039f5760206040516107d08152f35b600435906001600160a01b038216820361039f57565b9181601f8401121561039f578235916001600160401b03831161039f576020838186019501011161039f57565b3461039f575f36600319011261039f57602060405160648152f35b919082018092116106b957565b818102929181159184041417156106b957565b811561213d570490565b919082039182116106b957565b1561312457565b60405162461bcd60e51b815260206004820152600d60248201526c139bdd08199a5b985b1a5e9959609a1b6044820152606490fd5b6006548042101561317757610e0f1981019081116106b95742101590565b505f90565b5f915f9160ff60185460081c1615801561322c575b61322357601b54806131f1575b506021545f5b8181106131b057505050565b600381101561211e57601e8101546001600160a01b038481169116146131d9575b6001016131a4565b936131e9600191602254906130e6565b9490506131d1565b601c546001600160a01b0383165f9081526010602052604090205492955061321c92612630916130f3565b925f61319e565b505f9250829150565b506001600160a01b0381165f9081526023602052604090205460ff16613191565b6006548042101561317757613263904290613110565b90565b1561326d57565b60405162461bcd60e51b815260206004820152600d60248201526c44656174682070656e64696e6760981b6044820152606490fd5b156132a957565b60405162461bcd60e51b815260206004820152600d60248201526c151bdad95b88195e1c1a5c9959609a1b6044820152606490fd5b156132e557565b60405162461bcd60e51b815260206004820152601160248201527014db1a5c1c1859d948195e18d959591959607a1b6044820152606490fd5b600f5481101561211e57600f5f5260205f2001905f90565b1561333d57565b60405162461bcd60e51b815260206004820152600f60248201526e16995c9bc81d1bdad95b9cc81bdd5d608a1b6044820152606490fd5b600f549068010000000000000000821015611b4e5760018201600f55600f5482101561211e57600f5f527f8d1108e10bcb7c27dddfc02ed9d693a074039d026cf4ea4240b40f7d581ac80290910180546001600160a01b0319166001600160a01b03909216919091179055565b5f1981146106b95760010190565b909181831161342257612e8a8261202a612e84613418670de0b6b3a76400009761341e97613110565b92613748565b0490565b60405162461bcd60e51b815260206004820152601360248201527253656c6c206578636565647320737570706c7960681b6044820152606490fd5b60025f5160206138435f395f51905f5254146134865760025f5160206138435f395f51905f5255565b633ee5aeb560e01b5f5260045ffd5b602154905f5b8281106134a9575050505f90565b600381101561211e57601e8101546001600160a01b038381169116146134d15760010161349b565b505050600190565b8115613570575f918291829182916001600160a01b03165af13d1561356b573d6001600160401b038111611b4e576040519061351f601f8201601f191660200183613021565b81525f60203d92013e5b1561353057565b60405162461bcd60e51b81526020600482015260136024820152721353d3881d1c985b9cd9995c8819985a5b1959606a1b6044820152606490fd5b613529565b5050565b801561359057670de0b6b3a764000091612e8a61341e9261377f565b50505f90565b908015613570576135c99160018060a01b03165f52601660205260405f206135bf8282546130e6565b90556017546130e6565b601755565b6b033b2e3c9fd0803ce80000008115613590576007545f925b8284106135f45750505090565b90919261360184826130e6565b600181018091116106b95760011c9082670de0b6b3a764000061363861363261362986613748565b61202a5f613748565b876130f3565b04116136485750925b91906135e7565b93505f1981019081111561364157634e487b7160e01b5f52601160045260245ffd5b806b033b2e3c9fd0803ce8000000036b033b2e3c9fd0803ce800000081116106b95791816b033b2e3c9fd0803ce8000000148015613740575b6137395791905f926007545b8385106136bd575050505090565b909192936136cb85826130e6565b600181018091116106b95760011c9083670de0b6b3a76400006137066137006136f7612e7f878b6130e6565b61202a8a613748565b866130f3565b04116137175750935b9291906136af565b94505f1981019081111561370f57634e487b7160e01b5f52601160045260245ffd5b5050505f90565b5080156136a3565b80156131775761376481612e8a670de0b6b3a76400009361377f565b046001600160ff1b03811681036106b95760039060011b0490565b9081156137dd57670de0b6b3a76400008202918204670de0b6b3a7640000036106b95781600181018082116106b95760011c905b8382106137be575050565b9092506137d4836137cf8184613106565b6130e6565b60011c906137b3565b5f915056fe405787fa12a823e0f2b7631cc41b3ba8828b3321ca811111fa75cd3aa3bb5acec2575a0e9e593c00f959f8c92f12db2869c3395a3b0502d05e2516446f71f85b8a35acfbc15ff81a39ae7d344fd709f28e8600b4aa8c65c6b64bfe7fe36bd19b9b779b17422d0df92223018b32b4d1fa46e071723d6817e2486d003becc55f00a2646970667358221220a65b64f0643a259dfb98cf154d515c59277aa7c997ce0cbdee88d715a568155c64736f6c634300081c0033",
          "opcodes": "PUSH1 0x80 DUP1 PUSH1 0x40 MSTORE CALLVALUE PUSH1 0x44 JUMPI PUSH1 0x1 PUSH32 0x9B779B17422D0DF92223018B32B4D1FA46E071723D6817E2486D003BECC55F00 SSTORE PUSH1 0x1 PUSH1 0xFF NOT PUSH0 SLOAD AND OR PUSH0 SSTORE PUSH2 0x3898 SWAP1 DUP2 PUSH2 0x49 DUP3 CODECOPY RETURN JUMPDEST PUSH0 DUP1 REVERT INVALID PUSH1 0x80 DUP1 PUSH1 0x40 MSTORE PUSH1 0x4 CALLDATASIZE LT ISZERO PUSH2 0x1C JUMPI JUMPDEST POP CALLDATASIZE ISZERO PUSH2 0x1A JUMPI PUSH0 DUP1 REVERT JUMPDEST STOP JUMPDEST PUSH0 CALLDATALOAD PUSH1 0xE0 SHR SWAP1 DUP2 PUSH4 0x2D05D3F EQ PUSH2 0x2FC6 JUMPI POP DUP1 PUSH4 0x6FDDE03 EQ PUSH2 0x2F34 JUMPI DUP1 PUSH4 0x812530E EQ PUSH2 0x2EED JUMPI DUP1 PUSH4 0x932DF81 EQ PUSH2 0x2ED1 JUMPI DUP1 PUSH4 0x964B7ED EQ PUSH2 0x2EB5 JUMPI DUP1 PUSH4 0xAE66820 EQ PUSH2 0x2E46 JUMPI DUP1 PUSH4 0xB0CF9D8 EQ PUSH2 0x2E2B JUMPI DUP1 PUSH4 0xB4B71CC EQ PUSH2 0x2A85 JUMPI DUP1 PUSH4 0x109E62EA EQ PUSH2 0x2E0E JUMPI DUP1 PUSH4 0x135D088D EQ PUSH2 0x2D7C JUMPI DUP1 PUSH4 0x15E3B12D EQ PUSH2 0x2D57 JUMPI DUP1 PUSH4 0x17634514 EQ PUSH2 0x2D3A JUMPI DUP1 PUSH4 0x17B0263C EQ PUSH2 0x2ACE JUMPI DUP1 PUSH4 0x1E5C6222 EQ PUSH2 0x2AAC JUMPI DUP1 PUSH4 0x2113EACA EQ PUSH2 0x2A8A JUMPI DUP1 PUSH4 0x22E12720 EQ PUSH2 0x2A85 JUMPI DUP1 PUSH4 0x249D39E9 EQ PUSH2 0x2A69 JUMPI DUP1 PUSH4 0x25D2A3F3 EQ PUSH2 0x2A31 JUMPI DUP1 PUSH4 0x25FB077A EQ PUSH2 0x2A0D JUMPI DUP1 PUSH4 0x277B2F97 EQ PUSH2 0x29F0 JUMPI DUP1 PUSH4 0x27E235E3 EQ PUSH2 0x29B8 JUMPI DUP1 PUSH4 0x2C831633 EQ PUSH2 0x299B JUMPI DUP1 PUSH4 0x310D8FD6 EQ PUSH2 0x297F JUMPI DUP1 PUSH4 0x317BE0AC EQ PUSH2 0x2962 JUMPI DUP1 PUSH4 0x32CB6B0C EQ PUSH2 0x293C JUMPI DUP1 PUSH4 0x37B28BFD EQ PUSH2 0x2904 JUMPI DUP1 PUSH4 0x37BCA1CF EQ PUSH2 0x28E7 JUMPI DUP1 PUSH4 0x39B7D98E EQ PUSH2 0x28BF JUMPI DUP1 PUSH4 0x3AF96B90 EQ PUSH2 0x289E JUMPI DUP1 PUSH4 0x4136AA35 EQ PUSH2 0x2869 JUMPI DUP1 PUSH4 0x42F81580 EQ PUSH2 0x284C JUMPI DUP1 PUSH4 0x476343EE EQ PUSH2 0x278C JUMPI DUP1 PUSH4 0x4E584E11 EQ PUSH2 0x276F JUMPI DUP1 PUSH4 0x4E71D92D EQ PUSH2 0x25CC JUMPI DUP1 PUSH4 0x4FDD777F EQ PUSH2 0x25AF JUMPI DUP1 PUSH4 0x5141A201 EQ PUSH2 0x2592 JUMPI DUP1 PUSH4 0x53D74FDF EQ PUSH2 0x2575 JUMPI DUP1 PUSH4 0x5592FC71 EQ PUSH2 0x24E1 JUMPI DUP1 PUSH4 0x5686661D EQ PUSH2 0x24A9 JUMPI DUP1 PUSH4 0x57EE9334 EQ PUSH2 0x248D JUMPI DUP1 PUSH4 0x5D8CC808 EQ PUSH2 0x2470 JUMPI DUP1 PUSH4 0x5FE8E7CC EQ PUSH2 0x23A8 JUMPI DUP1 PUSH4 0x61D027B3 EQ PUSH2 0x2380 JUMPI DUP1 PUSH4 0x627D55F6 EQ PUSH2 0x2364 JUMPI DUP1 PUSH4 0x636BCEBE EQ PUSH2 0x2348 JUMPI DUP1 PUSH4 0x63D2D8AF EQ PUSH2 0x231F JUMPI DUP1 PUSH4 0x78EFE539 EQ PUSH2 0x2302 JUMPI DUP1 PUSH4 0x7A0DC231 EQ PUSH2 0x22E0 JUMPI DUP1 PUSH4 0x818E0A36 EQ PUSH2 0x22B4 JUMPI DUP1 PUSH4 0x82623312 EQ PUSH2 0x1EB1 JUMPI DUP1 PUSH4 0x8A2F3A88 EQ PUSH2 0x15EA JUMPI DUP1 PUSH4 0x95D89B41 EQ PUSH2 0x1523 JUMPI DUP1 PUSH4 0x96365D44 EQ PUSH2 0x1506 JUMPI DUP1 PUSH4 0x975C7745 EQ PUSH2 0x14EA JUMPI DUP1 PUSH4 0x98D5FDCA EQ PUSH2 0x14C9 JUMPI DUP1 PUSH4 0xA2CED305 EQ PUSH2 0x14AC JUMPI DUP1 PUSH4 0xA583024B EQ PUSH2 0x147D JUMPI DUP1 PUSH4 0xA833656A EQ PUSH2 0x13FC JUMPI DUP1 PUSH4 0xAF6C52AD EQ PUSH2 0xF85 JUMPI DUP1 PUSH4 0xB4F40C61 EQ PUSH2 0xF68 JUMPI DUP1 PUSH4 0xBE378228 EQ PUSH2 0xD0C JUMPI DUP1 PUSH4 0xC44337B4 EQ PUSH2 0xE16 JUMPI DUP1 PUSH4 0xC45A0155 EQ PUSH2 0xDEB JUMPI DUP1 PUSH4 0xC7E284B8 EQ PUSH2 0xDC9 JUMPI DUP1 PUSH4 0xC884EF83 EQ PUSH2 0xD8C JUMPI DUP1 PUSH4 0xCAB29010 EQ PUSH2 0xD71 JUMPI DUP1 PUSH4 0xCC3CBD2A EQ PUSH2 0xD56 JUMPI DUP1 PUSH4 0xCE9BF5AC EQ PUSH2 0xD2E JUMPI DUP1 PUSH4 0xCF09E0D0 EQ PUSH2 0xD11 JUMPI DUP1 PUSH4 0xD161C6A3 EQ PUSH2 0xD0C JUMPI DUP1 PUSH4 0xD4D7B19A EQ PUSH2 0xCCF JUMPI DUP1 PUSH4 0xD79875EB EQ PUSH2 0x8CC JUMPI DUP1 PUSH4 0xD7A1A5B9 EQ PUSH2 0x896 JUMPI DUP1 PUSH4 0xD96A094A EQ PUSH2 0x416 JUMPI DUP1 PUSH4 0xDDEE1EE2 EQ PUSH2 0x3D9 JUMPI DUP1 PUSH4 0xE3758A32 EQ PUSH2 0x3BE JUMPI DUP1 PUSH4 0xEC5AE7E8 EQ PUSH2 0x3A3 JUMPI PUSH4 0xECADC3B0 EQ PUSH2 0x382 JUMPI PUSH0 PUSH2 0xF JUMP JUMPDEST CALLVALUE PUSH2 0x39F JUMPI PUSH0 CALLDATASIZE PUSH1 0x3 NOT ADD SLT PUSH2 0x39F JUMPI PUSH1 0x20 PUSH1 0x21 SLOAD PUSH1 0x40 MLOAD SWAP1 DUP2 MSTORE RETURN JUMPDEST PUSH0 DUP1 REVERT JUMPDEST CALLVALUE PUSH2 0x39F JUMPI PUSH0 CALLDATASIZE PUSH1 0x3 NOT ADD SLT PUSH2 0x39F JUMPI PUSH1 0x20 PUSH1 0x40 MLOAD PUSH1 0x2 DUP2 MSTORE RETURN JUMPDEST CALLVALUE PUSH2 0x39F JUMPI PUSH0 CALLDATASIZE PUSH1 0x3 NOT ADD SLT PUSH2 0x39F JUMPI PUSH1 0x20 PUSH1 0x40 MLOAD PUSH1 0xA DUP2 MSTORE RETURN JUMPDEST CALLVALUE PUSH2 0x39F JUMPI PUSH1 0x20 CALLDATASIZE PUSH1 0x3 NOT ADD SLT PUSH2 0x39F JUMPI PUSH1 0x1 PUSH1 0x1 PUSH1 0xA0 SHL SUB PUSH2 0x3FA PUSH2 0x3088 JUMP JUMPDEST AND PUSH0 MSTORE PUSH1 0x24 PUSH1 0x20 MSTORE PUSH1 0x20 PUSH1 0xFF PUSH1 0x40 PUSH0 KECCAK256 SLOAD AND PUSH1 0x40 MLOAD SWAP1 ISZERO ISZERO DUP2 MSTORE RETURN JUMPDEST PUSH1 0x20 CALLDATASIZE PUSH1 0x3 NOT ADD SLT PUSH2 0x39F JUMPI PUSH2 0x42A PUSH2 0x345D JUMP JUMPDEST PUSH2 0x437 PUSH1 0x6 SLOAD TIMESTAMP LT PUSH2 0x32A2 JUMP JUMPDEST PUSH2 0x446 PUSH1 0xFF PUSH1 0x18 SLOAD AND ISZERO PUSH2 0x3266 JUMP JUMPDEST PUSH7 0x2386F26FC10000 CALLVALUE LT PUSH2 0x85E JUMPI CALLER PUSH0 MSTORE PUSH1 0x13 PUSH1 0x20 MSTORE PUSH1 0x40 PUSH0 KECCAK256 SLOAD PUSH1 0x2 DUP2 ADD DUP1 SWAP2 GT PUSH2 0x6B9 JUMPI NUMBER GT ISZERO PUSH2 0x823 JUMPI CALLER PUSH0 MSTORE PUSH1 0x13 PUSH1 0x20 MSTORE NUMBER PUSH1 0x40 PUSH0 KECCAK256 SSTORE PUSH1 0x64 CALLVALUE MUL CALLVALUE ISZERO SWAP1 CALLVALUE DUP2 DIV PUSH1 0x64 EQ DUP3 OR ISZERO PUSH2 0x6B9 JUMPI PUSH2 0x2710 SWAP1 DIV SWAP1 PUSH1 0x32 CALLVALUE MUL SWAP1 CALLVALUE DUP3 DIV PUSH1 0x32 EQ OR ISZERO PUSH2 0x6B9 JUMPI PUSH2 0x2710 SWAP1 DIV PUSH2 0x4C4 DUP2 PUSH2 0x4BF DUP5 CALLVALUE PUSH2 0x3110 JUMP JUMPDEST PUSH2 0x3110 JUMP JUMPDEST SWAP1 PUSH1 0xC SLOAD PUSH2 0x4D2 DUP4 DUP3 PUSH2 0x366A JUMP JUMPDEST SWAP3 PUSH2 0x4DE DUP5 ISZERO ISZERO PUSH2 0x3336 JUMP JUMPDEST PUSH2 0x4EC PUSH1 0x4 CALLDATALOAD DUP6 LT ISZERO PUSH2 0x32DE JUMP JUMPDEST PUSH12 0x33B2E3C9FD0803CE8000000 PUSH2 0x503 DUP6 DUP5 PUSH2 0x30E6 JUMP JUMPDEST GT PUSH2 0x7E9 JUMPI PUSH1 0x5 SLOAD PUSH1 0x1E DUP2 ADD DUP1 SWAP2 GT PUSH2 0x6B9 JUMPI TIMESTAMP LT PUSH2 0x78E JUMPI JUMPDEST CALLER PUSH0 MSTORE PUSH1 0x10 PUSH1 0x20 MSTORE PUSH11 0x52B7D2DCC80CD2E4000000 PUSH2 0x53F DUP6 PUSH1 0x40 PUSH0 KECCAK256 SLOAD PUSH2 0x30E6 JUMP JUMPDEST GT PUSH2 0x757 JUMPI PUSH2 0x551 DUP5 PUSH2 0x55C SWAP4 PUSH2 0x30E6 JUMP JUMPDEST PUSH1 0xC SSTORE PUSH1 0xD SLOAD PUSH2 0x30E6 JUMP JUMPDEST PUSH1 0xD SSTORE CALLER PUSH0 MSTORE PUSH1 0x10 PUSH1 0x20 MSTORE PUSH1 0x40 PUSH0 KECCAK256 PUSH2 0x576 DUP4 DUP3 SLOAD PUSH2 0x30E6 JUMP JUMPDEST SWAP1 SSTORE CALLER PUSH0 MSTORE PUSH1 0x11 PUSH1 0x20 MSTORE PUSH1 0xFF PUSH1 0x40 PUSH0 KECCAK256 SLOAD AND ISZERO PUSH2 0x6CD JUMPI JUMPDEST PUSH1 0x6 SLOAD PUSH2 0xE0F NOT DUP2 ADD SWAP2 SWAP1 DUP3 GT PUSH2 0x6B9 JUMPI PUSH1 0x1 SWAP4 PUSH32 0xC668488DC690D00C35C03638DF49A1C8A7B63511EBA0F88EEED1BD471719B16 SWAP3 TIMESTAMP LT PUSH2 0x64C JUMPI JUMPDEST PUSH2 0x5DE DUP2 DUP7 DUP1 PUSH1 0xA0 SHL SUB PUSH1 0x8 SLOAD AND PUSH2 0x3596 JUMP JUMPDEST PUSH2 0x5F0 DUP3 DUP7 DUP1 PUSH1 0xA0 SHL SUB DUP8 SLOAD AND PUSH2 0x3596 JUMP JUMPDEST PUSH2 0x636 PUSH1 0xC SLOAD PUSH2 0x602 PUSH1 0x7 SLOAD DUP3 PUSH2 0x3574 JUMP JUMPDEST SWAP1 PUSH1 0x40 MLOAD SWAP5 DUP6 SWAP5 CALLER SWAP9 CALLVALUE SWAP1 DUP8 SWAP3 PUSH1 0xA0 SWAP5 SWAP2 SWAP8 SWAP7 SWAP6 SWAP3 PUSH1 0xC0 DUP6 ADD SWAP9 DUP6 MSTORE PUSH1 0x20 DUP6 ADD MSTORE PUSH1 0x40 DUP5 ADD MSTORE PUSH1 0x60 DUP4 ADD MSTORE PUSH1 0x80 DUP3 ADD MSTORE ADD MSTORE JUMP JUMPDEST SUB SWAP1 LOG3 PUSH1 0x1 PUSH0 MLOAD PUSH1 0x20 PUSH2 0x3843 PUSH0 CODECOPY PUSH0 MLOAD SWAP1 PUSH0 MSTORE SSTORE STOP JUMPDEST CALLER PUSH0 MSTORE PUSH1 0x14 PUSH1 0x20 MSTORE PUSH1 0x40 PUSH0 KECCAK256 PUSH2 0x663 DUP6 DUP3 SLOAD PUSH2 0x30E6 JUMP JUMPDEST SWAP1 SSTORE PUSH2 0x671 DUP5 PUSH1 0x15 SLOAD PUSH2 0x30E6 JUMP JUMPDEST DUP1 PUSH1 0x15 SSTORE CALLER PUSH0 MSTORE PUSH1 0x14 PUSH1 0x20 MSTORE PUSH1 0x40 PUSH0 KECCAK256 SLOAD SWAP1 PUSH1 0x40 MLOAD SWAP2 DUP3 MSTORE PUSH1 0x20 DUP3 ADD MSTORE PUSH32 0x4EE2F082C253BC65E23C22A1E459FE8464D526EFCA135E65F80012A9F908B6F7 PUSH1 0x40 CALLER SWAP3 LOG2 PUSH2 0x5CB JUMP JUMPDEST PUSH4 0x4E487B71 PUSH1 0xE0 SHL PUSH0 MSTORE PUSH1 0x11 PUSH1 0x4 MSTORE PUSH1 0x24 PUSH0 REVERT JUMPDEST PUSH2 0x7D0 PUSH1 0xF SLOAD LT ISZERO PUSH2 0x71C JUMPI CALLER PUSH0 MSTORE PUSH1 0x11 PUSH1 0x20 MSTORE PUSH1 0x40 PUSH0 KECCAK256 PUSH1 0x1 PUSH1 0xFF NOT DUP3 SLOAD AND OR SWAP1 SSTORE PUSH1 0xF SLOAD CALLER PUSH0 MSTORE PUSH1 0x12 PUSH1 0x20 MSTORE PUSH1 0x40 PUSH0 KECCAK256 SSTORE PUSH2 0x709 CALLER PUSH2 0x3374 JUMP JUMPDEST PUSH2 0x714 PUSH1 0xE SLOAD PUSH2 0x33E1 JUMP JUMPDEST PUSH1 0xE SSTORE PUSH2 0x58E JUMP JUMPDEST PUSH1 0x40 MLOAD PUSH3 0x461BCD PUSH1 0xE5 SHL DUP2 MSTORE PUSH1 0x20 PUSH1 0x4 DUP3 ADD MSTORE PUSH1 0x13 PUSH1 0x24 DUP3 ADD MSTORE PUSH19 0x13585E081A1BDB19195C9CC81C995858DA1959 PUSH1 0x6A SHL PUSH1 0x44 DUP3 ADD MSTORE PUSH1 0x64 SWAP1 REVERT JUMPDEST PUSH1 0x40 MLOAD PUSH3 0x461BCD PUSH1 0xE5 SHL DUP2 MSTORE PUSH1 0x20 PUSH1 0x4 DUP3 ADD MSTORE PUSH1 0xF PUSH1 0x24 DUP3 ADD MSTORE PUSH15 0x4D617820686F6C64696E6720313025 PUSH1 0x88 SHL PUSH1 0x44 DUP3 ADD MSTORE PUSH1 0x64 SWAP1 REVERT JUMPDEST CALLER PUSH0 MSTORE PUSH1 0x10 PUSH1 0x20 MSTORE PUSH11 0x84595161401484A000000 PUSH2 0x7B0 DUP6 PUSH1 0x40 PUSH0 KECCAK256 SLOAD PUSH2 0x30E6 JUMP JUMPDEST GT ISZERO PUSH2 0x51D JUMPI PUSH1 0x40 MLOAD PUSH3 0x461BCD PUSH1 0xE5 SHL DUP2 MSTORE PUSH1 0x20 PUSH1 0x4 DUP3 ADD MSTORE PUSH1 0xB PUSH1 0x24 DUP3 ADD MSTORE PUSH11 0x20B73A3496B9B734B832B9 PUSH1 0xA9 SHL PUSH1 0x44 DUP3 ADD MSTORE PUSH1 0x64 SWAP1 REVERT JUMPDEST PUSH1 0x40 MLOAD PUSH3 0x461BCD PUSH1 0xE5 SHL DUP2 MSTORE PUSH1 0x20 PUSH1 0x4 DUP3 ADD MSTORE PUSH1 0x12 PUSH1 0x24 DUP3 ADD MSTORE PUSH18 0x13585E081CDD5C1C1B1E481C995858DA1959 PUSH1 0x72 SHL PUSH1 0x44 DUP3 ADD MSTORE PUSH1 0x64 SWAP1 REVERT JUMPDEST PUSH1 0x40 MLOAD PUSH3 0x461BCD PUSH1 0xE5 SHL DUP2 MSTORE PUSH1 0x20 PUSH1 0x4 DUP3 ADD MSTORE PUSH1 0x13 PUSH1 0x24 DUP3 ADD MSTORE PUSH19 0x42757920636F6F6C646F776E20616374697665 PUSH1 0x68 SHL PUSH1 0x44 DUP3 ADD MSTORE PUSH1 0x64 SWAP1 REVERT JUMPDEST PUSH1 0x40 MLOAD PUSH3 0x461BCD PUSH1 0xE5 SHL DUP2 MSTORE PUSH1 0x20 PUSH1 0x4 DUP3 ADD MSTORE PUSH1 0x10 PUSH1 0x24 DUP3 ADD MSTORE PUSH16 0x26B4B710313ABC90181718189026A7A7 PUSH1 0x81 SHL PUSH1 0x44 DUP3 ADD MSTORE PUSH1 0x64 SWAP1 REVERT JUMPDEST CALLVALUE PUSH2 0x39F JUMPI PUSH1 0x20 CALLDATASIZE PUSH1 0x3 NOT ADD SLT PUSH2 0x39F JUMPI PUSH1 0x4 CALLDATALOAD PUSH1 0x3 DUP2 LT ISZERO PUSH2 0x39F JUMPI PUSH1 0x1E ADD SLOAD PUSH1 0x40 MLOAD PUSH1 0x1 PUSH1 0x1 PUSH1 0xA0 SHL SUB SWAP1 SWAP2 AND DUP2 MSTORE PUSH1 0x20 SWAP1 RETURN JUMPDEST CALLVALUE PUSH2 0x39F JUMPI PUSH1 0x40 CALLDATASIZE PUSH1 0x3 NOT ADD SLT PUSH2 0x39F JUMPI PUSH1 0x4 CALLDATALOAD PUSH2 0x8E8 PUSH2 0x345D JUMP JUMPDEST PUSH2 0x8F7 PUSH1 0xFF PUSH1 0x18 SLOAD AND ISZERO PUSH2 0x3266 JUMP JUMPDEST PUSH1 0x6 SLOAD PUSH2 0x905 DUP2 TIMESTAMP LT PUSH2 0x32A2 JUMP JUMPDEST PUSH2 0xE0F NOT DUP2 ADD SWAP1 DUP2 GT PUSH2 0x6B9 JUMPI TIMESTAMP LT ISZERO PUSH2 0xC8A JUMPI DUP1 ISZERO PUSH2 0xC58 JUMPI CALLER PUSH0 MSTORE PUSH1 0x10 PUSH1 0x20 MSTORE DUP1 PUSH1 0x40 PUSH0 KECCAK256 SLOAD LT PUSH2 0xC1C JUMPI PUSH1 0xC SLOAD SWAP1 PUSH2 0x943 PUSH1 0x7 SLOAD DUP3 DUP5 PUSH2 0x33EF JUMP JUMPDEST PUSH1 0xD SLOAD DUP1 DUP3 GT PUSH2 0xC14 JUMPI JUMPDEST PUSH1 0x64 DUP3 MUL DUP3 ISZERO SWAP1 DUP4 DUP2 DIV PUSH1 0x64 EQ DUP3 OR ISZERO PUSH2 0x6B9 JUMPI PUSH2 0x2710 SWAP1 DIV SWAP3 PUSH1 0x32 DUP2 MUL SWAP2 DUP2 DUP4 DIV PUSH1 0x32 EQ OR ISZERO PUSH2 0x6B9 JUMPI PUSH2 0x2710 PUSH2 0x9AB SWAP3 DIV SWAP3 PUSH2 0x9A3 DUP7 PUSH2 0x994 DUP7 PUSH2 0x4BF DUP10 DUP8 PUSH2 0x3110 JUMP JUMPDEST SWAP9 PUSH2 0x4BF PUSH1 0x24 CALLDATALOAD DUP12 LT ISZERO PUSH2 0x32DE JUMP JUMPDEST PUSH1 0xC SSTORE PUSH2 0x3110 JUMP JUMPDEST PUSH1 0xD SSTORE CALLER PUSH0 MSTORE PUSH1 0x10 PUSH1 0x20 MSTORE PUSH1 0x40 PUSH0 KECCAK256 PUSH2 0x9C5 DUP5 DUP3 SLOAD PUSH2 0x3110 JUMP JUMPDEST SWAP1 SSTORE CALLER PUSH0 MSTORE PUSH1 0x14 PUSH1 0x20 MSTORE PUSH1 0x40 PUSH0 KECCAK256 SLOAD DUP4 GT PUSH0 EQ PUSH2 0xC0E JUMPI CALLER PUSH0 MSTORE PUSH1 0x14 PUSH1 0x20 MSTORE PUSH1 0x40 PUSH0 KECCAK256 SLOAD JUMPDEST DUP1 PUSH2 0xBA0 JUMPI JUMPDEST POP CALLER PUSH0 MSTORE PUSH1 0x10 PUSH1 0x20 MSTORE PUSH1 0x40 PUSH0 KECCAK256 SLOAD ISZERO PUSH2 0xAA2 JUMPI JUMPDEST SWAP1 PUSH0 SWAP4 PUSH2 0x636 PUSH32 0xC668488DC690D00C35C03638DF49A1C8A7B63511EBA0F88EEED1BD471719B16 SWAP4 PUSH2 0xA40 DUP5 PUSH1 0x1 DUP1 PUSH1 0xA0 SHL SUB PUSH1 0x8 SLOAD AND PUSH2 0x3596 JUMP JUMPDEST PUSH1 0x1 SLOAD PUSH2 0xA57 SWAP1 DUP3 SWAP1 PUSH1 0x1 PUSH1 0x1 PUSH1 0xA0 SHL SUB AND PUSH2 0x3596 JUMP JUMPDEST PUSH2 0xA61 DUP4 CALLER PUSH2 0x34D9 JUMP JUMPDEST PUSH1 0xC SLOAD PUSH2 0xA70 PUSH1 0x7 SLOAD DUP3 PUSH2 0x3574 JUMP JUMPDEST SWAP2 PUSH1 0x40 MLOAD SWAP6 DUP7 SWAP6 CALLER SWAP10 DUP8 SWAP3 PUSH1 0xA0 SWAP5 SWAP2 SWAP8 SWAP7 SWAP6 SWAP3 PUSH1 0xC0 DUP6 ADD SWAP9 DUP6 MSTORE PUSH1 0x20 DUP6 ADD MSTORE PUSH1 0x40 DUP5 ADD MSTORE PUSH1 0x60 DUP4 ADD MSTORE PUSH1 0x80 DUP3 ADD MSTORE ADD MSTORE JUMP JUMPDEST SWAP1 CALLER PUSH0 MSTORE PUSH1 0x12 PUSH1 0x20 MSTORE PUSH1 0x40 PUSH0 KECCAK256 SLOAD PUSH1 0xF SLOAD PUSH0 NOT DUP2 ADD SWAP1 DUP2 GT PUSH2 0x6B9 JUMPI DUP1 DUP3 SUB PUSH2 0xB41 JUMPI JUMPDEST POP POP PUSH1 0xF SLOAD DUP1 ISZERO PUSH2 0xB2D JUMPI PUSH0 NOT ADD PUSH2 0xADD DUP2 PUSH2 0x331E JUMP JUMPDEST DUP2 SLOAD SWAP1 PUSH1 0x1 DUP1 PUSH1 0xA0 SHL SUB SWAP1 PUSH1 0x3 SHL SHL NOT AND SWAP1 SSTORE PUSH1 0xF SSTORE CALLER PUSH0 MSTORE PUSH1 0x11 PUSH1 0x20 MSTORE PUSH1 0x40 PUSH0 KECCAK256 PUSH1 0xFF NOT DUP2 SLOAD AND SWAP1 SSTORE CALLER PUSH0 MSTORE PUSH1 0x12 PUSH1 0x20 MSTORE PUSH0 PUSH1 0x40 DUP2 KECCAK256 SSTORE PUSH1 0xE SLOAD SWAP4 DUP5 ISZERO PUSH2 0x6B9 JUMPI PUSH0 NOT SWAP1 SWAP5 ADD PUSH1 0xE SSTORE SWAP1 PUSH2 0xA04 JUMP JUMPDEST PUSH4 0x4E487B71 PUSH1 0xE0 SHL PUSH0 MSTORE PUSH1 0x31 PUSH1 0x4 MSTORE PUSH1 0x24 PUSH0 REVERT JUMPDEST PUSH2 0xB4A SWAP1 PUSH2 0x331E JUMP JUMPDEST SWAP1 SLOAD PUSH1 0x3 SWAP2 SWAP1 SWAP2 SHL SHR PUSH1 0x1 PUSH1 0x1 PUSH1 0xA0 SHL SUB AND PUSH2 0xB8D DUP2 PUSH2 0xB69 DUP5 PUSH2 0x331E JUMP JUMPDEST DUP2 SLOAD PUSH1 0x1 PUSH1 0x1 PUSH1 0xA0 SHL SUB SWAP4 DUP5 AND PUSH1 0x3 SWAP3 SWAP1 SWAP3 SHL SWAP2 DUP3 SHL SWAP4 SWAP1 SWAP2 SHL NOT AND SWAP2 SWAP1 SWAP2 OR SWAP1 SSTORE JUMP JUMPDEST PUSH0 MSTORE PUSH1 0x12 PUSH1 0x20 MSTORE PUSH1 0x40 PUSH0 KECCAK256 SSTORE DUP5 DUP1 PUSH2 0xAC6 JUMP JUMPDEST PUSH2 0xBC5 SWAP1 CALLER PUSH0 MSTORE PUSH1 0x14 PUSH1 0x20 MSTORE PUSH1 0x40 PUSH0 KECCAK256 PUSH2 0xBBB DUP3 DUP3 SLOAD PUSH2 0x3110 JUMP JUMPDEST SWAP1 SSTORE PUSH1 0x15 SLOAD PUSH2 0x3110 JUMP JUMPDEST DUP1 PUSH1 0x15 SSTORE CALLER PUSH0 MSTORE PUSH1 0x14 PUSH1 0x20 MSTORE PUSH1 0x40 PUSH0 KECCAK256 SLOAD SWAP1 PUSH1 0x40 MLOAD SWAP2 DUP3 MSTORE PUSH1 0x20 DUP3 ADD MSTORE PUSH32 0x4EE2F082C253BC65E23C22A1E459FE8464D526EFCA135E65F80012A9F908B6F7 PUSH1 0x40 CALLER SWAP3 LOG2 DUP5 PUSH2 0x9F0 JUMP JUMPDEST DUP3 PUSH2 0x9EA JUMP JUMPDEST SWAP1 POP DUP1 PUSH2 0x94E JUMP JUMPDEST PUSH1 0x40 MLOAD PUSH3 0x461BCD PUSH1 0xE5 SHL DUP2 MSTORE PUSH1 0x20 PUSH1 0x4 DUP3 ADD MSTORE PUSH1 0x14 PUSH1 0x24 DUP3 ADD MSTORE PUSH20 0x496E73756666696369656E742062616C616E6365 PUSH1 0x60 SHL PUSH1 0x44 DUP3 ADD MSTORE PUSH1 0x64 SWAP1 REVERT JUMPDEST PUSH1 0x40 MLOAD PUSH3 0x461BCD PUSH1 0xE5 SHL DUP2 MSTORE PUSH1 0x20 PUSH1 0x4 DUP3 ADD MSTORE PUSH1 0xA PUSH1 0x24 DUP3 ADD MSTORE PUSH10 0x416D6F756E74203E203 PUSH1 0xB4 SHL PUSH1 0x44 DUP3 ADD MSTORE PUSH1 0x64 SWAP1 REVERT JUMPDEST PUSH1 0x40 MLOAD PUSH3 0x461BCD PUSH1 0xE5 SHL DUP2 MSTORE PUSH1 0x20 PUSH1 0x4 DUP3 ADD MSTORE PUSH1 0x18 PUSH1 0x24 DUP3 ADD MSTORE PUSH32 0x53656C6C20636C6F73656420696E206C61737420686F75720000000000000000 PUSH1 0x44 DUP3 ADD MSTORE PUSH1 0x64 SWAP1 REVERT JUMPDEST CALLVALUE PUSH2 0x39F JUMPI PUSH1 0x20 CALLDATASIZE PUSH1 0x3 NOT ADD SLT PUSH2 0x39F JUMPI PUSH1 0x1 PUSH1 0x1 PUSH1 0xA0 SHL SUB PUSH2 0xCF0 PUSH2 0x3088 JUMP JUMPDEST AND PUSH0 MSTORE PUSH1 0x11 PUSH1 0x20 MSTORE PUSH1 0x20 PUSH1 0xFF PUSH1 0x40 PUSH0 KECCAK256 SLOAD AND PUSH1 0x40 MLOAD SWAP1 ISZERO ISZERO DUP2 MSTORE RETURN JUMPDEST PUSH2 0x30CB JUMP JUMPDEST CALLVALUE PUSH2 0x39F JUMPI PUSH0 CALLDATASIZE PUSH1 0x3 NOT ADD SLT PUSH2 0x39F JUMPI PUSH1 0x20 PUSH1 0x5 SLOAD PUSH1 0x40 MLOAD SWAP1 DUP2 MSTORE RETURN JUMPDEST CALLVALUE PUSH2 0x39F JUMPI PUSH0 CALLDATASIZE PUSH1 0x3 NOT ADD SLT PUSH2 0x39F JUMPI PUSH1 0x9 SLOAD PUSH1 0x40 MLOAD PUSH1 0x1 PUSH1 0x1 PUSH1 0xA0 SHL SUB SWAP1 SWAP2 AND DUP2 MSTORE PUSH1 0x20 SWAP1 RETURN JUMPDEST CALLVALUE PUSH2 0x39F JUMPI PUSH0 CALLDATASIZE PUSH1 0x3 NOT ADD SLT PUSH2 0x39F JUMPI PUSH1 0x20 PUSH1 0x40 MLOAD PUSH1 0x32 DUP2 MSTORE RETURN JUMPDEST CALLVALUE PUSH2 0x39F JUMPI PUSH0 CALLDATASIZE PUSH1 0x3 NOT ADD SLT PUSH2 0x39F JUMPI PUSH1 0x20 PUSH1 0x40 MLOAD PUSH1 0x1E DUP2 MSTORE RETURN JUMPDEST CALLVALUE PUSH2 0x39F JUMPI PUSH1 0x20 CALLDATASIZE PUSH1 0x3 NOT ADD SLT PUSH2 0x39F JUMPI PUSH1 0x1 PUSH1 0x1 PUSH1 0xA0 SHL SUB PUSH2 0xDAD PUSH2 0x3088 JUMP JUMPDEST AND PUSH0 MSTORE PUSH1 0x23 PUSH1 0x20 MSTORE PUSH1 0x20 PUSH1 0xFF PUSH1 0x40 PUSH0 KECCAK256 SLOAD AND PUSH1 0x40 MLOAD SWAP1 ISZERO ISZERO DUP2 MSTORE RETURN JUMPDEST CALLVALUE PUSH2 0x39F JUMPI PUSH0 CALLDATASIZE PUSH1 0x3 NOT ADD SLT PUSH2 0x39F JUMPI PUSH1 0x20 PUSH2 0xDE3 PUSH2 0x324D JUMP JUMPDEST PUSH1 0x40 MLOAD SWAP1 DUP2 MSTORE RETURN JUMPDEST CALLVALUE PUSH2 0x39F JUMPI PUSH0 CALLDATASIZE PUSH1 0x3 NOT ADD SLT PUSH2 0x39F JUMPI PUSH0 SLOAD PUSH1 0x40 MLOAD PUSH1 0x8 SWAP2 SWAP1 SWAP2 SHR PUSH1 0x1 PUSH1 0x1 PUSH1 0xA0 SHL SUB AND DUP2 MSTORE PUSH1 0x20 SWAP1 RETURN JUMPDEST CALLVALUE PUSH2 0x39F JUMPI PUSH0 CALLDATASIZE PUSH1 0x3 NOT ADD SLT PUSH2 0x39F JUMPI PUSH2 0xE2E PUSH2 0x345D JUMP JUMPDEST PUSH2 0xE3F PUSH1 0xFF PUSH1 0x18 SLOAD PUSH1 0x8 SHR AND PUSH2 0x311D JUMP JUMPDEST PUSH1 0x25 SLOAD PUSH1 0xFF DUP2 AND PUSH2 0xF33 JUMPI PUSH1 0x1A SLOAD PUSH3 0x278D00 DUP2 ADD DUP1 SWAP2 GT PUSH2 0x6B9 JUMPI TIMESTAMP LT PUSH2 0xEF7 JUMPI PUSH1 0xFF NOT AND PUSH1 0x1 OR PUSH1 0x25 SSTORE PUSH1 0x17 SLOAD SELFBALANCE SWAP1 DUP1 DUP3 GT ISZERO PUSH2 0xEEF JUMPI PUSH2 0xE80 SWAP2 PUSH2 0x3110 JUMP JUMPDEST DUP1 PUSH2 0xE99 JUMPI JUMPDEST PUSH1 0x1 PUSH0 MLOAD PUSH1 0x20 PUSH2 0x3843 PUSH0 CODECOPY PUSH0 MLOAD SWAP1 PUSH0 MSTORE SSTORE STOP JUMPDEST PUSH1 0x8 SLOAD PUSH2 0xEB0 SWAP1 DUP3 SWAP1 PUSH1 0x1 PUSH1 0x1 PUSH1 0xA0 SHL SUB AND PUSH2 0x3596 JUMP JUMPDEST PUSH1 0x8 SLOAD PUSH1 0x40 MLOAD SWAP2 DUP3 MSTORE PUSH1 0x1 PUSH1 0x1 PUSH1 0xA0 SHL SUB AND SWAP1 PUSH32 0xFB518729FE519091F8DD997A899A92DCF814CC8101D7181F2B505FB7DAF46076 SWAP1 PUSH1 0x20 SWAP1 LOG2 DUP1 PUSH2 0xE86 JUMP JUMPDEST POP POP PUSH0 PUSH2 0xE80 JUMP JUMPDEST PUSH1 0x40 MLOAD PUSH3 0x461BCD PUSH1 0xE5 SHL DUP2 MSTORE PUSH1 0x20 PUSH1 0x4 DUP3 ADD MSTORE PUSH1 0x14 PUSH1 0x24 DUP3 ADD MSTORE PUSH20 0x111958591B1A5B99481B9BDD081C995858DA1959 PUSH1 0x62 SHL PUSH1 0x44 DUP3 ADD MSTORE PUSH1 0x64 SWAP1 REVERT JUMPDEST PUSH1 0x40 MLOAD PUSH3 0x461BCD PUSH1 0xE5 SHL DUP2 MSTORE PUSH1 0x20 PUSH1 0x4 DUP3 ADD MSTORE PUSH1 0xD PUSH1 0x24 DUP3 ADD MSTORE PUSH13 0x105B1C9958591E481CDDD95C1D PUSH1 0x9A SHL PUSH1 0x44 DUP3 ADD MSTORE PUSH1 0x64 SWAP1 REVERT JUMPDEST CALLVALUE PUSH2 0x39F JUMPI PUSH0 CALLDATASIZE PUSH1 0x3 NOT ADD SLT PUSH2 0x39F JUMPI PUSH1 0x20 PUSH1 0x7 SLOAD PUSH1 0x40 MLOAD SWAP1 DUP2 MSTORE RETURN JUMPDEST PUSH0 CALLDATASIZE PUSH1 0x3 NOT ADD SLT PUSH2 0x39F JUMPI PUSH2 0xF98 PUSH2 0x345D JUMP JUMPDEST PUSH1 0x18 SLOAD PUSH1 0xFF DUP2 AND PUSH2 0x13C3 JUMPI PUSH1 0x6 SLOAD TIMESTAMP LT PUSH2 0x1390 JUMPI PUSH2 0xFF01 PUSH1 0x1 PUSH1 0xB0 SHL SUB NOT AND CALLER PUSH1 0x10 SHL PUSH3 0x10000 PUSH1 0x1 PUSH1 0xB0 SHL SUB AND OR PUSH1 0x1 OR PUSH1 0x18 SSTORE PUSH1 0xC SLOAD PUSH1 0x1B SSTORE PUSH1 0xD SLOAD PUSH8 0x16345785D8A0000 DUP2 LT PUSH2 0x1385 JUMPI PUSH2 0xFF8 PUSH8 0x16345785D8A0000 DUP1 SWAP3 PUSH2 0x3110 JUMP JUMPDEST SWAP1 PUSH2 0x12C DUP3 MUL SWAP2 DUP1 ISZERO SWAP3 DUP2 DUP2 DIV PUSH2 0x12C EQ DUP5 OR ISZERO PUSH2 0x6B9 JUMPI PUSH2 0x2710 SWAP1 DIV SWAP3 PUSH2 0x7D0 DUP3 MUL SWAP1 DUP3 DUP3 DIV PUSH2 0x7D0 EQ OR ISZERO PUSH2 0x6B9 JUMPI DUP4 SWAP2 PUSH2 0x4BF PUSH2 0x2710 PUSH2 0x103E SWAP4 DIV SWAP4 DUP5 SWAP3 PUSH2 0x3110 JUMP JUMPDEST PUSH1 0x1C SSTORE PUSH1 0x1D SSTORE DUP1 PUSH2 0x1375 JUMPI JUMPDEST POP DUP1 PUSH2 0x1359 JUMPI JUMPDEST POP PUSH1 0x1D SLOAD DUP1 ISZERO ISZERO DUP1 PUSH2 0x134E JUMPI JUMPDEST DUP1 PUSH2 0x1343 JUMPI JUMPDEST ISZERO PUSH2 0x1262 JUMPI POP PUSH1 0x9 SLOAD PUSH1 0x40 MLOAD PUSH4 0xCED72F87 PUSH1 0xE0 SHL DUP2 MSTORE SWAP1 PUSH1 0x1 PUSH1 0x1 PUSH1 0xA0 SHL SUB AND PUSH1 0x20 DUP3 PUSH1 0x4 DUP2 DUP5 GAS STATICCALL SWAP2 DUP3 ISZERO PUSH2 0x11DE JUMPI PUSH0 SWAP3 PUSH2 0x122E JUMPI JUMPDEST POP DUP2 CALLVALUE LT PUSH2 0x11E9 JUMPI PUSH1 0x20 DUP3 SWAP2 PUSH1 0x44 PUSH1 0x40 MLOAD DUP4 DUP2 ADD SWAP1 TIMESTAMP DUP3 MSTORE PREVRANDAO PUSH1 0x40 DUP3 ADD MSTORE CALLER PUSH1 0x60 DUP3 ADD MSTORE ADDRESS PUSH1 0x80 DUP3 ADD MSTORE PUSH1 0x80 DUP2 MSTORE PUSH2 0x10D4 PUSH1 0xA0 DUP3 PUSH2 0x3021 JUMP JUMPDEST MLOAD SWAP1 KECCAK256 PUSH1 0x40 MLOAD SWAP6 DUP7 SWAP4 DUP5 SWAP3 PUSH4 0x19B005E9 PUSH1 0xE2 SHL DUP5 MSTORE ADDRESS PUSH1 0x4 DUP6 ADD MSTORE PUSH1 0x24 DUP5 ADD MSTORE GAS CALL SWAP2 DUP3 ISZERO PUSH2 0x11DE JUMPI PUSH0 SWAP3 PUSH2 0x119A JUMPI JUMPDEST POP PUSH1 0x18 DUP1 SLOAD PUSH8 0xFFFFFFFFFFFFFFFF PUSH1 0xB0 SHL NOT AND PUSH1 0xB0 DUP5 SWAP1 SHL PUSH8 0xFFFFFFFFFFFFFFFF PUSH1 0xB0 SHL AND OR SWAP1 SSTORE PUSH2 0x1136 DUP2 CALLVALUE PUSH2 0x3110 JUMP JUMPDEST DUP1 PUSH2 0x118A JUMPI JUMPDEST POP PUSH1 0x1 PUSH1 0x1 PUSH1 0x40 SHL SUB PUSH1 0x40 MLOAD SWAP3 AND DUP3 MSTORE PUSH1 0x20 DUP3 ADD MSTORE PUSH32 0x879EFE594F9A28292DEC1E98A0569FE8896F904BF51CBD2672D8B5E24712AAA1 PUSH1 0x40 CALLER SWAP3 LOG2 PUSH1 0x1 PUSH0 MLOAD PUSH1 0x20 PUSH2 0x3843 PUSH0 CODECOPY PUSH0 MLOAD SWAP1 PUSH0 MSTORE SSTORE STOP JUMPDEST PUSH2 0x1194 SWAP1 CALLER PUSH2 0x34D9 JUMP JUMPDEST DUP3 PUSH2 0x113C JUMP JUMPDEST SWAP1 SWAP2 POP PUSH1 0x20 DUP2 RETURNDATASIZE PUSH1 0x20 GT PUSH2 0x11D6 JUMPI JUMPDEST DUP2 PUSH2 0x11B6 PUSH1 0x20 SWAP4 DUP4 PUSH2 0x3021 JUMP JUMPDEST DUP2 ADD SUB SLT PUSH2 0x39F JUMPI MLOAD PUSH1 0x1 PUSH1 0x1 PUSH1 0x40 SHL SUB DUP2 AND DUP2 SUB PUSH2 0x39F JUMPI SWAP1 DUP3 PUSH2 0x1104 JUMP JUMPDEST RETURNDATASIZE SWAP2 POP PUSH2 0x11A9 JUMP JUMPDEST PUSH1 0x40 MLOAD RETURNDATASIZE PUSH0 DUP3 RETURNDATACOPY RETURNDATASIZE SWAP1 REVERT JUMPDEST PUSH1 0x40 MLOAD PUSH3 0x461BCD PUSH1 0xE5 SHL DUP2 MSTORE PUSH1 0x20 PUSH1 0x4 DUP3 ADD MSTORE PUSH1 0x1B PUSH1 0x24 DUP3 ADD MSTORE PUSH32 0x496E73756666696369656E742072616E646F6D6E657373206665650000000000 PUSH1 0x44 DUP3 ADD MSTORE PUSH1 0x64 SWAP1 REVERT JUMPDEST SWAP1 SWAP2 POP PUSH1 0x20 DUP2 RETURNDATASIZE PUSH1 0x20 GT PUSH2 0x125A JUMPI JUMPDEST DUP2 PUSH2 0x124A PUSH1 0x20 SWAP4 DUP4 PUSH2 0x3021 JUMP JUMPDEST DUP2 ADD SUB SLT PUSH2 0x39F JUMPI MLOAD SWAP1 DUP3 PUSH2 0x109B JUMP JUMPDEST RETURNDATASIZE SWAP2 POP PUSH2 0x123D JUMP JUMPDEST PUSH2 0x126E SWAP1 PUSH1 0x1C SLOAD PUSH2 0x30E6 JUMP JUMPDEST PUSH1 0x1C SSTORE PUSH0 PUSH1 0x1D SSTORE CALLVALUE PUSH2 0x1334 JUMPI JUMPDEST PUSH2 0x100 PUSH2 0xFF00 NOT PUSH1 0x18 SLOAD AND OR PUSH1 0x18 SSTORE PUSH0 PUSH1 0x19 SSTORE TIMESTAMP PUSH1 0x1A SSTORE PUSH1 0x1C SLOAD PUSH1 0x1D SLOAD PUSH1 0x40 MLOAD SWAP2 DUP3 MSTORE PUSH1 0x20 DUP3 ADD MSTORE PUSH1 0x40 DUP2 ADD PUSH1 0x1E SWAP1 PUSH0 SWAP1 JUMPDEST PUSH1 0x3 DUP3 LT PUSH2 0x1314 JUMPI POP POP POP PUSH1 0xA0 PUSH32 0xA66B5799020C9A7C7892F91D807F3D3CCF2AE87EE57036A3B2209CE45D4AB8E7 SWAP2 LOG1 PUSH1 0x40 MLOAD PUSH0 DUP2 MSTORE PUSH0 PUSH1 0x20 DUP3 ADD MSTORE PUSH32 0x879EFE594F9A28292DEC1E98A0569FE8896F904BF51CBD2672D8B5E24712AAA1 PUSH1 0x40 CALLER SWAP3 LOG2 PUSH2 0xE86 JUMP JUMPDEST DUP3 SLOAD PUSH1 0x1 PUSH1 0x1 PUSH1 0xA0 SHL SUB AND DUP2 MSTORE PUSH1 0x1 SWAP3 DUP4 ADD SWAP3 SWAP2 SWAP1 SWAP2 ADD SWAP1 PUSH1 0x20 ADD PUSH2 0x12AD JUMP JUMPDEST PUSH2 0x133E CALLVALUE CALLER PUSH2 0x34D9 JUMP JUMPDEST PUSH2 0x127B JUMP JUMPDEST POP PUSH1 0xF SLOAD ISZERO ISZERO PUSH2 0x1064 JUMP JUMPDEST POP PUSH1 0x15 SLOAD ISZERO ISZERO PUSH2 0x105E JUMP JUMPDEST PUSH1 0x8 SLOAD PUSH2 0x136F SWAP2 SWAP1 PUSH1 0x1 PUSH1 0x1 PUSH1 0xA0 SHL SUB AND PUSH2 0x3596 JUMP JUMPDEST DUP1 PUSH2 0x1051 JUMP JUMPDEST PUSH2 0x137F SWAP1 CALLER PUSH2 0x3596 JUMP JUMPDEST DUP2 PUSH2 0x104A JUMP JUMPDEST PUSH2 0xFF8 PUSH0 DUP1 SWAP3 PUSH2 0x3110 JUMP JUMPDEST PUSH1 0x40 MLOAD PUSH3 0x461BCD PUSH1 0xE5 SHL DUP2 MSTORE PUSH1 0x20 PUSH1 0x4 DUP3 ADD MSTORE PUSH1 0xB PUSH1 0x24 DUP3 ADD MSTORE PUSH11 0x139BDD08195E1C1A5C9959 PUSH1 0xAA SHL PUSH1 0x44 DUP3 ADD MSTORE PUSH1 0x64 SWAP1 REVERT JUMPDEST PUSH1 0x40 MLOAD PUSH3 0x461BCD PUSH1 0xE5 SHL DUP2 MSTORE PUSH1 0x20 PUSH1 0x4 DUP3 ADD MSTORE PUSH1 0x11 PUSH1 0x24 DUP3 ADD MSTORE PUSH17 0x105B1C9958591E481C995C5D595CDD1959 PUSH1 0x7A SHL PUSH1 0x44 DUP3 ADD MSTORE PUSH1 0x64 SWAP1 REVERT JUMPDEST CALLVALUE PUSH2 0x39F JUMPI PUSH0 CALLDATASIZE PUSH1 0x3 NOT ADD SLT PUSH2 0x39F JUMPI PUSH1 0x9 SLOAD PUSH1 0x40 MLOAD PUSH4 0xCED72F87 PUSH1 0xE0 SHL DUP2 MSTORE SWAP1 PUSH1 0x20 SWAP1 DUP3 SWAP1 PUSH1 0x4 SWAP1 DUP3 SWAP1 PUSH1 0x1 PUSH1 0x1 PUSH1 0xA0 SHL SUB AND GAS STATICCALL DUP1 ISZERO PUSH2 0x11DE JUMPI PUSH0 SWAP1 PUSH2 0x144A JUMPI JUMPDEST PUSH1 0x20 SWAP1 PUSH1 0x40 MLOAD SWAP1 DUP2 MSTORE RETURN JUMPDEST POP PUSH1 0x20 DUP2 RETURNDATASIZE PUSH1 0x20 GT PUSH2 0x1475 JUMPI JUMPDEST DUP2 PUSH2 0x1464 PUSH1 0x20 SWAP4 DUP4 PUSH2 0x3021 JUMP JUMPDEST DUP2 ADD SUB SLT PUSH2 0x39F JUMPI PUSH1 0x20 SWAP1 MLOAD PUSH2 0x143F JUMP JUMPDEST RETURNDATASIZE SWAP2 POP PUSH2 0x1457 JUMP JUMPDEST CALLVALUE PUSH2 0x39F JUMPI PUSH1 0x20 CALLDATASIZE PUSH1 0x3 NOT ADD SLT PUSH2 0x39F JUMPI PUSH1 0x40 PUSH2 0x14A0 PUSH2 0x149B PUSH2 0x3088 JUMP JUMPDEST PUSH2 0x317C JUMP JUMPDEST DUP3 MLOAD SWAP2 DUP3 MSTORE PUSH1 0x20 DUP3 ADD MSTORE RETURN JUMPDEST CALLVALUE PUSH2 0x39F JUMPI PUSH0 CALLDATASIZE PUSH1 0x3 NOT ADD SLT PUSH2 0x39F JUMPI PUSH1 0x20 PUSH1 0x6 SLOAD PUSH1 0x40 MLOAD SWAP1 DUP2 MSTORE RETURN JUMPDEST CALLVALUE PUSH2 0x39F JUMPI PUSH0 CALLDATASIZE PUSH1 0x3 NOT ADD SLT PUSH2 0x39F JUMPI PUSH1 0x20 PUSH2 0xDE3 PUSH1 0xC SLOAD PUSH1 0x7 SLOAD SWAP1 PUSH2 0x3574 JUMP JUMPDEST CALLVALUE PUSH2 0x39F JUMPI PUSH0 CALLDATASIZE PUSH1 0x3 NOT ADD SLT PUSH2 0x39F JUMPI PUSH1 0x20 PUSH1 0x40 MLOAD PUSH2 0x1EFB DUP2 MSTORE RETURN JUMPDEST CALLVALUE PUSH2 0x39F JUMPI PUSH0 CALLDATASIZE PUSH1 0x3 NOT ADD SLT PUSH2 0x39F JUMPI PUSH1 0x20 PUSH1 0xD SLOAD PUSH1 0x40 MLOAD SWAP1 DUP2 MSTORE RETURN JUMPDEST CALLVALUE PUSH2 0x39F JUMPI PUSH0 CALLDATASIZE PUSH1 0x3 NOT ADD SLT PUSH2 0x39F JUMPI PUSH1 0x40 MLOAD PUSH0 PUSH1 0x3 SLOAD PUSH2 0x1543 DUP2 PUSH2 0x2FE9 JUMP JUMPDEST DUP1 DUP5 MSTORE SWAP1 PUSH1 0x1 DUP2 AND SWAP1 DUP2 ISZERO PUSH2 0x15C6 JUMPI POP PUSH1 0x1 EQ PUSH2 0x157B JUMPI JUMPDEST PUSH2 0x1577 DUP4 PUSH2 0x156B DUP2 DUP6 SUB DUP3 PUSH2 0x3021 JUMP JUMPDEST PUSH1 0x40 MLOAD SWAP2 DUP3 SWAP2 DUP3 PUSH2 0x3042 JUMP JUMPDEST SUB SWAP1 RETURN JUMPDEST PUSH1 0x3 PUSH0 SWAP1 DUP2 MSTORE PUSH0 MLOAD PUSH1 0x20 PUSH2 0x3803 PUSH0 CODECOPY PUSH0 MLOAD SWAP1 PUSH0 MSTORE SWAP4 SWAP3 POP SWAP1 JUMPDEST DUP1 DUP3 LT PUSH2 0x15AC JUMPI POP SWAP1 SWAP2 POP DUP2 ADD PUSH1 0x20 ADD PUSH2 0x156B PUSH2 0x155B JUMP JUMPDEST SWAP2 SWAP3 PUSH1 0x1 DUP2 PUSH1 0x20 SWAP3 SLOAD DUP4 DUP6 DUP9 ADD ADD MSTORE ADD SWAP2 ADD SWAP1 SWAP3 SWAP2 PUSH2 0x1594 JUMP JUMPDEST PUSH1 0xFF NOT AND PUSH1 0x20 DUP1 DUP7 ADD SWAP2 SWAP1 SWAP2 MSTORE SWAP2 ISZERO ISZERO PUSH1 0x5 SHL DUP5 ADD SWAP1 SWAP2 ADD SWAP2 POP PUSH2 0x156B SWAP1 POP PUSH2 0x155B JUMP JUMPDEST PUSH2 0x140 CALLDATASIZE PUSH1 0x3 NOT ADD SLT PUSH2 0x39F JUMPI PUSH2 0x15FF PUSH2 0x3088 JUMP JUMPDEST PUSH1 0x24 CALLDATALOAD PUSH1 0x1 PUSH1 0x1 PUSH1 0x40 SHL SUB DUP2 GT PUSH2 0x39F JUMPI PUSH2 0x161E SWAP1 CALLDATASIZE SWAP1 PUSH1 0x4 ADD PUSH2 0x309E JUMP JUMPDEST SWAP2 SWAP1 PUSH1 0x44 CALLDATALOAD PUSH1 0x1 PUSH1 0x1 PUSH1 0x40 SHL SUB DUP2 GT PUSH2 0x39F JUMPI PUSH2 0x163F SWAP1 CALLDATASIZE SWAP1 PUSH1 0x4 ADD PUSH2 0x309E JUMP JUMPDEST SWAP4 PUSH1 0x64 CALLDATALOAD PUSH1 0x1 PUSH1 0x1 PUSH1 0x40 SHL SUB DUP2 GT PUSH2 0x39F JUMPI PUSH2 0x165F SWAP1 CALLDATASIZE SWAP1 PUSH1 0x4 ADD PUSH2 0x309E JUMP JUMPDEST SWAP1 SWAP6 PUSH1 0xA4 CALLDATALOAD SWAP4 SWAP2 PUSH1 0xC4 CALLDATALOAD PUSH1 0x1 PUSH1 0x1 PUSH1 0xA0 SHL SUB DUP2 AND SWAP3 PUSH1 0x84 CALLDATALOAD SWAP3 SWAP2 DUP5 SWAP1 SUB PUSH2 0x39F JUMPI PUSH1 0xE4 CALLDATALOAD PUSH1 0x1 PUSH1 0x1 PUSH1 0xA0 SHL SUB DUP2 AND SWAP6 SWAP1 DUP7 SWAP1 SUB PUSH2 0x39F JUMPI PUSH2 0x104 CALLDATALOAD PUSH1 0x1 PUSH1 0x1 PUSH1 0xA0 SHL SUB DUP2 AND SWAP8 SWAP1 DUP9 SWAP1 SUB PUSH2 0x39F JUMPI PUSH0 SLOAD SWAP10 PUSH1 0xFF DUP12 AND PUSH2 0x1E76 JUMPI PUSH2 0x5460 DUP7 EQ DUP1 ISZERO PUSH2 0x1E6B JUMPI JUMPDEST DUP1 ISZERO PUSH2 0x1E5F JUMPI JUMPDEST ISZERO PUSH2 0x1E27 JUMPI PUSH1 0x1 PUSH1 0x1 PUSH1 0xA0 SHL SUB DUP13 AND SWAP11 DUP12 ISZERO PUSH2 0x1DF0 JUMPI DUP8 ISZERO PUSH2 0x1DB8 JUMPI DUP9 ISZERO PUSH2 0x1D73 JUMPI DUP11 ISZERO PUSH2 0x1D42 JUMPI PUSH1 0x1 PUSH1 0x1 PUSH1 0xA8 SHL SUB NOT AND CALLER PUSH1 0x8 SHL PUSH2 0x100 PUSH1 0x1 PUSH1 0xA8 SHL SUB AND OR PUSH1 0x1 SWAP1 DUP2 OR PUSH0 SSTORE DUP1 SLOAD PUSH1 0x1 PUSH1 0x1 PUSH1 0xA0 SHL SUB NOT AND DUP13 OR SWAP1 SSTORE PUSH1 0x1 PUSH1 0x1 PUSH1 0x40 SHL SUB DUP3 GT PUSH2 0x1B4E JUMPI DUP2 SWAP1 PUSH2 0x173E PUSH1 0x2 SLOAD PUSH2 0x2FE9 JUMP JUMPDEST PUSH1 0x1F DUP2 GT PUSH2 0x1CD0 JUMPI JUMPDEST POP PUSH0 SWAP1 PUSH1 0x1F DUP4 GT PUSH1 0x1 EQ PUSH2 0x1C5D JUMPI PUSH0 SWAP3 PUSH2 0x1C52 JUMPI JUMPDEST POP POP DUP2 PUSH1 0x1 SHL SWAP2 PUSH0 NOT SWAP1 PUSH1 0x3 SHL SHR NOT AND OR PUSH1 0x2 SSTORE JUMPDEST PUSH1 0x1 PUSH1 0x1 PUSH1 0x40 SHL SUB DUP3 GT PUSH2 0x1B4E JUMPI DUP2 SWAP1 PUSH2 0x178C PUSH1 0x3 SLOAD PUSH2 0x2FE9 JUMP JUMPDEST PUSH1 0x1F DUP2 GT PUSH2 0x1BE0 JUMPI JUMPDEST POP PUSH0 SWAP1 PUSH1 0x1F DUP4 GT PUSH1 0x1 EQ PUSH2 0x1B6D JUMPI PUSH0 SWAP3 PUSH2 0x1B62 JUMPI JUMPDEST POP POP DUP2 PUSH1 0x1 SHL SWAP2 PUSH0 NOT SWAP1 PUSH1 0x3 SHL SHR NOT AND OR PUSH1 0x3 SSTORE JUMPDEST PUSH1 0x1 PUSH1 0x1 PUSH1 0x40 SHL SUB DUP2 GT PUSH2 0x1B4E JUMPI PUSH2 0x17D8 PUSH1 0x4 SLOAD PUSH2 0x2FE9 JUMP JUMPDEST PUSH1 0x1F DUP2 GT PUSH2 0x1AE6 JUMPI JUMPDEST POP PUSH0 PUSH1 0x1F DUP3 GT PUSH1 0x1 EQ PUSH2 0x1A70 JUMPI SWAP1 DUP1 PUSH2 0x181E SWAP4 SWAP3 DUP10 SWAP11 SWAP12 PUSH0 SWAP3 PUSH2 0x1A65 JUMPI JUMPDEST POP POP DUP2 PUSH1 0x1 SHL SWAP2 PUSH0 NOT SWAP1 PUSH1 0x3 SHL SHR NOT AND OR PUSH1 0x4 SSTORE JUMPDEST TIMESTAMP PUSH1 0x5 SSTORE TIMESTAMP PUSH2 0x30E6 JUMP JUMPDEST SWAP4 DUP5 PUSH1 0x6 SSTORE PUSH1 0x7 SSTORE PUSH1 0x1 PUSH1 0x1 PUSH1 0x60 SHL SUB PUSH1 0xA0 SHL PUSH1 0x8 SLOAD AND OR PUSH1 0x8 SSTORE PUSH1 0x1 PUSH1 0x1 PUSH1 0x60 SHL SUB PUSH1 0xA0 SHL PUSH1 0x9 SLOAD AND OR PUSH1 0x9 SSTORE PUSH1 0x1 PUSH1 0x1 PUSH1 0x60 SHL SUB PUSH1 0xA0 SHL PUSH1 0xA SLOAD AND OR PUSH1 0xA SSTORE NUMBER PUSH1 0xB SSTORE PUSH1 0x40 MLOAD SWAP1 DUP2 MSTORE PUSH32 0x10F27652C1015195CA7E6BC9B4C724CBF18E91C42117D92124703A3F49BB240F PUSH1 0x20 CALLER SWAP3 LOG3 CALLVALUE ISZERO SWAP2 DUP3 ISZERO PUSH2 0x189A JUMPI STOP JUMPDEST PUSH1 0x64 CALLVALUE MUL CALLVALUE DUP2 DIV PUSH1 0x64 EQ DUP5 OR ISZERO PUSH2 0x6B9 JUMPI PUSH2 0x2710 SWAP1 DIV SWAP3 PUSH1 0x32 CALLVALUE MUL SWAP1 CALLVALUE DUP3 DIV PUSH1 0x32 EQ OR ISZERO PUSH2 0x6B9 JUMPI PUSH2 0x2710 SWAP1 DIV SWAP3 PUSH2 0x18D6 DUP5 PUSH2 0x4BF DUP4 CALLVALUE PUSH2 0x3110 JUMP JUMPDEST PUSH2 0x18DF DUP2 PUSH2 0x35CE JUMP JUMPDEST SWAP1 PUSH2 0x18EB DUP3 ISZERO ISZERO PUSH2 0x3336 JUMP JUMPDEST PUSH2 0x18FA PUSH2 0x124 CALLDATALOAD DUP4 LT ISZERO PUSH2 0x32DE JUMP JUMPDEST PUSH12 0x29009752660AD62AF800000 DUP3 GT PUSH2 0x1A20 JUMPI DUP6 PUSH2 0x19DA PUSH1 0x1 SWAP8 PUSH32 0xC668488DC690D00C35C03638DF49A1C8A7B63511EBA0F88EEED1BD471719B16 SWAP7 PUSH2 0x1A1B SWAP5 DUP7 PUSH1 0xC SSTORE PUSH1 0xD SSTORE DUP9 PUSH0 MSTORE PUSH1 0x10 PUSH1 0x20 MSTORE DUP6 PUSH1 0x40 PUSH0 KECCAK256 SSTORE DUP9 PUSH0 MSTORE PUSH1 0x11 PUSH1 0x20 MSTORE PUSH1 0x40 PUSH0 KECCAK256 DUP11 PUSH1 0xFF NOT DUP3 SLOAD AND OR SWAP1 SSTORE DUP9 PUSH0 MSTORE PUSH1 0x12 PUSH1 0x20 MSTORE PUSH0 PUSH1 0x40 DUP2 KECCAK256 SSTORE PUSH2 0x197C DUP2 PUSH2 0x3374 JUMP JUMPDEST DUP10 PUSH1 0xE SSTORE DUP9 PUSH0 MSTORE PUSH1 0x14 PUSH1 0x20 MSTORE DUP6 PUSH1 0x40 PUSH0 KECCAK256 SSTORE DUP6 PUSH1 0x15 SSTORE DUP9 PUSH32 0x4EE2F082C253BC65E23C22A1E459FE8464D526EFCA135E65F80012A9F908B6F7 PUSH1 0x40 DUP1 MLOAD DUP10 DUP2 MSTORE DUP10 PUSH1 0x20 DUP3 ADD MSTORE LOG2 PUSH2 0x19D5 DUP8 DUP12 DUP1 PUSH1 0xA0 SHL SUB PUSH1 0x8 SLOAD AND PUSH2 0x3596 JUMP JUMPDEST PUSH2 0x3596 JUMP JUMPDEST PUSH1 0xC SLOAD PUSH2 0x19E9 PUSH1 0x7 SLOAD DUP3 PUSH2 0x3574 JUMP JUMPDEST SWAP2 PUSH1 0x40 MLOAD SWAP6 DUP7 SWAP6 CALLVALUE SWAP1 DUP8 SWAP3 PUSH1 0xA0 SWAP5 SWAP2 SWAP8 SWAP7 SWAP6 SWAP3 PUSH1 0xC0 DUP6 ADD SWAP9 DUP6 MSTORE PUSH1 0x20 DUP6 ADD MSTORE PUSH1 0x40 DUP5 ADD MSTORE PUSH1 0x60 DUP4 ADD MSTORE PUSH1 0x80 DUP3 ADD MSTORE ADD MSTORE JUMP JUMPDEST SUB SWAP1 LOG3 STOP JUMPDEST PUSH1 0x40 MLOAD PUSH3 0x461BCD PUSH1 0xE5 SHL DUP2 MSTORE PUSH1 0x20 PUSH1 0x4 DUP3 ADD MSTORE PUSH1 0x1A PUSH1 0x24 DUP3 ADD MSTORE PUSH32 0x496E697469616C2062757920657863656564732037392E333125000000000000 PUSH1 0x44 DUP3 ADD MSTORE PUSH1 0x64 SWAP1 REVERT JUMPDEST ADD CALLDATALOAD SWAP1 POP DUP12 DUP1 PUSH2 0x17FF JUMP JUMPDEST PUSH1 0x1F NOT DUP3 AND SWAP1 PUSH1 0x4 PUSH0 MSTORE PUSH0 MLOAD PUSH1 0x20 PUSH2 0x3823 PUSH0 CODECOPY PUSH0 MLOAD SWAP1 PUSH0 MSTORE SWAP2 PUSH0 JUMPDEST DUP2 DUP2 LT PUSH2 0x1ACE JUMPI POP SWAP2 DUP10 SWAP11 SWAP12 DUP5 SWAP3 PUSH2 0x181E SWAP7 SWAP6 PUSH1 0x1 SWAP6 LT PUSH2 0x1AB5 JUMPI JUMPDEST POP POP POP DUP2 SHL ADD PUSH1 0x4 SSTORE PUSH2 0x1814 JUMP JUMPDEST ADD CALLDATALOAD PUSH0 NOT PUSH1 0x3 DUP5 SWAP1 SHL PUSH1 0xF8 AND SHR NOT AND SWAP1 SSTORE DUP12 DUP1 DUP1 PUSH2 0x1AA7 JUMP JUMPDEST SWAP2 SWAP3 PUSH1 0x20 PUSH1 0x1 DUP2 SWAP3 DUP16 DUP8 ADD CALLDATALOAD DUP2 SSTORE ADD SWAP5 ADD SWAP3 ADD PUSH2 0x1A8B JUMP JUMPDEST PUSH1 0x4 PUSH0 MSTORE PUSH1 0x1F DUP3 ADD PUSH1 0x5 SHR PUSH0 MLOAD PUSH1 0x20 PUSH2 0x3823 PUSH0 CODECOPY PUSH0 MLOAD SWAP1 PUSH0 MSTORE ADD SWAP1 PUSH1 0x20 DUP4 LT PUSH2 0x1B39 JUMPI JUMPDEST PUSH1 0x1F ADD PUSH1 0x5 SHR PUSH0 MLOAD PUSH1 0x20 PUSH2 0x3823 PUSH0 CODECOPY PUSH0 MLOAD SWAP1 PUSH0 MSTORE ADD SWAP1 JUMPDEST DUP2 DUP2 LT PUSH2 0x1B2E JUMPI POP PUSH2 0x17E1 JUMP JUMPDEST PUSH0 DUP2 SSTORE PUSH1 0x1 ADD PUSH2 0x1B21 JUMP JUMPDEST PUSH0 MLOAD PUSH1 0x20 PUSH2 0x3823 PUSH0 CODECOPY PUSH0 MLOAD SWAP1 PUSH0 MSTORE SWAP2 POP PUSH2 0x1B0A JUMP JUMPDEST PUSH4 0x4E487B71 PUSH1 0xE0 SHL PUSH0 MSTORE PUSH1 0x41 PUSH1 0x4 MSTORE PUSH1 0x24 PUSH0 REVERT JUMPDEST ADD CALLDATALOAD SWAP1 POP DUP12 DUP1 PUSH2 0x17AA JUMP JUMPDEST SWAP1 SWAP2 POP PUSH1 0x1F NOT DUP4 AND SWAP2 PUSH1 0x3 PUSH0 MSTORE PUSH0 MLOAD PUSH1 0x20 PUSH2 0x3803 PUSH0 CODECOPY PUSH0 MLOAD SWAP1 PUSH0 MSTORE SWAP3 PUSH0 JUMPDEST DUP2 DUP2 LT PUSH2 0x1BC8 JUMPI POP SWAP1 DUP5 PUSH1 0x1 SWAP6 SWAP5 SWAP4 SWAP3 LT PUSH2 0x1BAF JUMPI JUMPDEST POP POP POP DUP2 SHL ADD PUSH1 0x3 SSTORE PUSH2 0x17BF JUMP JUMPDEST ADD CALLDATALOAD PUSH0 NOT PUSH1 0x3 DUP5 SWAP1 SHL PUSH1 0xF8 AND SHR NOT AND SWAP1 SSTORE DUP12 DUP1 DUP1 PUSH2 0x1BA1 JUMP JUMPDEST SWAP2 SWAP4 PUSH1 0x20 PUSH1 0x1 DUP2 SWAP3 DUP8 DUP8 ADD CALLDATALOAD DUP2 SSTORE ADD SWAP6 ADD SWAP3 ADD PUSH2 0x1B8B JUMP JUMPDEST SWAP1 SWAP2 POP PUSH1 0x3 PUSH0 MSTORE PUSH1 0x1F DUP4 ADD PUSH1 0x5 SHR PUSH0 MLOAD PUSH1 0x20 PUSH2 0x3803 PUSH0 CODECOPY PUSH0 MLOAD SWAP1 PUSH0 MSTORE ADD SWAP1 PUSH1 0x20 DUP5 LT PUSH2 0x1C3D JUMPI JUMPDEST SWAP1 PUSH1 0x1F DUP5 SWAP4 SWAP3 ADD PUSH1 0x5 SHR PUSH0 MLOAD PUSH1 0x20 PUSH2 0x3803 PUSH0 CODECOPY PUSH0 MLOAD SWAP1 PUSH0 MSTORE ADD SWAP1 JUMPDEST DUP2 DUP2 LT PUSH2 0x1C2F JUMPI POP PUSH2 0x1795 JUMP JUMPDEST PUSH0 DUP2 SSTORE DUP5 SWAP4 POP PUSH1 0x1 ADD PUSH2 0x1C22 JUMP JUMPDEST PUSH0 MLOAD PUSH1 0x20 PUSH2 0x3803 PUSH0 CODECOPY PUSH0 MLOAD SWAP1 PUSH0 MSTORE SWAP2 POP PUSH2 0x1C07 JUMP JUMPDEST ADD CALLDATALOAD SWAP1 POP DUP14 DUP1 PUSH2 0x175C JUMP JUMPDEST SWAP1 SWAP2 POP PUSH1 0x1F NOT DUP4 AND SWAP2 PUSH1 0x2 PUSH0 MSTORE PUSH0 MLOAD PUSH1 0x20 PUSH2 0x37E3 PUSH0 CODECOPY PUSH0 MLOAD SWAP1 PUSH0 MSTORE SWAP3 PUSH0 JUMPDEST DUP2 DUP2 LT PUSH2 0x1CB8 JUMPI POP SWAP1 DUP5 PUSH1 0x1 SWAP6 SWAP5 SWAP4 SWAP3 LT PUSH2 0x1C9F JUMPI JUMPDEST POP POP POP DUP2 SHL ADD PUSH1 0x2 SSTORE PUSH2 0x1771 JUMP JUMPDEST ADD CALLDATALOAD PUSH0 NOT PUSH1 0x3 DUP5 SWAP1 SHL PUSH1 0xF8 AND SHR NOT AND SWAP1 SSTORE DUP14 DUP1 DUP1 PUSH2 0x1C91 JUMP JUMPDEST SWAP2 SWAP4 PUSH1 0x20 PUSH1 0x1 DUP2 SWAP3 DUP8 DUP8 ADD CALLDATALOAD DUP2 SSTORE ADD SWAP6 ADD SWAP3 ADD PUSH2 0x1C7B JUMP JUMPDEST SWAP1 SWAP2 POP PUSH1 0x2 PUSH0 MSTORE PUSH1 0x1F DUP4 ADD PUSH1 0x5 SHR PUSH0 MLOAD PUSH1 0x20 PUSH2 0x37E3 PUSH0 CODECOPY PUSH0 MLOAD SWAP1 PUSH0 MSTORE ADD SWAP1 PUSH1 0x20 DUP5 LT PUSH2 0x1D2D JUMPI JUMPDEST SWAP1 PUSH1 0x1F DUP5 SWAP4 SWAP3 ADD PUSH1 0x5 SHR PUSH0 MLOAD PUSH1 0x20 PUSH2 0x37E3 PUSH0 CODECOPY PUSH0 MLOAD SWAP1 PUSH0 MSTORE ADD SWAP1 JUMPDEST DUP2 DUP2 LT PUSH2 0x1D1F JUMPI POP PUSH2 0x1747 JUMP JUMPDEST PUSH0 DUP2 SSTORE DUP5 SWAP4 POP PUSH1 0x1 ADD PUSH2 0x1D12 JUMP JUMPDEST PUSH0 MLOAD PUSH1 0x20 PUSH2 0x37E3 PUSH0 CODECOPY PUSH0 MLOAD SWAP1 PUSH0 MSTORE SWAP2 POP PUSH2 0x1CF7 JUMP JUMPDEST PUSH1 0x40 MLOAD PUSH3 0x461BCD PUSH1 0xE5 SHL DUP2 MSTORE PUSH1 0x20 PUSH1 0x4 DUP3 ADD MSTORE PUSH1 0x9 PUSH1 0x24 DUP3 ADD MSTORE PUSH9 0x496E76616C6964206B PUSH1 0xB8 SHL PUSH1 0x44 DUP3 ADD MSTORE PUSH1 0x64 SWAP1 REVERT JUMPDEST PUSH1 0x40 MLOAD PUSH3 0x461BCD PUSH1 0xE5 SHL DUP2 MSTORE PUSH1 0x20 PUSH1 0x4 DUP3 ADD MSTORE PUSH1 0x1B PUSH1 0x24 DUP3 ADD MSTORE PUSH32 0x496E76616C69642072616E646F6D6E6573732070726F76696465720000000000 PUSH1 0x44 DUP3 ADD MSTORE PUSH1 0x64 SWAP1 REVERT JUMPDEST PUSH1 0x40 MLOAD PUSH3 0x461BCD PUSH1 0xE5 SHL DUP2 MSTORE PUSH1 0x20 PUSH1 0x4 DUP3 ADD MSTORE PUSH1 0x10 PUSH1 0x24 DUP3 ADD MSTORE PUSH16 0x496E76616C6964207472656173757279 PUSH1 0x80 SHL PUSH1 0x44 DUP3 ADD MSTORE PUSH1 0x64 SWAP1 REVERT JUMPDEST PUSH1 0x40 MLOAD PUSH3 0x461BCD PUSH1 0xE5 SHL DUP2 MSTORE PUSH1 0x20 PUSH1 0x4 DUP3 ADD MSTORE PUSH1 0xF PUSH1 0x24 DUP3 ADD MSTORE PUSH15 0x24B73B30B634B21031B932B0BA37B9 PUSH1 0x89 SHL PUSH1 0x44 DUP3 ADD MSTORE PUSH1 0x64 SWAP1 REVERT JUMPDEST PUSH1 0x40 MLOAD PUSH3 0x461BCD PUSH1 0xE5 SHL DUP2 MSTORE PUSH1 0x20 PUSH1 0x4 DUP3 ADD MSTORE PUSH1 0x10 PUSH1 0x24 DUP3 ADD MSTORE PUSH16 0x24B73B30B634B210323AB930BA34B7B7 PUSH1 0x81 SHL PUSH1 0x44 DUP3 ADD MSTORE PUSH1 0x64 SWAP1 REVERT JUMPDEST POP PUSH3 0x15180 DUP7 EQ PUSH2 0x16CB JUMP JUMPDEST POP PUSH2 0xA8C0 DUP7 EQ PUSH2 0x16C4 JUMP JUMPDEST PUSH1 0x40 MLOAD PUSH3 0x461BCD PUSH1 0xE5 SHL DUP2 MSTORE PUSH1 0x20 PUSH1 0x4 DUP3 ADD MSTORE PUSH1 0x13 PUSH1 0x24 DUP3 ADD MSTORE PUSH19 0x105B1C9958591E481A5B9A5D1A585B1A5E9959 PUSH1 0x6A SHL PUSH1 0x44 DUP3 ADD MSTORE PUSH1 0x64 SWAP1 REVERT JUMPDEST CALLVALUE PUSH2 0x39F JUMPI PUSH1 0x40 CALLDATASIZE PUSH1 0x3 NOT ADD SLT PUSH2 0x39F JUMPI PUSH1 0x4 CALLDATALOAD PUSH1 0x1 PUSH1 0x1 PUSH1 0x40 SHL SUB DUP2 AND DUP1 SWAP2 SUB PUSH2 0x39F JUMPI PUSH1 0x9 SLOAD PUSH1 0x24 CALLDATALOAD SWAP2 SWAP1 PUSH1 0x1 PUSH1 0x1 PUSH1 0xA0 SHL SUB AND CALLER SUB PUSH2 0x2280 JUMPI PUSH1 0x18 SLOAD PUSH1 0xFF DUP2 AND DUP1 PUSH2 0x2272 JUMPI JUMPDEST ISZERO PUSH2 0x2241 JUMPI PUSH1 0xB0 SHR PUSH1 0x1 PUSH1 0x1 PUSH1 0x40 SHL SUB AND SUB PUSH2 0x220D JUMPI PUSH2 0x100 PUSH2 0xFF00 NOT PUSH1 0x18 SLOAD AND OR PUSH1 0x18 SSTORE DUP1 PUSH1 0x19 SSTORE TIMESTAMP PUSH1 0x1A SSTORE DUP1 ISZERO ISZERO DUP1 PUSH2 0x2202 JUMPI JUMPDEST DUP1 PUSH2 0x21F7 JUMPI JUMPDEST DUP1 PUSH2 0x21EC JUMPI JUMPDEST PUSH2 0x1FAC JUMPI JUMPDEST POP PUSH1 0x1C SLOAD PUSH1 0x1D SLOAD PUSH1 0x40 MLOAD SWAP2 DUP3 MSTORE PUSH1 0x20 DUP3 ADD MSTORE PUSH1 0x40 DUP2 ADD PUSH1 0x1E SWAP1 PUSH0 SWAP1 JUMPDEST PUSH1 0x3 DUP3 LT PUSH2 0x1F8C JUMPI PUSH32 0xA66B5799020C9A7C7892F91D807F3D3CCF2AE87EE57036A3B2209CE45D4AB8E7 PUSH1 0xA0 DUP6 LOG1 STOP JUMPDEST DUP3 SLOAD PUSH1 0x1 PUSH1 0x1 PUSH1 0xA0 SHL SUB AND DUP2 MSTORE PUSH1 0x1 SWAP3 DUP4 ADD SWAP3 SWAP2 SWAP1 SWAP2 ADD SWAP1 PUSH1 0x20 ADD PUSH2 0x1F5D JUMP JUMPDEST PUSH1 0x15 SLOAD PUSH1 0xA DUP2 MUL SWAP1 DUP1 DUP3 DIV PUSH1 0xA EQ SWAP1 ISZERO OR ISZERO PUSH2 0x6B9 JUMPI PUSH2 0x2710 SWAP1 DIV SWAP1 DUP2 ISZERO PUSH2 0x21E3 JUMPI JUMPDEST PUSH1 0xF SLOAD SWAP1 PUSH0 SWAP2 PUSH0 PUSH0 JUMPDEST DUP3 DUP2 LT PUSH2 0x2182 JUMPI POP DUP1 ISZERO ISZERO DUP1 PUSH2 0x2179 JUMPI JUMPDEST ISZERO PUSH2 0x215A JUMPI DUP1 PUSH1 0x3 GT PUSH0 EQ PUSH2 0x2151 JUMPI SWAP3 JUMPDEST PUSH0 JUMPDEST DUP5 DUP2 LT PUSH2 0x2053 JUMPI POP POP POP POP PUSH2 0x2030 SWAP2 POP DUP1 PUSH1 0x21 SSTORE PUSH2 0x202A PUSH1 0x1D SLOAD SWAP2 PUSH2 0x2021 DUP2 DUP5 PUSH2 0x3106 JUMP JUMPDEST DUP1 PUSH1 0x22 SSTORE PUSH2 0x30F3 JUMP JUMPDEST SWAP1 PUSH2 0x3110 JUMP JUMPDEST DUP1 PUSH2 0x203E JUMPI JUMPDEST POP JUMPDEST DUP1 PUSH2 0x1F41 JUMP JUMPDEST PUSH2 0x204A SWAP1 PUSH1 0x1C SLOAD PUSH2 0x30E6 JUMP JUMPDEST PUSH1 0x1C SSTORE DUP1 PUSH2 0x2036 JUMP JUMPDEST PUSH1 0x40 MLOAD PUSH1 0x20 DUP2 ADD SWAP1 DUP6 DUP3 MSTORE DUP3 PUSH1 0x40 DUP3 ADD MSTORE PUSH1 0x40 DUP2 MSTORE PUSH2 0x2073 PUSH1 0x60 DUP3 PUSH2 0x3021 JUMP JUMPDEST MLOAD SWAP1 KECCAK256 DUP3 ISZERO PUSH2 0x213D JUMPI DUP3 SWAP1 MOD PUSH0 SWAP1 PUSH0 JUMPDEST DUP6 DUP2 LT PUSH2 0x2096 JUMPI JUMPDEST POP POP POP PUSH1 0x1 ADD PUSH2 0x1FFC JUMP JUMPDEST PUSH2 0x209F DUP2 PUSH2 0x331E JUMP JUMPDEST SWAP1 SLOAD PUSH1 0x3 SWAP2 SWAP1 SWAP2 SHL SHR PUSH1 0x1 PUSH1 0x1 PUSH1 0xA0 SHL SUB AND PUSH0 DUP2 DUP2 MSTORE PUSH1 0x14 PUSH1 0x20 MSTORE PUSH1 0x40 SWAP1 KECCAK256 SLOAD SWAP1 SWAP4 DUP11 DUP3 LT PUSH2 0x2132 JUMPI SWAP1 PUSH2 0x20D2 SWAP2 PUSH2 0x30E6 JUMP JUMPDEST SWAP3 DUP3 DUP5 GT PUSH2 0x20E5 JUMPI POP PUSH1 0x1 SWAP1 JUMPDEST ADD PUSH2 0x2083 JUMP JUMPDEST SWAP4 SWAP3 POP POP POP PUSH1 0x3 DUP2 LT ISZERO PUSH2 0x211E JUMPI PUSH1 0x1E DUP2 ADD DUP1 SLOAD PUSH1 0x1 PUSH1 0x1 PUSH1 0xA0 SHL SUB NOT AND PUSH1 0x1 PUSH1 0x1 PUSH1 0xA0 SHL SUB SWAP1 SWAP4 AND SWAP3 SWAP1 SWAP3 OR SWAP1 SWAP2 SSTORE PUSH1 0x1 DUP8 DUP1 PUSH2 0x208B JUMP JUMPDEST PUSH4 0x4E487B71 PUSH1 0xE0 SHL PUSH0 MSTORE PUSH1 0x32 PUSH1 0x4 MSTORE PUSH1 0x24 PUSH0 REVERT JUMPDEST SWAP4 POP POP PUSH1 0x1 SWAP1 PUSH2 0x20DF JUMP JUMPDEST PUSH4 0x4E487B71 PUSH1 0xE0 SHL PUSH0 MSTORE PUSH1 0x12 PUSH1 0x4 MSTORE PUSH1 0x24 PUSH0 REVERT JUMPDEST POP PUSH1 0x3 SWAP3 PUSH2 0x1FFA JUMP JUMPDEST POP POP POP POP POP PUSH2 0x216D PUSH1 0x1D SLOAD PUSH1 0x1C SLOAD PUSH2 0x30E6 JUMP JUMPDEST PUSH1 0x1C SSTORE PUSH0 PUSH1 0x1D SSTORE PUSH2 0x2038 JUMP JUMPDEST POP DUP4 ISZERO ISZERO PUSH2 0x1FE9 JUMP JUMPDEST PUSH2 0x218B DUP2 PUSH2 0x331E JUMP JUMPDEST PUSH1 0x1 DUP1 PUSH1 0xA0 SHL SUB SWAP2 SLOAD SWAP1 PUSH1 0x3 SHL SHR AND DUP1 PUSH0 MSTORE PUSH1 0x14 PUSH1 0x20 MSTORE DUP7 PUSH1 0x40 PUSH0 KECCAK256 SLOAD LT ISZERO PUSH2 0x21B8 JUMPI JUMPDEST POP PUSH1 0x1 ADD PUSH2 0x1FD8 JUMP JUMPDEST PUSH2 0x21D6 PUSH1 0x1 SWAP3 SWAP4 SWAP7 PUSH2 0x21DC SWAP3 PUSH0 MSTORE PUSH1 0x14 PUSH1 0x20 MSTORE PUSH1 0x40 PUSH0 KECCAK256 SLOAD SWAP1 PUSH2 0x30E6 JUMP JUMPDEST SWAP6 PUSH2 0x33E1 JUMP JUMPDEST SWAP2 SWAP1 PUSH2 0x21AF JUMP JUMPDEST PUSH1 0x1 SWAP2 POP PUSH2 0x1FCF JUMP JUMPDEST POP PUSH1 0x1D SLOAD ISZERO ISZERO PUSH2 0x1F3C JUMP JUMPDEST POP PUSH1 0xF SLOAD ISZERO ISZERO PUSH2 0x1F36 JUMP JUMPDEST POP PUSH1 0x15 SLOAD ISZERO ISZERO PUSH2 0x1F30 JUMP JUMPDEST PUSH1 0x40 MLOAD PUSH3 0x461BCD PUSH1 0xE5 SHL DUP2 MSTORE PUSH1 0x20 PUSH1 0x4 DUP3 ADD MSTORE PUSH1 0xC PUSH1 0x24 DUP3 ADD MSTORE PUSH12 0x4261642073657175656E6365 PUSH1 0xA0 SHL PUSH1 0x44 DUP3 ADD MSTORE PUSH1 0x64 SWAP1 REVERT JUMPDEST PUSH1 0x40 MLOAD PUSH3 0x461BCD PUSH1 0xE5 SHL DUP2 MSTORE PUSH1 0x20 PUSH1 0x4 DUP3 ADD MSTORE PUSH1 0x9 PUSH1 0x24 DUP3 ADD MSTORE PUSH9 0x426164207374617465 PUSH1 0xB8 SHL PUSH1 0x44 DUP3 ADD MSTORE PUSH1 0x64 SWAP1 REVERT JUMPDEST POP PUSH1 0xFF DUP2 PUSH1 0x8 SHR AND ISZERO PUSH2 0x1EFA JUMP JUMPDEST PUSH1 0x40 MLOAD PUSH3 0x461BCD PUSH1 0xE5 SHL DUP2 MSTORE PUSH1 0x20 PUSH1 0x4 DUP3 ADD MSTORE PUSH1 0xC PUSH1 0x24 DUP3 ADD MSTORE PUSH12 0x2737BA10383937BB34B232B9 PUSH1 0xA1 SHL PUSH1 0x44 DUP3 ADD MSTORE PUSH1 0x64 SWAP1 REVERT JUMPDEST CALLVALUE PUSH2 0x39F JUMPI PUSH0 CALLDATASIZE PUSH1 0x3 NOT ADD SLT PUSH2 0x39F JUMPI PUSH1 0x18 SLOAD PUSH1 0x40 MLOAD PUSH1 0x10 SWAP2 SWAP1 SWAP2 SHR PUSH1 0x1 PUSH1 0x1 PUSH1 0xA0 SHL SUB AND DUP2 MSTORE PUSH1 0x20 SWAP1 RETURN JUMPDEST CALLVALUE PUSH2 0x39F JUMPI PUSH0 CALLDATASIZE PUSH1 0x3 NOT ADD SLT PUSH2 0x39F JUMPI PUSH1 0x20 PUSH1 0xFF PUSH1 0x18 SLOAD AND PUSH1 0x40 MLOAD SWAP1 ISZERO ISZERO DUP2 MSTORE RETURN JUMPDEST CALLVALUE PUSH2 0x39F JUMPI PUSH0 CALLDATASIZE PUSH1 0x3 NOT ADD SLT PUSH2 0x39F JUMPI PUSH1 0x20 PUSH1 0x1B SLOAD PUSH1 0x40 MLOAD SWAP1 DUP2 MSTORE RETURN JUMPDEST CALLVALUE PUSH2 0x39F JUMPI PUSH0 CALLDATASIZE PUSH1 0x3 NOT ADD SLT PUSH2 0x39F JUMPI PUSH1 0x20 PUSH1 0x1 PUSH1 0x1 PUSH1 0x40 SHL SUB PUSH1 0x18 SLOAD PUSH1 0xB0 SHR AND PUSH1 0x40 MLOAD SWAP1 DUP2 MSTORE RETURN JUMPDEST CALLVALUE PUSH2 0x39F JUMPI PUSH0 CALLDATASIZE PUSH1 0x3 NOT ADD SLT PUSH2 0x39F JUMPI PUSH1 0x20 PUSH1 0x40 MLOAD PUSH2 0x1E14 DUP2 MSTORE RETURN JUMPDEST CALLVALUE PUSH2 0x39F JUMPI PUSH0 CALLDATASIZE PUSH1 0x3 NOT ADD SLT PUSH2 0x39F JUMPI PUSH1 0x20 PUSH1 0x40 MLOAD PUSH2 0x3E8 DUP2 MSTORE RETURN JUMPDEST CALLVALUE PUSH2 0x39F JUMPI PUSH0 CALLDATASIZE PUSH1 0x3 NOT ADD SLT PUSH2 0x39F JUMPI PUSH1 0x8 SLOAD PUSH1 0x40 MLOAD PUSH1 0x1 PUSH1 0x1 PUSH1 0xA0 SHL SUB SWAP1 SWAP2 AND DUP2 MSTORE PUSH1 0x20 SWAP1 RETURN JUMPDEST CALLVALUE PUSH2 0x39F JUMPI PUSH0 CALLDATASIZE PUSH1 0x3 NOT ADD SLT PUSH2 0x39F JUMPI PUSH1 0x40 MLOAD DUP1 PUSH1 0x20 PUSH1 0xF SLOAD SWAP3 DUP4 DUP2 MSTORE ADD DUP1 SWAP3 PUSH1 0xF PUSH0 MSTORE PUSH32 0x8D1108E10BCB7C27DDDFC02ED9D693A074039D026CF4EA4240B40F7D581AC802 SWAP1 PUSH0 JUMPDEST DUP2 DUP2 LT PUSH2 0x2451 JUMPI POP POP POP DUP2 PUSH2 0x2406 SWAP2 SUB DUP3 PUSH2 0x3021 JUMP JUMPDEST PUSH1 0x40 MLOAD SWAP2 DUP3 SWAP2 PUSH1 0x20 DUP4 ADD SWAP1 PUSH1 0x20 DUP5 MSTORE MLOAD DUP1 SWAP2 MSTORE PUSH1 0x40 DUP4 ADD SWAP2 SWAP1 PUSH0 JUMPDEST DUP2 DUP2 LT PUSH2 0x242F JUMPI POP POP POP SUB SWAP1 RETURN JUMPDEST DUP3 MLOAD PUSH1 0x1 PUSH1 0x1 PUSH1 0xA0 SHL SUB AND DUP5 MSTORE DUP6 SWAP5 POP PUSH1 0x20 SWAP4 DUP5 ADD SWAP4 SWAP1 SWAP3 ADD SWAP2 PUSH1 0x1 ADD PUSH2 0x2421 JUMP JUMPDEST DUP3 SLOAD PUSH1 0x1 PUSH1 0x1 PUSH1 0xA0 SHL SUB AND DUP5 MSTORE PUSH1 0x20 SWAP1 SWAP4 ADD SWAP3 PUSH1 0x1 SWAP3 DUP4 ADD SWAP3 ADD PUSH2 0x23F0 JUMP JUMPDEST CALLVALUE PUSH2 0x39F JUMPI PUSH0 CALLDATASIZE PUSH1 0x3 NOT ADD SLT PUSH2 0x39F JUMPI PUSH1 0x20 PUSH1 0x40 MLOAD PUSH3 0x15180 DUP2 MSTORE RETURN JUMPDEST CALLVALUE PUSH2 0x39F JUMPI PUSH0 CALLDATASIZE PUSH1 0x3 NOT ADD SLT PUSH2 0x39F JUMPI PUSH1 0x20 PUSH1 0x40 MLOAD PUSH2 0x5460 DUP2 MSTORE RETURN JUMPDEST CALLVALUE PUSH2 0x39F JUMPI PUSH1 0x20 CALLDATASIZE PUSH1 0x3 NOT ADD SLT PUSH2 0x39F JUMPI PUSH1 0x1 PUSH1 0x1 PUSH1 0xA0 SHL SUB PUSH2 0x24CA PUSH2 0x3088 JUMP JUMPDEST AND PUSH0 MSTORE PUSH1 0x14 PUSH1 0x20 MSTORE PUSH1 0x20 PUSH1 0x40 PUSH0 KECCAK256 SLOAD PUSH1 0x40 MLOAD SWAP1 DUP2 MSTORE RETURN JUMPDEST CALLVALUE PUSH2 0x39F JUMPI PUSH0 CALLDATASIZE PUSH1 0x3 NOT ADD SLT PUSH2 0x39F JUMPI PUSH1 0x60 DUP1 PUSH1 0x40 MLOAD PUSH2 0x2501 DUP3 DUP3 PUSH2 0x3021 JUMP JUMPDEST CALLDATASIZE SWAP1 CALLDATACOPY PUSH1 0x40 MLOAD PUSH1 0x1E PUSH0 DUP3 JUMPDEST PUSH1 0x3 DUP3 LT PUSH2 0x2555 JUMPI POP POP POP PUSH2 0x2521 DUP3 DUP3 PUSH2 0x3021 JUMP JUMPDEST PUSH1 0x40 MLOAD SWAP1 PUSH0 DUP3 JUMPDEST PUSH1 0x3 DUP3 LT PUSH2 0x2535 JUMPI POP POP POP RETURN JUMPDEST DUP3 MLOAD PUSH1 0x1 PUSH1 0x1 PUSH1 0xA0 SHL SUB AND DUP2 MSTORE PUSH1 0x20 SWAP3 DUP4 ADD SWAP3 PUSH1 0x1 SWAP3 SWAP1 SWAP3 ADD SWAP2 ADD PUSH2 0x2528 JUMP JUMPDEST DUP3 SLOAD PUSH1 0x1 PUSH1 0x1 PUSH1 0xA0 SHL SUB AND DUP2 MSTORE PUSH1 0x1 SWAP3 DUP4 ADD SWAP3 SWAP2 SWAP1 SWAP2 ADD SWAP1 PUSH1 0x20 ADD PUSH2 0x250C JUMP JUMPDEST CALLVALUE PUSH2 0x39F JUMPI PUSH0 CALLDATASIZE PUSH1 0x3 NOT ADD SLT PUSH2 0x39F JUMPI PUSH1 0x20 PUSH1 0xE SLOAD PUSH1 0x40 MLOAD SWAP1 DUP2 MSTORE RETURN JUMPDEST CALLVALUE PUSH2 0x39F JUMPI PUSH0 CALLDATASIZE PUSH1 0x3 NOT ADD SLT PUSH2 0x39F JUMPI PUSH1 0x20 PUSH1 0x15 SLOAD PUSH1 0x40 MLOAD SWAP1 DUP2 MSTORE RETURN JUMPDEST CALLVALUE PUSH2 0x39F JUMPI PUSH0 CALLDATASIZE PUSH1 0x3 NOT ADD SLT PUSH2 0x39F JUMPI PUSH1 0x20 PUSH1 0x19 SLOAD PUSH1 0x40 MLOAD SWAP1 DUP2 MSTORE RETURN JUMPDEST CALLVALUE PUSH2 0x39F JUMPI PUSH0 CALLDATASIZE PUSH1 0x3 NOT ADD SLT PUSH2 0x39F JUMPI PUSH2 0x25E4 PUSH2 0x345D JUMP JUMPDEST PUSH2 0x25F5 PUSH1 0xFF PUSH1 0x18 SLOAD PUSH1 0x8 SHR AND PUSH2 0x311D JUMP JUMPDEST CALLER PUSH0 MSTORE PUSH1 0x23 PUSH1 0x20 MSTORE PUSH1 0xFF PUSH1 0x40 PUSH0 KECCAK256 SLOAD AND PUSH2 0x2738 JUMPI CALLER PUSH0 SWAP1 DUP2 MSTORE PUSH1 0x10 PUSH1 0x20 MSTORE PUSH1 0x40 SWAP1 KECCAK256 SLOAD PUSH1 0x1B SLOAD DUP1 ISZERO PUSH2 0x2730 JUMPI PUSH2 0x2630 PUSH2 0x2635 SWAP3 PUSH1 0x1C SLOAD PUSH2 0x30F3 JUMP JUMPDEST PUSH2 0x3106 JUMP JUMPDEST PUSH0 PUSH0 PUSH1 0x21 SLOAD SWAP1 JUMPDEST DUP2 DUP2 LT PUSH2 0x26F2 JUMPI POP POP PUSH2 0x264F DUP2 DUP4 PUSH2 0x30E6 JUMP JUMPDEST DUP1 ISZERO PUSH2 0x26BA JUMPI PUSH2 0x2676 SWAP1 CALLER PUSH0 MSTORE PUSH1 0x23 PUSH1 0x20 MSTORE PUSH1 0x40 PUSH0 KECCAK256 PUSH1 0x1 PUSH1 0xFF NOT DUP3 SLOAD AND OR SWAP1 SSTORE CALLER PUSH2 0x34D9 JUMP JUMPDEST PUSH1 0x40 MLOAD SWAP2 DUP3 MSTORE PUSH1 0x20 DUP3 ADD MSTORE PUSH32 0x987D620F307FF6B94D58743CB7A7509F24071586A77759B77C2D4E29F75A2F9A PUSH1 0x40 CALLER SWAP3 LOG2 PUSH1 0x1 PUSH0 MLOAD PUSH1 0x20 PUSH2 0x3843 PUSH0 CODECOPY PUSH0 MLOAD SWAP1 PUSH0 MSTORE SSTORE STOP JUMPDEST PUSH1 0x40 MLOAD PUSH3 0x461BCD PUSH1 0xE5 SHL DUP2 MSTORE PUSH1 0x20 PUSH1 0x4 DUP3 ADD MSTORE PUSH1 0x10 PUSH1 0x24 DUP3 ADD MSTORE PUSH16 0x4E6F7468696E6720746F20636C61696D PUSH1 0x80 SHL PUSH1 0x44 DUP3 ADD MSTORE PUSH1 0x64 SWAP1 REVERT JUMPDEST PUSH1 0x3 DUP2 LT ISZERO PUSH2 0x211E JUMPI PUSH1 0x1E DUP2 ADD SLOAD PUSH1 0x1 PUSH1 0x1 PUSH1 0xA0 SHL SUB AND CALLER EQ PUSH2 0x2718 JUMPI JUMPDEST PUSH1 0x1 ADD PUSH2 0x263C JUMP JUMPDEST SWAP2 PUSH2 0x2728 PUSH1 0x1 SWAP2 PUSH1 0x22 SLOAD SWAP1 PUSH2 0x30E6 JUMP JUMPDEST SWAP3 SWAP1 POP PUSH2 0x2710 JUMP JUMPDEST POP POP PUSH0 PUSH2 0x2635 JUMP JUMPDEST PUSH1 0x40 MLOAD PUSH3 0x461BCD PUSH1 0xE5 SHL DUP2 MSTORE PUSH1 0x20 PUSH1 0x4 DUP3 ADD MSTORE PUSH1 0xF PUSH1 0x24 DUP3 ADD MSTORE PUSH15 0x105B1C9958591E4818DB185A5B5959 PUSH1 0x8A SHL PUSH1 0x44 DUP3 ADD MSTORE PUSH1 0x64 SWAP1 REVERT JUMPDEST CALLVALUE PUSH2 0x39F JUMPI PUSH0 CALLDATASIZE PUSH1 0x3 NOT ADD SLT PUSH2 0x39F JUMPI PUSH1 0x20 PUSH1 0x22 SLOAD PUSH1 0x40 MLOAD SWAP1 DUP2 MSTORE RETURN JUMPDEST CALLVALUE PUSH2 0x39F JUMPI PUSH0 CALLDATASIZE PUSH1 0x3 NOT ADD SLT PUSH2 0x39F JUMPI PUSH2 0x27A4 PUSH2 0x345D JUMP JUMPDEST CALLER PUSH0 MSTORE PUSH1 0x16 PUSH1 0x20 MSTORE PUSH1 0x40 PUSH0 KECCAK256 SLOAD DUP1 ISZERO PUSH2 0x281D JUMPI CALLER PUSH0 MSTORE PUSH1 0x16 PUSH1 0x20 MSTORE PUSH0 PUSH1 0x40 DUP2 KECCAK256 SSTORE PUSH2 0x27D1 DUP2 PUSH1 0x17 SLOAD PUSH2 0x3110 JUMP JUMPDEST PUSH1 0x17 SSTORE PUSH2 0x27DE DUP2 CALLER PUSH2 0x34D9 JUMP JUMPDEST PUSH1 0x40 MLOAD SWAP1 DUP2 MSTORE PUSH32 0x78473F3F373F7673597F4F0FA5873CB4D375FEA6D4339AD6B56DBD411513CB3F PUSH1 0x20 CALLER SWAP3 LOG2 PUSH1 0x1 PUSH0 MLOAD PUSH1 0x20 PUSH2 0x3843 PUSH0 CODECOPY PUSH0 MLOAD SWAP1 PUSH0 MSTORE SSTORE STOP JUMPDEST PUSH1 0x40 MLOAD PUSH3 0x461BCD PUSH1 0xE5 SHL DUP2 MSTORE PUSH1 0x20 PUSH1 0x4 DUP3 ADD MSTORE PUSH1 0x7 PUSH1 0x24 DUP3 ADD MSTORE PUSH7 0x4E6F2066656573 PUSH1 0xC8 SHL PUSH1 0x44 DUP3 ADD MSTORE PUSH1 0x64 SWAP1 REVERT JUMPDEST CALLVALUE PUSH2 0x39F JUMPI PUSH0 CALLDATASIZE PUSH1 0x3 NOT ADD SLT PUSH2 0x39F JUMPI PUSH1 0x20 PUSH1 0x40 MLOAD PUSH3 0x278D00 DUP2 MSTORE RETURN JUMPDEST CALLVALUE PUSH2 0x39F JUMPI PUSH0 CALLDATASIZE PUSH1 0x3 NOT ADD SLT PUSH2 0x39F JUMPI PUSH1 0xFF PUSH1 0x18 SLOAD AND ISZERO DUP1 PUSH2 0x2893 JUMPI JUMPDEST PUSH1 0x20 SWAP1 PUSH1 0x40 MLOAD SWAP1 ISZERO ISZERO DUP2 MSTORE RETURN JUMPDEST POP PUSH1 0x6 SLOAD TIMESTAMP LT PUSH2 0x2886 JUMP JUMPDEST CALLVALUE PUSH2 0x39F JUMPI PUSH0 CALLDATASIZE PUSH1 0x3 NOT ADD SLT PUSH2 0x39F JUMPI PUSH1 0x20 PUSH1 0x40 MLOAD PUSH7 0x2386F26FC10000 DUP2 MSTORE RETURN JUMPDEST CALLVALUE PUSH2 0x39F JUMPI PUSH0 CALLDATASIZE PUSH1 0x3 NOT ADD SLT PUSH2 0x39F JUMPI PUSH1 0xA SLOAD PUSH1 0x40 MLOAD PUSH1 0x1 PUSH1 0x1 PUSH1 0xA0 SHL SUB SWAP1 SWAP2 AND DUP2 MSTORE PUSH1 0x20 SWAP1 RETURN JUMPDEST CALLVALUE PUSH2 0x39F JUMPI PUSH0 CALLDATASIZE PUSH1 0x3 NOT ADD SLT PUSH2 0x39F JUMPI PUSH1 0x20 PUSH1 0x1A SLOAD PUSH1 0x40 MLOAD SWAP1 DUP2 MSTORE RETURN JUMPDEST CALLVALUE PUSH2 0x39F JUMPI PUSH1 0x20 CALLDATASIZE PUSH1 0x3 NOT ADD SLT PUSH2 0x39F JUMPI PUSH1 0x1 PUSH1 0x1 PUSH1 0xA0 SHL SUB PUSH2 0x2925 PUSH2 0x3088 JUMP JUMPDEST AND PUSH0 MSTORE PUSH1 0x13 PUSH1 0x20 MSTORE PUSH1 0x20 PUSH1 0x40 PUSH0 KECCAK256 SLOAD PUSH1 0x40 MLOAD SWAP1 DUP2 MSTORE RETURN JUMPDEST CALLVALUE PUSH2 0x39F JUMPI PUSH0 CALLDATASIZE PUSH1 0x3 NOT ADD SLT PUSH2 0x39F JUMPI PUSH1 0x20 PUSH1 0x40 MLOAD PUSH12 0x33B2E3C9FD0803CE8000000 DUP2 MSTORE RETURN JUMPDEST CALLVALUE PUSH2 0x39F JUMPI PUSH0 CALLDATASIZE PUSH1 0x3 NOT ADD SLT PUSH2 0x39F JUMPI PUSH1 0x20 PUSH1 0x1C SLOAD PUSH1 0x40 MLOAD SWAP1 DUP2 MSTORE RETURN JUMPDEST CALLVALUE PUSH2 0x39F JUMPI PUSH0 CALLDATASIZE PUSH1 0x3 NOT ADD SLT PUSH2 0x39F JUMPI PUSH1 0x20 PUSH1 0x40 MLOAD PUSH2 0xE10 DUP2 MSTORE RETURN JUMPDEST CALLVALUE PUSH2 0x39F JUMPI PUSH0 CALLDATASIZE PUSH1 0x3 NOT ADD SLT PUSH2 0x39F JUMPI PUSH1 0x20 PUSH1 0x1D SLOAD PUSH1 0x40 MLOAD SWAP1 DUP2 MSTORE RETURN JUMPDEST CALLVALUE PUSH2 0x39F JUMPI PUSH1 0x20 CALLDATASIZE PUSH1 0x3 NOT ADD SLT PUSH2 0x39F JUMPI PUSH1 0x1 PUSH1 0x1 PUSH1 0xA0 SHL SUB PUSH2 0x29D9 PUSH2 0x3088 JUMP JUMPDEST AND PUSH0 MSTORE PUSH1 0x10 PUSH1 0x20 MSTORE PUSH1 0x20 PUSH1 0x40 PUSH0 KECCAK256 SLOAD PUSH1 0x40 MLOAD SWAP1 DUP2 MSTORE RETURN JUMPDEST CALLVALUE PUSH2 0x39F JUMPI PUSH0 CALLDATASIZE PUSH1 0x3 NOT ADD SLT PUSH2 0x39F JUMPI PUSH1 0x20 PUSH1 0xC SLOAD PUSH1 0x40 MLOAD SWAP1 DUP2 MSTORE RETURN JUMPDEST CALLVALUE PUSH2 0x39F JUMPI PUSH0 CALLDATASIZE PUSH1 0x3 NOT ADD SLT PUSH2 0x39F JUMPI PUSH1 0x20 PUSH2 0x2A27 PUSH2 0x3159 JUMP JUMPDEST PUSH1 0x40 MLOAD SWAP1 ISZERO ISZERO DUP2 MSTORE RETURN JUMPDEST CALLVALUE PUSH2 0x39F JUMPI PUSH1 0x20 CALLDATASIZE PUSH1 0x3 NOT ADD SLT PUSH2 0x39F JUMPI PUSH1 0x1 PUSH1 0x1 PUSH1 0xA0 SHL SUB PUSH2 0x2A52 PUSH2 0x3088 JUMP JUMPDEST AND PUSH0 MSTORE PUSH1 0x16 PUSH1 0x20 MSTORE PUSH1 0x20 PUSH1 0x40 PUSH0 KECCAK256 SLOAD PUSH1 0x40 MLOAD SWAP1 DUP2 MSTORE RETURN JUMPDEST CALLVALUE PUSH2 0x39F JUMPI PUSH0 CALLDATASIZE PUSH1 0x3 NOT ADD SLT PUSH2 0x39F JUMPI PUSH1 0x20 PUSH1 0x40 MLOAD PUSH2 0x2710 DUP2 MSTORE RETURN JUMPDEST PUSH2 0x306C JUMP JUMPDEST CALLVALUE PUSH2 0x39F JUMPI PUSH0 CALLDATASIZE PUSH1 0x3 NOT ADD SLT PUSH2 0x39F JUMPI PUSH1 0x20 PUSH1 0xFF PUSH1 0x25 SLOAD AND PUSH1 0x40 MLOAD SWAP1 ISZERO ISZERO DUP2 MSTORE RETURN JUMPDEST CALLVALUE PUSH2 0x39F JUMPI PUSH0 CALLDATASIZE PUSH1 0x3 NOT ADD SLT PUSH2 0x39F JUMPI PUSH1 0x20 PUSH1 0x40 MLOAD PUSH8 0x16345785D8A0000 DUP2 MSTORE RETURN JUMPDEST CALLVALUE PUSH2 0x39F JUMPI PUSH0 CALLDATASIZE PUSH1 0x3 NOT ADD SLT PUSH2 0x39F JUMPI PUSH2 0x2AE6 PUSH2 0x345D JUMP JUMPDEST PUSH2 0x2AF7 PUSH1 0xFF PUSH1 0x18 SLOAD PUSH1 0x8 SHR AND PUSH2 0x311D JUMP JUMPDEST CALLER PUSH0 MSTORE PUSH1 0x23 PUSH1 0x20 MSTORE PUSH1 0xFF PUSH1 0x40 PUSH0 KECCAK256 SLOAD AND ISZERO PUSH2 0x2D07 JUMPI CALLER PUSH0 MSTORE PUSH1 0x24 PUSH1 0x20 MSTORE PUSH1 0xFF PUSH1 0x40 PUSH0 KECCAK256 SLOAD AND PUSH2 0x2CD1 JUMPI PUSH1 0xA SLOAD PUSH1 0x1 PUSH1 0x1 PUSH1 0xA0 SHL SUB AND ISZERO PUSH2 0x2CA0 JUMPI CALLER PUSH0 SWAP1 DUP2 MSTORE PUSH1 0x24 PUSH1 0x20 SWAP1 DUP2 MSTORE PUSH1 0x40 DUP1 DUP4 KECCAK256 DUP1 SLOAD PUSH1 0xFF NOT AND PUSH1 0x1 OR SWAP1 SSTORE PUSH1 0x10 SWAP1 SWAP2 MSTORE SWAP1 KECCAK256 SLOAD PUSH1 0x1B SLOAD DUP1 ISZERO PUSH2 0x2C99 JUMPI PUSH2 0x2B6E SWAP1 PUSH2 0x2630 DUP4 PUSH1 0x1C SLOAD PUSH2 0x30F3 JUMP JUMPDEST PUSH2 0x2B77 CALLER PUSH2 0x3495 JUMP JUMPDEST SWAP2 DUP3 PUSH2 0x2C48 JUMPI JUMPDEST SWAP1 PUSH1 0xA4 PUSH1 0x20 SWAP3 PUSH0 PUSH1 0x1 DUP1 PUSH1 0xA0 SHL SUB PUSH1 0xA SLOAD AND PUSH1 0x40 MLOAD SWAP7 DUP8 SWAP6 DUP7 SWAP5 PUSH4 0x45FDD691 PUSH1 0xE0 SHL DUP7 MSTORE CALLER PUSH1 0x4 DUP8 ADD MSTORE ADDRESS PUSH1 0x24 DUP8 ADD MSTORE PUSH1 0x44 DUP7 ADD MSTORE PUSH1 0x64 DUP6 ADD MSTORE ISZERO ISZERO PUSH1 0x84 DUP5 ADD MSTORE GAS CALL DUP1 ISZERO PUSH2 0x11DE JUMPI PUSH0 SWAP1 PUSH2 0x2C15 JUMPI JUMPDEST PUSH1 0x20 SWAP1 PUSH1 0x40 MLOAD DUP2 DUP2 MSTORE PUSH32 0x40E0FAD75D161C82D49AF9E03EC076EFA4FF442A3954C75339FD02218374E2DC DUP4 CALLER SWAP3 LOG2 PUSH1 0x1 PUSH0 MLOAD PUSH1 0x20 PUSH2 0x3843 PUSH0 CODECOPY PUSH0 MLOAD SWAP1 PUSH0 MSTORE SSTORE PUSH1 0x40 MLOAD SWAP1 DUP2 MSTORE RETURN JUMPDEST POP PUSH1 0x20 DUP2 RETURNDATASIZE PUSH1 0x20 GT PUSH2 0x2C40 JUMPI JUMPDEST DUP2 PUSH2 0x2C2F PUSH1 0x20 SWAP4 DUP4 PUSH2 0x3021 JUMP JUMPDEST DUP2 ADD SUB SLT PUSH2 0x39F JUMPI PUSH1 0x20 SWAP1 MLOAD PUSH2 0x2BCE JUMP JUMPDEST RETURNDATASIZE SWAP2 POP PUSH2 0x2C22 JUMP JUMPDEST PUSH1 0x21 SLOAD PUSH0 JUMPDEST DUP2 DUP2 LT PUSH2 0x2C5B JUMPI POP POP PUSH2 0x2B7E JUMP JUMPDEST PUSH1 0x3 DUP2 LT ISZERO PUSH2 0x211E JUMPI PUSH1 0x1E DUP2 ADD SLOAD PUSH1 0x1 PUSH1 0x1 PUSH1 0xA0 SHL SUB AND CALLER EQ PUSH2 0x2C81 JUMPI JUMPDEST PUSH1 0x1 ADD PUSH2 0x2C4D JUMP JUMPDEST SWAP3 PUSH2 0x2C91 PUSH1 0x1 SWAP2 PUSH1 0x22 SLOAD SWAP1 PUSH2 0x30E6 JUMP JUMPDEST SWAP4 SWAP1 POP PUSH2 0x2C79 JUMP JUMPDEST POP PUSH0 PUSH2 0x2B6E JUMP JUMPDEST PUSH1 0x40 MLOAD PUSH3 0x461BCD PUSH1 0xE5 SHL DUP2 MSTORE PUSH1 0x20 PUSH1 0x4 DUP3 ADD MSTORE PUSH1 0x9 PUSH1 0x24 DUP3 ADD MSTORE PUSH9 0x4E6F2074726F706879 PUSH1 0xB8 SHL PUSH1 0x44 DUP3 ADD MSTORE PUSH1 0x64 SWAP1 REVERT JUMPDEST PUSH1 0x40 MLOAD PUSH3 0x461BCD PUSH1 0xE5 SHL DUP2 MSTORE PUSH1 0x20 PUSH1 0x4 DUP3 ADD MSTORE PUSH1 0xE PUSH1 0x24 DUP3 ADD MSTORE PUSH14 0x105B1C9958591E481B5A5B9D1959 PUSH1 0x92 SHL PUSH1 0x44 DUP3 ADD MSTORE PUSH1 0x64 SWAP1 REVERT JUMPDEST PUSH1 0x40 MLOAD PUSH3 0x461BCD PUSH1 0xE5 SHL DUP2 MSTORE PUSH1 0x20 PUSH1 0x4 DUP3 ADD MSTORE PUSH1 0xB PUSH1 0x24 DUP3 ADD MSTORE PUSH11 0x10DB185A5B48199A5C9CDD PUSH1 0xAA SHL PUSH1 0x44 DUP3 ADD MSTORE PUSH1 0x64 SWAP1 REVERT JUMPDEST CALLVALUE PUSH2 0x39F JUMPI PUSH0 CALLDATASIZE PUSH1 0x3 NOT ADD SLT PUSH2 0x39F JUMPI PUSH1 0x20 PUSH1 0xB SLOAD PUSH1 0x40 MLOAD SWAP1 DUP2 MSTORE RETURN JUMPDEST CALLVALUE PUSH2 0x39F JUMPI PUSH0 CALLDATASIZE PUSH1 0x3 NOT ADD SLT PUSH2 0x39F JUMPI PUSH1 0x20 PUSH1 0xFF PUSH1 0x18 SLOAD PUSH1 0x8 SHR AND PUSH1 0x40 MLOAD SWAP1 ISZERO ISZERO DUP2 MSTORE RETURN JUMPDEST CALLVALUE PUSH2 0x39F JUMPI PUSH0 CALLDATASIZE PUSH1 0x3 NOT ADD SLT PUSH2 0x39F JUMPI PUSH1 0x40 MLOAD PUSH0 PUSH1 0x4 SLOAD PUSH2 0x2D9C DUP2 PUSH2 0x2FE9 JUMP JUMPDEST DUP1 DUP5 MSTORE SWAP1 PUSH1 0x1 DUP2 AND SWAP1 DUP2 ISZERO PUSH2 0x15C6 JUMPI POP PUSH1 0x1 EQ PUSH2 0x2DC3 JUMPI PUSH2 0x1577 DUP4 PUSH2 0x156B DUP2 DUP6 SUB DUP3 PUSH2 0x3021 JUMP JUMPDEST PUSH1 0x4 PUSH0 SWAP1 DUP2 MSTORE PUSH0 MLOAD PUSH1 0x20 PUSH2 0x3823 PUSH0 CODECOPY PUSH0 MLOAD SWAP1 PUSH0 MSTORE SWAP4 SWAP3 POP SWAP1 JUMPDEST DUP1 DUP3 LT PUSH2 0x2DF4 JUMPI POP SWAP1 SWAP2 POP DUP2 ADD PUSH1 0x20 ADD PUSH2 0x156B PUSH2 0x155B JUMP JUMPDEST SWAP2 SWAP3 PUSH1 0x1 DUP2 PUSH1 0x20 SWAP3 SLOAD DUP4 DUP6 DUP9 ADD ADD MSTORE ADD SWAP2 ADD SWAP1 SWAP3 SWAP2 PUSH2 0x2DDC JUMP JUMPDEST CALLVALUE PUSH2 0x39F JUMPI PUSH0 CALLDATASIZE PUSH1 0x3 NOT ADD SLT PUSH2 0x39F JUMPI PUSH1 0x20 PUSH1 0x17 SLOAD PUSH1 0x40 MLOAD SWAP1 DUP2 MSTORE RETURN JUMPDEST CALLVALUE PUSH2 0x39F JUMPI PUSH0 CALLDATASIZE PUSH1 0x3 NOT ADD SLT PUSH2 0x39F JUMPI PUSH1 0x20 PUSH1 0x40 MLOAD PUSH1 0x3 DUP2 MSTORE RETURN JUMPDEST CALLVALUE PUSH2 0x39F JUMPI PUSH1 0x20 CALLDATASIZE PUSH1 0x3 NOT ADD SLT PUSH2 0x39F JUMPI PUSH8 0xDE0B6B3A7640000 PUSH2 0x2E90 PUSH1 0xC SLOAD PUSH2 0x2E8A PUSH1 0x7 SLOAD SWAP2 PUSH2 0x202A PUSH2 0x2E84 PUSH2 0x2E7F PUSH1 0x4 CALLDATALOAD DUP5 PUSH2 0x30E6 JUMP JUMPDEST PUSH2 0x3748 JUMP JUMPDEST SWAP2 PUSH2 0x3748 JUMP JUMPDEST SWAP1 PUSH2 0x30F3 JUMP JUMPDEST DIV PUSH2 0x2710 DUP2 MUL SWAP1 DUP1 DUP3 DIV PUSH2 0x2710 EQ SWAP1 ISZERO OR ISZERO PUSH2 0x6B9 JUMPI PUSH2 0x267A PUSH1 0x20 SWAP2 DIV PUSH1 0x40 MLOAD SWAP1 DUP2 MSTORE RETURN JUMPDEST CALLVALUE PUSH2 0x39F JUMPI PUSH0 CALLDATASIZE PUSH1 0x3 NOT ADD SLT PUSH2 0x39F JUMPI PUSH1 0x20 PUSH1 0x40 MLOAD PUSH2 0x12C DUP2 MSTORE RETURN JUMPDEST CALLVALUE PUSH2 0x39F JUMPI PUSH0 CALLDATASIZE PUSH1 0x3 NOT ADD SLT PUSH2 0x39F JUMPI PUSH1 0x20 PUSH1 0x40 MLOAD PUSH2 0xA8C0 DUP2 MSTORE RETURN JUMPDEST CALLVALUE PUSH2 0x39F JUMPI PUSH1 0x20 CALLDATASIZE PUSH1 0x3 NOT ADD SLT PUSH2 0x39F JUMPI PUSH2 0x2F11 PUSH1 0xC SLOAD PUSH1 0x7 SLOAD SWAP1 PUSH1 0x4 CALLDATALOAD SWAP1 PUSH2 0x33EF JUMP JUMPDEST PUSH1 0x96 DUP2 MUL DUP2 DUP2 DIV PUSH1 0x96 EQ DUP3 ISZERO OR ISZERO PUSH2 0x6B9 JUMPI PUSH1 0x20 SWAP2 PUSH2 0x2710 PUSH2 0xDE3 SWAP3 DIV SWAP1 PUSH2 0x3110 JUMP JUMPDEST CALLVALUE PUSH2 0x39F JUMPI PUSH0 CALLDATASIZE PUSH1 0x3 NOT ADD SLT PUSH2 0x39F JUMPI PUSH1 0x40 MLOAD PUSH0 PUSH1 0x2 SLOAD PUSH2 0x2F54 DUP2 PUSH2 0x2FE9 JUMP JUMPDEST DUP1 DUP5 MSTORE SWAP1 PUSH1 0x1 DUP2 AND SWAP1 DUP2 ISZERO PUSH2 0x15C6 JUMPI POP PUSH1 0x1 EQ PUSH2 0x2F7B JUMPI PUSH2 0x1577 DUP4 PUSH2 0x156B DUP2 DUP6 SUB DUP3 PUSH2 0x3021 JUMP JUMPDEST PUSH1 0x2 PUSH0 SWAP1 DUP2 MSTORE PUSH0 MLOAD PUSH1 0x20 PUSH2 0x37E3 PUSH0 CODECOPY PUSH0 MLOAD SWAP1 PUSH0 MSTORE SWAP4 SWAP3 POP SWAP1 JUMPDEST DUP1 DUP3 LT PUSH2 0x2FAC JUMPI POP SWAP1 SWAP2 POP DUP2 ADD PUSH1 0x20 ADD PUSH2 0x156B PUSH2 0x155B JUMP JUMPDEST SWAP2 SWAP3 PUSH1 0x1 DUP2 PUSH1 0x20 SWAP3 SLOAD DUP4 DUP6 DUP9 ADD ADD MSTORE ADD SWAP2 ADD SWAP1 SWAP3 SWAP2 PUSH2 0x2F94 JUMP JUMPDEST CALLVALUE PUSH2 0x39F JUMPI PUSH0 CALLDATASIZE PUSH1 0x3 NOT ADD SLT PUSH2 0x39F JUMPI PUSH1 0x1 SLOAD PUSH1 0x1 PUSH1 0x1 PUSH1 0xA0 SHL SUB AND DUP2 MSTORE PUSH1 0x20 SWAP1 RETURN JUMPDEST SWAP1 PUSH1 0x1 DUP3 DUP2 SHR SWAP3 AND DUP1 ISZERO PUSH2 0x3017 JUMPI JUMPDEST PUSH1 0x20 DUP4 LT EQ PUSH2 0x3003 JUMPI JUMP JUMPDEST PUSH4 0x4E487B71 PUSH1 0xE0 SHL PUSH0 MSTORE PUSH1 0x22 PUSH1 0x4 MSTORE PUSH1 0x24 PUSH0 REVERT JUMPDEST SWAP2 PUSH1 0x7F AND SWAP2 PUSH2 0x2FF8 JUMP JUMPDEST SWAP1 PUSH1 0x1F DUP1 NOT SWAP2 ADD AND DUP2 ADD SWAP1 DUP2 LT PUSH1 0x1 PUSH1 0x1 PUSH1 0x40 SHL SUB DUP3 GT OR PUSH2 0x1B4E JUMPI PUSH1 0x40 MSTORE JUMP JUMPDEST PUSH1 0x20 PUSH1 0x40 SWAP3 DUP2 DUP4 MSTORE DUP1 MLOAD SWAP2 DUP3 SWAP2 DUP3 DUP3 DUP7 ADD MSTORE ADD DUP5 DUP5 ADD MCOPY PUSH0 DUP3 DUP3 ADD DUP5 ADD MSTORE PUSH1 0x1F ADD PUSH1 0x1F NOT AND ADD ADD SWAP1 JUMP JUMPDEST CALLVALUE PUSH2 0x39F JUMPI PUSH0 CALLDATASIZE PUSH1 0x3 NOT ADD SLT PUSH2 0x39F JUMPI PUSH1 0x20 PUSH1 0x40 MLOAD PUSH2 0x7D0 DUP2 MSTORE RETURN JUMPDEST PUSH1 0x4 CALLDATALOAD SWAP1 PUSH1 0x1 PUSH1 0x1 PUSH1 0xA0 SHL SUB DUP3 AND DUP3 SUB PUSH2 0x39F JUMPI JUMP JUMPDEST SWAP2 DUP2 PUSH1 0x1F DUP5 ADD SLT ISZERO PUSH2 0x39F JUMPI DUP3 CALLDATALOAD SWAP2 PUSH1 0x1 PUSH1 0x1 PUSH1 0x40 SHL SUB DUP4 GT PUSH2 0x39F JUMPI PUSH1 0x20 DUP4 DUP2 DUP7 ADD SWAP6 ADD ADD GT PUSH2 0x39F JUMPI JUMP JUMPDEST CALLVALUE PUSH2 0x39F JUMPI PUSH0 CALLDATASIZE PUSH1 0x3 NOT ADD SLT PUSH2 0x39F JUMPI PUSH1 0x20 PUSH1 0x40 MLOAD PUSH1 0x64 DUP2 MSTORE RETURN JUMPDEST SWAP2 SWAP1 DUP3 ADD DUP1 SWAP3 GT PUSH2 0x6B9 JUMPI JUMP JUMPDEST DUP2 DUP2 MUL SWAP3 SWAP2 DUP2 ISZERO SWAP2 DUP5 DIV EQ OR ISZERO PUSH2 0x6B9 JUMPI JUMP JUMPDEST DUP2 ISZERO PUSH2 0x213D JUMPI DIV SWAP1 JUMP JUMPDEST SWAP2 SWAP1 DUP3 SUB SWAP2 DUP3 GT PUSH2 0x6B9 JUMPI JUMP JUMPDEST ISZERO PUSH2 0x3124 JUMPI JUMP JUMPDEST PUSH1 0x40 MLOAD PUSH3 0x461BCD PUSH1 0xE5 SHL DUP2 MSTORE PUSH1 0x20 PUSH1 0x4 DUP3 ADD MSTORE PUSH1 0xD PUSH1 0x24 DUP3 ADD MSTORE PUSH13 0x139BDD08199A5B985B1A5E9959 PUSH1 0x9A SHL PUSH1 0x44 DUP3 ADD MSTORE PUSH1 0x64 SWAP1 REVERT JUMPDEST PUSH1 0x6 SLOAD DUP1 TIMESTAMP LT ISZERO PUSH2 0x3177 JUMPI PUSH2 0xE0F NOT DUP2 ADD SWAP1 DUP2 GT PUSH2 0x6B9 JUMPI TIMESTAMP LT ISZERO SWAP1 JUMP JUMPDEST POP PUSH0 SWAP1 JUMP JUMPDEST PUSH0 SWAP2 PUSH0 SWAP2 PUSH1 0xFF PUSH1 0x18 SLOAD PUSH1 0x8 SHR AND ISZERO DUP1 ISZERO PUSH2 0x322C JUMPI JUMPDEST PUSH2 0x3223 JUMPI PUSH1 0x1B SLOAD DUP1 PUSH2 0x31F1 JUMPI JUMPDEST POP PUSH1 0x21 SLOAD PUSH0 JUMPDEST DUP2 DUP2 LT PUSH2 0x31B0 JUMPI POP POP POP JUMP JUMPDEST PUSH1 0x3 DUP2 LT ISZERO PUSH2 0x211E JUMPI PUSH1 0x1E DUP2 ADD SLOAD PUSH1 0x1 PUSH1 0x1 PUSH1 0xA0 SHL SUB DUP5 DUP2 AND SWAP2 AND EQ PUSH2 0x31D9 JUMPI JUMPDEST PUSH1 0x1 ADD PUSH2 0x31A4 JUMP JUMPDEST SWAP4 PUSH2 0x31E9 PUSH1 0x1 SWAP2 PUSH1 0x22 SLOAD SWAP1 PUSH2 0x30E6 JUMP JUMPDEST SWAP5 SWAP1 POP PUSH2 0x31D1 JUMP JUMPDEST PUSH1 0x1C SLOAD PUSH1 0x1 PUSH1 0x1 PUSH1 0xA0 SHL SUB DUP4 AND PUSH0 SWAP1 DUP2 MSTORE PUSH1 0x10 PUSH1 0x20 MSTORE PUSH1 0x40 SWAP1 KECCAK256 SLOAD SWAP3 SWAP6 POP PUSH2 0x321C SWAP3 PUSH2 0x2630 SWAP2 PUSH2 0x30F3 JUMP JUMPDEST SWAP3 PUSH0 PUSH2 0x319E JUMP JUMPDEST POP PUSH0 SWAP3 POP DUP3 SWAP2 POP JUMP JUMPDEST POP PUSH1 0x1 PUSH1 0x1 PUSH1 0xA0 SHL SUB DUP2 AND PUSH0 SWAP1 DUP2 MSTORE PUSH1 0x23 PUSH1 0x20 MSTORE PUSH1 0x40 SWAP1 KECCAK256 SLOAD PUSH1 0xFF AND PUSH2 0x3191 JUMP JUMPDEST PUSH1 0x6 SLOAD DUP1 TIMESTAMP LT ISZERO PUSH2 0x3177 JUMPI PUSH2 0x3263 SWAP1 TIMESTAMP SWAP1 PUSH2 0x3110 JUMP JUMPDEST SWAP1 JUMP JUMPDEST ISZERO PUSH2 0x326D JUMPI JUMP JUMPDEST PUSH1 0x40 MLOAD PUSH3 0x461BCD PUSH1 0xE5 SHL DUP2 MSTORE PUSH1 0x20 PUSH1 0x4 DUP3 ADD MSTORE PUSH1 0xD PUSH1 0x24 DUP3 ADD MSTORE PUSH13 0x44656174682070656E64696E67 PUSH1 0x98 SHL PUSH1 0x44 DUP3 ADD MSTORE PUSH1 0x64 SWAP1 REVERT JUMPDEST ISZERO PUSH2 0x32A9 JUMPI JUMP JUMPDEST PUSH1 0x40 MLOAD PUSH3 0x461BCD PUSH1 0xE5 SHL DUP2 MSTORE PUSH1 0x20 PUSH1 0x4 DUP3 ADD MSTORE PUSH1 0xD PUSH1 0x24 DUP3 ADD MSTORE PUSH13 0x151BDAD95B88195E1C1A5C9959 PUSH1 0x9A SHL PUSH1 0x44 DUP3 ADD MSTORE PUSH1 0x64 SWAP1 REVERT JUMPDEST ISZERO PUSH2 0x32E5 JUMPI JUMP JUMPDEST PUSH1 0x40 MLOAD PUSH3 0x461BCD PUSH1 0xE5 SHL DUP2 MSTORE PUSH1 0x20 PUSH1 0x4 DUP3 ADD MSTORE PUSH1 0x11 PUSH1 0x24 DUP3 ADD MSTORE PUSH17 0x14DB1A5C1C1859D948195E18D959591959 PUSH1 0x7A SHL PUSH1 0x44 DUP3 ADD MSTORE PUSH1 0x64 SWAP1 REVERT JUMPDEST PUSH1 0xF SLOAD DUP2 LT ISZERO PUSH2 0x211E JUMPI PUSH1 0xF PUSH0 MSTORE PUSH1 0x20 PUSH0 KECCAK256 ADD SWAP1 PUSH0 SWAP1 JUMP JUMPDEST ISZERO PUSH2 0x333D JUMPI JUMP JUMPDEST PUSH1 0x40 MLOAD PUSH3 0x461BCD PUSH1 0xE5 SHL DUP2 MSTORE PUSH1 0x20 PUSH1 0x4 DUP3 ADD MSTORE PUSH1 0xF PUSH1 0x24 DUP3 ADD MSTORE PUSH15 0x16995C9BC81D1BDAD95B9CC81BDD5D PUSH1 0x8A SHL PUSH1 0x44 DUP3 ADD MSTORE PUSH1 0x64 SWAP1 REVERT JUMPDEST PUSH1 0xF SLOAD SWAP1 PUSH9 0x10000000000000000 DUP3 LT ISZERO PUSH2 0x1B4E JUMPI PUSH1 0x1 DUP3 ADD PUSH1 0xF SSTORE PUSH1 0xF SLOAD DUP3 LT ISZERO PUSH2 0x211E JUMPI PUSH1 0xF PUSH0 MSTORE PUSH32 0x8D1108E10BCB7C27DDDFC02ED9D693A074039D026CF4EA4240B40F7D581AC802 SWAP1 SWAP2 ADD DUP1 SLOAD PUSH1 0x1 PUSH1 0x1 PUSH1 0xA0 SHL SUB NOT AND PUSH1 0x1 PUSH1 0x1 PUSH1 0xA0 SHL SUB SWAP1 SWAP3 AND SWAP2 SWAP1 SWAP2 OR SWAP1 SSTORE JUMP JUMPDEST PUSH0 NOT DUP2 EQ PUSH2 0x6B9 JUMPI PUSH1 0x1 ADD SWAP1 JUMP JUMPDEST SWAP1 SWAP2 DUP2 DUP4 GT PUSH2 0x3422 JUMPI PUSH2 0x2E8A DUP3 PUSH2 0x202A PUSH2 0x2E84 PUSH2 0x3418 PUSH8 0xDE0B6B3A7640000 SWAP8 PUSH2 0x341E SWAP8 PUSH2 0x3110 JUMP JUMPDEST SWAP3 PUSH2 0x3748 JUMP JUMPDEST DIV SWAP1 JUMP JUMPDEST PUSH1 0x40 MLOAD PUSH3 0x461BCD PUSH1 0xE5 SHL DUP2 MSTORE PUSH1 0x20 PUSH1 0x4 DUP3 ADD MSTORE PUSH1 0x13 PUSH1 0x24 DUP3 ADD MSTORE PUSH19 0x53656C6C206578636565647320737570706C79 PUSH1 0x68 SHL PUSH1 0x44 DUP3 ADD MSTORE PUSH1 0x64 SWAP1 REVERT JUMPDEST PUSH1 0x2 PUSH0 MLOAD PUSH1 0x20 PUSH2 0x3843 PUSH0 CODECOPY PUSH0 MLOAD SWAP1 PUSH0 MSTORE SLOAD EQ PUSH2 0x3486 JUMPI PUSH1 0x2 PUSH0 MLOAD PUSH1 0x20 PUSH2 0x3843 PUSH0 CODECOPY PUSH0 MLOAD SWAP1 PUSH0 MSTORE SSTORE JUMP JUMPDEST PUSH4 0x3EE5AEB5 PUSH1 0xE0 SHL PUSH0 MSTORE PUSH1 0x4 PUSH0 REVERT JUMPDEST PUSH1 0x21 SLOAD SWAP1 PUSH0 JUMPDEST DUP3 DUP2 LT PUSH2 0x34A9 JUMPI POP POP POP PUSH0 SWAP1 JUMP JUMPDEST PUSH1 0x3 DUP2 LT ISZERO PUSH2 0x211E JUMPI PUSH1 0x1E DUP2 ADD SLOAD PUSH1 0x1 PUSH1 0x1 PUSH1 0xA0 SHL SUB DUP4 DUP2 AND SWAP2 AND EQ PUSH2 0x34D1 JUMPI PUSH1 0x1 ADD PUSH2 0x349B JUMP JUMPDEST POP POP POP PUSH1 0x1 SWAP1 JUMP JUMPDEST DUP2 ISZERO PUSH2 0x3570 JUMPI PUSH0 SWAP2 DUP3 SWAP2 DUP3 SWAP2 DUP3 SWAP2 PUSH1 0x1 PUSH1 0x1 PUSH1 0xA0 SHL SUB AND GAS CALL RETURNDATASIZE ISZERO PUSH2 0x356B JUMPI RETURNDATASIZE PUSH1 0x1 PUSH1 0x1 PUSH1 0x40 SHL SUB DUP2 GT PUSH2 0x1B4E JUMPI PUSH1 0x40 MLOAD SWAP1 PUSH2 0x351F PUSH1 0x1F DUP3 ADD PUSH1 0x1F NOT AND PUSH1 0x20 ADD DUP4 PUSH2 0x3021 JUMP JUMPDEST DUP2 MSTORE PUSH0 PUSH1 0x20 RETURNDATASIZE SWAP3 ADD RETURNDATACOPY JUMPDEST ISZERO PUSH2 0x3530 JUMPI JUMP JUMPDEST PUSH1 0x40 MLOAD PUSH3 0x461BCD PUSH1 0xE5 SHL DUP2 MSTORE PUSH1 0x20 PUSH1 0x4 DUP3 ADD MSTORE PUSH1 0x13 PUSH1 0x24 DUP3 ADD MSTORE PUSH19 0x1353D3881D1C985B9CD9995C8819985A5B1959 PUSH1 0x6A SHL PUSH1 0x44 DUP3 ADD MSTORE PUSH1 0x64 SWAP1 REVERT JUMPDEST PUSH2 0x3529 JUMP JUMPDEST POP POP JUMP JUMPDEST DUP1 ISZERO PUSH2 0x3590 JUMPI PUSH8 0xDE0B6B3A7640000 SWAP2 PUSH2 0x2E8A PUSH2 0x341E SWAP3 PUSH2 0x377F JUMP JUMPDEST POP POP PUSH0 SWAP1 JUMP JUMPDEST SWAP1 DUP1 ISZERO PUSH2 0x3570 JUMPI PUSH2 0x35C9 SWAP2 PUSH1 0x1 DUP1 PUSH1 0xA0 SHL SUB AND PUSH0 MSTORE PUSH1 0x16 PUSH1 0x20 MSTORE PUSH1 0x40 PUSH0 KECCAK256 PUSH2 0x35BF DUP3 DUP3 SLOAD PUSH2 0x30E6 JUMP JUMPDEST SWAP1 SSTORE PUSH1 0x17 SLOAD PUSH2 0x30E6 JUMP JUMPDEST PUSH1 0x17 SSTORE JUMP JUMPDEST PUSH12 0x33B2E3C9FD0803CE8000000 DUP2 ISZERO PUSH2 0x3590 JUMPI PUSH1 0x7 SLOAD PUSH0 SWAP3 JUMPDEST DUP3 DUP5 LT PUSH2 0x35F4 JUMPI POP POP POP SWAP1 JUMP JUMPDEST SWAP1 SWAP2 SWAP3 PUSH2 0x3601 DUP5 DUP3 PUSH2 0x30E6 JUMP JUMPDEST PUSH1 0x1 DUP2 ADD DUP1 SWAP2 GT PUSH2 0x6B9 JUMPI PUSH1 0x1 SHR SWAP1 DUP3 PUSH8 0xDE0B6B3A7640000 PUSH2 0x3638 PUSH2 0x3632 PUSH2 0x3629 DUP7 PUSH2 0x3748 JUMP JUMPDEST PUSH2 0x202A PUSH0 PUSH2 0x3748 JUMP JUMPDEST DUP8 PUSH2 0x30F3 JUMP JUMPDEST DIV GT PUSH2 0x3648 JUMPI POP SWAP3 JUMPDEST SWAP2 SWAP1 PUSH2 0x35E7 JUMP JUMPDEST SWAP4 POP PUSH0 NOT DUP2 ADD SWAP1 DUP2 GT ISZERO PUSH2 0x3641 JUMPI PUSH4 0x4E487B71 PUSH1 0xE0 SHL PUSH0 MSTORE PUSH1 0x11 PUSH1 0x4 MSTORE PUSH1 0x24 PUSH0 REVERT JUMPDEST DUP1 PUSH12 0x33B2E3C9FD0803CE8000000 SUB PUSH12 0x33B2E3C9FD0803CE8000000 DUP2 GT PUSH2 0x6B9 JUMPI SWAP2 DUP2 PUSH12 0x33B2E3C9FD0803CE8000000 EQ DUP1 ISZERO PUSH2 0x3740 JUMPI JUMPDEST PUSH2 0x3739 JUMPI SWAP2 SWAP1 PUSH0 SWAP3 PUSH1 0x7 SLOAD JUMPDEST DUP4 DUP6 LT PUSH2 0x36BD JUMPI POP POP POP POP SWAP1 JUMP JUMPDEST SWAP1 SWAP2 SWAP3 SWAP4 PUSH2 0x36CB DUP6 DUP3 PUSH2 0x30E6 JUMP JUMPDEST PUSH1 0x1 DUP2 ADD DUP1 SWAP2 GT PUSH2 0x6B9 JUMPI PUSH1 0x1 SHR SWAP1 DUP4 PUSH8 0xDE0B6B3A7640000 PUSH2 0x3706 PUSH2 0x3700 PUSH2 0x36F7 PUSH2 0x2E7F DUP8 DUP12 PUSH2 0x30E6 JUMP JUMPDEST PUSH2 0x202A DUP11 PUSH2 0x3748 JUMP JUMPDEST DUP7 PUSH2 0x30F3 JUMP JUMPDEST DIV GT PUSH2 0x3717 JUMPI POP SWAP4 JUMPDEST SWAP3 SWAP2 SWAP1 PUSH2 0x36AF JUMP JUMPDEST SWAP5 POP PUSH0 NOT DUP2 ADD SWAP1 DUP2 GT ISZERO PUSH2 0x370F JUMPI PUSH4 0x4E487B71 PUSH1 0xE0 SHL PUSH0 MSTORE PUSH1 0x11 PUSH1 0x4 MSTORE PUSH1 0x24 PUSH0 REVERT JUMPDEST POP POP POP PUSH0 SWAP1 JUMP JUMPDEST POP DUP1 ISZERO PUSH2 0x36A3 JUMP JUMPDEST DUP1 ISZERO PUSH2 0x3177 JUMPI PUSH2 0x3764 DUP2 PUSH2 0x2E8A PUSH8 0xDE0B6B3A7640000 SWAP4 PUSH2 0x377F JUMP JUMPDEST DIV PUSH1 0x1 PUSH1 0x1 PUSH1 0xFF SHL SUB DUP2 AND DUP2 SUB PUSH2 0x6B9 JUMPI PUSH1 0x3 SWAP1 PUSH1 0x1 SHL DIV SWAP1 JUMP JUMPDEST SWAP1 DUP2 ISZERO PUSH2 0x37DD JUMPI PUSH8 0xDE0B6B3A7640000 DUP3 MUL SWAP2 DUP3 DIV PUSH8 0xDE0B6B3A7640000 SUB PUSH2 0x6B9 JUMPI DUP2 PUSH1 0x1 DUP2 ADD DUP1 DUP3 GT PUSH2 0x6B9 JUMPI PUSH1 0x1 SHR SWAP1 JUMPDEST DUP4 DUP3 LT PUSH2 0x37BE JUMPI POP POP JUMP JUMPDEST SWAP1 SWAP3 POP PUSH2 0x37D4 DUP4 PUSH2 0x37CF DUP2 DUP5 PUSH2 0x3106 JUMP JUMPDEST PUSH2 0x30E6 JUMP JUMPDEST PUSH1 0x1 SHR SWAP1 PUSH2 0x37B3 JUMP JUMPDEST PUSH0 SWAP2 POP JUMP INVALID BLOCKHASH JUMPI DUP8 STATICCALL SLT 0xA8 0x23 0xE0 CALLCODE 0xB7 PUSH4 0x1CC41B3B 0xA8 DUP3 DUP12 CALLER 0x21 0xCA DUP2 GT GT STATICCALL PUSH22 0xCD3AA3BB5ACEC2575A0E9E593C00F959F8C92F12DB28 PUSH10 0xC3395A3B0502D05E2516 PREVRANDAO PUSH16 0x71F85B8A35ACFBC15FF81A39AE7D344F 0xD7 MULMOD CALLCODE DUP15 DUP7 STOP 0xB4 0xAA DUP13 PUSH6 0xC6B64BFE7FE3 PUSH12 0xD19B9B779B17422D0DF92223 ADD DUP12 ORIGIN 0xB4 0xD1 STATICCALL CHAINID 0xE0 PUSH18 0x723D6817E2486D003BECC55F00A264697066 PUSH20 0x58221220A65B64F0643A259DFB98CF154D515C59 0x27 PUSH27 0xA7C997CE0CBDEE88D715A568155C64736F6C634300081C00330000 "
        },
        "methodIdentifiers": {
          "BPS()": "249d39e9",
          "BUY_COOLDOWN_BLOCKS()": "ec5ae7e8",
          "CLAIM_DEADLINE()": "42f81580",
          "CREATOR_FEE_BPS()": "cc3cbd2a",
          "DEATH_TAX_BPS()": "0964b7ed",
          "DEATH_TRIGGER_BONUS()": "1e5c6222",
          "DURATION_12H()": "0932df81",
          "DURATION_24H()": "5d8cc808",
          "DURATION_6H()": "57ee9334",
          "LAST_HOUR_DURATION()": "310d8fd6",
          "LOTTERY_BPS()": "0b4b71cc",
          "LOTTERY_WINNERS_COUNT()": "0b0cf9d8",
          "MAX_BUY_BPS_EARLY()": "d161c6a3",
          "MAX_HOLDERS()": "22e12720",
          "MAX_HOLDING_BPS()": "627d55f6",
          "MAX_INITIAL_BUY_BPS()": "975c7745",
          "MAX_SUPPLY()": "32cb6b0c",
          "MIN_BUY()": "3af96b90",
          "MIN_LOTTERY_WEIGHT_BPS()": "e3758a32",
          "PROTOCOL_FEE_BPS()": "be378228",
          "PRO_RATA_BPS()": "636bcebe",
          "SNIPER_DURATION()": "cab29010",
          "balances(address)": "27e235e3",
          "buy(uint256)": "d96a094a",
          "claim()": "4e71d92d",
          "claimed(address)": "c884ef83",
          "createdAt()": "cf09e0d0",
          "creationBlock()": "17634514",
          "creator()": "02d05d3f",
          "deathFinalized()": "15e3b12d",
          "deathProcessedAt()": "37bca1cf",
          "deathRequested()": "7a0dc231",
          "deathRequestedBy()": "818e0a36",
          "deathSequenceNumber()": "63d2d8af",
          "deathTime()": "a2ced305",
          "factory()": "c45a0155",
          "fulfillRandomness(uint64,bytes32)": "82623312",
          "getBuyCost(uint256)": "0ae66820",
          "getClaimable(address)": "a583024b",
          "getHolders()": "5fe8e7cc",
          "getLotteryWinners()": "5592fc71",
          "getPrice()": "98d5fdca",
          "getRandomnessFee()": "a833656a",
          "getSellQuote(uint256)": "0812530e",
          "getTimeLeft()": "c7e284b8",
          "imageURI()": "135d088d",
          "initialize(address,string,string,string,uint256,uint256,address,address,address,uint256)": "8a2f3a88",
          "isAlive()": "4136aa35",
          "isHolder(address)": "d4d7b19a",
          "isInLastHour()": "25fb077a",
          "k()": "b4f40c61",
          "lastBuyBlock(address)": "37b28bfd",
          "lotteryPool()": "2c831633",
          "lotteryRandomness()": "4fdd777f",
          "lotteryShare()": "4e584e11",
          "lotteryWeight(address)": "5686661d",
          "lotteryWinners(uint256)": "d7a1a5b9",
          "lotteryWinnersCount()": "ecadc3b0",
          "mintTrophy()": "17b0263c",
          "name()": "06fdde03",
          "pendingFees(address)": "25d2a3f3",
          "poolBalance()": "96365d44",
          "proRataPool()": "317be0ac",
          "randomnessProvider()": "ce9bf5ac",
          "requestDeath()": "af6c52ad",
          "sell(uint256,uint256)": "d79875eb",
          "sweepUnclaimed()": "c44337b4",
          "swept()": "2113eaca",
          "symbol()": "95d89b41",
          "totalHolders()": "53d74fdf",
          "totalLotteryWeight()": "5141a201",
          "totalPendingFees()": "109e62ea",
          "totalSupplySnapshot()": "78efe539",
          "treasury()": "61d027b3",
          "trophyMinted(address)": "ddee1ee2",
          "trophyNFT()": "39b7d98e",
          "virtualSupply()": "277b2f97",
          "withdrawFees()": "476343ee"
        }
      }
    }
  }
}