{
  "contracts/ClacFactory.sol": {
    "ClacFactory": {
      "abi": [
        {
          "inputs": [
            {
              "internalType": "address",
              "name": "_treasury",
              "type": "address"
            },
            {
              "internalType": "uint256",
              "name": "_k",
              "type": "uint256"
            }
          ],
          "stateMutability": "nonpayable",
          "type": "constructor"
        },
        {
          "inputs": [],
          "name": "ReentrancyGuardReentrantCall",
          "type": "error"
        },
        {
          "anonymous": false,
          "inputs": [
            {
              "indexed": true,
              "internalType": "uint256",
              "name": "tokenId",
              "type": "uint256"
            },
            {
              "indexed": true,
              "internalType": "address",
              "name": "holder",
              "type": "address"
            },
            {
              "indexed": false,
              "internalType": "uint256",
              "name": "amount",
              "type": "uint256"
            }
          ],
          "name": "Claimed",
          "type": "event"
        },
        {
          "anonymous": false,
          "inputs": [
            {
              "indexed": true,
              "internalType": "uint256",
              "name": "tokenId",
              "type": "uint256"
            },
            {
              "indexed": true,
              "internalType": "address",
              "name": "winner",
              "type": "address"
            },
            {
              "indexed": false,
              "internalType": "uint256",
              "name": "amount",
              "type": "uint256"
            }
          ],
          "name": "LotteryWin",
          "type": "event"
        },
        {
          "anonymous": false,
          "inputs": [
            {
              "indexed": true,
              "internalType": "uint256",
              "name": "tokenId",
              "type": "uint256"
            },
            {
              "indexed": false,
              "internalType": "uint256",
              "name": "poolRemaining",
              "type": "uint256"
            },
            {
              "indexed": false,
              "internalType": "address",
              "name": "triggeredBy",
              "type": "address"
            }
          ],
          "name": "TokenClacced",
          "type": "event"
        },
        {
          "anonymous": false,
          "inputs": [
            {
              "indexed": true,
              "internalType": "uint256",
              "name": "tokenId",
              "type": "uint256"
            },
            {
              "indexed": true,
              "internalType": "address",
              "name": "creator",
              "type": "address"
            },
            {
              "indexed": false,
              "internalType": "string",
              "name": "name",
              "type": "string"
            },
            {
              "indexed": false,
              "internalType": "string",
              "name": "symbol",
              "type": "string"
            },
            {
              "indexed": false,
              "internalType": "string",
              "name": "imageURI",
              "type": "string"
            },
            {
              "indexed": false,
              "internalType": "uint256",
              "name": "duration",
              "type": "uint256"
            }
          ],
          "name": "TokenCreated",
          "type": "event"
        },
        {
          "anonymous": false,
          "inputs": [
            {
              "indexed": true,
              "internalType": "uint256",
              "name": "tokenId",
              "type": "uint256"
            },
            {
              "indexed": true,
              "internalType": "address",
              "name": "trader",
              "type": "address"
            },
            {
              "indexed": false,
              "internalType": "bool",
              "name": "isBuy",
              "type": "bool"
            },
            {
              "indexed": false,
              "internalType": "uint256",
              "name": "tokenAmount",
              "type": "uint256"
            },
            {
              "indexed": false,
              "internalType": "uint256",
              "name": "monAmount",
              "type": "uint256"
            },
            {
              "indexed": false,
              "internalType": "uint256",
              "name": "protocolFee",
              "type": "uint256"
            },
            {
              "indexed": false,
              "internalType": "uint256",
              "name": "creatorFee",
              "type": "uint256"
            },
            {
              "indexed": false,
              "internalType": "uint256",
              "name": "newSupply",
              "type": "uint256"
            },
            {
              "indexed": false,
              "internalType": "uint256",
              "name": "newPrice",
              "type": "uint256"
            }
          ],
          "name": "Trade",
          "type": "event"
        },
        {
          "inputs": [],
          "name": "BPS",
          "outputs": [
            {
              "internalType": "uint256",
              "name": "",
              "type": "uint256"
            }
          ],
          "stateMutability": "view",
          "type": "function"
        },
        {
          "inputs": [],
          "name": "CREATOR_FEE_BPS",
          "outputs": [
            {
              "internalType": "uint256",
              "name": "",
              "type": "uint256"
            }
          ],
          "stateMutability": "view",
          "type": "function"
        },
        {
          "inputs": [],
          "name": "DEATH_TAX_BPS",
          "outputs": [
            {
              "internalType": "uint256",
              "name": "",
              "type": "uint256"
            }
          ],
          "stateMutability": "view",
          "type": "function"
        },
        {
          "inputs": [],
          "name": "DEATH_TRIGGER_BONUS",
          "outputs": [
            {
              "internalType": "uint256",
              "name": "",
              "type": "uint256"
            }
          ],
          "stateMutability": "view",
          "type": "function"
        },
        {
          "inputs": [],
          "name": "DURATION_12H",
          "outputs": [
            {
              "internalType": "uint256",
              "name": "",
              "type": "uint256"
            }
          ],
          "stateMutability": "view",
          "type": "function"
        },
        {
          "inputs": [],
          "name": "DURATION_24H",
          "outputs": [
            {
              "internalType": "uint256",
              "name": "",
              "type": "uint256"
            }
          ],
          "stateMutability": "view",
          "type": "function"
        },
        {
          "inputs": [],
          "name": "DURATION_6H",
          "outputs": [
            {
              "internalType": "uint256",
              "name": "",
              "type": "uint256"
            }
          ],
          "stateMutability": "view",
          "type": "function"
        },
        {
          "inputs": [],
          "name": "LOTTERY_BPS",
          "outputs": [
            {
              "internalType": "uint256",
              "name": "",
              "type": "uint256"
            }
          ],
          "stateMutability": "view",
          "type": "function"
        },
        {
          "inputs": [],
          "name": "LOTTERY_WINNERS",
          "outputs": [
            {
              "internalType": "uint256",
              "name": "",
              "type": "uint256"
            }
          ],
          "stateMutability": "view",
          "type": "function"
        },
        {
          "inputs": [],
          "name": "MAX_BUY_BPS_EARLY",
          "outputs": [
            {
              "internalType": "uint256",
              "name": "",
              "type": "uint256"
            }
          ],
          "stateMutability": "view",
          "type": "function"
        },
        {
          "inputs": [],
          "name": "MAX_POOL",
          "outputs": [
            {
              "internalType": "uint256",
              "name": "",
              "type": "uint256"
            }
          ],
          "stateMutability": "view",
          "type": "function"
        },
        {
          "inputs": [],
          "name": "MAX_SUPPLY",
          "outputs": [
            {
              "internalType": "uint256",
              "name": "",
              "type": "uint256"
            }
          ],
          "stateMutability": "view",
          "type": "function"
        },
        {
          "inputs": [],
          "name": "PROTOCOL_FEE_BPS",
          "outputs": [
            {
              "internalType": "uint256",
              "name": "",
              "type": "uint256"
            }
          ],
          "stateMutability": "view",
          "type": "function"
        },
        {
          "inputs": [],
          "name": "PRO_RATA_BPS",
          "outputs": [
            {
              "internalType": "uint256",
              "name": "",
              "type": "uint256"
            }
          ],
          "stateMutability": "view",
          "type": "function"
        },
        {
          "inputs": [],
          "name": "SNIPER_BLOCKS",
          "outputs": [
            {
              "internalType": "uint256",
              "name": "",
              "type": "uint256"
            }
          ],
          "stateMutability": "view",
          "type": "function"
        },
        {
          "inputs": [
            {
              "internalType": "uint256",
              "name": "",
              "type": "uint256"
            },
            {
              "internalType": "address",
              "name": "",
              "type": "address"
            }
          ],
          "name": "balances",
          "outputs": [
            {
              "internalType": "uint256",
              "name": "",
              "type": "uint256"
            }
          ],
          "stateMutability": "view",
          "type": "function"
        },
        {
          "inputs": [
            {
              "internalType": "uint256",
              "name": "tokenId",
              "type": "uint256"
            },
            {
              "internalType": "uint256",
              "name": "minTokens",
              "type": "uint256"
            }
          ],
          "name": "buy",
          "outputs": [],
          "stateMutability": "payable",
          "type": "function"
        },
        {
          "inputs": [
            {
              "internalType": "uint256",
              "name": "tokenId",
              "type": "uint256"
            }
          ],
          "name": "claim",
          "outputs": [],
          "stateMutability": "nonpayable",
          "type": "function"
        },
        {
          "inputs": [
            {
              "internalType": "uint256",
              "name": "",
              "type": "uint256"
            },
            {
              "internalType": "address",
              "name": "",
              "type": "address"
            }
          ],
          "name": "claimable",
          "outputs": [
            {
              "internalType": "uint256",
              "name": "",
              "type": "uint256"
            }
          ],
          "stateMutability": "view",
          "type": "function"
        },
        {
          "inputs": [
            {
              "internalType": "string",
              "name": "name",
              "type": "string"
            },
            {
              "internalType": "string",
              "name": "symbol",
              "type": "string"
            },
            {
              "internalType": "string",
              "name": "imageURI",
              "type": "string"
            },
            {
              "internalType": "uint256",
              "name": "duration",
              "type": "uint256"
            }
          ],
          "name": "createToken",
          "outputs": [
            {
              "internalType": "uint256",
              "name": "tokenId",
              "type": "uint256"
            }
          ],
          "stateMutability": "payable",
          "type": "function"
        },
        {
          "inputs": [
            {
              "internalType": "uint256",
              "name": "",
              "type": "uint256"
            }
          ],
          "name": "creationBlock",
          "outputs": [
            {
              "internalType": "uint256",
              "name": "",
              "type": "uint256"
            }
          ],
          "stateMutability": "view",
          "type": "function"
        },
        {
          "inputs": [],
          "name": "creationFee",
          "outputs": [
            {
              "internalType": "uint256",
              "name": "",
              "type": "uint256"
            }
          ],
          "stateMutability": "view",
          "type": "function"
        },
        {
          "inputs": [
            {
              "internalType": "uint256",
              "name": "tokenId",
              "type": "uint256"
            },
            {
              "internalType": "address",
              "name": "user",
              "type": "address"
            }
          ],
          "name": "getBalance",
          "outputs": [
            {
              "internalType": "uint256",
              "name": "",
              "type": "uint256"
            }
          ],
          "stateMutability": "view",
          "type": "function"
        },
        {
          "inputs": [
            {
              "internalType": "uint256",
              "name": "tokenId",
              "type": "uint256"
            },
            {
              "internalType": "uint256",
              "name": "tokenAmount",
              "type": "uint256"
            }
          ],
          "name": "getBuyCost",
          "outputs": [
            {
              "internalType": "uint256",
              "name": "",
              "type": "uint256"
            }
          ],
          "stateMutability": "view",
          "type": "function"
        },
        {
          "inputs": [
            {
              "internalType": "uint256",
              "name": "tokenId",
              "type": "uint256"
            },
            {
              "internalType": "address",
              "name": "user",
              "type": "address"
            }
          ],
          "name": "getClaimable",
          "outputs": [
            {
              "internalType": "uint256",
              "name": "",
              "type": "uint256"
            }
          ],
          "stateMutability": "view",
          "type": "function"
        },
        {
          "inputs": [
            {
              "internalType": "uint256",
              "name": "tokenId",
              "type": "uint256"
            }
          ],
          "name": "getFirstBuyerMultiplier",
          "outputs": [
            {
              "internalType": "uint256",
              "name": "",
              "type": "uint256"
            }
          ],
          "stateMutability": "view",
          "type": "function"
        },
        {
          "inputs": [
            {
              "internalType": "uint256",
              "name": "tokenId",
              "type": "uint256"
            }
          ],
          "name": "getHolders",
          "outputs": [
            {
              "internalType": "address[]",
              "name": "",
              "type": "address[]"
            }
          ],
          "stateMutability": "view",
          "type": "function"
        },
        {
          "inputs": [
            {
              "internalType": "uint256",
              "name": "tokenId",
              "type": "uint256"
            }
          ],
          "name": "getPrice",
          "outputs": [
            {
              "internalType": "uint256",
              "name": "",
              "type": "uint256"
            }
          ],
          "stateMutability": "view",
          "type": "function"
        },
        {
          "inputs": [
            {
              "internalType": "uint256",
              "name": "tokenId",
              "type": "uint256"
            },
            {
              "internalType": "uint256",
              "name": "tokenAmount",
              "type": "uint256"
            }
          ],
          "name": "getSellQuote",
          "outputs": [
            {
              "internalType": "uint256",
              "name": "",
              "type": "uint256"
            }
          ],
          "stateMutability": "view",
          "type": "function"
        },
        {
          "inputs": [
            {
              "internalType": "uint256",
              "name": "tokenId",
              "type": "uint256"
            }
          ],
          "name": "getTimeLeft",
          "outputs": [
            {
              "internalType": "uint256",
              "name": "",
              "type": "uint256"
            }
          ],
          "stateMutability": "view",
          "type": "function"
        },
        {
          "inputs": [
            {
              "internalType": "uint256",
              "name": "tokenId",
              "type": "uint256"
            }
          ],
          "name": "getToken",
          "outputs": [
            {
              "components": [
                {
                  "internalType": "address",
                  "name": "creator",
                  "type": "address"
                },
                {
                  "internalType": "string",
                  "name": "name",
                  "type": "string"
                },
                {
                  "internalType": "string",
                  "name": "symbol",
                  "type": "string"
                },
                {
                  "internalType": "string",
                  "name": "imageURI",
                  "type": "string"
                },
                {
                  "internalType": "uint256",
                  "name": "virtualSupply",
                  "type": "uint256"
                },
                {
                  "internalType": "uint256",
                  "name": "poolBalance",
                  "type": "uint256"
                },
                {
                  "internalType": "uint256",
                  "name": "createdAt",
                  "type": "uint256"
                },
                {
                  "internalType": "uint256",
                  "name": "duration",
                  "type": "uint256"
                },
                {
                  "internalType": "bool",
                  "name": "dead",
                  "type": "bool"
                },
                {
                  "internalType": "bool",
                  "name": "deathProcessed",
                  "type": "bool"
                },
                {
                  "internalType": "uint256",
                  "name": "totalHolders",
                  "type": "uint256"
                }
              ],
              "internalType": "struct ClacFactory.Token",
              "name": "",
              "type": "tuple"
            }
          ],
          "stateMutability": "view",
          "type": "function"
        },
        {
          "inputs": [
            {
              "internalType": "uint256",
              "name": "tokenId",
              "type": "uint256"
            }
          ],
          "name": "isAlive",
          "outputs": [
            {
              "internalType": "bool",
              "name": "",
              "type": "bool"
            }
          ],
          "stateMutability": "view",
          "type": "function"
        },
        {
          "inputs": [
            {
              "internalType": "uint256",
              "name": "",
              "type": "uint256"
            },
            {
              "internalType": "address",
              "name": "",
              "type": "address"
            }
          ],
          "name": "isHolder",
          "outputs": [
            {
              "internalType": "bool",
              "name": "",
              "type": "bool"
            }
          ],
          "stateMutability": "view",
          "type": "function"
        },
        {
          "inputs": [],
          "name": "k",
          "outputs": [
            {
              "internalType": "uint256",
              "name": "",
              "type": "uint256"
            }
          ],
          "stateMutability": "view",
          "type": "function"
        },
        {
          "inputs": [],
          "name": "owner",
          "outputs": [
            {
              "internalType": "address",
              "name": "",
              "type": "address"
            }
          ],
          "stateMutability": "view",
          "type": "function"
        },
        {
          "inputs": [],
          "name": "publicCreation",
          "outputs": [
            {
              "internalType": "bool",
              "name": "",
              "type": "bool"
            }
          ],
          "stateMutability": "view",
          "type": "function"
        },
        {
          "inputs": [
            {
              "internalType": "uint256",
              "name": "tokenId",
              "type": "uint256"
            },
            {
              "internalType": "uint256",
              "name": "tokenAmount",
              "type": "uint256"
            },
            {
              "internalType": "uint256",
              "name": "minMON",
              "type": "uint256"
            }
          ],
          "name": "sell",
          "outputs": [],
          "stateMutability": "nonpayable",
          "type": "function"
        },
        {
          "inputs": [
            {
              "internalType": "uint256",
              "name": "_fee",
              "type": "uint256"
            }
          ],
          "name": "setCreationFee",
          "outputs": [],
          "stateMutability": "nonpayable",
          "type": "function"
        },
        {
          "inputs": [
            {
              "internalType": "uint256",
              "name": "_k",
              "type": "uint256"
            }
          ],
          "name": "setK",
          "outputs": [],
          "stateMutability": "nonpayable",
          "type": "function"
        },
        {
          "inputs": [
            {
              "internalType": "bool",
              "name": "_public",
              "type": "bool"
            }
          ],
          "name": "setPublicCreation",
          "outputs": [],
          "stateMutability": "nonpayable",
          "type": "function"
        },
        {
          "inputs": [
            {
              "internalType": "address",
              "name": "_treasury",
              "type": "address"
            }
          ],
          "name": "setTreasury",
          "outputs": [],
          "stateMutability": "nonpayable",
          "type": "function"
        },
        {
          "inputs": [],
          "name": "tokenCount",
          "outputs": [
            {
              "internalType": "uint256",
              "name": "",
              "type": "uint256"
            }
          ],
          "stateMutability": "view",
          "type": "function"
        },
        {
          "inputs": [
            {
              "internalType": "uint256",
              "name": "",
              "type": "uint256"
            }
          ],
          "name": "tokens",
          "outputs": [
            {
              "internalType": "address",
              "name": "creator",
              "type": "address"
            },
            {
              "internalType": "string",
              "name": "name",
              "type": "string"
            },
            {
              "internalType": "string",
              "name": "symbol",
              "type": "string"
            },
            {
              "internalType": "string",
              "name": "imageURI",
              "type": "string"
            },
            {
              "internalType": "uint256",
              "name": "virtualSupply",
              "type": "uint256"
            },
            {
              "internalType": "uint256",
              "name": "poolBalance",
              "type": "uint256"
            },
            {
              "internalType": "uint256",
              "name": "createdAt",
              "type": "uint256"
            },
            {
              "internalType": "uint256",
              "name": "duration",
              "type": "uint256"
            },
            {
              "internalType": "bool",
              "name": "dead",
              "type": "bool"
            },
            {
              "internalType": "bool",
              "name": "deathProcessed",
              "type": "bool"
            },
            {
              "internalType": "uint256",
              "name": "totalHolders",
              "type": "uint256"
            }
          ],
          "stateMutability": "view",
          "type": "function"
        },
        {
          "inputs": [],
          "name": "treasury",
          "outputs": [
            {
              "internalType": "address",
              "name": "",
              "type": "address"
            }
          ],
          "stateMutability": "view",
          "type": "function"
        },
        {
          "inputs": [
            {
              "internalType": "uint256",
              "name": "tokenId",
              "type": "uint256"
            }
          ],
          "name": "triggerDeath",
          "outputs": [],
          "stateMutability": "nonpayable",
          "type": "function"
        },
        {
          "stateMutability": "payable",
          "type": "receive"
        }
      ],
      "evm": {
        "bytecode": {
          "linkReferences": {},
          "object": "60803460be57601f61287038819003918201601f19168301916001600160401b0383118484101760c357808492604094855283398101031260be5780516001600160a01b038116919082900360be576020015160017f9b779b17422d0df92223018b32b4d1fa46e071723d6817e2486d003becc55f00819055600080546001600160a01b03199081163317909155815416909217909155600255678ac7230489e800006003556004805460ff1916905560405161279690816100da8239f35b600080fd5b634e487b7160e01b600052604160045260246000fdfe60a080604052600436101561001d575b50361561001b57600080fd5b005b60003560e01c9081630932df8114611af4575080630964b7ed14611ad75780630b4b71cc14611aba578063121a257f14611a2f5780631e5c622214611a0c5780631f32033114611406578063249d39e9146119ef5780632c3c91c9146119ca57806332cb6b0c146119a357806336f732a114611956578063379607f5146117ef5780634f5e74c2146117c35780634f64b2be146116d857806357ee9334146116bb5780635d8cc8081461169d5780635ff67b1b1461167a57806361d027b314611651578063636bcebe1461163457806367de8be9146116065780637a447ed3146115ea5780638da5cb5b146115c157806392707869146114f65780639af4694d146114cb5780639beb5bad1461146c5780639f181b5e1461144e578063a0c7f71c1461132d578063b0a7945914611406578063b4f40c61146113e8578063b713cc40146113a3578063b7d8622514611375578063b961cbe11461132d578063be37822814611311578063c451bc95146112cb578063cc3cbd2a146112c6578063d161c6a3146112c6578063d3c9727c14610fc3578063d6febde814610ba9578063d84b236114610b41578063dce0b4e414610b23578063dd7e852314610b07578063e4b50cb814610938578063e7572230146108f8578063e8c58763146108c5578063efbe8fd1146102b45763f0f4426014610219573861000f565b346102af5760203660031901126102af576004356001600160a01b038116908190036102af5761025460018060a01b03600054163314611d73565b8015610277576bffffffffffffffffffffffff60a01b6001541617600155600080f35b60405162461bcd60e51b815260206004820152601060248201526f496e76616c696420747265617375727960801b6044820152606490fd5b600080fd5b60803660031901126102af5760043567ffffffffffffffff81116102af576102e0903690600401611cb5565b9060243567ffffffffffffffff81116102af57610301903690600401611cb5565b9060443567ffffffffffffffff81116102af57610322903690600401611cb5565b90916064359360ff600454161561086e575b61546085148015610863575b8015610857575b1561081f576003548034106107da5760015461036c91906001600160a01b0316612498565b6003548034116107c1575b506005549561038587611e57565b600555600087815260066020526040902080546001600160a01b031916331781556001810167ffffffffffffffff8a1161063f576103c38154611b3b565b601f8111610779575b50896000601f82116001146107165760009161070b575b508a60011b906000198c60031b1c19161790555b6002810167ffffffffffffffff841161063f576104148154611b3b565b601f81116106c3575b50836000601f821160011461066057600091610655575b508460011b906000198660031b1c19161790555b6003810167ffffffffffffffff861161063f576104658154611b3b565b601f81116105f7575b50918760209a9694928a9896946000601f881160011461053e57937fc81330f0f38d8570a8eebd6a7c59421eb1fff865e2fa9fc3859f96506109b3ba9998969360078997946105049461051f9b61051199600091610533575b508a60011b906000198c60031b1c19161790555b42600682015501558a600052600b8e52436040600020556040519860808a5260808a019161243b565b918783038d89015261243b565b91848303604086015261243b565b9360608201528033940390a3604051908152f35b90508b0135386104c7565b99989796959493929190601f198716818c528e8c20908c5b8181106105c6575061050493899896936105119896937fc81330f0f38d8570a8eebd6a7c59421eb1fff865e2fa9fc3859f96506109b3ba9e9f61051f9d9c600795106105ac575b505060018a811b0190556104db565b8c013560001960038d901b60f8161c19169055388061059d565b9396989a9c9450919496989a508e60018192868e013581550194019201928d9a989694918d949c9a9896939c610556565b816000526020600020601f880160051c81019160208910610635575b601f0160051c01905b818110610629575061046e565b6000815560010161061c565b9091508190610613565b634e487b7160e01b600052604160045260246000fd5b90508501358b610434565b82815260208120915085601f198116825b8181106106a857501061068e575b5050600184811b019055610448565b860135600019600387901b60f8161c191690558a8061067f565b89840135855560019094019360209384019389935001610671565b816000526020600020601f860160051c81019160208710610701575b601f0160051c01905b8181106106f5575061041d565b600081556001016106e8565b90915081906106df565b90508301358b6103e3565b8281526020812091508b601f198116825b81811061075e575010610744575b505060018a811b0190556103f7565b84013560001960038d901b60f8161c191690558a80610735565b8784013585556001909401936020938401938f935001610727565b816000526020600020601f8c0160051c81019160208d106107b7575b601f0160051c01905b8181106107ab57506103cc565b6000815560010161079e565b9091508190610795565b6107ce6107d49134611d46565b33612498565b87610377565b60405162461bcd60e51b815260206004820152601960248201527f496e73756666696369656e74206372656174696f6e20666565000000000000006044820152606490fd5b60405162461bcd60e51b815260206004820152601060248201526f24b73b30b634b210323ab930ba34b7b760811b6044820152606490fd5b50620151808514610347565b5061a8c08514610340565b6000546001600160a01b031633146103345760405162461bcd60e51b815260206004820152601760248201527f4372656174696f6e206e6f74207075626c6963207965740000000000000000006044820152606490fd5b346102af5760203660031901126102af5760206108f06004356108eb6005548210611ce3565b612408565b604051908152f35b346102af5760203660031901126102af576004356109196005548210611ce3565b600052600660205260206108f060046040600020015460025490612536565b346102af5760203660031901126102af57600435600061014060405161095d81611b75565b82815260606020820152606060408201526060808201528260808201528260a08201528260c08201528260e0820152826101008201528261012082015201526109a96005548210611ce3565b60005260066020526101806040600020604051906109c682611b75565b80546001600160a01b031682526109df60018201611bb4565b91602081019283528060ff6109f660028501611bb4565b9360408301948552610a0a60038201611bb4565b946060840195865260048201549560808501968752610ad060058401549160a08701928352610abd60068601549460c08901958652610aaa600960078901549860e08c01998a528a61012060088301549d8e61010082019e8f911615159052019c60081c1615158c5201549a61014081019b8c526040519e8f9e8f926020845260018060a01b039051166020840152519161016060408201520190611c58565b90518c8203601f190160608e0152611c58565b90518a8203601f190160808c0152611c58565b965160a08901525160c08801525160e087015251610100860152511515610120850152511515610140840152516101608301520390f35b346102af5760003660031901126102af57602060405160058152f35b346102af5760003660031901126102af576020600354604051908152f35b346102af5760203660031901126102af57600435610b626005548210611ce3565b60005260066020526020604060002060ff600882015416159081610b8c575b506040519015158152f35b610ba191506007600682015491015490611d26565b421082610b81565b610bb236611b0f565b90610bbb61245c565b610bc86005548210611ce3565b806000526006602052610be660ff6008604060002001541615612351565b806000526006602052610c1d610c1660066040600020015483600052600660205260076040600020015490611d26565b421061238d565b3415610f8c57806000526006602052604060002060058101805469021e19e0c9bab2400000610c4c3483611d26565b11610f545760c8340234810460c803610f045761271090049260643402348104606403610f0457612710900492610c8c84610c878734611d46565b611d46565b926004830193845491610cab610ca283856125c0565b9a8b10156123c8565b6b033b2e3c9fd0803ce8000000610cc28b85611d26565b11610f1a5788600052600b60205260406000205460058101809111610f04578a904310610e7b575b610cf790610cfe94611d26565b8655611d26565b9055846000526007602052604060002060018060a01b0333166000526020526040600020610d2d878254611d26565b90556000858152600960209081526040808320338452909152902054839060ff1615610def575b600154610d7f9290610d709087906001600160a01b0316612498565b546001600160a01b0316612498565b5490610d8d60025483612536565b92604051956001875260208701523460408701526060860152608085015260a084015260c08301527f21fb2ef4db4bf31f6d1e357c56a918e6fb61d5b270a2f9c5075ff638093819d760e03393a3600160008051602061274183398151915255005b5060008581526009602090815260408083203384528252808320805460ff1916600117905587835260089091529020805490916801000000000000000082101561063f57610e4782610d7f9460018895018155611e29565b81546001600160a01b0360039290921b91821b19163390911b179055600981018054610e7290611e57565b90559150610d54565b50886000526007602052604060002060018060a01b0333166000526020526a084595161401484a000000610eb48b604060002054611d26565b11610ebf5789610cea565b60405162461bcd60e51b815260206004820152601d60248201527f416e74692d736e697065723a206d6178206275792065786365656465640000006044820152606490fd5b634e487b7160e01b600052601160045260246000fd5b60405162461bcd60e51b815260206004820152601260248201527113585e081cdd5c1c1b1e481c995858da195960721b6044820152606490fd5b60405162461bcd60e51b815260206004820152601060248201526f141bdbdb0818d85c081c995858da195960821b6044820152606490fd5b60405162461bcd60e51b815260206004820152600f60248201526e53656e64204d4f4e20746f2062757960881b6044820152606490fd5b346102af5760603660031901126102af57602435600435610fe261245c565b610fef6005548210611ce3565b80600052600660205261100d60ff6008604060002001541615612351565b80600052600660205261103d610c1660066040600020015483600052600660205260076040600020015490611d26565b811561128c5760008181526007602090815260408083203384529091529020548211611250578060005260066020526040600020600481018054916110856002548685612556565b9160058201918254928385116112175760c8850285159086810460c814821715610f045761271090049560648102918183046064141715610f04576127106110f19204956110ea8b6110db89610c878c87611d46565b9a610c876044358d10156123c8565b8655611d46565b9055856000526007602052604060002060018060a01b0333166000526020526040600020611120888254611d46565b905560008681526007602090815260408083203384529091529020548390156111d9575b6001546111609290610d709087906001600160a01b0316612498565b61116a8433612498565b549161117860025484612536565b936040519660008852602088015260408701526060860152608085015260a084015260c08301527f21fb2ef4db4bf31f6d1e357c56a918e6fb61d5b270a2f9c5075ff638093819d760e03393a3600160008051602061274183398151915255005b506000868152600960208181526040808420338552909152909120805460ff191690558101805490918115610f045760001990910190915582611144565b60405162461bcd60e51b8152602060048201526011602482015270125b9cdd59999a58da595b9d081c1bdbdb607a1b6044820152606490fd5b60405162461bcd60e51b8152602060048201526014602482015273496e73756666696369656e742062616c616e636560601b6044820152606490fd5b60405162461bcd60e51b81526020600482015260126024820152710416d6f756e74206d757374206265203e20360741b6044820152606490fd5b611c99565b346102af5760203660031901126102af576004358015158091036102af576112fe60018060a01b03600054163314611d73565b60ff801960045416911617600455600080f35b346102af5760003660031901126102af57602060405160c88152f35b346102af5760403660031901126102af57611346611b25565b600435600052600a60205260406000209060018060a01b03166000526020526020604060002054604051908152f35b346102af5760203660031901126102af5761139b60018060a01b03600054163314611d73565b600435600355005b346102af5760203660031901126102af576113d46004356113c261245c565b6113cf6005548210611ce3565b611e66565b600160008051602061274183398151915255005b346102af5760003660031901126102af576020600254604051908152f35b346102af5760403660031901126102af5761141f611b25565b600435600052600760205260406000209060018060a01b03166000526020526020604060002054604051908152f35b346102af5760003660031901126102af576020600554604051908152f35b346102af576114a661147d36611b0f565b9061148b6005548210611ce3565b60005260066020526004604060002001549060025491612556565b61012c810281810461012c1482151715610f04576020916127106108f0920490611d46565b346102af5760203660031901126102af5760206108f06004356114f16005548210611ce3565b611dab565b346102af5760203660031901126102af576004356115176005548210611ce3565b600052600860205260406000206040518060208354918281520190819360005260206000209060005b8181106115a25750505081611556910382611b92565b6040519182916020830190602084525180915260408301919060005b818110611580575050500390f35b82516001600160a01b0316845285945060209384019390920191600101611572565b82546001600160a01b0316845260209093019260019283019201611540565b346102af5760003660031901126102af576000546040516001600160a01b039091168152602090f35b346102af5760003660031901126102af57602060405160038152f35b346102af5760203660031901126102af5761162c60018060a01b03600054163314611d73565b600435600255005b346102af5760003660031901126102af5760206040516119648152f35b346102af5760003660031901126102af576001546040516001600160a01b039091168152602090f35b346102af5760003660031901126102af57602060ff600454166040519015158152f35b346102af5760003660031901126102af576020604051620151808152f35b346102af5760003660031901126102af5760206040516154608152f35b346102af5760203660031901126102af576004356000526006602052610160604060002060018060a01b038154169061171360018201611bb4565b60ff61172160028401611bb4565b9261172e60038201611bb4565b93600482015494600583015461178d60068501549261177f600787015495611771600960088a01549901549a6040519e8f9e8f9081528160208201520190611c58565b8c810360408e015290611c58565b908a820360608c0152611c58565b96608089015260a088015260c087015260e0860152818116151561010086015260081c1615156101208401526101408301520390f35b346102af5760203660031901126102af57600435600052600b6020526020604060002054604051908152f35b346102af5760203660031901126102af5760043561180b61245c565b6118186005548210611ce3565b80600052600660205260ff6008604060002001541680611938575b156118ff576000818152600a602090815260408083203384529091529020549081156118c75780600052600a602052604060002060018060a01b033316600052602052600060408120556118878233612498565b6040519182527f4ec90e965519d92681267467f775ada5bd214aa92c0dc93d90a5e880ce9ed02660203393a3600160008051602061274183398151915255005b60405162461bcd60e51b815260206004820152601060248201526f4e6f7468696e6720746f20636c61696d60801b6044820152606490fd5b60405162461bcd60e51b8152602060048201526011602482015270139bdd0818db185a5b58589b19481e595d607a1b6044820152606490fd5b5080600052600660205260ff60086040600020015460081c16611833565b346102af5760403660031901126102af5761196f611b25565b600435600052600960205260406000209060018060a01b0316600052602052602060ff604060002054166040519015158152f35b346102af5760003660031901126102af5760206040516b033b2e3c9fd0803ce80000008152f35b346102af5760003660031901126102af57602060405169021e19e0c9bab24000008152f35b346102af5760003660031901126102af5760206040516127108152f35b346102af5760003660031901126102af57602060405167016345785d8a00008152f35b346102af57670de0b6b3a7640000611a95611a4936611b0f565b90611a576005548210611ce3565b6000526006602052611a8f600460406000200154611a89611a83611a7e6002549584611d26565b6126a5565b916126a5565b90611d46565b90611d33565b046127108102908082046127101490151715610f04576125e460209104604051908152f35b346102af5760003660031901126102af576020604051610dac8152f35b346102af5760003660031901126102af5760206040516101f48152f35b346102af5760003660031901126102af578061a8c060209252f35b60409060031901126102af576004359060243590565b602435906001600160a01b03821682036102af57565b90600182811c92168015611b6b575b6020831014611b5557565b634e487b7160e01b600052602260045260246000fd5b91607f1691611b4a565b610160810190811067ffffffffffffffff82111761063f57604052565b90601f8019910116810190811067ffffffffffffffff82111761063f57604052565b9060405191826000825492611bc884611b3b565b8084529360018116908115611c365750600114611bef575b50611bed92500383611b92565b565b90506000929192526020600020906000915b818310611c1a575050906020611bed9282010138611be0565b6020919350806001915483858901015201910190918492611c01565b905060209250611bed94915060ff191682840152151560051b82010138611be0565b919082519283825260005b848110611c84575050826000602080949584010152601f8019910116010190565b80602080928401015182828601015201611c63565b346102af5760003660031901126102af57602060405160648152f35b9181601f840112156102af5782359167ffffffffffffffff83116102af57602083818601950101116102af57565b15611cea57565b60405162461bcd60e51b8152602060048201526014602482015273151bdad95b88191bd95cc81b9bdd08195e1a5cdd60621b6044820152606490fd5b91908201809211610f0457565b81810292918115918404141715610f0457565b91908203918211610f0457565b8115611d5d570490565b634e487b7160e01b600052601260045260246000fd5b15611d7a57565b60405162461bcd60e51b81526020600482015260096024820152682737ba1037bbb732b960b91b6044820152606490fd5b80600052600660205260046040600020015415611e23576000526006602052600460406000200154670de0b6b3a7640000611df6611dec6002548094612536565b92611a8f836126dc565b048015611e1c57606482029180830460641490151715610f0457611e1991611d53565b90565b5050600090565b50600090565b8054821015611e415760005260206000200190600090565b634e487b7160e01b600052603260045260246000fd5b6000198114610f045760010190565b80600052600660205260406000206008810180549060ff821661231d57611e966006840154600785015490611d26565b42106122e65760ff1982166001178155600583018054909281156122a45750600067016345785d8a000082106122995750611eda67016345785d8a00008092611d46565b6101f481028181046101f41482151715610f0457612710611efd91048092611d46565b9461196486028681046119641487151715610f0457612710900490611f228288611d46565b90886000526008602052604060002054608052608051159283159182809361228c575b6121d4575b5050806121cb575b611fdb575b5050927f0f005309a8a7fc7ef4fe267d20b85954d99222bed1e4e1dacc388fc820a8659e9492600092611f9660409660018060a01b0360015416612498565b80151580611fd1575b611fc1575b50805461ff001916610100179055558151908152336020820152a2565b611fcb9033612498565b38611fa4565b5080471015611f9f565b959391969492600360009992999704946000946000194301948540965b60038110806121c0575b1561214557438711610f045760405160208101908982528b604082015282606082015260805160808201524260a082015260a0815261204260c082611b92565b51902060008e5b6080518210612064575b50505061205f90611e57565b611ff8565b61206e8284611d26565b90611d5d5761208f908d600052600860205260805190066040600020611e29565b905460008e815260076020908152604080832060039590951b9390931c6001600160a01b031680835293905220546120d157506120cb90611e57565b8e612049565b9c61205f939250612110915060408e8e600052600a6020528160002060009160018060a01b03168252602052206121098d8254611d26565b9055611e57565b9b8b7f327dc80a042147e77d98c1f6d26ebc8aef4078af7e6ab437f1d6452a19cb108b60208d604051908152a390388e612053565b50955095929950959792509560038110612164575b9592939495611f57565b6003959492939195039560038711610f0457611f966121b26000956121ac6040997f0f005309a8a7fc7ef4fe267d20b85954d99222bed1e4e1dacc388fc820a8659e9b611d33565b90611d26565b93959650509581935061215a565b506080518110612002565b50801515611f52565b60005b60805181106121e65750611f4a565b6001908c60005260086020528c612201826040600020611e29565b848060a01b0391549060031b1c16816000526007602052604080600020600090868060a01b038416825260205220548061223f575b505050016121d7565b6122829161225d6122526040938a611d33565b600489015490611d53565b93600052600a60205281600020600091878060a01b0316825260205220918254611d26565b90558c3880612236565b5060048101541515611f45565b611eda908092611d46565b61ffff191661010117909155505060408051600081523360208201527f0f005309a8a7fc7ef4fe267d20b85954d99222bed1e4e1dacc388fc820a8659e9250a2565b60405162461bcd60e51b815260206004820152600f60248201526e139bdd08195e1c1a5c9959081e595d608a1b6044820152606490fd5b60405162461bcd60e51b815260206004820152600c60248201526b105b1c9958591e481919585960a21b6044820152606490fd5b1561235857565b60405162461bcd60e51b815260206004820152600d60248201526c151bdad95b881a5cc819195859609a1b6044820152606490fd5b1561239457565b60405162461bcd60e51b815260206004820152600c60248201526b151a5b5948195e1c1a5c995960a21b6044820152606490fd5b156123cf57565b60405162461bcd60e51b815260206004820152601160248201527014db1a5c1c1859d948195e18d959591959607a1b6044820152606490fd5b600052600660205261242860406000206007600682015491015490611d26565b80421015611e2357611e19904290611d46565b908060209392818452848401376000828201840152601f01601f1916010190565b6002600080516020612741833981519152541461248757600260008051602061274183398151915255565b633ee5aeb560e01b60005260046000fd5b8115612532576000918291829182916001600160a01b03165af13d1561252d573d67ffffffffffffffff811161063f57604051906124e0601f8201601f191660200183611b92565b8152600060203d92013e5b156124f257565b60405162461bcd60e51b81526020600482015260136024820152721353d3881d1c985b9cd9995c8819985a5b1959606a1b6044820152606490fd5b6124eb565b5050565b8015611e1c57670de0b6b3a764000091611a8f612552926126dc565b0490565b909181831161258557611a8f82611a89611a8361257f670de0b6b3a76400009761255297611d46565b926126a5565b60405162461bcd60e51b815260206004820152601360248201527253656c6c206578636565647320737570706c7960681b6044820152606490fd5b600091816b033b2e3c9fd0803ce8000000036b033b2e3c9fd0803ce8000000811161269157826b033b2e3c9fd0803ce80000001461268b5791906002545b83851061260c575050505090565b9091929361261a8582611d26565b60018101809111610f045760011c9083670de0b6b3a764000061265561264f612646611a7e878b611d26565b611a898a6126a5565b86611d33565b04116126665750935b9291906125fe565b945060001981019081111561265e57634e487b7160e01b600052601160045260246000fd5b50505090565b634e487b7160e01b84526011600452602484fd5b8015611e23576126c181611a8f670de0b6b3a7640000936126dc565b046001600160ff1b0381168103610f045760039060011b0490565b90811561273a57670de0b6b3a76400008202918204670de0b6b3a764000003610f04578160018101808211610f045760011c905b83821061271b575050565b9092506127318361272c8184611d53565b611d26565b60011c90612710565b6000915056fe9b779b17422d0df92223018b32b4d1fa46e071723d6817e2486d003becc55f00a2646970667358221220a3f40256de882d13e0d73544ad7b5cdb58cfda0c50a1a7fc9da62ab40dfcb72064736f6c634300081c0033",
          "opcodes": "PUSH1 0x80 CALLVALUE PUSH1 0xBE JUMPI PUSH1 0x1F PUSH2 0x2870 CODESIZE DUP2 SWAP1 SUB SWAP2 DUP3 ADD PUSH1 0x1F NOT AND DUP4 ADD SWAP2 PUSH1 0x1 PUSH1 0x1 PUSH1 0x40 SHL SUB DUP4 GT DUP5 DUP5 LT OR PUSH1 0xC3 JUMPI DUP1 DUP5 SWAP3 PUSH1 0x40 SWAP5 DUP6 MSTORE DUP4 CODECOPY DUP2 ADD SUB SLT PUSH1 0xBE JUMPI DUP1 MLOAD PUSH1 0x1 PUSH1 0x1 PUSH1 0xA0 SHL SUB DUP2 AND SWAP2 SWAP1 DUP3 SWAP1 SUB PUSH1 0xBE JUMPI PUSH1 0x20 ADD MLOAD PUSH1 0x1 PUSH32 0x9B779B17422D0DF92223018B32B4D1FA46E071723D6817E2486D003BECC55F00 DUP2 SWAP1 SSTORE PUSH1 0x0 DUP1 SLOAD PUSH1 0x1 PUSH1 0x1 PUSH1 0xA0 SHL SUB NOT SWAP1 DUP2 AND CALLER OR SWAP1 SWAP2 SSTORE DUP2 SLOAD AND SWAP1 SWAP3 OR SWAP1 SWAP2 SSTORE PUSH1 0x2 SSTORE PUSH8 0x8AC7230489E80000 PUSH1 0x3 SSTORE PUSH1 0x4 DUP1 SLOAD PUSH1 0xFF NOT AND SWAP1 SSTORE PUSH1 0x40 MLOAD PUSH2 0x2796 SWAP1 DUP2 PUSH2 0xDA DUP3 CODECOPY RETURN JUMPDEST PUSH1 0x0 DUP1 REVERT JUMPDEST PUSH4 0x4E487B71 PUSH1 0xE0 SHL PUSH1 0x0 MSTORE PUSH1 0x41 PUSH1 0x4 MSTORE PUSH1 0x24 PUSH1 0x0 REVERT INVALID PUSH1 0xA0 DUP1 PUSH1 0x40 MSTORE PUSH1 0x4 CALLDATASIZE LT ISZERO PUSH2 0x1D JUMPI JUMPDEST POP CALLDATASIZE ISZERO PUSH2 0x1B JUMPI PUSH1 0x0 DUP1 REVERT JUMPDEST STOP JUMPDEST PUSH1 0x0 CALLDATALOAD PUSH1 0xE0 SHR SWAP1 DUP2 PUSH4 0x932DF81 EQ PUSH2 0x1AF4 JUMPI POP DUP1 PUSH4 0x964B7ED EQ PUSH2 0x1AD7 JUMPI DUP1 PUSH4 0xB4B71CC EQ PUSH2 0x1ABA JUMPI DUP1 PUSH4 0x121A257F EQ PUSH2 0x1A2F JUMPI DUP1 PUSH4 0x1E5C6222 EQ PUSH2 0x1A0C JUMPI DUP1 PUSH4 0x1F320331 EQ PUSH2 0x1406 JUMPI DUP1 PUSH4 0x249D39E9 EQ PUSH2 0x19EF JUMPI DUP1 PUSH4 0x2C3C91C9 EQ PUSH2 0x19CA JUMPI DUP1 PUSH4 0x32CB6B0C EQ PUSH2 0x19A3 JUMPI DUP1 PUSH4 0x36F732A1 EQ PUSH2 0x1956 JUMPI DUP1 PUSH4 0x379607F5 EQ PUSH2 0x17EF JUMPI DUP1 PUSH4 0x4F5E74C2 EQ PUSH2 0x17C3 JUMPI DUP1 PUSH4 0x4F64B2BE EQ PUSH2 0x16D8 JUMPI DUP1 PUSH4 0x57EE9334 EQ PUSH2 0x16BB JUMPI DUP1 PUSH4 0x5D8CC808 EQ PUSH2 0x169D JUMPI DUP1 PUSH4 0x5FF67B1B EQ PUSH2 0x167A JUMPI DUP1 PUSH4 0x61D027B3 EQ PUSH2 0x1651 JUMPI DUP1 PUSH4 0x636BCEBE EQ PUSH2 0x1634 JUMPI DUP1 PUSH4 0x67DE8BE9 EQ PUSH2 0x1606 JUMPI DUP1 PUSH4 0x7A447ED3 EQ PUSH2 0x15EA JUMPI DUP1 PUSH4 0x8DA5CB5B EQ PUSH2 0x15C1 JUMPI DUP1 PUSH4 0x92707869 EQ PUSH2 0x14F6 JUMPI DUP1 PUSH4 0x9AF4694D EQ PUSH2 0x14CB JUMPI DUP1 PUSH4 0x9BEB5BAD EQ PUSH2 0x146C JUMPI DUP1 PUSH4 0x9F181B5E EQ PUSH2 0x144E JUMPI DUP1 PUSH4 0xA0C7F71C EQ PUSH2 0x132D JUMPI DUP1 PUSH4 0xB0A79459 EQ PUSH2 0x1406 JUMPI DUP1 PUSH4 0xB4F40C61 EQ PUSH2 0x13E8 JUMPI DUP1 PUSH4 0xB713CC40 EQ PUSH2 0x13A3 JUMPI DUP1 PUSH4 0xB7D86225 EQ PUSH2 0x1375 JUMPI DUP1 PUSH4 0xB961CBE1 EQ PUSH2 0x132D JUMPI DUP1 PUSH4 0xBE378228 EQ PUSH2 0x1311 JUMPI DUP1 PUSH4 0xC451BC95 EQ PUSH2 0x12CB JUMPI DUP1 PUSH4 0xCC3CBD2A EQ PUSH2 0x12C6 JUMPI DUP1 PUSH4 0xD161C6A3 EQ PUSH2 0x12C6 JUMPI DUP1 PUSH4 0xD3C9727C EQ PUSH2 0xFC3 JUMPI DUP1 PUSH4 0xD6FEBDE8 EQ PUSH2 0xBA9 JUMPI DUP1 PUSH4 0xD84B2361 EQ PUSH2 0xB41 JUMPI DUP1 PUSH4 0xDCE0B4E4 EQ PUSH2 0xB23 JUMPI DUP1 PUSH4 0xDD7E8523 EQ PUSH2 0xB07 JUMPI DUP1 PUSH4 0xE4B50CB8 EQ PUSH2 0x938 JUMPI DUP1 PUSH4 0xE7572230 EQ PUSH2 0x8F8 JUMPI DUP1 PUSH4 0xE8C58763 EQ PUSH2 0x8C5 JUMPI DUP1 PUSH4 0xEFBE8FD1 EQ PUSH2 0x2B4 JUMPI PUSH4 0xF0F44260 EQ PUSH2 0x219 JUMPI CODESIZE PUSH2 0xF JUMP JUMPDEST CALLVALUE PUSH2 0x2AF JUMPI PUSH1 0x20 CALLDATASIZE PUSH1 0x3 NOT ADD SLT PUSH2 0x2AF JUMPI PUSH1 0x4 CALLDATALOAD PUSH1 0x1 PUSH1 0x1 PUSH1 0xA0 SHL SUB DUP2 AND SWAP1 DUP2 SWAP1 SUB PUSH2 0x2AF JUMPI PUSH2 0x254 PUSH1 0x1 DUP1 PUSH1 0xA0 SHL SUB PUSH1 0x0 SLOAD AND CALLER EQ PUSH2 0x1D73 JUMP JUMPDEST DUP1 ISZERO PUSH2 0x277 JUMPI PUSH12 0xFFFFFFFFFFFFFFFFFFFFFFFF PUSH1 0xA0 SHL PUSH1 0x1 SLOAD AND OR PUSH1 0x1 SSTORE PUSH1 0x0 DUP1 RETURN JUMPDEST PUSH1 0x40 MLOAD PUSH3 0x461BCD PUSH1 0xE5 SHL DUP2 MSTORE PUSH1 0x20 PUSH1 0x4 DUP3 ADD MSTORE PUSH1 0x10 PUSH1 0x24 DUP3 ADD MSTORE PUSH16 0x496E76616C6964207472656173757279 PUSH1 0x80 SHL PUSH1 0x44 DUP3 ADD MSTORE PUSH1 0x64 SWAP1 REVERT JUMPDEST PUSH1 0x0 DUP1 REVERT JUMPDEST PUSH1 0x80 CALLDATASIZE PUSH1 0x3 NOT ADD SLT PUSH2 0x2AF JUMPI PUSH1 0x4 CALLDATALOAD PUSH8 0xFFFFFFFFFFFFFFFF DUP2 GT PUSH2 0x2AF JUMPI PUSH2 0x2E0 SWAP1 CALLDATASIZE SWAP1 PUSH1 0x4 ADD PUSH2 0x1CB5 JUMP JUMPDEST SWAP1 PUSH1 0x24 CALLDATALOAD PUSH8 0xFFFFFFFFFFFFFFFF DUP2 GT PUSH2 0x2AF JUMPI PUSH2 0x301 SWAP1 CALLDATASIZE SWAP1 PUSH1 0x4 ADD PUSH2 0x1CB5 JUMP JUMPDEST SWAP1 PUSH1 0x44 CALLDATALOAD PUSH8 0xFFFFFFFFFFFFFFFF DUP2 GT PUSH2 0x2AF JUMPI PUSH2 0x322 SWAP1 CALLDATASIZE SWAP1 PUSH1 0x4 ADD PUSH2 0x1CB5 JUMP JUMPDEST SWAP1 SWAP2 PUSH1 0x64 CALLDATALOAD SWAP4 PUSH1 0xFF PUSH1 0x4 SLOAD AND ISZERO PUSH2 0x86E JUMPI JUMPDEST PUSH2 0x5460 DUP6 EQ DUP1 ISZERO PUSH2 0x863 JUMPI JUMPDEST DUP1 ISZERO PUSH2 0x857 JUMPI JUMPDEST ISZERO PUSH2 0x81F JUMPI PUSH1 0x3 SLOAD DUP1 CALLVALUE LT PUSH2 0x7DA JUMPI PUSH1 0x1 SLOAD PUSH2 0x36C SWAP2 SWAP1 PUSH1 0x1 PUSH1 0x1 PUSH1 0xA0 SHL SUB AND PUSH2 0x2498 JUMP JUMPDEST PUSH1 0x3 SLOAD DUP1 CALLVALUE GT PUSH2 0x7C1 JUMPI JUMPDEST POP PUSH1 0x5 SLOAD SWAP6 PUSH2 0x385 DUP8 PUSH2 0x1E57 JUMP JUMPDEST PUSH1 0x5 SSTORE PUSH1 0x0 DUP8 DUP2 MSTORE PUSH1 0x6 PUSH1 0x20 MSTORE PUSH1 0x40 SWAP1 KECCAK256 DUP1 SLOAD PUSH1 0x1 PUSH1 0x1 PUSH1 0xA0 SHL SUB NOT AND CALLER OR DUP2 SSTORE PUSH1 0x1 DUP2 ADD PUSH8 0xFFFFFFFFFFFFFFFF DUP11 GT PUSH2 0x63F JUMPI PUSH2 0x3C3 DUP2 SLOAD PUSH2 0x1B3B JUMP JUMPDEST PUSH1 0x1F DUP2 GT PUSH2 0x779 JUMPI JUMPDEST POP DUP10 PUSH1 0x0 PUSH1 0x1F DUP3 GT PUSH1 0x1 EQ PUSH2 0x716 JUMPI PUSH1 0x0 SWAP2 PUSH2 0x70B JUMPI JUMPDEST POP DUP11 PUSH1 0x1 SHL SWAP1 PUSH1 0x0 NOT DUP13 PUSH1 0x3 SHL SHR NOT AND OR SWAP1 SSTORE JUMPDEST PUSH1 0x2 DUP2 ADD PUSH8 0xFFFFFFFFFFFFFFFF DUP5 GT PUSH2 0x63F JUMPI PUSH2 0x414 DUP2 SLOAD PUSH2 0x1B3B JUMP JUMPDEST PUSH1 0x1F DUP2 GT PUSH2 0x6C3 JUMPI JUMPDEST POP DUP4 PUSH1 0x0 PUSH1 0x1F DUP3 GT PUSH1 0x1 EQ PUSH2 0x660 JUMPI PUSH1 0x0 SWAP2 PUSH2 0x655 JUMPI JUMPDEST POP DUP5 PUSH1 0x1 SHL SWAP1 PUSH1 0x0 NOT DUP7 PUSH1 0x3 SHL SHR NOT AND OR SWAP1 SSTORE JUMPDEST PUSH1 0x3 DUP2 ADD PUSH8 0xFFFFFFFFFFFFFFFF DUP7 GT PUSH2 0x63F JUMPI PUSH2 0x465 DUP2 SLOAD PUSH2 0x1B3B JUMP JUMPDEST PUSH1 0x1F DUP2 GT PUSH2 0x5F7 JUMPI JUMPDEST POP SWAP2 DUP8 PUSH1 0x20 SWAP11 SWAP7 SWAP5 SWAP3 DUP11 SWAP9 SWAP7 SWAP5 PUSH1 0x0 PUSH1 0x1F DUP9 GT PUSH1 0x1 EQ PUSH2 0x53E JUMPI SWAP4 PUSH32 0xC81330F0F38D8570A8EEBD6A7C59421EB1FFF865E2FA9FC3859F96506109B3BA SWAP10 SWAP9 SWAP7 SWAP4 PUSH1 0x7 DUP10 SWAP8 SWAP5 PUSH2 0x504 SWAP5 PUSH2 0x51F SWAP12 PUSH2 0x511 SWAP10 PUSH1 0x0 SWAP2 PUSH2 0x533 JUMPI JUMPDEST POP DUP11 PUSH1 0x1 SHL SWAP1 PUSH1 0x0 NOT DUP13 PUSH1 0x3 SHL SHR NOT AND OR SWAP1 SSTORE JUMPDEST TIMESTAMP PUSH1 0x6 DUP3 ADD SSTORE ADD SSTORE DUP11 PUSH1 0x0 MSTORE PUSH1 0xB DUP15 MSTORE NUMBER PUSH1 0x40 PUSH1 0x0 KECCAK256 SSTORE PUSH1 0x40 MLOAD SWAP9 PUSH1 0x80 DUP11 MSTORE PUSH1 0x80 DUP11 ADD SWAP2 PUSH2 0x243B JUMP JUMPDEST SWAP2 DUP8 DUP4 SUB DUP14 DUP10 ADD MSTORE PUSH2 0x243B JUMP JUMPDEST SWAP2 DUP5 DUP4 SUB PUSH1 0x40 DUP7 ADD MSTORE PUSH2 0x243B JUMP JUMPDEST SWAP4 PUSH1 0x60 DUP3 ADD MSTORE DUP1 CALLER SWAP5 SUB SWAP1 LOG3 PUSH1 0x40 MLOAD SWAP1 DUP2 MSTORE RETURN JUMPDEST SWAP1 POP DUP12 ADD CALLDATALOAD CODESIZE PUSH2 0x4C7 JUMP JUMPDEST SWAP10 SWAP9 SWAP8 SWAP7 SWAP6 SWAP5 SWAP4 SWAP3 SWAP2 SWAP1 PUSH1 0x1F NOT DUP8 AND DUP2 DUP13 MSTORE DUP15 DUP13 KECCAK256 SWAP1 DUP13 JUMPDEST DUP2 DUP2 LT PUSH2 0x5C6 JUMPI POP PUSH2 0x504 SWAP4 DUP10 SWAP9 SWAP7 SWAP4 PUSH2 0x511 SWAP9 SWAP7 SWAP4 PUSH32 0xC81330F0F38D8570A8EEBD6A7C59421EB1FFF865E2FA9FC3859F96506109B3BA SWAP15 SWAP16 PUSH2 0x51F SWAP14 SWAP13 PUSH1 0x7 SWAP6 LT PUSH2 0x5AC JUMPI JUMPDEST POP POP PUSH1 0x1 DUP11 DUP2 SHL ADD SWAP1 SSTORE PUSH2 0x4DB JUMP JUMPDEST DUP13 ADD CALLDATALOAD PUSH1 0x0 NOT PUSH1 0x3 DUP14 SWAP1 SHL PUSH1 0xF8 AND SHR NOT AND SWAP1 SSTORE CODESIZE DUP1 PUSH2 0x59D JUMP JUMPDEST SWAP4 SWAP7 SWAP9 SWAP11 SWAP13 SWAP5 POP SWAP2 SWAP5 SWAP7 SWAP9 SWAP11 POP DUP15 PUSH1 0x1 DUP2 SWAP3 DUP7 DUP15 ADD CALLDATALOAD DUP2 SSTORE ADD SWAP5 ADD SWAP3 ADD SWAP3 DUP14 SWAP11 SWAP9 SWAP7 SWAP5 SWAP2 DUP14 SWAP5 SWAP13 SWAP11 SWAP9 SWAP7 SWAP4 SWAP13 PUSH2 0x556 JUMP JUMPDEST DUP2 PUSH1 0x0 MSTORE PUSH1 0x20 PUSH1 0x0 KECCAK256 PUSH1 0x1F DUP9 ADD PUSH1 0x5 SHR DUP2 ADD SWAP2 PUSH1 0x20 DUP10 LT PUSH2 0x635 JUMPI JUMPDEST PUSH1 0x1F ADD PUSH1 0x5 SHR ADD SWAP1 JUMPDEST DUP2 DUP2 LT PUSH2 0x629 JUMPI POP PUSH2 0x46E JUMP JUMPDEST PUSH1 0x0 DUP2 SSTORE PUSH1 0x1 ADD PUSH2 0x61C JUMP JUMPDEST SWAP1 SWAP2 POP DUP2 SWAP1 PUSH2 0x613 JUMP JUMPDEST PUSH4 0x4E487B71 PUSH1 0xE0 SHL PUSH1 0x0 MSTORE PUSH1 0x41 PUSH1 0x4 MSTORE PUSH1 0x24 PUSH1 0x0 REVERT JUMPDEST SWAP1 POP DUP6 ADD CALLDATALOAD DUP12 PUSH2 0x434 JUMP JUMPDEST DUP3 DUP2 MSTORE PUSH1 0x20 DUP2 KECCAK256 SWAP2 POP DUP6 PUSH1 0x1F NOT DUP2 AND DUP3 JUMPDEST DUP2 DUP2 LT PUSH2 0x6A8 JUMPI POP LT PUSH2 0x68E JUMPI JUMPDEST POP POP PUSH1 0x1 DUP5 DUP2 SHL ADD SWAP1 SSTORE PUSH2 0x448 JUMP JUMPDEST DUP7 ADD CALLDATALOAD PUSH1 0x0 NOT PUSH1 0x3 DUP8 SWAP1 SHL PUSH1 0xF8 AND SHR NOT AND SWAP1 SSTORE DUP11 DUP1 PUSH2 0x67F JUMP JUMPDEST DUP10 DUP5 ADD CALLDATALOAD DUP6 SSTORE PUSH1 0x1 SWAP1 SWAP5 ADD SWAP4 PUSH1 0x20 SWAP4 DUP5 ADD SWAP4 DUP10 SWAP4 POP ADD PUSH2 0x671 JUMP JUMPDEST DUP2 PUSH1 0x0 MSTORE PUSH1 0x20 PUSH1 0x0 KECCAK256 PUSH1 0x1F DUP7 ADD PUSH1 0x5 SHR DUP2 ADD SWAP2 PUSH1 0x20 DUP8 LT PUSH2 0x701 JUMPI JUMPDEST PUSH1 0x1F ADD PUSH1 0x5 SHR ADD SWAP1 JUMPDEST DUP2 DUP2 LT PUSH2 0x6F5 JUMPI POP PUSH2 0x41D JUMP JUMPDEST PUSH1 0x0 DUP2 SSTORE PUSH1 0x1 ADD PUSH2 0x6E8 JUMP JUMPDEST SWAP1 SWAP2 POP DUP2 SWAP1 PUSH2 0x6DF JUMP JUMPDEST SWAP1 POP DUP4 ADD CALLDATALOAD DUP12 PUSH2 0x3E3 JUMP JUMPDEST DUP3 DUP2 MSTORE PUSH1 0x20 DUP2 KECCAK256 SWAP2 POP DUP12 PUSH1 0x1F NOT DUP2 AND DUP3 JUMPDEST DUP2 DUP2 LT PUSH2 0x75E JUMPI POP LT PUSH2 0x744 JUMPI JUMPDEST POP POP PUSH1 0x1 DUP11 DUP2 SHL ADD SWAP1 SSTORE PUSH2 0x3F7 JUMP JUMPDEST DUP5 ADD CALLDATALOAD PUSH1 0x0 NOT PUSH1 0x3 DUP14 SWAP1 SHL PUSH1 0xF8 AND SHR NOT AND SWAP1 SSTORE DUP11 DUP1 PUSH2 0x735 JUMP JUMPDEST DUP8 DUP5 ADD CALLDATALOAD DUP6 SSTORE PUSH1 0x1 SWAP1 SWAP5 ADD SWAP4 PUSH1 0x20 SWAP4 DUP5 ADD SWAP4 DUP16 SWAP4 POP ADD PUSH2 0x727 JUMP JUMPDEST DUP2 PUSH1 0x0 MSTORE PUSH1 0x20 PUSH1 0x0 KECCAK256 PUSH1 0x1F DUP13 ADD PUSH1 0x5 SHR DUP2 ADD SWAP2 PUSH1 0x20 DUP14 LT PUSH2 0x7B7 JUMPI JUMPDEST PUSH1 0x1F ADD PUSH1 0x5 SHR ADD SWAP1 JUMPDEST DUP2 DUP2 LT PUSH2 0x7AB JUMPI POP PUSH2 0x3CC JUMP JUMPDEST PUSH1 0x0 DUP2 SSTORE PUSH1 0x1 ADD PUSH2 0x79E JUMP JUMPDEST SWAP1 SWAP2 POP DUP2 SWAP1 PUSH2 0x795 JUMP JUMPDEST PUSH2 0x7CE PUSH2 0x7D4 SWAP2 CALLVALUE PUSH2 0x1D46 JUMP JUMPDEST CALLER PUSH2 0x2498 JUMP JUMPDEST DUP8 PUSH2 0x377 JUMP JUMPDEST PUSH1 0x40 MLOAD PUSH3 0x461BCD PUSH1 0xE5 SHL DUP2 MSTORE PUSH1 0x20 PUSH1 0x4 DUP3 ADD MSTORE PUSH1 0x19 PUSH1 0x24 DUP3 ADD MSTORE PUSH32 0x496E73756666696369656E74206372656174696F6E2066656500000000000000 PUSH1 0x44 DUP3 ADD MSTORE PUSH1 0x64 SWAP1 REVERT JUMPDEST PUSH1 0x40 MLOAD PUSH3 0x461BCD PUSH1 0xE5 SHL DUP2 MSTORE PUSH1 0x20 PUSH1 0x4 DUP3 ADD MSTORE PUSH1 0x10 PUSH1 0x24 DUP3 ADD MSTORE PUSH16 0x24B73B30B634B210323AB930BA34B7B7 PUSH1 0x81 SHL PUSH1 0x44 DUP3 ADD MSTORE PUSH1 0x64 SWAP1 REVERT JUMPDEST POP PUSH3 0x15180 DUP6 EQ PUSH2 0x347 JUMP JUMPDEST POP PUSH2 0xA8C0 DUP6 EQ PUSH2 0x340 JUMP JUMPDEST PUSH1 0x0 SLOAD PUSH1 0x1 PUSH1 0x1 PUSH1 0xA0 SHL SUB AND CALLER EQ PUSH2 0x334 JUMPI PUSH1 0x40 MLOAD PUSH3 0x461BCD PUSH1 0xE5 SHL DUP2 MSTORE PUSH1 0x20 PUSH1 0x4 DUP3 ADD MSTORE PUSH1 0x17 PUSH1 0x24 DUP3 ADD MSTORE PUSH32 0x4372656174696F6E206E6F74207075626C696320796574000000000000000000 PUSH1 0x44 DUP3 ADD MSTORE PUSH1 0x64 SWAP1 REVERT JUMPDEST CALLVALUE PUSH2 0x2AF JUMPI PUSH1 0x20 CALLDATASIZE PUSH1 0x3 NOT ADD SLT PUSH2 0x2AF JUMPI PUSH1 0x20 PUSH2 0x8F0 PUSH1 0x4 CALLDATALOAD PUSH2 0x8EB PUSH1 0x5 SLOAD DUP3 LT PUSH2 0x1CE3 JUMP JUMPDEST PUSH2 0x2408 JUMP JUMPDEST PUSH1 0x40 MLOAD SWAP1 DUP2 MSTORE RETURN JUMPDEST CALLVALUE PUSH2 0x2AF JUMPI PUSH1 0x20 CALLDATASIZE PUSH1 0x3 NOT ADD SLT PUSH2 0x2AF JUMPI PUSH1 0x4 CALLDATALOAD PUSH2 0x919 PUSH1 0x5 SLOAD DUP3 LT PUSH2 0x1CE3 JUMP JUMPDEST PUSH1 0x0 MSTORE PUSH1 0x6 PUSH1 0x20 MSTORE PUSH1 0x20 PUSH2 0x8F0 PUSH1 0x4 PUSH1 0x40 PUSH1 0x0 KECCAK256 ADD SLOAD PUSH1 0x2 SLOAD SWAP1 PUSH2 0x2536 JUMP JUMPDEST CALLVALUE PUSH2 0x2AF JUMPI PUSH1 0x20 CALLDATASIZE PUSH1 0x3 NOT ADD SLT PUSH2 0x2AF JUMPI PUSH1 0x4 CALLDATALOAD PUSH1 0x0 PUSH2 0x140 PUSH1 0x40 MLOAD PUSH2 0x95D DUP2 PUSH2 0x1B75 JUMP JUMPDEST DUP3 DUP2 MSTORE PUSH1 0x60 PUSH1 0x20 DUP3 ADD MSTORE PUSH1 0x60 PUSH1 0x40 DUP3 ADD MSTORE PUSH1 0x60 DUP1 DUP3 ADD MSTORE DUP3 PUSH1 0x80 DUP3 ADD MSTORE DUP3 PUSH1 0xA0 DUP3 ADD MSTORE DUP3 PUSH1 0xC0 DUP3 ADD MSTORE DUP3 PUSH1 0xE0 DUP3 ADD MSTORE DUP3 PUSH2 0x100 DUP3 ADD MSTORE DUP3 PUSH2 0x120 DUP3 ADD MSTORE ADD MSTORE PUSH2 0x9A9 PUSH1 0x5 SLOAD DUP3 LT PUSH2 0x1CE3 JUMP JUMPDEST PUSH1 0x0 MSTORE PUSH1 0x6 PUSH1 0x20 MSTORE PUSH2 0x180 PUSH1 0x40 PUSH1 0x0 KECCAK256 PUSH1 0x40 MLOAD SWAP1 PUSH2 0x9C6 DUP3 PUSH2 0x1B75 JUMP JUMPDEST DUP1 SLOAD PUSH1 0x1 PUSH1 0x1 PUSH1 0xA0 SHL SUB AND DUP3 MSTORE PUSH2 0x9DF PUSH1 0x1 DUP3 ADD PUSH2 0x1BB4 JUMP JUMPDEST SWAP2 PUSH1 0x20 DUP2 ADD SWAP3 DUP4 MSTORE DUP1 PUSH1 0xFF PUSH2 0x9F6 PUSH1 0x2 DUP6 ADD PUSH2 0x1BB4 JUMP JUMPDEST SWAP4 PUSH1 0x40 DUP4 ADD SWAP5 DUP6 MSTORE PUSH2 0xA0A PUSH1 0x3 DUP3 ADD PUSH2 0x1BB4 JUMP JUMPDEST SWAP5 PUSH1 0x60 DUP5 ADD SWAP6 DUP7 MSTORE PUSH1 0x4 DUP3 ADD SLOAD SWAP6 PUSH1 0x80 DUP6 ADD SWAP7 DUP8 MSTORE PUSH2 0xAD0 PUSH1 0x5 DUP5 ADD SLOAD SWAP2 PUSH1 0xA0 DUP8 ADD SWAP3 DUP4 MSTORE PUSH2 0xABD PUSH1 0x6 DUP7 ADD SLOAD SWAP5 PUSH1 0xC0 DUP10 ADD SWAP6 DUP7 MSTORE PUSH2 0xAAA PUSH1 0x9 PUSH1 0x7 DUP10 ADD SLOAD SWAP9 PUSH1 0xE0 DUP13 ADD SWAP10 DUP11 MSTORE DUP11 PUSH2 0x120 PUSH1 0x8 DUP4 ADD SLOAD SWAP14 DUP15 PUSH2 0x100 DUP3 ADD SWAP15 DUP16 SWAP2 AND ISZERO ISZERO SWAP1 MSTORE ADD SWAP13 PUSH1 0x8 SHR AND ISZERO ISZERO DUP13 MSTORE ADD SLOAD SWAP11 PUSH2 0x140 DUP2 ADD SWAP12 DUP13 MSTORE PUSH1 0x40 MLOAD SWAP15 DUP16 SWAP15 DUP16 SWAP3 PUSH1 0x20 DUP5 MSTORE PUSH1 0x1 DUP1 PUSH1 0xA0 SHL SUB SWAP1 MLOAD AND PUSH1 0x20 DUP5 ADD MSTORE MLOAD SWAP2 PUSH2 0x160 PUSH1 0x40 DUP3 ADD MSTORE ADD SWAP1 PUSH2 0x1C58 JUMP JUMPDEST SWAP1 MLOAD DUP13 DUP3 SUB PUSH1 0x1F NOT ADD PUSH1 0x60 DUP15 ADD MSTORE PUSH2 0x1C58 JUMP JUMPDEST SWAP1 MLOAD DUP11 DUP3 SUB PUSH1 0x1F NOT ADD PUSH1 0x80 DUP13 ADD MSTORE PUSH2 0x1C58 JUMP JUMPDEST SWAP7 MLOAD PUSH1 0xA0 DUP10 ADD MSTORE MLOAD PUSH1 0xC0 DUP9 ADD MSTORE MLOAD PUSH1 0xE0 DUP8 ADD MSTORE MLOAD PUSH2 0x100 DUP7 ADD MSTORE MLOAD ISZERO ISZERO PUSH2 0x120 DUP6 ADD MSTORE MLOAD ISZERO ISZERO PUSH2 0x140 DUP5 ADD MSTORE MLOAD PUSH2 0x160 DUP4 ADD MSTORE SUB SWAP1 RETURN JUMPDEST CALLVALUE PUSH2 0x2AF JUMPI PUSH1 0x0 CALLDATASIZE PUSH1 0x3 NOT ADD SLT PUSH2 0x2AF JUMPI PUSH1 0x20 PUSH1 0x40 MLOAD PUSH1 0x5 DUP2 MSTORE RETURN JUMPDEST CALLVALUE PUSH2 0x2AF JUMPI PUSH1 0x0 CALLDATASIZE PUSH1 0x3 NOT ADD SLT PUSH2 0x2AF JUMPI PUSH1 0x20 PUSH1 0x3 SLOAD PUSH1 0x40 MLOAD SWAP1 DUP2 MSTORE RETURN JUMPDEST CALLVALUE PUSH2 0x2AF JUMPI PUSH1 0x20 CALLDATASIZE PUSH1 0x3 NOT ADD SLT PUSH2 0x2AF JUMPI PUSH1 0x4 CALLDATALOAD PUSH2 0xB62 PUSH1 0x5 SLOAD DUP3 LT PUSH2 0x1CE3 JUMP JUMPDEST PUSH1 0x0 MSTORE PUSH1 0x6 PUSH1 0x20 MSTORE PUSH1 0x20 PUSH1 0x40 PUSH1 0x0 KECCAK256 PUSH1 0xFF PUSH1 0x8 DUP3 ADD SLOAD AND ISZERO SWAP1 DUP2 PUSH2 0xB8C JUMPI JUMPDEST POP PUSH1 0x40 MLOAD SWAP1 ISZERO ISZERO DUP2 MSTORE RETURN JUMPDEST PUSH2 0xBA1 SWAP2 POP PUSH1 0x7 PUSH1 0x6 DUP3 ADD SLOAD SWAP2 ADD SLOAD SWAP1 PUSH2 0x1D26 JUMP JUMPDEST TIMESTAMP LT DUP3 PUSH2 0xB81 JUMP JUMPDEST PUSH2 0xBB2 CALLDATASIZE PUSH2 0x1B0F JUMP JUMPDEST SWAP1 PUSH2 0xBBB PUSH2 0x245C JUMP JUMPDEST PUSH2 0xBC8 PUSH1 0x5 SLOAD DUP3 LT PUSH2 0x1CE3 JUMP JUMPDEST DUP1 PUSH1 0x0 MSTORE PUSH1 0x6 PUSH1 0x20 MSTORE PUSH2 0xBE6 PUSH1 0xFF PUSH1 0x8 PUSH1 0x40 PUSH1 0x0 KECCAK256 ADD SLOAD AND ISZERO PUSH2 0x2351 JUMP JUMPDEST DUP1 PUSH1 0x0 MSTORE PUSH1 0x6 PUSH1 0x20 MSTORE PUSH2 0xC1D PUSH2 0xC16 PUSH1 0x6 PUSH1 0x40 PUSH1 0x0 KECCAK256 ADD SLOAD DUP4 PUSH1 0x0 MSTORE PUSH1 0x6 PUSH1 0x20 MSTORE PUSH1 0x7 PUSH1 0x40 PUSH1 0x0 KECCAK256 ADD SLOAD SWAP1 PUSH2 0x1D26 JUMP JUMPDEST TIMESTAMP LT PUSH2 0x238D JUMP JUMPDEST CALLVALUE ISZERO PUSH2 0xF8C JUMPI DUP1 PUSH1 0x0 MSTORE PUSH1 0x6 PUSH1 0x20 MSTORE PUSH1 0x40 PUSH1 0x0 KECCAK256 PUSH1 0x5 DUP2 ADD DUP1 SLOAD PUSH10 0x21E19E0C9BAB2400000 PUSH2 0xC4C CALLVALUE DUP4 PUSH2 0x1D26 JUMP JUMPDEST GT PUSH2 0xF54 JUMPI PUSH1 0xC8 CALLVALUE MUL CALLVALUE DUP2 DIV PUSH1 0xC8 SUB PUSH2 0xF04 JUMPI PUSH2 0x2710 SWAP1 DIV SWAP3 PUSH1 0x64 CALLVALUE MUL CALLVALUE DUP2 DIV PUSH1 0x64 SUB PUSH2 0xF04 JUMPI PUSH2 0x2710 SWAP1 DIV SWAP3 PUSH2 0xC8C DUP5 PUSH2 0xC87 DUP8 CALLVALUE PUSH2 0x1D46 JUMP JUMPDEST PUSH2 0x1D46 JUMP JUMPDEST SWAP3 PUSH1 0x4 DUP4 ADD SWAP4 DUP5 SLOAD SWAP2 PUSH2 0xCAB PUSH2 0xCA2 DUP4 DUP6 PUSH2 0x25C0 JUMP JUMPDEST SWAP11 DUP12 LT ISZERO PUSH2 0x23C8 JUMP JUMPDEST PUSH12 0x33B2E3C9FD0803CE8000000 PUSH2 0xCC2 DUP12 DUP6 PUSH2 0x1D26 JUMP JUMPDEST GT PUSH2 0xF1A JUMPI DUP9 PUSH1 0x0 MSTORE PUSH1 0xB PUSH1 0x20 MSTORE PUSH1 0x40 PUSH1 0x0 KECCAK256 SLOAD PUSH1 0x5 DUP2 ADD DUP1 SWAP2 GT PUSH2 0xF04 JUMPI DUP11 SWAP1 NUMBER LT PUSH2 0xE7B JUMPI JUMPDEST PUSH2 0xCF7 SWAP1 PUSH2 0xCFE SWAP5 PUSH2 0x1D26 JUMP JUMPDEST DUP7 SSTORE PUSH2 0x1D26 JUMP JUMPDEST SWAP1 SSTORE DUP5 PUSH1 0x0 MSTORE PUSH1 0x7 PUSH1 0x20 MSTORE PUSH1 0x40 PUSH1 0x0 KECCAK256 PUSH1 0x1 DUP1 PUSH1 0xA0 SHL SUB CALLER AND PUSH1 0x0 MSTORE PUSH1 0x20 MSTORE PUSH1 0x40 PUSH1 0x0 KECCAK256 PUSH2 0xD2D DUP8 DUP3 SLOAD PUSH2 0x1D26 JUMP JUMPDEST SWAP1 SSTORE PUSH1 0x0 DUP6 DUP2 MSTORE PUSH1 0x9 PUSH1 0x20 SWAP1 DUP2 MSTORE PUSH1 0x40 DUP1 DUP4 KECCAK256 CALLER DUP5 MSTORE SWAP1 SWAP2 MSTORE SWAP1 KECCAK256 SLOAD DUP4 SWAP1 PUSH1 0xFF AND ISZERO PUSH2 0xDEF JUMPI JUMPDEST PUSH1 0x1 SLOAD PUSH2 0xD7F SWAP3 SWAP1 PUSH2 0xD70 SWAP1 DUP8 SWAP1 PUSH1 0x1 PUSH1 0x1 PUSH1 0xA0 SHL SUB AND PUSH2 0x2498 JUMP JUMPDEST SLOAD PUSH1 0x1 PUSH1 0x1 PUSH1 0xA0 SHL SUB AND PUSH2 0x2498 JUMP JUMPDEST SLOAD SWAP1 PUSH2 0xD8D PUSH1 0x2 SLOAD DUP4 PUSH2 0x2536 JUMP JUMPDEST SWAP3 PUSH1 0x40 MLOAD SWAP6 PUSH1 0x1 DUP8 MSTORE PUSH1 0x20 DUP8 ADD MSTORE CALLVALUE PUSH1 0x40 DUP8 ADD MSTORE PUSH1 0x60 DUP7 ADD MSTORE PUSH1 0x80 DUP6 ADD MSTORE PUSH1 0xA0 DUP5 ADD MSTORE PUSH1 0xC0 DUP4 ADD MSTORE PUSH32 0x21FB2EF4DB4BF31F6D1E357C56A918E6FB61D5B270A2F9C5075FF638093819D7 PUSH1 0xE0 CALLER SWAP4 LOG3 PUSH1 0x1 PUSH1 0x0 DUP1 MLOAD PUSH1 0x20 PUSH2 0x2741 DUP4 CODECOPY DUP2 MLOAD SWAP2 MSTORE SSTORE STOP JUMPDEST POP PUSH1 0x0 DUP6 DUP2 MSTORE PUSH1 0x9 PUSH1 0x20 SWAP1 DUP2 MSTORE PUSH1 0x40 DUP1 DUP4 KECCAK256 CALLER DUP5 MSTORE DUP3 MSTORE DUP1 DUP4 KECCAK256 DUP1 SLOAD PUSH1 0xFF NOT AND PUSH1 0x1 OR SWAP1 SSTORE DUP8 DUP4 MSTORE PUSH1 0x8 SWAP1 SWAP2 MSTORE SWAP1 KECCAK256 DUP1 SLOAD SWAP1 SWAP2 PUSH9 0x10000000000000000 DUP3 LT ISZERO PUSH2 0x63F JUMPI PUSH2 0xE47 DUP3 PUSH2 0xD7F SWAP5 PUSH1 0x1 DUP9 SWAP6 ADD DUP2 SSTORE PUSH2 0x1E29 JUMP JUMPDEST DUP2 SLOAD PUSH1 0x1 PUSH1 0x1 PUSH1 0xA0 SHL SUB PUSH1 0x3 SWAP3 SWAP1 SWAP3 SHL SWAP2 DUP3 SHL NOT AND CALLER SWAP1 SWAP2 SHL OR SWAP1 SSTORE PUSH1 0x9 DUP2 ADD DUP1 SLOAD PUSH2 0xE72 SWAP1 PUSH2 0x1E57 JUMP JUMPDEST SWAP1 SSTORE SWAP2 POP PUSH2 0xD54 JUMP JUMPDEST POP DUP9 PUSH1 0x0 MSTORE PUSH1 0x7 PUSH1 0x20 MSTORE PUSH1 0x40 PUSH1 0x0 KECCAK256 PUSH1 0x1 DUP1 PUSH1 0xA0 SHL SUB CALLER AND PUSH1 0x0 MSTORE PUSH1 0x20 MSTORE PUSH11 0x84595161401484A000000 PUSH2 0xEB4 DUP12 PUSH1 0x40 PUSH1 0x0 KECCAK256 SLOAD PUSH2 0x1D26 JUMP JUMPDEST GT PUSH2 0xEBF JUMPI DUP10 PUSH2 0xCEA JUMP JUMPDEST PUSH1 0x40 MLOAD PUSH3 0x461BCD PUSH1 0xE5 SHL DUP2 MSTORE PUSH1 0x20 PUSH1 0x4 DUP3 ADD MSTORE PUSH1 0x1D PUSH1 0x24 DUP3 ADD MSTORE PUSH32 0x416E74692D736E697065723A206D617820627579206578636565646564000000 PUSH1 0x44 DUP3 ADD MSTORE PUSH1 0x64 SWAP1 REVERT JUMPDEST PUSH4 0x4E487B71 PUSH1 0xE0 SHL PUSH1 0x0 MSTORE PUSH1 0x11 PUSH1 0x4 MSTORE PUSH1 0x24 PUSH1 0x0 REVERT JUMPDEST PUSH1 0x40 MLOAD PUSH3 0x461BCD PUSH1 0xE5 SHL DUP2 MSTORE PUSH1 0x20 PUSH1 0x4 DUP3 ADD MSTORE PUSH1 0x12 PUSH1 0x24 DUP3 ADD MSTORE PUSH18 0x13585E081CDD5C1C1B1E481C995858DA1959 PUSH1 0x72 SHL PUSH1 0x44 DUP3 ADD MSTORE PUSH1 0x64 SWAP1 REVERT JUMPDEST PUSH1 0x40 MLOAD PUSH3 0x461BCD PUSH1 0xE5 SHL DUP2 MSTORE PUSH1 0x20 PUSH1 0x4 DUP3 ADD MSTORE PUSH1 0x10 PUSH1 0x24 DUP3 ADD MSTORE PUSH16 0x141BDBDB0818D85C081C995858DA1959 PUSH1 0x82 SHL PUSH1 0x44 DUP3 ADD MSTORE PUSH1 0x64 SWAP1 REVERT JUMPDEST PUSH1 0x40 MLOAD PUSH3 0x461BCD PUSH1 0xE5 SHL DUP2 MSTORE PUSH1 0x20 PUSH1 0x4 DUP3 ADD MSTORE PUSH1 0xF PUSH1 0x24 DUP3 ADD MSTORE PUSH15 0x53656E64204D4F4E20746F20627579 PUSH1 0x88 SHL PUSH1 0x44 DUP3 ADD MSTORE PUSH1 0x64 SWAP1 REVERT JUMPDEST CALLVALUE PUSH2 0x2AF JUMPI PUSH1 0x60 CALLDATASIZE PUSH1 0x3 NOT ADD SLT PUSH2 0x2AF JUMPI PUSH1 0x24 CALLDATALOAD PUSH1 0x4 CALLDATALOAD PUSH2 0xFE2 PUSH2 0x245C JUMP JUMPDEST PUSH2 0xFEF PUSH1 0x5 SLOAD DUP3 LT PUSH2 0x1CE3 JUMP JUMPDEST DUP1 PUSH1 0x0 MSTORE PUSH1 0x6 PUSH1 0x20 MSTORE PUSH2 0x100D PUSH1 0xFF PUSH1 0x8 PUSH1 0x40 PUSH1 0x0 KECCAK256 ADD SLOAD AND ISZERO PUSH2 0x2351 JUMP JUMPDEST DUP1 PUSH1 0x0 MSTORE PUSH1 0x6 PUSH1 0x20 MSTORE PUSH2 0x103D PUSH2 0xC16 PUSH1 0x6 PUSH1 0x40 PUSH1 0x0 KECCAK256 ADD SLOAD DUP4 PUSH1 0x0 MSTORE PUSH1 0x6 PUSH1 0x20 MSTORE PUSH1 0x7 PUSH1 0x40 PUSH1 0x0 KECCAK256 ADD SLOAD SWAP1 PUSH2 0x1D26 JUMP JUMPDEST DUP2 ISZERO PUSH2 0x128C JUMPI PUSH1 0x0 DUP2 DUP2 MSTORE PUSH1 0x7 PUSH1 0x20 SWAP1 DUP2 MSTORE PUSH1 0x40 DUP1 DUP4 KECCAK256 CALLER DUP5 MSTORE SWAP1 SWAP2 MSTORE SWAP1 KECCAK256 SLOAD DUP3 GT PUSH2 0x1250 JUMPI DUP1 PUSH1 0x0 MSTORE PUSH1 0x6 PUSH1 0x20 MSTORE PUSH1 0x40 PUSH1 0x0 KECCAK256 PUSH1 0x4 DUP2 ADD DUP1 SLOAD SWAP2 PUSH2 0x1085 PUSH1 0x2 SLOAD DUP7 DUP6 PUSH2 0x2556 JUMP JUMPDEST SWAP2 PUSH1 0x5 DUP3 ADD SWAP2 DUP3 SLOAD SWAP3 DUP4 DUP6 GT PUSH2 0x1217 JUMPI PUSH1 0xC8 DUP6 MUL DUP6 ISZERO SWAP1 DUP7 DUP2 DIV PUSH1 0xC8 EQ DUP3 OR ISZERO PUSH2 0xF04 JUMPI PUSH2 0x2710 SWAP1 DIV SWAP6 PUSH1 0x64 DUP2 MUL SWAP2 DUP2 DUP4 DIV PUSH1 0x64 EQ OR ISZERO PUSH2 0xF04 JUMPI PUSH2 0x2710 PUSH2 0x10F1 SWAP3 DIV SWAP6 PUSH2 0x10EA DUP12 PUSH2 0x10DB DUP10 PUSH2 0xC87 DUP13 DUP8 PUSH2 0x1D46 JUMP JUMPDEST SWAP11 PUSH2 0xC87 PUSH1 0x44 CALLDATALOAD DUP14 LT ISZERO PUSH2 0x23C8 JUMP JUMPDEST DUP7 SSTORE PUSH2 0x1D46 JUMP JUMPDEST SWAP1 SSTORE DUP6 PUSH1 0x0 MSTORE PUSH1 0x7 PUSH1 0x20 MSTORE PUSH1 0x40 PUSH1 0x0 KECCAK256 PUSH1 0x1 DUP1 PUSH1 0xA0 SHL SUB CALLER AND PUSH1 0x0 MSTORE PUSH1 0x20 MSTORE PUSH1 0x40 PUSH1 0x0 KECCAK256 PUSH2 0x1120 DUP9 DUP3 SLOAD PUSH2 0x1D46 JUMP JUMPDEST SWAP1 SSTORE PUSH1 0x0 DUP7 DUP2 MSTORE PUSH1 0x7 PUSH1 0x20 SWAP1 DUP2 MSTORE PUSH1 0x40 DUP1 DUP4 KECCAK256 CALLER DUP5 MSTORE SWAP1 SWAP2 MSTORE SWAP1 KECCAK256 SLOAD DUP4 SWAP1 ISZERO PUSH2 0x11D9 JUMPI JUMPDEST PUSH1 0x1 SLOAD PUSH2 0x1160 SWAP3 SWAP1 PUSH2 0xD70 SWAP1 DUP8 SWAP1 PUSH1 0x1 PUSH1 0x1 PUSH1 0xA0 SHL SUB AND PUSH2 0x2498 JUMP JUMPDEST PUSH2 0x116A DUP5 CALLER PUSH2 0x2498 JUMP JUMPDEST SLOAD SWAP2 PUSH2 0x1178 PUSH1 0x2 SLOAD DUP5 PUSH2 0x2536 JUMP JUMPDEST SWAP4 PUSH1 0x40 MLOAD SWAP7 PUSH1 0x0 DUP9 MSTORE PUSH1 0x20 DUP9 ADD MSTORE PUSH1 0x40 DUP8 ADD MSTORE PUSH1 0x60 DUP7 ADD MSTORE PUSH1 0x80 DUP6 ADD MSTORE PUSH1 0xA0 DUP5 ADD MSTORE PUSH1 0xC0 DUP4 ADD MSTORE PUSH32 0x21FB2EF4DB4BF31F6D1E357C56A918E6FB61D5B270A2F9C5075FF638093819D7 PUSH1 0xE0 CALLER SWAP4 LOG3 PUSH1 0x1 PUSH1 0x0 DUP1 MLOAD PUSH1 0x20 PUSH2 0x2741 DUP4 CODECOPY DUP2 MLOAD SWAP2 MSTORE SSTORE STOP JUMPDEST POP PUSH1 0x0 DUP7 DUP2 MSTORE PUSH1 0x9 PUSH1 0x20 DUP2 DUP2 MSTORE PUSH1 0x40 DUP1 DUP5 KECCAK256 CALLER DUP6 MSTORE SWAP1 SWAP2 MSTORE SWAP1 SWAP2 KECCAK256 DUP1 SLOAD PUSH1 0xFF NOT AND SWAP1 SSTORE DUP2 ADD DUP1 SLOAD SWAP1 SWAP2 DUP2 ISZERO PUSH2 0xF04 JUMPI PUSH1 0x0 NOT SWAP1 SWAP2 ADD SWAP1 SWAP2 SSTORE DUP3 PUSH2 0x1144 JUMP JUMPDEST PUSH1 0x40 MLOAD PUSH3 0x461BCD PUSH1 0xE5 SHL DUP2 MSTORE PUSH1 0x20 PUSH1 0x4 DUP3 ADD MSTORE PUSH1 0x11 PUSH1 0x24 DUP3 ADD MSTORE PUSH17 0x125B9CDD59999A58DA595B9D081C1BDBDB PUSH1 0x7A SHL PUSH1 0x44 DUP3 ADD MSTORE PUSH1 0x64 SWAP1 REVERT JUMPDEST PUSH1 0x40 MLOAD PUSH3 0x461BCD PUSH1 0xE5 SHL DUP2 MSTORE PUSH1 0x20 PUSH1 0x4 DUP3 ADD MSTORE PUSH1 0x14 PUSH1 0x24 DUP3 ADD MSTORE PUSH20 0x496E73756666696369656E742062616C616E6365 PUSH1 0x60 SHL PUSH1 0x44 DUP3 ADD MSTORE PUSH1 0x64 SWAP1 REVERT JUMPDEST PUSH1 0x40 MLOAD PUSH3 0x461BCD PUSH1 0xE5 SHL DUP2 MSTORE PUSH1 0x20 PUSH1 0x4 DUP3 ADD MSTORE PUSH1 0x12 PUSH1 0x24 DUP3 ADD MSTORE PUSH18 0x416D6F756E74206D757374206265203E203 PUSH1 0x74 SHL PUSH1 0x44 DUP3 ADD MSTORE PUSH1 0x64 SWAP1 REVERT JUMPDEST PUSH2 0x1C99 JUMP JUMPDEST CALLVALUE PUSH2 0x2AF JUMPI PUSH1 0x20 CALLDATASIZE PUSH1 0x3 NOT ADD SLT PUSH2 0x2AF JUMPI PUSH1 0x4 CALLDATALOAD DUP1 ISZERO ISZERO DUP1 SWAP2 SUB PUSH2 0x2AF JUMPI PUSH2 0x12FE PUSH1 0x1 DUP1 PUSH1 0xA0 SHL SUB PUSH1 0x0 SLOAD AND CALLER EQ PUSH2 0x1D73 JUMP JUMPDEST PUSH1 0xFF DUP1 NOT PUSH1 0x4 SLOAD AND SWAP2 AND OR PUSH1 0x4 SSTORE PUSH1 0x0 DUP1 RETURN JUMPDEST CALLVALUE PUSH2 0x2AF JUMPI PUSH1 0x0 CALLDATASIZE PUSH1 0x3 NOT ADD SLT PUSH2 0x2AF JUMPI PUSH1 0x20 PUSH1 0x40 MLOAD PUSH1 0xC8 DUP2 MSTORE RETURN JUMPDEST CALLVALUE PUSH2 0x2AF JUMPI PUSH1 0x40 CALLDATASIZE PUSH1 0x3 NOT ADD SLT PUSH2 0x2AF JUMPI PUSH2 0x1346 PUSH2 0x1B25 JUMP JUMPDEST PUSH1 0x4 CALLDATALOAD PUSH1 0x0 MSTORE PUSH1 0xA PUSH1 0x20 MSTORE PUSH1 0x40 PUSH1 0x0 KECCAK256 SWAP1 PUSH1 0x1 DUP1 PUSH1 0xA0 SHL SUB AND PUSH1 0x0 MSTORE PUSH1 0x20 MSTORE PUSH1 0x20 PUSH1 0x40 PUSH1 0x0 KECCAK256 SLOAD PUSH1 0x40 MLOAD SWAP1 DUP2 MSTORE RETURN JUMPDEST CALLVALUE PUSH2 0x2AF JUMPI PUSH1 0x20 CALLDATASIZE PUSH1 0x3 NOT ADD SLT PUSH2 0x2AF JUMPI PUSH2 0x139B PUSH1 0x1 DUP1 PUSH1 0xA0 SHL SUB PUSH1 0x0 SLOAD AND CALLER EQ PUSH2 0x1D73 JUMP JUMPDEST PUSH1 0x4 CALLDATALOAD PUSH1 0x3 SSTORE STOP JUMPDEST CALLVALUE PUSH2 0x2AF JUMPI PUSH1 0x20 CALLDATASIZE PUSH1 0x3 NOT ADD SLT PUSH2 0x2AF JUMPI PUSH2 0x13D4 PUSH1 0x4 CALLDATALOAD PUSH2 0x13C2 PUSH2 0x245C JUMP JUMPDEST PUSH2 0x13CF PUSH1 0x5 SLOAD DUP3 LT PUSH2 0x1CE3 JUMP JUMPDEST PUSH2 0x1E66 JUMP JUMPDEST PUSH1 0x1 PUSH1 0x0 DUP1 MLOAD PUSH1 0x20 PUSH2 0x2741 DUP4 CODECOPY DUP2 MLOAD SWAP2 MSTORE SSTORE STOP JUMPDEST CALLVALUE PUSH2 0x2AF JUMPI PUSH1 0x0 CALLDATASIZE PUSH1 0x3 NOT ADD SLT PUSH2 0x2AF JUMPI PUSH1 0x20 PUSH1 0x2 SLOAD PUSH1 0x40 MLOAD SWAP1 DUP2 MSTORE RETURN JUMPDEST CALLVALUE PUSH2 0x2AF JUMPI PUSH1 0x40 CALLDATASIZE PUSH1 0x3 NOT ADD SLT PUSH2 0x2AF JUMPI PUSH2 0x141F PUSH2 0x1B25 JUMP JUMPDEST PUSH1 0x4 CALLDATALOAD PUSH1 0x0 MSTORE PUSH1 0x7 PUSH1 0x20 MSTORE PUSH1 0x40 PUSH1 0x0 KECCAK256 SWAP1 PUSH1 0x1 DUP1 PUSH1 0xA0 SHL SUB AND PUSH1 0x0 MSTORE PUSH1 0x20 MSTORE PUSH1 0x20 PUSH1 0x40 PUSH1 0x0 KECCAK256 SLOAD PUSH1 0x40 MLOAD SWAP1 DUP2 MSTORE RETURN JUMPDEST CALLVALUE PUSH2 0x2AF JUMPI PUSH1 0x0 CALLDATASIZE PUSH1 0x3 NOT ADD SLT PUSH2 0x2AF JUMPI PUSH1 0x20 PUSH1 0x5 SLOAD PUSH1 0x40 MLOAD SWAP1 DUP2 MSTORE RETURN JUMPDEST CALLVALUE PUSH2 0x2AF JUMPI PUSH2 0x14A6 PUSH2 0x147D CALLDATASIZE PUSH2 0x1B0F JUMP JUMPDEST SWAP1 PUSH2 0x148B PUSH1 0x5 SLOAD DUP3 LT PUSH2 0x1CE3 JUMP JUMPDEST PUSH1 0x0 MSTORE PUSH1 0x6 PUSH1 0x20 MSTORE PUSH1 0x4 PUSH1 0x40 PUSH1 0x0 KECCAK256 ADD SLOAD SWAP1 PUSH1 0x2 SLOAD SWAP2 PUSH2 0x2556 JUMP JUMPDEST PUSH2 0x12C DUP2 MUL DUP2 DUP2 DIV PUSH2 0x12C EQ DUP3 ISZERO OR ISZERO PUSH2 0xF04 JUMPI PUSH1 0x20 SWAP2 PUSH2 0x2710 PUSH2 0x8F0 SWAP3 DIV SWAP1 PUSH2 0x1D46 JUMP JUMPDEST CALLVALUE PUSH2 0x2AF JUMPI PUSH1 0x20 CALLDATASIZE PUSH1 0x3 NOT ADD SLT PUSH2 0x2AF JUMPI PUSH1 0x20 PUSH2 0x8F0 PUSH1 0x4 CALLDATALOAD PUSH2 0x14F1 PUSH1 0x5 SLOAD DUP3 LT PUSH2 0x1CE3 JUMP JUMPDEST PUSH2 0x1DAB JUMP JUMPDEST CALLVALUE PUSH2 0x2AF JUMPI PUSH1 0x20 CALLDATASIZE PUSH1 0x3 NOT ADD SLT PUSH2 0x2AF JUMPI PUSH1 0x4 CALLDATALOAD PUSH2 0x1517 PUSH1 0x5 SLOAD DUP3 LT PUSH2 0x1CE3 JUMP JUMPDEST PUSH1 0x0 MSTORE PUSH1 0x8 PUSH1 0x20 MSTORE PUSH1 0x40 PUSH1 0x0 KECCAK256 PUSH1 0x40 MLOAD DUP1 PUSH1 0x20 DUP4 SLOAD SWAP2 DUP3 DUP2 MSTORE ADD SWAP1 DUP2 SWAP4 PUSH1 0x0 MSTORE PUSH1 0x20 PUSH1 0x0 KECCAK256 SWAP1 PUSH1 0x0 JUMPDEST DUP2 DUP2 LT PUSH2 0x15A2 JUMPI POP POP POP DUP2 PUSH2 0x1556 SWAP2 SUB DUP3 PUSH2 0x1B92 JUMP JUMPDEST PUSH1 0x40 MLOAD SWAP2 DUP3 SWAP2 PUSH1 0x20 DUP4 ADD SWAP1 PUSH1 0x20 DUP5 MSTORE MLOAD DUP1 SWAP2 MSTORE PUSH1 0x40 DUP4 ADD SWAP2 SWAP1 PUSH1 0x0 JUMPDEST DUP2 DUP2 LT PUSH2 0x1580 JUMPI POP POP POP SUB SWAP1 RETURN JUMPDEST DUP3 MLOAD PUSH1 0x1 PUSH1 0x1 PUSH1 0xA0 SHL SUB AND DUP5 MSTORE DUP6 SWAP5 POP PUSH1 0x20 SWAP4 DUP5 ADD SWAP4 SWAP1 SWAP3 ADD SWAP2 PUSH1 0x1 ADD PUSH2 0x1572 JUMP JUMPDEST DUP3 SLOAD PUSH1 0x1 PUSH1 0x1 PUSH1 0xA0 SHL SUB AND DUP5 MSTORE PUSH1 0x20 SWAP1 SWAP4 ADD SWAP3 PUSH1 0x1 SWAP3 DUP4 ADD SWAP3 ADD PUSH2 0x1540 JUMP JUMPDEST CALLVALUE PUSH2 0x2AF JUMPI PUSH1 0x0 CALLDATASIZE PUSH1 0x3 NOT ADD SLT PUSH2 0x2AF JUMPI PUSH1 0x0 SLOAD PUSH1 0x40 MLOAD PUSH1 0x1 PUSH1 0x1 PUSH1 0xA0 SHL SUB SWAP1 SWAP2 AND DUP2 MSTORE PUSH1 0x20 SWAP1 RETURN JUMPDEST CALLVALUE PUSH2 0x2AF JUMPI PUSH1 0x0 CALLDATASIZE PUSH1 0x3 NOT ADD SLT PUSH2 0x2AF JUMPI PUSH1 0x20 PUSH1 0x40 MLOAD PUSH1 0x3 DUP2 MSTORE RETURN JUMPDEST CALLVALUE PUSH2 0x2AF JUMPI PUSH1 0x20 CALLDATASIZE PUSH1 0x3 NOT ADD SLT PUSH2 0x2AF JUMPI PUSH2 0x162C PUSH1 0x1 DUP1 PUSH1 0xA0 SHL SUB PUSH1 0x0 SLOAD AND CALLER EQ PUSH2 0x1D73 JUMP JUMPDEST PUSH1 0x4 CALLDATALOAD PUSH1 0x2 SSTORE STOP JUMPDEST CALLVALUE PUSH2 0x2AF JUMPI PUSH1 0x0 CALLDATASIZE PUSH1 0x3 NOT ADD SLT PUSH2 0x2AF JUMPI PUSH1 0x20 PUSH1 0x40 MLOAD PUSH2 0x1964 DUP2 MSTORE RETURN JUMPDEST CALLVALUE PUSH2 0x2AF JUMPI PUSH1 0x0 CALLDATASIZE PUSH1 0x3 NOT ADD SLT PUSH2 0x2AF JUMPI PUSH1 0x1 SLOAD PUSH1 0x40 MLOAD PUSH1 0x1 PUSH1 0x1 PUSH1 0xA0 SHL SUB SWAP1 SWAP2 AND DUP2 MSTORE PUSH1 0x20 SWAP1 RETURN JUMPDEST CALLVALUE PUSH2 0x2AF JUMPI PUSH1 0x0 CALLDATASIZE PUSH1 0x3 NOT ADD SLT PUSH2 0x2AF JUMPI PUSH1 0x20 PUSH1 0xFF PUSH1 0x4 SLOAD AND PUSH1 0x40 MLOAD SWAP1 ISZERO ISZERO DUP2 MSTORE RETURN JUMPDEST CALLVALUE PUSH2 0x2AF JUMPI PUSH1 0x0 CALLDATASIZE PUSH1 0x3 NOT ADD SLT PUSH2 0x2AF JUMPI PUSH1 0x20 PUSH1 0x40 MLOAD PUSH3 0x15180 DUP2 MSTORE RETURN JUMPDEST CALLVALUE PUSH2 0x2AF JUMPI PUSH1 0x0 CALLDATASIZE PUSH1 0x3 NOT ADD SLT PUSH2 0x2AF JUMPI PUSH1 0x20 PUSH1 0x40 MLOAD PUSH2 0x5460 DUP2 MSTORE RETURN JUMPDEST CALLVALUE PUSH2 0x2AF JUMPI PUSH1 0x20 CALLDATASIZE PUSH1 0x3 NOT ADD SLT PUSH2 0x2AF JUMPI PUSH1 0x4 CALLDATALOAD PUSH1 0x0 MSTORE PUSH1 0x6 PUSH1 0x20 MSTORE PUSH2 0x160 PUSH1 0x40 PUSH1 0x0 KECCAK256 PUSH1 0x1 DUP1 PUSH1 0xA0 SHL SUB DUP2 SLOAD AND SWAP1 PUSH2 0x1713 PUSH1 0x1 DUP3 ADD PUSH2 0x1BB4 JUMP JUMPDEST PUSH1 0xFF PUSH2 0x1721 PUSH1 0x2 DUP5 ADD PUSH2 0x1BB4 JUMP JUMPDEST SWAP3 PUSH2 0x172E PUSH1 0x3 DUP3 ADD PUSH2 0x1BB4 JUMP JUMPDEST SWAP4 PUSH1 0x4 DUP3 ADD SLOAD SWAP5 PUSH1 0x5 DUP4 ADD SLOAD PUSH2 0x178D PUSH1 0x6 DUP6 ADD SLOAD SWAP3 PUSH2 0x177F PUSH1 0x7 DUP8 ADD SLOAD SWAP6 PUSH2 0x1771 PUSH1 0x9 PUSH1 0x8 DUP11 ADD SLOAD SWAP10 ADD SLOAD SWAP11 PUSH1 0x40 MLOAD SWAP15 DUP16 SWAP15 DUP16 SWAP1 DUP2 MSTORE DUP2 PUSH1 0x20 DUP3 ADD MSTORE ADD SWAP1 PUSH2 0x1C58 JUMP JUMPDEST DUP13 DUP2 SUB PUSH1 0x40 DUP15 ADD MSTORE SWAP1 PUSH2 0x1C58 JUMP JUMPDEST SWAP1 DUP11 DUP3 SUB PUSH1 0x60 DUP13 ADD MSTORE PUSH2 0x1C58 JUMP JUMPDEST SWAP7 PUSH1 0x80 DUP10 ADD MSTORE PUSH1 0xA0 DUP9 ADD MSTORE PUSH1 0xC0 DUP8 ADD MSTORE PUSH1 0xE0 DUP7 ADD MSTORE DUP2 DUP2 AND ISZERO ISZERO PUSH2 0x100 DUP7 ADD MSTORE PUSH1 0x8 SHR AND ISZERO ISZERO PUSH2 0x120 DUP5 ADD MSTORE PUSH2 0x140 DUP4 ADD MSTORE SUB SWAP1 RETURN JUMPDEST CALLVALUE PUSH2 0x2AF JUMPI PUSH1 0x20 CALLDATASIZE PUSH1 0x3 NOT ADD SLT PUSH2 0x2AF JUMPI PUSH1 0x4 CALLDATALOAD PUSH1 0x0 MSTORE PUSH1 0xB PUSH1 0x20 MSTORE PUSH1 0x20 PUSH1 0x40 PUSH1 0x0 KECCAK256 SLOAD PUSH1 0x40 MLOAD SWAP1 DUP2 MSTORE RETURN JUMPDEST CALLVALUE PUSH2 0x2AF JUMPI PUSH1 0x20 CALLDATASIZE PUSH1 0x3 NOT ADD SLT PUSH2 0x2AF JUMPI PUSH1 0x4 CALLDATALOAD PUSH2 0x180B PUSH2 0x245C JUMP JUMPDEST PUSH2 0x1818 PUSH1 0x5 SLOAD DUP3 LT PUSH2 0x1CE3 JUMP JUMPDEST DUP1 PUSH1 0x0 MSTORE PUSH1 0x6 PUSH1 0x20 MSTORE PUSH1 0xFF PUSH1 0x8 PUSH1 0x40 PUSH1 0x0 KECCAK256 ADD SLOAD AND DUP1 PUSH2 0x1938 JUMPI JUMPDEST ISZERO PUSH2 0x18FF JUMPI PUSH1 0x0 DUP2 DUP2 MSTORE PUSH1 0xA PUSH1 0x20 SWAP1 DUP2 MSTORE PUSH1 0x40 DUP1 DUP4 KECCAK256 CALLER DUP5 MSTORE SWAP1 SWAP2 MSTORE SWAP1 KECCAK256 SLOAD SWAP1 DUP2 ISZERO PUSH2 0x18C7 JUMPI DUP1 PUSH1 0x0 MSTORE PUSH1 0xA PUSH1 0x20 MSTORE PUSH1 0x40 PUSH1 0x0 KECCAK256 PUSH1 0x1 DUP1 PUSH1 0xA0 SHL SUB CALLER AND PUSH1 0x0 MSTORE PUSH1 0x20 MSTORE PUSH1 0x0 PUSH1 0x40 DUP2 KECCAK256 SSTORE PUSH2 0x1887 DUP3 CALLER PUSH2 0x2498 JUMP JUMPDEST PUSH1 0x40 MLOAD SWAP2 DUP3 MSTORE PUSH32 0x4EC90E965519D92681267467F775ADA5BD214AA92C0DC93D90A5E880CE9ED026 PUSH1 0x20 CALLER SWAP4 LOG3 PUSH1 0x1 PUSH1 0x0 DUP1 MLOAD PUSH1 0x20 PUSH2 0x2741 DUP4 CODECOPY DUP2 MLOAD SWAP2 MSTORE SSTORE STOP JUMPDEST PUSH1 0x40 MLOAD PUSH3 0x461BCD PUSH1 0xE5 SHL DUP2 MSTORE PUSH1 0x20 PUSH1 0x4 DUP3 ADD MSTORE PUSH1 0x10 PUSH1 0x24 DUP3 ADD MSTORE PUSH16 0x4E6F7468696E6720746F20636C61696D PUSH1 0x80 SHL PUSH1 0x44 DUP3 ADD MSTORE PUSH1 0x64 SWAP1 REVERT JUMPDEST PUSH1 0x40 MLOAD PUSH3 0x461BCD PUSH1 0xE5 SHL DUP2 MSTORE PUSH1 0x20 PUSH1 0x4 DUP3 ADD MSTORE PUSH1 0x11 PUSH1 0x24 DUP3 ADD MSTORE PUSH17 0x139BDD0818DB185A5B58589B19481E595D PUSH1 0x7A SHL PUSH1 0x44 DUP3 ADD MSTORE PUSH1 0x64 SWAP1 REVERT JUMPDEST POP DUP1 PUSH1 0x0 MSTORE PUSH1 0x6 PUSH1 0x20 MSTORE PUSH1 0xFF PUSH1 0x8 PUSH1 0x40 PUSH1 0x0 KECCAK256 ADD SLOAD PUSH1 0x8 SHR AND PUSH2 0x1833 JUMP JUMPDEST CALLVALUE PUSH2 0x2AF JUMPI PUSH1 0x40 CALLDATASIZE PUSH1 0x3 NOT ADD SLT PUSH2 0x2AF JUMPI PUSH2 0x196F PUSH2 0x1B25 JUMP JUMPDEST PUSH1 0x4 CALLDATALOAD PUSH1 0x0 MSTORE PUSH1 0x9 PUSH1 0x20 MSTORE PUSH1 0x40 PUSH1 0x0 KECCAK256 SWAP1 PUSH1 0x1 DUP1 PUSH1 0xA0 SHL SUB AND PUSH1 0x0 MSTORE PUSH1 0x20 MSTORE PUSH1 0x20 PUSH1 0xFF PUSH1 0x40 PUSH1 0x0 KECCAK256 SLOAD AND PUSH1 0x40 MLOAD SWAP1 ISZERO ISZERO DUP2 MSTORE RETURN JUMPDEST CALLVALUE PUSH2 0x2AF JUMPI PUSH1 0x0 CALLDATASIZE PUSH1 0x3 NOT ADD SLT PUSH2 0x2AF JUMPI PUSH1 0x20 PUSH1 0x40 MLOAD PUSH12 0x33B2E3C9FD0803CE8000000 DUP2 MSTORE RETURN JUMPDEST CALLVALUE PUSH2 0x2AF JUMPI PUSH1 0x0 CALLDATASIZE PUSH1 0x3 NOT ADD SLT PUSH2 0x2AF JUMPI PUSH1 0x20 PUSH1 0x40 MLOAD PUSH10 0x21E19E0C9BAB2400000 DUP2 MSTORE RETURN JUMPDEST CALLVALUE PUSH2 0x2AF JUMPI PUSH1 0x0 CALLDATASIZE PUSH1 0x3 NOT ADD SLT PUSH2 0x2AF JUMPI PUSH1 0x20 PUSH1 0x40 MLOAD PUSH2 0x2710 DUP2 MSTORE RETURN JUMPDEST CALLVALUE PUSH2 0x2AF JUMPI PUSH1 0x0 CALLDATASIZE PUSH1 0x3 NOT ADD SLT PUSH2 0x2AF JUMPI PUSH1 0x20 PUSH1 0x40 MLOAD PUSH8 0x16345785D8A0000 DUP2 MSTORE RETURN JUMPDEST CALLVALUE PUSH2 0x2AF JUMPI PUSH8 0xDE0B6B3A7640000 PUSH2 0x1A95 PUSH2 0x1A49 CALLDATASIZE PUSH2 0x1B0F JUMP JUMPDEST SWAP1 PUSH2 0x1A57 PUSH1 0x5 SLOAD DUP3 LT PUSH2 0x1CE3 JUMP JUMPDEST PUSH1 0x0 MSTORE PUSH1 0x6 PUSH1 0x20 MSTORE PUSH2 0x1A8F PUSH1 0x4 PUSH1 0x40 PUSH1 0x0 KECCAK256 ADD SLOAD PUSH2 0x1A89 PUSH2 0x1A83 PUSH2 0x1A7E PUSH1 0x2 SLOAD SWAP6 DUP5 PUSH2 0x1D26 JUMP JUMPDEST PUSH2 0x26A5 JUMP JUMPDEST SWAP2 PUSH2 0x26A5 JUMP JUMPDEST SWAP1 PUSH2 0x1D46 JUMP JUMPDEST SWAP1 PUSH2 0x1D33 JUMP JUMPDEST DIV PUSH2 0x2710 DUP2 MUL SWAP1 DUP1 DUP3 DIV PUSH2 0x2710 EQ SWAP1 ISZERO OR ISZERO PUSH2 0xF04 JUMPI PUSH2 0x25E4 PUSH1 0x20 SWAP2 DIV PUSH1 0x40 MLOAD SWAP1 DUP2 MSTORE RETURN JUMPDEST CALLVALUE PUSH2 0x2AF JUMPI PUSH1 0x0 CALLDATASIZE PUSH1 0x3 NOT ADD SLT PUSH2 0x2AF JUMPI PUSH1 0x20 PUSH1 0x40 MLOAD PUSH2 0xDAC DUP2 MSTORE RETURN JUMPDEST CALLVALUE PUSH2 0x2AF JUMPI PUSH1 0x0 CALLDATASIZE PUSH1 0x3 NOT ADD SLT PUSH2 0x2AF JUMPI PUSH1 0x20 PUSH1 0x40 MLOAD PUSH2 0x1F4 DUP2 MSTORE RETURN JUMPDEST CALLVALUE PUSH2 0x2AF JUMPI PUSH1 0x0 CALLDATASIZE PUSH1 0x3 NOT ADD SLT PUSH2 0x2AF JUMPI DUP1 PUSH2 0xA8C0 PUSH1 0x20 SWAP3 MSTORE RETURN JUMPDEST PUSH1 0x40 SWAP1 PUSH1 0x3 NOT ADD SLT PUSH2 0x2AF JUMPI PUSH1 0x4 CALLDATALOAD SWAP1 PUSH1 0x24 CALLDATALOAD SWAP1 JUMP JUMPDEST PUSH1 0x24 CALLDATALOAD SWAP1 PUSH1 0x1 PUSH1 0x1 PUSH1 0xA0 SHL SUB DUP3 AND DUP3 SUB PUSH2 0x2AF JUMPI JUMP JUMPDEST SWAP1 PUSH1 0x1 DUP3 DUP2 SHR SWAP3 AND DUP1 ISZERO PUSH2 0x1B6B JUMPI JUMPDEST PUSH1 0x20 DUP4 LT EQ PUSH2 0x1B55 JUMPI JUMP JUMPDEST PUSH4 0x4E487B71 PUSH1 0xE0 SHL PUSH1 0x0 MSTORE PUSH1 0x22 PUSH1 0x4 MSTORE PUSH1 0x24 PUSH1 0x0 REVERT JUMPDEST SWAP2 PUSH1 0x7F AND SWAP2 PUSH2 0x1B4A JUMP JUMPDEST PUSH2 0x160 DUP2 ADD SWAP1 DUP2 LT PUSH8 0xFFFFFFFFFFFFFFFF DUP3 GT OR PUSH2 0x63F JUMPI PUSH1 0x40 MSTORE JUMP JUMPDEST SWAP1 PUSH1 0x1F DUP1 NOT SWAP2 ADD AND DUP2 ADD SWAP1 DUP2 LT PUSH8 0xFFFFFFFFFFFFFFFF DUP3 GT OR PUSH2 0x63F JUMPI PUSH1 0x40 MSTORE JUMP JUMPDEST SWAP1 PUSH1 0x40 MLOAD SWAP2 DUP3 PUSH1 0x0 DUP3 SLOAD SWAP3 PUSH2 0x1BC8 DUP5 PUSH2 0x1B3B JUMP JUMPDEST DUP1 DUP5 MSTORE SWAP4 PUSH1 0x1 DUP2 AND SWAP1 DUP2 ISZERO PUSH2 0x1C36 JUMPI POP PUSH1 0x1 EQ PUSH2 0x1BEF JUMPI JUMPDEST POP PUSH2 0x1BED SWAP3 POP SUB DUP4 PUSH2 0x1B92 JUMP JUMPDEST JUMP JUMPDEST SWAP1 POP PUSH1 0x0 SWAP3 SWAP2 SWAP3 MSTORE PUSH1 0x20 PUSH1 0x0 KECCAK256 SWAP1 PUSH1 0x0 SWAP2 JUMPDEST DUP2 DUP4 LT PUSH2 0x1C1A JUMPI POP POP SWAP1 PUSH1 0x20 PUSH2 0x1BED SWAP3 DUP3 ADD ADD CODESIZE PUSH2 0x1BE0 JUMP JUMPDEST PUSH1 0x20 SWAP2 SWAP4 POP DUP1 PUSH1 0x1 SWAP2 SLOAD DUP4 DUP6 DUP10 ADD ADD MSTORE ADD SWAP2 ADD SWAP1 SWAP2 DUP5 SWAP3 PUSH2 0x1C01 JUMP JUMPDEST SWAP1 POP PUSH1 0x20 SWAP3 POP PUSH2 0x1BED SWAP5 SWAP2 POP PUSH1 0xFF NOT AND DUP3 DUP5 ADD MSTORE ISZERO ISZERO PUSH1 0x5 SHL DUP3 ADD ADD CODESIZE PUSH2 0x1BE0 JUMP JUMPDEST SWAP2 SWAP1 DUP3 MLOAD SWAP3 DUP4 DUP3 MSTORE PUSH1 0x0 JUMPDEST DUP5 DUP2 LT PUSH2 0x1C84 JUMPI POP POP DUP3 PUSH1 0x0 PUSH1 0x20 DUP1 SWAP5 SWAP6 DUP5 ADD ADD MSTORE PUSH1 0x1F DUP1 NOT SWAP2 ADD AND ADD ADD SWAP1 JUMP JUMPDEST DUP1 PUSH1 0x20 DUP1 SWAP3 DUP5 ADD ADD MLOAD DUP3 DUP3 DUP7 ADD ADD MSTORE ADD PUSH2 0x1C63 JUMP JUMPDEST CALLVALUE PUSH2 0x2AF JUMPI PUSH1 0x0 CALLDATASIZE PUSH1 0x3 NOT ADD SLT PUSH2 0x2AF JUMPI PUSH1 0x20 PUSH1 0x40 MLOAD PUSH1 0x64 DUP2 MSTORE RETURN JUMPDEST SWAP2 DUP2 PUSH1 0x1F DUP5 ADD SLT ISZERO PUSH2 0x2AF JUMPI DUP3 CALLDATALOAD SWAP2 PUSH8 0xFFFFFFFFFFFFFFFF DUP4 GT PUSH2 0x2AF JUMPI PUSH1 0x20 DUP4 DUP2 DUP7 ADD SWAP6 ADD ADD GT PUSH2 0x2AF JUMPI JUMP JUMPDEST ISZERO PUSH2 0x1CEA JUMPI JUMP JUMPDEST PUSH1 0x40 MLOAD PUSH3 0x461BCD PUSH1 0xE5 SHL DUP2 MSTORE PUSH1 0x20 PUSH1 0x4 DUP3 ADD MSTORE PUSH1 0x14 PUSH1 0x24 DUP3 ADD MSTORE PUSH20 0x151BDAD95B88191BD95CC81B9BDD08195E1A5CDD PUSH1 0x62 SHL PUSH1 0x44 DUP3 ADD MSTORE PUSH1 0x64 SWAP1 REVERT JUMPDEST SWAP2 SWAP1 DUP3 ADD DUP1 SWAP3 GT PUSH2 0xF04 JUMPI JUMP JUMPDEST DUP2 DUP2 MUL SWAP3 SWAP2 DUP2 ISZERO SWAP2 DUP5 DIV EQ OR ISZERO PUSH2 0xF04 JUMPI JUMP JUMPDEST SWAP2 SWAP1 DUP3 SUB SWAP2 DUP3 GT PUSH2 0xF04 JUMPI JUMP JUMPDEST DUP2 ISZERO PUSH2 0x1D5D JUMPI DIV SWAP1 JUMP JUMPDEST PUSH4 0x4E487B71 PUSH1 0xE0 SHL PUSH1 0x0 MSTORE PUSH1 0x12 PUSH1 0x4 MSTORE PUSH1 0x24 PUSH1 0x0 REVERT JUMPDEST ISZERO PUSH2 0x1D7A JUMPI JUMP JUMPDEST PUSH1 0x40 MLOAD PUSH3 0x461BCD PUSH1 0xE5 SHL DUP2 MSTORE PUSH1 0x20 PUSH1 0x4 DUP3 ADD MSTORE PUSH1 0x9 PUSH1 0x24 DUP3 ADD MSTORE PUSH9 0x2737BA1037BBB732B9 PUSH1 0xB9 SHL PUSH1 0x44 DUP3 ADD MSTORE PUSH1 0x64 SWAP1 REVERT JUMPDEST DUP1 PUSH1 0x0 MSTORE PUSH1 0x6 PUSH1 0x20 MSTORE PUSH1 0x4 PUSH1 0x40 PUSH1 0x0 KECCAK256 ADD SLOAD ISZERO PUSH2 0x1E23 JUMPI PUSH1 0x0 MSTORE PUSH1 0x6 PUSH1 0x20 MSTORE PUSH1 0x4 PUSH1 0x40 PUSH1 0x0 KECCAK256 ADD SLOAD PUSH8 0xDE0B6B3A7640000 PUSH2 0x1DF6 PUSH2 0x1DEC PUSH1 0x2 SLOAD DUP1 SWAP5 PUSH2 0x2536 JUMP JUMPDEST SWAP3 PUSH2 0x1A8F DUP4 PUSH2 0x26DC JUMP JUMPDEST DIV DUP1 ISZERO PUSH2 0x1E1C JUMPI PUSH1 0x64 DUP3 MUL SWAP2 DUP1 DUP4 DIV PUSH1 0x64 EQ SWAP1 ISZERO OR ISZERO PUSH2 0xF04 JUMPI PUSH2 0x1E19 SWAP2 PUSH2 0x1D53 JUMP JUMPDEST SWAP1 JUMP JUMPDEST POP POP PUSH1 0x0 SWAP1 JUMP JUMPDEST POP PUSH1 0x0 SWAP1 JUMP JUMPDEST DUP1 SLOAD DUP3 LT ISZERO PUSH2 0x1E41 JUMPI PUSH1 0x0 MSTORE PUSH1 0x20 PUSH1 0x0 KECCAK256 ADD SWAP1 PUSH1 0x0 SWAP1 JUMP JUMPDEST PUSH4 0x4E487B71 PUSH1 0xE0 SHL PUSH1 0x0 MSTORE PUSH1 0x32 PUSH1 0x4 MSTORE PUSH1 0x24 PUSH1 0x0 REVERT JUMPDEST PUSH1 0x0 NOT DUP2 EQ PUSH2 0xF04 JUMPI PUSH1 0x1 ADD SWAP1 JUMP JUMPDEST DUP1 PUSH1 0x0 MSTORE PUSH1 0x6 PUSH1 0x20 MSTORE PUSH1 0x40 PUSH1 0x0 KECCAK256 PUSH1 0x8 DUP2 ADD DUP1 SLOAD SWAP1 PUSH1 0xFF DUP3 AND PUSH2 0x231D JUMPI PUSH2 0x1E96 PUSH1 0x6 DUP5 ADD SLOAD PUSH1 0x7 DUP6 ADD SLOAD SWAP1 PUSH2 0x1D26 JUMP JUMPDEST TIMESTAMP LT PUSH2 0x22E6 JUMPI PUSH1 0xFF NOT DUP3 AND PUSH1 0x1 OR DUP2 SSTORE PUSH1 0x5 DUP4 ADD DUP1 SLOAD SWAP1 SWAP3 DUP2 ISZERO PUSH2 0x22A4 JUMPI POP PUSH1 0x0 PUSH8 0x16345785D8A0000 DUP3 LT PUSH2 0x2299 JUMPI POP PUSH2 0x1EDA PUSH8 0x16345785D8A0000 DUP1 SWAP3 PUSH2 0x1D46 JUMP JUMPDEST PUSH2 0x1F4 DUP2 MUL DUP2 DUP2 DIV PUSH2 0x1F4 EQ DUP3 ISZERO OR ISZERO PUSH2 0xF04 JUMPI PUSH2 0x2710 PUSH2 0x1EFD SWAP2 DIV DUP1 SWAP3 PUSH2 0x1D46 JUMP JUMPDEST SWAP5 PUSH2 0x1964 DUP7 MUL DUP7 DUP2 DIV PUSH2 0x1964 EQ DUP8 ISZERO OR ISZERO PUSH2 0xF04 JUMPI PUSH2 0x2710 SWAP1 DIV SWAP1 PUSH2 0x1F22 DUP3 DUP9 PUSH2 0x1D46 JUMP JUMPDEST SWAP1 DUP9 PUSH1 0x0 MSTORE PUSH1 0x8 PUSH1 0x20 MSTORE PUSH1 0x40 PUSH1 0x0 KECCAK256 SLOAD PUSH1 0x80 MSTORE PUSH1 0x80 MLOAD ISZERO SWAP3 DUP4 ISZERO SWAP2 DUP3 DUP1 SWAP4 PUSH2 0x228C JUMPI JUMPDEST PUSH2 0x21D4 JUMPI JUMPDEST POP POP DUP1 PUSH2 0x21CB JUMPI JUMPDEST PUSH2 0x1FDB JUMPI JUMPDEST POP POP SWAP3 PUSH32 0xF005309A8A7FC7EF4FE267D20B85954D99222BED1E4E1DACC388FC820A8659E SWAP5 SWAP3 PUSH1 0x0 SWAP3 PUSH2 0x1F96 PUSH1 0x40 SWAP7 PUSH1 0x1 DUP1 PUSH1 0xA0 SHL SUB PUSH1 0x1 SLOAD AND PUSH2 0x2498 JUMP JUMPDEST DUP1 ISZERO ISZERO DUP1 PUSH2 0x1FD1 JUMPI JUMPDEST PUSH2 0x1FC1 JUMPI JUMPDEST POP DUP1 SLOAD PUSH2 0xFF00 NOT AND PUSH2 0x100 OR SWAP1 SSTORE SSTORE DUP2 MLOAD SWAP1 DUP2 MSTORE CALLER PUSH1 0x20 DUP3 ADD MSTORE LOG2 JUMP JUMPDEST PUSH2 0x1FCB SWAP1 CALLER PUSH2 0x2498 JUMP JUMPDEST CODESIZE PUSH2 0x1FA4 JUMP JUMPDEST POP DUP1 SELFBALANCE LT ISZERO PUSH2 0x1F9F JUMP JUMPDEST SWAP6 SWAP4 SWAP2 SWAP7 SWAP5 SWAP3 PUSH1 0x3 PUSH1 0x0 SWAP10 SWAP3 SWAP10 SWAP8 DIV SWAP5 PUSH1 0x0 SWAP5 PUSH1 0x0 NOT NUMBER ADD SWAP5 DUP6 BLOCKHASH SWAP7 JUMPDEST PUSH1 0x3 DUP2 LT DUP1 PUSH2 0x21C0 JUMPI JUMPDEST ISZERO PUSH2 0x2145 JUMPI NUMBER DUP8 GT PUSH2 0xF04 JUMPI PUSH1 0x40 MLOAD PUSH1 0x20 DUP2 ADD SWAP1 DUP10 DUP3 MSTORE DUP12 PUSH1 0x40 DUP3 ADD MSTORE DUP3 PUSH1 0x60 DUP3 ADD MSTORE PUSH1 0x80 MLOAD PUSH1 0x80 DUP3 ADD MSTORE TIMESTAMP PUSH1 0xA0 DUP3 ADD MSTORE PUSH1 0xA0 DUP2 MSTORE PUSH2 0x2042 PUSH1 0xC0 DUP3 PUSH2 0x1B92 JUMP JUMPDEST MLOAD SWAP1 KECCAK256 PUSH1 0x0 DUP15 JUMPDEST PUSH1 0x80 MLOAD DUP3 LT PUSH2 0x2064 JUMPI JUMPDEST POP POP POP PUSH2 0x205F SWAP1 PUSH2 0x1E57 JUMP JUMPDEST PUSH2 0x1FF8 JUMP JUMPDEST PUSH2 0x206E DUP3 DUP5 PUSH2 0x1D26 JUMP JUMPDEST SWAP1 PUSH2 0x1D5D JUMPI PUSH2 0x208F SWAP1 DUP14 PUSH1 0x0 MSTORE PUSH1 0x8 PUSH1 0x20 MSTORE PUSH1 0x80 MLOAD SWAP1 MOD PUSH1 0x40 PUSH1 0x0 KECCAK256 PUSH2 0x1E29 JUMP JUMPDEST SWAP1 SLOAD PUSH1 0x0 DUP15 DUP2 MSTORE PUSH1 0x7 PUSH1 0x20 SWAP1 DUP2 MSTORE PUSH1 0x40 DUP1 DUP4 KECCAK256 PUSH1 0x3 SWAP6 SWAP1 SWAP6 SHL SWAP4 SWAP1 SWAP4 SHR PUSH1 0x1 PUSH1 0x1 PUSH1 0xA0 SHL SUB AND DUP1 DUP4 MSTORE SWAP4 SWAP1 MSTORE KECCAK256 SLOAD PUSH2 0x20D1 JUMPI POP PUSH2 0x20CB SWAP1 PUSH2 0x1E57 JUMP JUMPDEST DUP15 PUSH2 0x2049 JUMP JUMPDEST SWAP13 PUSH2 0x205F SWAP4 SWAP3 POP PUSH2 0x2110 SWAP2 POP PUSH1 0x40 DUP15 DUP15 PUSH1 0x0 MSTORE PUSH1 0xA PUSH1 0x20 MSTORE DUP2 PUSH1 0x0 KECCAK256 PUSH1 0x0 SWAP2 PUSH1 0x1 DUP1 PUSH1 0xA0 SHL SUB AND DUP3 MSTORE PUSH1 0x20 MSTORE KECCAK256 PUSH2 0x2109 DUP14 DUP3 SLOAD PUSH2 0x1D26 JUMP JUMPDEST SWAP1 SSTORE PUSH2 0x1E57 JUMP JUMPDEST SWAP12 DUP12 PUSH32 0x327DC80A042147E77D98C1F6D26EBC8AEF4078AF7E6AB437F1D6452A19CB108B PUSH1 0x20 DUP14 PUSH1 0x40 MLOAD SWAP1 DUP2 MSTORE LOG3 SWAP1 CODESIZE DUP15 PUSH2 0x2053 JUMP JUMPDEST POP SWAP6 POP SWAP6 SWAP3 SWAP10 POP SWAP6 SWAP8 SWAP3 POP SWAP6 PUSH1 0x3 DUP2 LT PUSH2 0x2164 JUMPI JUMPDEST SWAP6 SWAP3 SWAP4 SWAP5 SWAP6 PUSH2 0x1F57 JUMP JUMPDEST PUSH1 0x3 SWAP6 SWAP5 SWAP3 SWAP4 SWAP2 SWAP6 SUB SWAP6 PUSH1 0x3 DUP8 GT PUSH2 0xF04 JUMPI PUSH2 0x1F96 PUSH2 0x21B2 PUSH1 0x0 SWAP6 PUSH2 0x21AC PUSH1 0x40 SWAP10 PUSH32 0xF005309A8A7FC7EF4FE267D20B85954D99222BED1E4E1DACC388FC820A8659E SWAP12 PUSH2 0x1D33 JUMP JUMPDEST SWAP1 PUSH2 0x1D26 JUMP JUMPDEST SWAP4 SWAP6 SWAP7 POP POP SWAP6 DUP2 SWAP4 POP PUSH2 0x215A JUMP JUMPDEST POP PUSH1 0x80 MLOAD DUP2 LT PUSH2 0x2002 JUMP JUMPDEST POP DUP1 ISZERO ISZERO PUSH2 0x1F52 JUMP JUMPDEST PUSH1 0x0 JUMPDEST PUSH1 0x80 MLOAD DUP2 LT PUSH2 0x21E6 JUMPI POP PUSH2 0x1F4A JUMP JUMPDEST PUSH1 0x1 SWAP1 DUP13 PUSH1 0x0 MSTORE PUSH1 0x8 PUSH1 0x20 MSTORE DUP13 PUSH2 0x2201 DUP3 PUSH1 0x40 PUSH1 0x0 KECCAK256 PUSH2 0x1E29 JUMP JUMPDEST DUP5 DUP1 PUSH1 0xA0 SHL SUB SWAP2 SLOAD SWAP1 PUSH1 0x3 SHL SHR AND DUP2 PUSH1 0x0 MSTORE PUSH1 0x7 PUSH1 0x20 MSTORE PUSH1 0x40 DUP1 PUSH1 0x0 KECCAK256 PUSH1 0x0 SWAP1 DUP7 DUP1 PUSH1 0xA0 SHL SUB DUP5 AND DUP3 MSTORE PUSH1 0x20 MSTORE KECCAK256 SLOAD DUP1 PUSH2 0x223F JUMPI JUMPDEST POP POP POP ADD PUSH2 0x21D7 JUMP JUMPDEST PUSH2 0x2282 SWAP2 PUSH2 0x225D PUSH2 0x2252 PUSH1 0x40 SWAP4 DUP11 PUSH2 0x1D33 JUMP JUMPDEST PUSH1 0x4 DUP10 ADD SLOAD SWAP1 PUSH2 0x1D53 JUMP JUMPDEST SWAP4 PUSH1 0x0 MSTORE PUSH1 0xA PUSH1 0x20 MSTORE DUP2 PUSH1 0x0 KECCAK256 PUSH1 0x0 SWAP2 DUP8 DUP1 PUSH1 0xA0 SHL SUB AND DUP3 MSTORE PUSH1 0x20 MSTORE KECCAK256 SWAP2 DUP3 SLOAD PUSH2 0x1D26 JUMP JUMPDEST SWAP1 SSTORE DUP13 CODESIZE DUP1 PUSH2 0x2236 JUMP JUMPDEST POP PUSH1 0x4 DUP2 ADD SLOAD ISZERO ISZERO PUSH2 0x1F45 JUMP JUMPDEST PUSH2 0x1EDA SWAP1 DUP1 SWAP3 PUSH2 0x1D46 JUMP JUMPDEST PUSH2 0xFFFF NOT AND PUSH2 0x101 OR SWAP1 SWAP2 SSTORE POP POP PUSH1 0x40 DUP1 MLOAD PUSH1 0x0 DUP2 MSTORE CALLER PUSH1 0x20 DUP3 ADD MSTORE PUSH32 0xF005309A8A7FC7EF4FE267D20B85954D99222BED1E4E1DACC388FC820A8659E SWAP3 POP LOG2 JUMP JUMPDEST PUSH1 0x40 MLOAD PUSH3 0x461BCD PUSH1 0xE5 SHL DUP2 MSTORE PUSH1 0x20 PUSH1 0x4 DUP3 ADD MSTORE PUSH1 0xF PUSH1 0x24 DUP3 ADD MSTORE PUSH15 0x139BDD08195E1C1A5C9959081E595D PUSH1 0x8A SHL PUSH1 0x44 DUP3 ADD MSTORE PUSH1 0x64 SWAP1 REVERT JUMPDEST PUSH1 0x40 MLOAD PUSH3 0x461BCD PUSH1 0xE5 SHL DUP2 MSTORE PUSH1 0x20 PUSH1 0x4 DUP3 ADD MSTORE PUSH1 0xC PUSH1 0x24 DUP3 ADD MSTORE PUSH12 0x105B1C9958591E4819195859 PUSH1 0xA2 SHL PUSH1 0x44 DUP3 ADD MSTORE PUSH1 0x64 SWAP1 REVERT JUMPDEST ISZERO PUSH2 0x2358 JUMPI JUMP JUMPDEST PUSH1 0x40 MLOAD PUSH3 0x461BCD PUSH1 0xE5 SHL DUP2 MSTORE PUSH1 0x20 PUSH1 0x4 DUP3 ADD MSTORE PUSH1 0xD PUSH1 0x24 DUP3 ADD MSTORE PUSH13 0x151BDAD95B881A5CC819195859 PUSH1 0x9A SHL PUSH1 0x44 DUP3 ADD MSTORE PUSH1 0x64 SWAP1 REVERT JUMPDEST ISZERO PUSH2 0x2394 JUMPI JUMP JUMPDEST PUSH1 0x40 MLOAD PUSH3 0x461BCD PUSH1 0xE5 SHL DUP2 MSTORE PUSH1 0x20 PUSH1 0x4 DUP3 ADD MSTORE PUSH1 0xC PUSH1 0x24 DUP3 ADD MSTORE PUSH12 0x151A5B5948195E1C1A5C9959 PUSH1 0xA2 SHL PUSH1 0x44 DUP3 ADD MSTORE PUSH1 0x64 SWAP1 REVERT JUMPDEST ISZERO PUSH2 0x23CF JUMPI JUMP JUMPDEST PUSH1 0x40 MLOAD PUSH3 0x461BCD PUSH1 0xE5 SHL DUP2 MSTORE PUSH1 0x20 PUSH1 0x4 DUP3 ADD MSTORE PUSH1 0x11 PUSH1 0x24 DUP3 ADD MSTORE PUSH17 0x14DB1A5C1C1859D948195E18D959591959 PUSH1 0x7A SHL PUSH1 0x44 DUP3 ADD MSTORE PUSH1 0x64 SWAP1 REVERT JUMPDEST PUSH1 0x0 MSTORE PUSH1 0x6 PUSH1 0x20 MSTORE PUSH2 0x2428 PUSH1 0x40 PUSH1 0x0 KECCAK256 PUSH1 0x7 PUSH1 0x6 DUP3 ADD SLOAD SWAP2 ADD SLOAD SWAP1 PUSH2 0x1D26 JUMP JUMPDEST DUP1 TIMESTAMP LT ISZERO PUSH2 0x1E23 JUMPI PUSH2 0x1E19 SWAP1 TIMESTAMP SWAP1 PUSH2 0x1D46 JUMP JUMPDEST SWAP1 DUP1 PUSH1 0x20 SWAP4 SWAP3 DUP2 DUP5 MSTORE DUP5 DUP5 ADD CALLDATACOPY PUSH1 0x0 DUP3 DUP3 ADD DUP5 ADD MSTORE PUSH1 0x1F ADD PUSH1 0x1F NOT AND ADD ADD SWAP1 JUMP JUMPDEST PUSH1 0x2 PUSH1 0x0 DUP1 MLOAD PUSH1 0x20 PUSH2 0x2741 DUP4 CODECOPY DUP2 MLOAD SWAP2 MSTORE SLOAD EQ PUSH2 0x2487 JUMPI PUSH1 0x2 PUSH1 0x0 DUP1 MLOAD PUSH1 0x20 PUSH2 0x2741 DUP4 CODECOPY DUP2 MLOAD SWAP2 MSTORE SSTORE JUMP JUMPDEST PUSH4 0x3EE5AEB5 PUSH1 0xE0 SHL PUSH1 0x0 MSTORE PUSH1 0x4 PUSH1 0x0 REVERT JUMPDEST DUP2 ISZERO PUSH2 0x2532 JUMPI PUSH1 0x0 SWAP2 DUP3 SWAP2 DUP3 SWAP2 DUP3 SWAP2 PUSH1 0x1 PUSH1 0x1 PUSH1 0xA0 SHL SUB AND GAS CALL RETURNDATASIZE ISZERO PUSH2 0x252D JUMPI RETURNDATASIZE PUSH8 0xFFFFFFFFFFFFFFFF DUP2 GT PUSH2 0x63F JUMPI PUSH1 0x40 MLOAD SWAP1 PUSH2 0x24E0 PUSH1 0x1F DUP3 ADD PUSH1 0x1F NOT AND PUSH1 0x20 ADD DUP4 PUSH2 0x1B92 JUMP JUMPDEST DUP2 MSTORE PUSH1 0x0 PUSH1 0x20 RETURNDATASIZE SWAP3 ADD RETURNDATACOPY JUMPDEST ISZERO PUSH2 0x24F2 JUMPI JUMP JUMPDEST PUSH1 0x40 MLOAD PUSH3 0x461BCD PUSH1 0xE5 SHL DUP2 MSTORE PUSH1 0x20 PUSH1 0x4 DUP3 ADD MSTORE PUSH1 0x13 PUSH1 0x24 DUP3 ADD MSTORE PUSH19 0x1353D3881D1C985B9CD9995C8819985A5B1959 PUSH1 0x6A SHL PUSH1 0x44 DUP3 ADD MSTORE PUSH1 0x64 SWAP1 REVERT JUMPDEST PUSH2 0x24EB JUMP JUMPDEST POP POP JUMP JUMPDEST DUP1 ISZERO PUSH2 0x1E1C JUMPI PUSH8 0xDE0B6B3A7640000 SWAP2 PUSH2 0x1A8F PUSH2 0x2552 SWAP3 PUSH2 0x26DC JUMP JUMPDEST DIV SWAP1 JUMP JUMPDEST SWAP1 SWAP2 DUP2 DUP4 GT PUSH2 0x2585 JUMPI PUSH2 0x1A8F DUP3 PUSH2 0x1A89 PUSH2 0x1A83 PUSH2 0x257F PUSH8 0xDE0B6B3A7640000 SWAP8 PUSH2 0x2552 SWAP8 PUSH2 0x1D46 JUMP JUMPDEST SWAP3 PUSH2 0x26A5 JUMP JUMPDEST PUSH1 0x40 MLOAD PUSH3 0x461BCD PUSH1 0xE5 SHL DUP2 MSTORE PUSH1 0x20 PUSH1 0x4 DUP3 ADD MSTORE PUSH1 0x13 PUSH1 0x24 DUP3 ADD MSTORE PUSH19 0x53656C6C206578636565647320737570706C79 PUSH1 0x68 SHL PUSH1 0x44 DUP3 ADD MSTORE PUSH1 0x64 SWAP1 REVERT JUMPDEST PUSH1 0x0 SWAP2 DUP2 PUSH12 0x33B2E3C9FD0803CE8000000 SUB PUSH12 0x33B2E3C9FD0803CE8000000 DUP2 GT PUSH2 0x2691 JUMPI DUP3 PUSH12 0x33B2E3C9FD0803CE8000000 EQ PUSH2 0x268B JUMPI SWAP2 SWAP1 PUSH1 0x2 SLOAD JUMPDEST DUP4 DUP6 LT PUSH2 0x260C JUMPI POP POP POP POP SWAP1 JUMP JUMPDEST SWAP1 SWAP2 SWAP3 SWAP4 PUSH2 0x261A DUP6 DUP3 PUSH2 0x1D26 JUMP JUMPDEST PUSH1 0x1 DUP2 ADD DUP1 SWAP2 GT PUSH2 0xF04 JUMPI PUSH1 0x1 SHR SWAP1 DUP4 PUSH8 0xDE0B6B3A7640000 PUSH2 0x2655 PUSH2 0x264F PUSH2 0x2646 PUSH2 0x1A7E DUP8 DUP12 PUSH2 0x1D26 JUMP JUMPDEST PUSH2 0x1A89 DUP11 PUSH2 0x26A5 JUMP JUMPDEST DUP7 PUSH2 0x1D33 JUMP JUMPDEST DIV GT PUSH2 0x2666 JUMPI POP SWAP4 JUMPDEST SWAP3 SWAP2 SWAP1 PUSH2 0x25FE JUMP JUMPDEST SWAP5 POP PUSH1 0x0 NOT DUP2 ADD SWAP1 DUP2 GT ISZERO PUSH2 0x265E JUMPI PUSH4 0x4E487B71 PUSH1 0xE0 SHL PUSH1 0x0 MSTORE PUSH1 0x11 PUSH1 0x4 MSTORE PUSH1 0x24 PUSH1 0x0 REVERT JUMPDEST POP POP POP SWAP1 JUMP JUMPDEST PUSH4 0x4E487B71 PUSH1 0xE0 SHL DUP5 MSTORE PUSH1 0x11 PUSH1 0x4 MSTORE PUSH1 0x24 DUP5 REVERT JUMPDEST DUP1 ISZERO PUSH2 0x1E23 JUMPI PUSH2 0x26C1 DUP2 PUSH2 0x1A8F PUSH8 0xDE0B6B3A7640000 SWAP4 PUSH2 0x26DC JUMP JUMPDEST DIV PUSH1 0x1 PUSH1 0x1 PUSH1 0xFF SHL SUB DUP2 AND DUP2 SUB PUSH2 0xF04 JUMPI PUSH1 0x3 SWAP1 PUSH1 0x1 SHL DIV SWAP1 JUMP JUMPDEST SWAP1 DUP2 ISZERO PUSH2 0x273A JUMPI PUSH8 0xDE0B6B3A7640000 DUP3 MUL SWAP2 DUP3 DIV PUSH8 0xDE0B6B3A7640000 SUB PUSH2 0xF04 JUMPI DUP2 PUSH1 0x1 DUP2 ADD DUP1 DUP3 GT PUSH2 0xF04 JUMPI PUSH1 0x1 SHR SWAP1 JUMPDEST DUP4 DUP3 LT PUSH2 0x271B JUMPI POP POP JUMP JUMPDEST SWAP1 SWAP3 POP PUSH2 0x2731 DUP4 PUSH2 0x272C DUP2 DUP5 PUSH2 0x1D53 JUMP JUMPDEST PUSH2 0x1D26 JUMP JUMPDEST PUSH1 0x1 SHR SWAP1 PUSH2 0x2710 JUMP JUMPDEST PUSH1 0x0 SWAP2 POP JUMP INVALID SWAP12 PUSH24 0x9B17422D0DF92223018B32B4D1FA46E071723D6817E2486D STOP EXTCODESIZE 0xEC 0xC5 PUSH0 STOP LOG2 PUSH5 0x6970667358 0x22 SLT KECCAK256 LOG3 DELEGATECALL MUL JUMP 0xDE DUP9 0x2D SGT 0xE0 0xD7 CALLDATALOAD PREVRANDAO 0xAD PUSH28 0x5CDB58CFDA0C50A1A7FC9DA62AB40DFCB72064736F6C634300081C00 CALLER "
        },
        "methodIdentifiers": {
          "BPS()": "249d39e9",
          "CREATOR_FEE_BPS()": "cc3cbd2a",
          "DEATH_TAX_BPS()": "0964b7ed",
          "DEATH_TRIGGER_BONUS()": "1e5c6222",
          "DURATION_12H()": "0932df81",
          "DURATION_24H()": "5d8cc808",
          "DURATION_6H()": "57ee9334",
          "LOTTERY_BPS()": "0b4b71cc",
          "LOTTERY_WINNERS()": "7a447ed3",
          "MAX_BUY_BPS_EARLY()": "d161c6a3",
          "MAX_POOL()": "2c3c91c9",
          "MAX_SUPPLY()": "32cb6b0c",
          "PROTOCOL_FEE_BPS()": "be378228",
          "PRO_RATA_BPS()": "636bcebe",
          "SNIPER_BLOCKS()": "dd7e8523",
          "balances(uint256,address)": "1f320331",
          "buy(uint256,uint256)": "d6febde8",
          "claim(uint256)": "379607f5",
          "claimable(uint256,address)": "a0c7f71c",
          "createToken(string,string,string,uint256)": "efbe8fd1",
          "creationBlock(uint256)": "4f5e74c2",
          "creationFee()": "dce0b4e4",
          "getBalance(uint256,address)": "b0a79459",
          "getBuyCost(uint256,uint256)": "121a257f",
          "getClaimable(uint256,address)": "b961cbe1",
          "getFirstBuyerMultiplier(uint256)": "9af4694d",
          "getHolders(uint256)": "92707869",
          "getPrice(uint256)": "e7572230",
          "getSellQuote(uint256,uint256)": "9beb5bad",
          "getTimeLeft(uint256)": "e8c58763",
          "getToken(uint256)": "e4b50cb8",
          "isAlive(uint256)": "d84b2361",
          "isHolder(uint256,address)": "36f732a1",
          "k()": "b4f40c61",
          "owner()": "8da5cb5b",
          "publicCreation()": "5ff67b1b",
          "sell(uint256,uint256,uint256)": "d3c9727c",
          "setCreationFee(uint256)": "b7d86225",
          "setK(uint256)": "67de8be9",
          "setPublicCreation(bool)": "c451bc95",
          "setTreasury(address)": "f0f44260",
          "tokenCount()": "9f181b5e",
          "tokens(uint256)": "4f64b2be",
          "treasury()": "61d027b3",
          "triggerDeath(uint256)": "b713cc40"
        }
      }
    }
  }
}