{
  "contracts/ClacFactory.sol": {
    "ClacFactory": {
      "abi": [
        {
          "inputs": [
            {
              "internalType": "address",
              "name": "_treasury",
              "type": "address"
            },
            {
              "internalType": "uint256",
              "name": "_k",
              "type": "uint256"
            }
          ],
          "stateMutability": "nonpayable",
          "type": "constructor"
        },
        {
          "inputs": [],
          "name": "ReentrancyGuardReentrantCall",
          "type": "error"
        },
        {
          "anonymous": false,
          "inputs": [
            {
              "indexed": true,
              "internalType": "uint256",
              "name": "tokenId",
              "type": "uint256"
            },
            {
              "indexed": true,
              "internalType": "address",
              "name": "holder",
              "type": "address"
            },
            {
              "indexed": false,
              "internalType": "uint256",
              "name": "amount",
              "type": "uint256"
            }
          ],
          "name": "Claimed",
          "type": "event"
        },
        {
          "anonymous": false,
          "inputs": [
            {
              "indexed": true,
              "internalType": "uint256",
              "name": "tokenId",
              "type": "uint256"
            },
            {
              "indexed": true,
              "internalType": "address",
              "name": "winner",
              "type": "address"
            },
            {
              "indexed": false,
              "internalType": "uint256",
              "name": "amount",
              "type": "uint256"
            }
          ],
          "name": "LotteryWin",
          "type": "event"
        },
        {
          "anonymous": false,
          "inputs": [
            {
              "indexed": true,
              "internalType": "uint256",
              "name": "tokenId",
              "type": "uint256"
            },
            {
              "indexed": false,
              "internalType": "uint256",
              "name": "poolRemaining",
              "type": "uint256"
            },
            {
              "indexed": false,
              "internalType": "address",
              "name": "triggeredBy",
              "type": "address"
            }
          ],
          "name": "TokenClacced",
          "type": "event"
        },
        {
          "anonymous": false,
          "inputs": [
            {
              "indexed": true,
              "internalType": "uint256",
              "name": "tokenId",
              "type": "uint256"
            },
            {
              "indexed": true,
              "internalType": "address",
              "name": "creator",
              "type": "address"
            },
            {
              "indexed": false,
              "internalType": "string",
              "name": "name",
              "type": "string"
            },
            {
              "indexed": false,
              "internalType": "string",
              "name": "symbol",
              "type": "string"
            },
            {
              "indexed": false,
              "internalType": "string",
              "name": "imageURI",
              "type": "string"
            },
            {
              "indexed": false,
              "internalType": "uint256",
              "name": "duration",
              "type": "uint256"
            }
          ],
          "name": "TokenCreated",
          "type": "event"
        },
        {
          "anonymous": false,
          "inputs": [
            {
              "indexed": true,
              "internalType": "uint256",
              "name": "tokenId",
              "type": "uint256"
            },
            {
              "indexed": true,
              "internalType": "address",
              "name": "trader",
              "type": "address"
            },
            {
              "indexed": false,
              "internalType": "bool",
              "name": "isBuy",
              "type": "bool"
            },
            {
              "indexed": false,
              "internalType": "uint256",
              "name": "tokenAmount",
              "type": "uint256"
            },
            {
              "indexed": false,
              "internalType": "uint256",
              "name": "monAmount",
              "type": "uint256"
            },
            {
              "indexed": false,
              "internalType": "uint256",
              "name": "protocolFee",
              "type": "uint256"
            },
            {
              "indexed": false,
              "internalType": "uint256",
              "name": "creatorFee",
              "type": "uint256"
            },
            {
              "indexed": false,
              "internalType": "uint256",
              "name": "newSupply",
              "type": "uint256"
            },
            {
              "indexed": false,
              "internalType": "uint256",
              "name": "newPrice",
              "type": "uint256"
            }
          ],
          "name": "Trade",
          "type": "event"
        },
        {
          "inputs": [],
          "name": "BPS",
          "outputs": [
            {
              "internalType": "uint256",
              "name": "",
              "type": "uint256"
            }
          ],
          "stateMutability": "view",
          "type": "function"
        },
        {
          "inputs": [],
          "name": "BUY_COOLDOWN_BLOCKS",
          "outputs": [
            {
              "internalType": "uint256",
              "name": "",
              "type": "uint256"
            }
          ],
          "stateMutability": "view",
          "type": "function"
        },
        {
          "inputs": [],
          "name": "CREATOR_FEE_BPS",
          "outputs": [
            {
              "internalType": "uint256",
              "name": "",
              "type": "uint256"
            }
          ],
          "stateMutability": "view",
          "type": "function"
        },
        {
          "inputs": [],
          "name": "DEATH_TAX_BPS",
          "outputs": [
            {
              "internalType": "uint256",
              "name": "",
              "type": "uint256"
            }
          ],
          "stateMutability": "view",
          "type": "function"
        },
        {
          "inputs": [],
          "name": "DEATH_TRIGGER_BONUS",
          "outputs": [
            {
              "internalType": "uint256",
              "name": "",
              "type": "uint256"
            }
          ],
          "stateMutability": "view",
          "type": "function"
        },
        {
          "inputs": [],
          "name": "DURATION_12H",
          "outputs": [
            {
              "internalType": "uint256",
              "name": "",
              "type": "uint256"
            }
          ],
          "stateMutability": "view",
          "type": "function"
        },
        {
          "inputs": [],
          "name": "DURATION_24H",
          "outputs": [
            {
              "internalType": "uint256",
              "name": "",
              "type": "uint256"
            }
          ],
          "stateMutability": "view",
          "type": "function"
        },
        {
          "inputs": [],
          "name": "DURATION_6H",
          "outputs": [
            {
              "internalType": "uint256",
              "name": "",
              "type": "uint256"
            }
          ],
          "stateMutability": "view",
          "type": "function"
        },
        {
          "inputs": [],
          "name": "LOTTERY_BPS",
          "outputs": [
            {
              "internalType": "uint256",
              "name": "",
              "type": "uint256"
            }
          ],
          "stateMutability": "view",
          "type": "function"
        },
        {
          "inputs": [],
          "name": "LOTTERY_WINNERS",
          "outputs": [
            {
              "internalType": "uint256",
              "name": "",
              "type": "uint256"
            }
          ],
          "stateMutability": "view",
          "type": "function"
        },
        {
          "inputs": [],
          "name": "MAX_BUY_BPS_EARLY",
          "outputs": [
            {
              "internalType": "uint256",
              "name": "",
              "type": "uint256"
            }
          ],
          "stateMutability": "view",
          "type": "function"
        },
        {
          "inputs": [],
          "name": "MAX_HOLDING_BPS",
          "outputs": [
            {
              "internalType": "uint256",
              "name": "",
              "type": "uint256"
            }
          ],
          "stateMutability": "view",
          "type": "function"
        },
        {
          "inputs": [],
          "name": "MAX_POOL",
          "outputs": [
            {
              "internalType": "uint256",
              "name": "",
              "type": "uint256"
            }
          ],
          "stateMutability": "view",
          "type": "function"
        },
        {
          "inputs": [],
          "name": "MAX_SUPPLY",
          "outputs": [
            {
              "internalType": "uint256",
              "name": "",
              "type": "uint256"
            }
          ],
          "stateMutability": "view",
          "type": "function"
        },
        {
          "inputs": [],
          "name": "MIN_BUY",
          "outputs": [
            {
              "internalType": "uint256",
              "name": "",
              "type": "uint256"
            }
          ],
          "stateMutability": "view",
          "type": "function"
        },
        {
          "inputs": [],
          "name": "PROTOCOL_FEE_BPS",
          "outputs": [
            {
              "internalType": "uint256",
              "name": "",
              "type": "uint256"
            }
          ],
          "stateMutability": "view",
          "type": "function"
        },
        {
          "inputs": [],
          "name": "PRO_RATA_BPS",
          "outputs": [
            {
              "internalType": "uint256",
              "name": "",
              "type": "uint256"
            }
          ],
          "stateMutability": "view",
          "type": "function"
        },
        {
          "inputs": [],
          "name": "SNIPER_BLOCKS",
          "outputs": [
            {
              "internalType": "uint256",
              "name": "",
              "type": "uint256"
            }
          ],
          "stateMutability": "view",
          "type": "function"
        },
        {
          "inputs": [
            {
              "internalType": "uint256",
              "name": "",
              "type": "uint256"
            },
            {
              "internalType": "address",
              "name": "",
              "type": "address"
            }
          ],
          "name": "balances",
          "outputs": [
            {
              "internalType": "uint256",
              "name": "",
              "type": "uint256"
            }
          ],
          "stateMutability": "view",
          "type": "function"
        },
        {
          "inputs": [
            {
              "internalType": "uint256",
              "name": "tokenId",
              "type": "uint256"
            },
            {
              "internalType": "uint256",
              "name": "minTokens",
              "type": "uint256"
            }
          ],
          "name": "buy",
          "outputs": [],
          "stateMutability": "payable",
          "type": "function"
        },
        {
          "inputs": [
            {
              "internalType": "uint256",
              "name": "tokenId",
              "type": "uint256"
            }
          ],
          "name": "claim",
          "outputs": [],
          "stateMutability": "nonpayable",
          "type": "function"
        },
        {
          "inputs": [
            {
              "internalType": "uint256",
              "name": "",
              "type": "uint256"
            },
            {
              "internalType": "address",
              "name": "",
              "type": "address"
            }
          ],
          "name": "claimable",
          "outputs": [
            {
              "internalType": "uint256",
              "name": "",
              "type": "uint256"
            }
          ],
          "stateMutability": "view",
          "type": "function"
        },
        {
          "inputs": [
            {
              "internalType": "string",
              "name": "name",
              "type": "string"
            },
            {
              "internalType": "string",
              "name": "symbol",
              "type": "string"
            },
            {
              "internalType": "string",
              "name": "imageURI",
              "type": "string"
            },
            {
              "internalType": "uint256",
              "name": "duration",
              "type": "uint256"
            }
          ],
          "name": "createToken",
          "outputs": [
            {
              "internalType": "uint256",
              "name": "tokenId",
              "type": "uint256"
            }
          ],
          "stateMutability": "payable",
          "type": "function"
        },
        {
          "inputs": [
            {
              "internalType": "uint256",
              "name": "",
              "type": "uint256"
            }
          ],
          "name": "creationBlock",
          "outputs": [
            {
              "internalType": "uint256",
              "name": "",
              "type": "uint256"
            }
          ],
          "stateMutability": "view",
          "type": "function"
        },
        {
          "inputs": [],
          "name": "creationFee",
          "outputs": [
            {
              "internalType": "uint256",
              "name": "",
              "type": "uint256"
            }
          ],
          "stateMutability": "view",
          "type": "function"
        },
        {
          "inputs": [
            {
              "internalType": "uint256",
              "name": "tokenId",
              "type": "uint256"
            },
            {
              "internalType": "address",
              "name": "user",
              "type": "address"
            }
          ],
          "name": "getBalance",
          "outputs": [
            {
              "internalType": "uint256",
              "name": "",
              "type": "uint256"
            }
          ],
          "stateMutability": "view",
          "type": "function"
        },
        {
          "inputs": [
            {
              "internalType": "uint256",
              "name": "tokenId",
              "type": "uint256"
            },
            {
              "internalType": "uint256",
              "name": "tokenAmount",
              "type": "uint256"
            }
          ],
          "name": "getBuyCost",
          "outputs": [
            {
              "internalType": "uint256",
              "name": "",
              "type": "uint256"
            }
          ],
          "stateMutability": "view",
          "type": "function"
        },
        {
          "inputs": [
            {
              "internalType": "uint256",
              "name": "tokenId",
              "type": "uint256"
            },
            {
              "internalType": "address",
              "name": "user",
              "type": "address"
            }
          ],
          "name": "getClaimable",
          "outputs": [
            {
              "internalType": "uint256",
              "name": "",
              "type": "uint256"
            }
          ],
          "stateMutability": "view",
          "type": "function"
        },
        {
          "inputs": [
            {
              "internalType": "uint256",
              "name": "tokenId",
              "type": "uint256"
            }
          ],
          "name": "getFirstBuyerMultiplier",
          "outputs": [
            {
              "internalType": "uint256",
              "name": "",
              "type": "uint256"
            }
          ],
          "stateMutability": "view",
          "type": "function"
        },
        {
          "inputs": [
            {
              "internalType": "uint256",
              "name": "tokenId",
              "type": "uint256"
            }
          ],
          "name": "getHolders",
          "outputs": [
            {
              "internalType": "address[]",
              "name": "",
              "type": "address[]"
            }
          ],
          "stateMutability": "view",
          "type": "function"
        },
        {
          "inputs": [
            {
              "internalType": "uint256",
              "name": "tokenId",
              "type": "uint256"
            }
          ],
          "name": "getPrice",
          "outputs": [
            {
              "internalType": "uint256",
              "name": "",
              "type": "uint256"
            }
          ],
          "stateMutability": "view",
          "type": "function"
        },
        {
          "inputs": [
            {
              "internalType": "uint256",
              "name": "tokenId",
              "type": "uint256"
            },
            {
              "internalType": "uint256",
              "name": "tokenAmount",
              "type": "uint256"
            }
          ],
          "name": "getSellQuote",
          "outputs": [
            {
              "internalType": "uint256",
              "name": "",
              "type": "uint256"
            }
          ],
          "stateMutability": "view",
          "type": "function"
        },
        {
          "inputs": [
            {
              "internalType": "uint256",
              "name": "tokenId",
              "type": "uint256"
            }
          ],
          "name": "getTimeLeft",
          "outputs": [
            {
              "internalType": "uint256",
              "name": "",
              "type": "uint256"
            }
          ],
          "stateMutability": "view",
          "type": "function"
        },
        {
          "inputs": [
            {
              "internalType": "uint256",
              "name": "tokenId",
              "type": "uint256"
            }
          ],
          "name": "getToken",
          "outputs": [
            {
              "components": [
                {
                  "internalType": "address",
                  "name": "creator",
                  "type": "address"
                },
                {
                  "internalType": "string",
                  "name": "name",
                  "type": "string"
                },
                {
                  "internalType": "string",
                  "name": "symbol",
                  "type": "string"
                },
                {
                  "internalType": "string",
                  "name": "imageURI",
                  "type": "string"
                },
                {
                  "internalType": "uint256",
                  "name": "virtualSupply",
                  "type": "uint256"
                },
                {
                  "internalType": "uint256",
                  "name": "poolBalance",
                  "type": "uint256"
                },
                {
                  "internalType": "uint256",
                  "name": "createdAt",
                  "type": "uint256"
                },
                {
                  "internalType": "uint256",
                  "name": "duration",
                  "type": "uint256"
                },
                {
                  "internalType": "bool",
                  "name": "dead",
                  "type": "bool"
                },
                {
                  "internalType": "bool",
                  "name": "deathProcessed",
                  "type": "bool"
                },
                {
                  "internalType": "uint256",
                  "name": "totalHolders",
                  "type": "uint256"
                }
              ],
              "internalType": "struct ClacFactory.Token",
              "name": "",
              "type": "tuple"
            }
          ],
          "stateMutability": "view",
          "type": "function"
        },
        {
          "inputs": [
            {
              "internalType": "uint256",
              "name": "tokenId",
              "type": "uint256"
            }
          ],
          "name": "isAlive",
          "outputs": [
            {
              "internalType": "bool",
              "name": "",
              "type": "bool"
            }
          ],
          "stateMutability": "view",
          "type": "function"
        },
        {
          "inputs": [
            {
              "internalType": "uint256",
              "name": "",
              "type": "uint256"
            },
            {
              "internalType": "address",
              "name": "",
              "type": "address"
            }
          ],
          "name": "isHolder",
          "outputs": [
            {
              "internalType": "bool",
              "name": "",
              "type": "bool"
            }
          ],
          "stateMutability": "view",
          "type": "function"
        },
        {
          "inputs": [],
          "name": "k",
          "outputs": [
            {
              "internalType": "uint256",
              "name": "",
              "type": "uint256"
            }
          ],
          "stateMutability": "view",
          "type": "function"
        },
        {
          "inputs": [
            {
              "internalType": "uint256",
              "name": "",
              "type": "uint256"
            },
            {
              "internalType": "address",
              "name": "",
              "type": "address"
            }
          ],
          "name": "lastBuyBlock",
          "outputs": [
            {
              "internalType": "uint256",
              "name": "",
              "type": "uint256"
            }
          ],
          "stateMutability": "view",
          "type": "function"
        },
        {
          "inputs": [],
          "name": "owner",
          "outputs": [
            {
              "internalType": "address",
              "name": "",
              "type": "address"
            }
          ],
          "stateMutability": "view",
          "type": "function"
        },
        {
          "inputs": [],
          "name": "publicCreation",
          "outputs": [
            {
              "internalType": "bool",
              "name": "",
              "type": "bool"
            }
          ],
          "stateMutability": "view",
          "type": "function"
        },
        {
          "inputs": [
            {
              "internalType": "uint256",
              "name": "tokenId",
              "type": "uint256"
            },
            {
              "internalType": "uint256",
              "name": "tokenAmount",
              "type": "uint256"
            },
            {
              "internalType": "uint256",
              "name": "minMON",
              "type": "uint256"
            }
          ],
          "name": "sell",
          "outputs": [],
          "stateMutability": "nonpayable",
          "type": "function"
        },
        {
          "inputs": [
            {
              "internalType": "uint256",
              "name": "_fee",
              "type": "uint256"
            }
          ],
          "name": "setCreationFee",
          "outputs": [],
          "stateMutability": "nonpayable",
          "type": "function"
        },
        {
          "inputs": [
            {
              "internalType": "uint256",
              "name": "_k",
              "type": "uint256"
            }
          ],
          "name": "setK",
          "outputs": [],
          "stateMutability": "nonpayable",
          "type": "function"
        },
        {
          "inputs": [
            {
              "internalType": "bool",
              "name": "_public",
              "type": "bool"
            }
          ],
          "name": "setPublicCreation",
          "outputs": [],
          "stateMutability": "nonpayable",
          "type": "function"
        },
        {
          "inputs": [
            {
              "internalType": "address",
              "name": "_treasury",
              "type": "address"
            }
          ],
          "name": "setTreasury",
          "outputs": [],
          "stateMutability": "nonpayable",
          "type": "function"
        },
        {
          "inputs": [],
          "name": "tokenCount",
          "outputs": [
            {
              "internalType": "uint256",
              "name": "",
              "type": "uint256"
            }
          ],
          "stateMutability": "view",
          "type": "function"
        },
        {
          "inputs": [
            {
              "internalType": "uint256",
              "name": "",
              "type": "uint256"
            }
          ],
          "name": "tokens",
          "outputs": [
            {
              "internalType": "address",
              "name": "creator",
              "type": "address"
            },
            {
              "internalType": "string",
              "name": "name",
              "type": "string"
            },
            {
              "internalType": "string",
              "name": "symbol",
              "type": "string"
            },
            {
              "internalType": "string",
              "name": "imageURI",
              "type": "string"
            },
            {
              "internalType": "uint256",
              "name": "virtualSupply",
              "type": "uint256"
            },
            {
              "internalType": "uint256",
              "name": "poolBalance",
              "type": "uint256"
            },
            {
              "internalType": "uint256",
              "name": "createdAt",
              "type": "uint256"
            },
            {
              "internalType": "uint256",
              "name": "duration",
              "type": "uint256"
            },
            {
              "internalType": "bool",
              "name": "dead",
              "type": "bool"
            },
            {
              "internalType": "bool",
              "name": "deathProcessed",
              "type": "bool"
            },
            {
              "internalType": "uint256",
              "name": "totalHolders",
              "type": "uint256"
            }
          ],
          "stateMutability": "view",
          "type": "function"
        },
        {
          "inputs": [],
          "name": "treasury",
          "outputs": [
            {
              "internalType": "address",
              "name": "",
              "type": "address"
            }
          ],
          "stateMutability": "view",
          "type": "function"
        },
        {
          "inputs": [
            {
              "internalType": "uint256",
              "name": "tokenId",
              "type": "uint256"
            }
          ],
          "name": "triggerDeath",
          "outputs": [],
          "stateMutability": "nonpayable",
          "type": "function"
        },
        {
          "stateMutability": "payable",
          "type": "receive"
        }
      ],
      "evm": {
        "bytecode": {
          "linkReferences": {},
          "object": "60803461010357601f612a5f38819003918201601f19168301916001600160401b038311848410176101085780849260409485528339810103126101035780516001600160a01b038116919082900361010357602001519060017f9b779b17422d0df92223018b32b4d1fa46e071723d6817e2486d003becc55f005580156100cb57600080546001600160a01b0319908116331790915560018054909116919091179055600255678ac7230489e800006003556004805460ff19169055604051612940908161011f8239f35b60405162461bcd60e51b815260206004820152601060248201526f496e76616c696420747265617375727960801b6044820152606490fd5b600080fd5b634e487b7160e01b600052604160045260246000fdfe60a080604052600436101561001d575b50361561001b57600080fd5b005b60003560e01c9081630932df8114611c9e575080630964b7ed14611c815780630b4b71cc14611c64578063121a257f14611bd95780631e5c622214611bb65780631f3203311461152b578063249d39e914611b995780632c3c91c914611b7457806332cb6b0c14611b4d57806336f732a114611b00578063379607f5146119995780633af96b90146119775780634f5e74c21461194b5780634f64b2be1461186057806357ee9334146118435780635d8cc808146118255780635ff67b1b1461180257806361d027b3146117d9578063627d55f6146117bc578063636bcebe1461179f57806367de8be9146117715780637a447ed314611755578063892288171461170d5780638da5cb5b146116e457806392707869146116195780639af4694d146115ee5780639beb5bad146115915780639f181b5e14611573578063a0c7f71c14611452578063b0a794591461152b578063b4f40c611461150d578063b713cc40146114c8578063b7d862251461149a578063b961cbe114611452578063be378228146113eb578063c451bc951461140c578063cc3cbd2a146113f0578063d161c6a3146113eb578063d3c9727c14611117578063d6febde814610bf1578063d84b236114610b89578063dce0b4e414610b6b578063dd7e852314610b4f578063e4b50cb814610980578063e757223014610940578063e8c587631461090d578063ec5ae7e8146108f1578063efbe8fd1146102e05763f0f4426014610245573861000f565b346102db5760203660031901126102db576004356001600160a01b038116908190036102db5761028060018060a01b03600054163314611f1d565b80156102a3576bffffffffffffffffffffffff60a01b6001541617600155600080f35b60405162461bcd60e51b815260206004820152601060248201526f496e76616c696420747265617375727960801b6044820152606490fd5b600080fd5b60803660031901126102db5760043567ffffffffffffffff81116102db5761030c903690600401611e5f565b9060243567ffffffffffffffff81116102db5761032d903690600401611e5f565b9060443567ffffffffffffffff81116102db5761034e903690600401611e5f565b90916064359360ff600454161561089a575b6154608514801561088f575b8015610883575b1561084b576003548034106108065760015461039891906001600160a01b0316612642565b6003548034116107ed575b50600554956103b187612001565b600555600087815260066020526040902080546001600160a01b031916331781556001810167ffffffffffffffff8a1161066b576103ef8154611ce5565b601f81116107a5575b50896000601f821160011461074257600091610737575b508a60011b906000198c60031b1c19161790555b6002810167ffffffffffffffff841161066b576104408154611ce5565b601f81116106ef575b50836000601f821160011461068c57600091610681575b508460011b906000198660031b1c19161790555b6003810167ffffffffffffffff861161066b576104918154611ce5565b601f8111610623575b50918760209a9694928a9896946000601f881160011461056a57937fc81330f0f38d8570a8eebd6a7c59421eb1fff865e2fa9fc3859f96506109b3ba9998969360078997946105309461054b9b61053d9960009161055f575b508a60011b906000198c60031b1c19161790555b42600682015501558a600052600b8e52436040600020556040519860808a5260808a01916125e5565b918783038d8901526125e5565b9184830360408601526125e5565b9360608201528033940390a3604051908152f35b90508b0135386104f3565b99989796959493929190601f198716818c528e8c20908c5b8181106105f25750610530938998969361053d9896937fc81330f0f38d8570a8eebd6a7c59421eb1fff865e2fa9fc3859f96506109b3ba9e9f61054b9d9c600795106105d8575b505060018a811b019055610507565b8c013560001960038d901b60f8161c1916905538806105c9565b9396989a9c9450919496989a508e60018192868e013581550194019201928d9a989694918d949c9a9896939c610582565b816000526020600020601f880160051c81019160208910610661575b601f0160051c01905b818110610655575061049a565b60008155600101610648565b909150819061063f565b634e487b7160e01b600052604160045260246000fd5b90508501358b610460565b82815260208120915085601f198116825b8181106106d45750106106ba575b5050600184811b019055610474565b860135600019600387901b60f8161c191690558a806106ab565b8984013585556001909401936020938401938993500161069d565b816000526020600020601f860160051c8101916020871061072d575b601f0160051c01905b8181106107215750610449565b60008155600101610714565b909150819061070b565b90508301358b61040f565b8281526020812091508b601f198116825b81811061078a575010610770575b505060018a811b019055610423565b84013560001960038d901b60f8161c191690558a80610761565b8784013585556001909401936020938401938f935001610753565b816000526020600020601f8c0160051c81019160208d106107e3575b601f0160051c01905b8181106107d757506103f8565b600081556001016107ca565b90915081906107c1565b6107fa6108009134611ef0565b33612642565b876103a3565b60405162461bcd60e51b815260206004820152601960248201527f496e73756666696369656e74206372656174696f6e20666565000000000000006044820152606490fd5b60405162461bcd60e51b815260206004820152601060248201526f24b73b30b634b210323ab930ba34b7b760811b6044820152606490fd5b50620151808514610373565b5061a8c0851461036c565b6000546001600160a01b031633146103605760405162461bcd60e51b815260206004820152601760248201527f4372656174696f6e206e6f74207075626c6963207965740000000000000000006044820152606490fd5b346102db5760003660031901126102db57602060405160028152f35b346102db5760203660031901126102db5760206109386004356109336005548210611e8d565b6125b2565b604051908152f35b346102db5760203660031901126102db576004356109616005548210611e8d565b60005260066020526020610938600460406000200154600254906126e0565b346102db5760203660031901126102db5760043560006101406040516109a581611d1f565b82815260606020820152606060408201526060808201528260808201528260a08201528260c08201528260e0820152826101008201528261012082015201526109f16005548210611e8d565b6000526006602052610180604060002060405190610a0e82611d1f565b80546001600160a01b03168252610a2760018201611d5e565b91602081019283528060ff610a3e60028501611d5e565b9360408301948552610a5260038201611d5e565b946060840195865260048201549560808501968752610b1860058401549160a08701928352610b0560068601549460c08901958652610af2600960078901549860e08c01998a528a61012060088301549d8e61010082019e8f911615159052019c60081c1615158c5201549a61014081019b8c526040519e8f9e8f926020845260018060a01b039051166020840152519161016060408201520190611e02565b90518c8203601f190160608e0152611e02565b90518a8203601f190160808c0152611e02565b965160a08901525160c08801525160e087015251610100860152511515610120850152511515610140840152516101608301520390f35b346102db5760003660031901126102db57602060405160058152f35b346102db5760003660031901126102db576020600354604051908152f35b346102db5760203660031901126102db57600435610baa6005548210611e8d565b60005260066020526020604060002060ff600882015416159081610bd4575b506040519015158152f35b610be991506007600682015491015490611ed0565b421082610bc9565b610bfa36611cb9565b90610c03612606565b610c106005548210611e8d565b806000526006602052610c2e60ff60086040600020015416156124fb565b806000526006602052610c65610c5e60066040600020015483600052600660205260076040600020015490611ed0565b4210612537565b662386f26fc1000034106110df576000818152600c602090815260408083203384529091529020546002810190811061101c574311156110a4576000818152600c6020908152604080832033845282528083204390558383526006909152902060058101805469021e19e0c9bab2400000610ce03483611ed0565b1161106c57606434029234159334810460641485171561101c576127109004936032340290348204603214171561101c57612710900492610d2a84610d258734611ef0565b611ef0565b926004830193845491610d49610d40838561276a565b9a8b1015612572565b6b033b2e3c9fd0803ce8000000610d608b85611ed0565b116110325788600052600b6020526040600020546005810180911161101c574310610f99575b886000526007602052604060002060018060a01b0333166000526020526a52b7d2dcc80cd2e4000000610dbe8b604060002054611ed0565b11610f5457610dd08a610dd794611ed0565b8655611ed0565b9055846000526007602052604060002060018060a01b0333166000526020526040600020610e06878254611ed0565b90556000858152600960209081526040808320338452909152902054839060ff1615610ec8575b600154610e589290610e499087906001600160a01b0316612642565b546001600160a01b0316612642565b5490610e66600254836126e0565b92604051956001875260208701523460408701526060860152608085015260a084015260c08301527f21fb2ef4db4bf31f6d1e357c56a918e6fb61d5b270a2f9c5075ff638093819d760e03393a360016000805160206128eb83398151915255005b5060008581526009602090815260408083203384528252808320805460ff1916600117905587835260089091529020805490916801000000000000000082101561066b57610f2082610e589460018895018155611fd3565b81546001600160a01b0360039290921b91821b19163390911b179055600981018054610f4b90612001565b90559150610e2d565b60405162461bcd60e51b815260206004820152601860248201527f4d617820686f6c64696e672031302520657863656564656400000000000000006044820152606490fd5b886000526007602052604060002060018060a01b0333166000526020526a084595161401484a000000610fd18b604060002054611ed0565b1115610d865760405162461bcd60e51b815260206004820152601d60248201527f416e74692d736e697065723a206d6178206275792065786365656465640000006044820152606490fd5b634e487b7160e01b600052601160045260246000fd5b60405162461bcd60e51b815260206004820152601260248201527113585e081cdd5c1c1b1e481c995858da195960721b6044820152606490fd5b60405162461bcd60e51b815260206004820152601060248201526f141bdbdb0818d85c081c995858da195960821b6044820152606490fd5b60405162461bcd60e51b815260206004820152601360248201527242757920636f6f6c646f776e2061637469766560681b6044820152606490fd5b60405162461bcd60e51b815260206004820152601060248201526f26b4b710313abc90181718189026a7a760811b6044820152606490fd5b346102db5760603660031901126102db57602435600435611136612606565b6111436005548210611e8d565b80600052600660205261116160ff60086040600020015416156124fb565b806000526006602052611191610c5e60066040600020015483600052600660205260076040600020015490611ed0565b81156113b15760008181526007602090815260408083203384529091529020548211611375578060005260066020526040600020600481018054916111d96002548685612700565b91600582019182549283851161136c575b6064850285159086810460641482171561101c576127109004956032810291818304603214171561101c5761271061124692049561123f8b61123089610d258c87611ef0565b9a610d256044358d1015612572565b8655611ef0565b9055856000526007602052604060002060018060a01b0333166000526020526040600020611275888254611ef0565b9055600086815260076020908152604080832033845290915290205483901561132e575b6001546112b59290610e499087906001600160a01b0316612642565b6112bf8433612642565b54916112cd600254846126e0565b936040519660008852602088015260408701526060860152608085015260a084015260c08301527f21fb2ef4db4bf31f6d1e357c56a918e6fb61d5b270a2f9c5075ff638093819d760e03393a360016000805160206128eb83398151915255005b506000868152600960208181526040808420338552909152909120805460ff19169055810180549091811561101c5760001990910190915582611299565b935082936111ea565b60405162461bcd60e51b8152602060048201526014602482015273496e73756666696369656e742062616c616e636560601b6044820152606490fd5b60405162461bcd60e51b81526020600482015260126024820152710416d6f756e74206d757374206265203e20360741b6044820152606490fd5b611e43565b346102db5760003660031901126102db57602060405160328152f35b346102db5760203660031901126102db576004358015158091036102db5761143f60018060a01b03600054163314611f1d565b60ff801960045416911617600455600080f35b346102db5760403660031901126102db5761146b611ccf565b600435600052600a60205260406000209060018060a01b03166000526020526020604060002054604051908152f35b346102db5760203660031901126102db576114c060018060a01b03600054163314611f1d565b600435600355005b346102db5760203660031901126102db576114f96004356114e7612606565b6114f46005548210611e8d565b612010565b60016000805160206128eb83398151915255005b346102db5760003660031901126102db576020600254604051908152f35b346102db5760403660031901126102db57611544611ccf565b600435600052600760205260406000209060018060a01b03166000526020526020604060002054604051908152f35b346102db5760003660031901126102db576020600554604051908152f35b346102db576115cb6115a236611cb9565b906115b06005548210611e8d565b60005260066020526004604060002001549060025491612700565b609681028181046096148215171561101c57602091612710610938920490611ef0565b346102db5760203660031901126102db5760206109386004356116146005548210611e8d565b611f55565b346102db5760203660031901126102db5760043561163a6005548210611e8d565b600052600860205260406000206040518060208354918281520190819360005260206000209060005b8181106116c55750505081611679910382611d3c565b6040519182916020830190602084525180915260408301919060005b8181106116a3575050500390f35b82516001600160a01b0316845285945060209384019390920191600101611695565b82546001600160a01b0316845260209093019260019283019201611663565b346102db5760003660031901126102db576000546040516001600160a01b039091168152602090f35b346102db5760403660031901126102db57611726611ccf565b600435600052600c60205260406000209060018060a01b03166000526020526020604060002054604051908152f35b346102db5760003660031901126102db57602060405160038152f35b346102db5760203660031901126102db5761179760018060a01b03600054163314611f1d565b600435600255005b346102db5760003660031901126102db576020604051611e148152f35b346102db5760003660031901126102db5760206040516103e88152f35b346102db5760003660031901126102db576001546040516001600160a01b039091168152602090f35b346102db5760003660031901126102db57602060ff600454166040519015158152f35b346102db5760003660031901126102db576020604051620151808152f35b346102db5760003660031901126102db5760206040516154608152f35b346102db5760203660031901126102db576004356000526006602052610160604060002060018060a01b038154169061189b60018201611d5e565b60ff6118a960028401611d5e565b926118b660038201611d5e565b9360048201549460058301546119156006850154926119076007870154956118f9600960088a01549901549a6040519e8f9e8f9081528160208201520190611e02565b8c810360408e015290611e02565b908a820360608c0152611e02565b96608089015260a088015260c087015260e0860152818116151561010086015260081c1615156101208401526101408301520390f35b346102db5760203660031901126102db57600435600052600b6020526020604060002054604051908152f35b346102db5760003660031901126102db576020604051662386f26fc100008152f35b346102db5760203660031901126102db576004356119b5612606565b6119c26005548210611e8d565b80600052600660205260ff6008604060002001541680611ae2575b15611aa9576000818152600a60209081526040808320338452909152902054908115611a715780600052600a602052604060002060018060a01b03331660005260205260006040812055611a318233612642565b6040519182527f4ec90e965519d92681267467f775ada5bd214aa92c0dc93d90a5e880ce9ed02660203393a360016000805160206128eb83398151915255005b60405162461bcd60e51b815260206004820152601060248201526f4e6f7468696e6720746f20636c61696d60801b6044820152606490fd5b60405162461bcd60e51b8152602060048201526011602482015270139bdd0818db185a5b58589b19481e595d607a1b6044820152606490fd5b5080600052600660205260ff60086040600020015460081c166119dd565b346102db5760403660031901126102db57611b19611ccf565b600435600052600960205260406000209060018060a01b0316600052602052602060ff604060002054166040519015158152f35b346102db5760003660031901126102db5760206040516b033b2e3c9fd0803ce80000008152f35b346102db5760003660031901126102db57602060405169021e19e0c9bab24000008152f35b346102db5760003660031901126102db5760206040516127108152f35b346102db5760003660031901126102db57602060405167016345785d8a00008152f35b346102db57670de0b6b3a7640000611c3f611bf336611cb9565b90611c016005548210611e8d565b6000526006602052611c39600460406000200154611c33611c2d611c286002549584611ed0565b61284f565b9161284f565b90611ef0565b90611edd565b04612710810290808204612710149015171561101c5761267a60209104604051908152f35b346102db5760003660031901126102db5760206040516108fc8152f35b346102db5760003660031901126102db57602060405161012c8152f35b346102db5760003660031901126102db578061a8c060209252f35b60409060031901126102db576004359060243590565b602435906001600160a01b03821682036102db57565b90600182811c92168015611d15575b6020831014611cff57565b634e487b7160e01b600052602260045260246000fd5b91607f1691611cf4565b610160810190811067ffffffffffffffff82111761066b57604052565b90601f8019910116810190811067ffffffffffffffff82111761066b57604052565b9060405191826000825492611d7284611ce5565b8084529360018116908115611de05750600114611d99575b50611d9792500383611d3c565b565b90506000929192526020600020906000915b818310611dc4575050906020611d979282010138611d8a565b6020919350806001915483858901015201910190918492611dab565b905060209250611d9794915060ff191682840152151560051b82010138611d8a565b919082519283825260005b848110611e2e575050826000602080949584010152601f8019910116010190565b80602080928401015182828601015201611e0d565b346102db5760003660031901126102db57602060405160648152f35b9181601f840112156102db5782359167ffffffffffffffff83116102db57602083818601950101116102db57565b15611e9457565b60405162461bcd60e51b8152602060048201526014602482015273151bdad95b88191bd95cc81b9bdd08195e1a5cdd60621b6044820152606490fd5b9190820180921161101c57565b8181029291811591840414171561101c57565b9190820391821161101c57565b8115611f07570490565b634e487b7160e01b600052601260045260246000fd5b15611f2457565b60405162461bcd60e51b81526020600482015260096024820152682737ba1037bbb732b960b91b6044820152606490fd5b80600052600660205260046040600020015415611fcd576000526006602052600460406000200154670de0b6b3a7640000611fa0611f9660025480946126e0565b92611c3983612886565b048015611fc65760648202918083046064149015171561101c57611fc391611efd565b90565b5050600090565b50600090565b8054821015611feb5760005260206000200190600090565b634e487b7160e01b600052603260045260246000fd5b600019811461101c5760010190565b80600052600660205260406000206008810180549060ff82166124c7576120406006840154600785015490611ed0565b42106124905760ff19821660011781556005830180549092811561244e5750600067016345785d8a00008210612443575061208467016345785d8a00008092611ef0565b61012c810281810461012c148215171561101c576127106120a791048092611ef0565b94611e148602868104611e14148715171561101c576127109004906120cc8288611ef0565b908860005260086020526040600020546080526080511592831591828093612436575b61237e575b505080612375575b612185575b5050927f0f005309a8a7fc7ef4fe267d20b85954d99222bed1e4e1dacc388fc820a8659e949260009261214060409660018060a01b0360015416612642565b8015158061217b575b61216b575b50805461ff001916610100179055558151908152336020820152a2565b6121759033612642565b3861214e565b5080471015612149565b959391969492600360009992999704946000946000194301948540965b600381108061236a575b156122ef5743871161101c5760405160208101908982528b604082015282606082015260805160808201524260a082015260a081526121ec60c082611d3c565b51902060008e5b608051821061220e575b50505061220990612001565b6121a2565b6122188284611ed0565b90611f0757612239908d600052600860205260805190066040600020611fd3565b905460008e815260076020908152604080832060039590951b9390931c6001600160a01b0316808352939052205461227b575061227590612001565b8e6121f3565b9c6122099392506122ba915060408e8e600052600a6020528160002060009160018060a01b03168252602052206122b38d8254611ed0565b9055612001565b9b8b7f327dc80a042147e77d98c1f6d26ebc8aef4078af7e6ab437f1d6452a19cb108b60208d604051908152a390388e6121fd565b5095509592995095979250956003811061230e575b9592939495612101565b600395949293919503956003871161101c5761214061235c6000956123566040997f0f005309a8a7fc7ef4fe267d20b85954d99222bed1e4e1dacc388fc820a8659e9b611edd565b90611ed0565b939596505095819350612304565b5060805181106121ac565b508015156120fc565b60005b608051811061239057506120f4565b6001908c60005260086020528c6123ab826040600020611fd3565b848060a01b0391549060031b1c16816000526007602052604080600020600090868060a01b03841682526020522054806123e9575b50505001612381565b61242c916124076123fc6040938a611edd565b600489015490611efd565b93600052600a60205281600020600091878060a01b0316825260205220918254611ed0565b90558c38806123e0565b50600481015415156120ef565b612084908092611ef0565b61ffff191661010117909155505060408051600081523360208201527f0f005309a8a7fc7ef4fe267d20b85954d99222bed1e4e1dacc388fc820a8659e9250a2565b60405162461bcd60e51b815260206004820152600f60248201526e139bdd08195e1c1a5c9959081e595d608a1b6044820152606490fd5b60405162461bcd60e51b815260206004820152600c60248201526b105b1c9958591e481919585960a21b6044820152606490fd5b1561250257565b60405162461bcd60e51b815260206004820152600d60248201526c151bdad95b881a5cc819195859609a1b6044820152606490fd5b1561253e57565b60405162461bcd60e51b815260206004820152600c60248201526b151a5b5948195e1c1a5c995960a21b6044820152606490fd5b1561257957565b60405162461bcd60e51b815260206004820152601160248201527014db1a5c1c1859d948195e18d959591959607a1b6044820152606490fd5b60005260066020526125d260406000206007600682015491015490611ed0565b80421015611fcd57611fc3904290611ef0565b908060209392818452848401376000828201840152601f01601f1916010190565b60026000805160206128eb83398151915254146126315760026000805160206128eb83398151915255565b633ee5aeb560e01b60005260046000fd5b81156126dc576000918291829182916001600160a01b03165af13d156126d7573d67ffffffffffffffff811161066b576040519061268a601f8201601f191660200183611d3c565b8152600060203d92013e5b1561269c57565b60405162461bcd60e51b81526020600482015260136024820152721353d3881d1c985b9cd9995c8819985a5b1959606a1b6044820152606490fd5b612695565b5050565b8015611fc657670de0b6b3a764000091611c396126fc92612886565b0490565b909181831161272f57611c3982611c33611c2d612729670de0b6b3a7640000976126fc97611ef0565b9261284f565b60405162461bcd60e51b815260206004820152601360248201527253656c6c206578636565647320737570706c7960681b6044820152606490fd5b600091816b033b2e3c9fd0803ce8000000036b033b2e3c9fd0803ce8000000811161283b57826b033b2e3c9fd0803ce8000000146128355791906002545b8385106127b6575050505090565b909192936127c48582611ed0565b6001810180911161101c5760011c9083670de0b6b3a76400006127ff6127f96127f0611c28878b611ed0565b611c338a61284f565b86611edd565b04116128105750935b9291906127a8565b945060001981019081111561280857634e487b7160e01b600052601160045260246000fd5b50505090565b634e487b7160e01b84526011600452602484fd5b8015611fcd5761286b81611c39670de0b6b3a764000093612886565b046001600160ff1b038116810361101c5760039060011b0490565b9081156128e457670de0b6b3a76400008202918204670de0b6b3a76400000361101c57816001810180821161101c5760011c905b8382106128c5575050565b9092506128db836128d68184611efd565b611ed0565b60011c906128ba565b6000915056fe9b779b17422d0df92223018b32b4d1fa46e071723d6817e2486d003becc55f00a264697066735822122086afc533171e8a072a25c4539812264dee32df7dd905f1a4f333e2436f3dcc3164736f6c634300081c0033",
          "opcodes": "PUSH1 0x80 CALLVALUE PUSH2 0x103 JUMPI PUSH1 0x1F PUSH2 0x2A5F CODESIZE DUP2 SWAP1 SUB SWAP2 DUP3 ADD PUSH1 0x1F NOT AND DUP4 ADD SWAP2 PUSH1 0x1 PUSH1 0x1 PUSH1 0x40 SHL SUB DUP4 GT DUP5 DUP5 LT OR PUSH2 0x108 JUMPI DUP1 DUP5 SWAP3 PUSH1 0x40 SWAP5 DUP6 MSTORE DUP4 CODECOPY DUP2 ADD SUB SLT PUSH2 0x103 JUMPI DUP1 MLOAD PUSH1 0x1 PUSH1 0x1 PUSH1 0xA0 SHL SUB DUP2 AND SWAP2 SWAP1 DUP3 SWAP1 SUB PUSH2 0x103 JUMPI PUSH1 0x20 ADD MLOAD SWAP1 PUSH1 0x1 PUSH32 0x9B779B17422D0DF92223018B32B4D1FA46E071723D6817E2486D003BECC55F00 SSTORE DUP1 ISZERO PUSH2 0xCB JUMPI PUSH1 0x0 DUP1 SLOAD PUSH1 0x1 PUSH1 0x1 PUSH1 0xA0 SHL SUB NOT SWAP1 DUP2 AND CALLER OR SWAP1 SWAP2 SSTORE PUSH1 0x1 DUP1 SLOAD SWAP1 SWAP2 AND SWAP2 SWAP1 SWAP2 OR SWAP1 SSTORE PUSH1 0x2 SSTORE PUSH8 0x8AC7230489E80000 PUSH1 0x3 SSTORE PUSH1 0x4 DUP1 SLOAD PUSH1 0xFF NOT AND SWAP1 SSTORE PUSH1 0x40 MLOAD PUSH2 0x2940 SWAP1 DUP2 PUSH2 0x11F DUP3 CODECOPY RETURN JUMPDEST PUSH1 0x40 MLOAD PUSH3 0x461BCD PUSH1 0xE5 SHL DUP2 MSTORE PUSH1 0x20 PUSH1 0x4 DUP3 ADD MSTORE PUSH1 0x10 PUSH1 0x24 DUP3 ADD MSTORE PUSH16 0x496E76616C6964207472656173757279 PUSH1 0x80 SHL PUSH1 0x44 DUP3 ADD MSTORE PUSH1 0x64 SWAP1 REVERT JUMPDEST PUSH1 0x0 DUP1 REVERT JUMPDEST PUSH4 0x4E487B71 PUSH1 0xE0 SHL PUSH1 0x0 MSTORE PUSH1 0x41 PUSH1 0x4 MSTORE PUSH1 0x24 PUSH1 0x0 REVERT INVALID PUSH1 0xA0 DUP1 PUSH1 0x40 MSTORE PUSH1 0x4 CALLDATASIZE LT ISZERO PUSH2 0x1D JUMPI JUMPDEST POP CALLDATASIZE ISZERO PUSH2 0x1B JUMPI PUSH1 0x0 DUP1 REVERT JUMPDEST STOP JUMPDEST PUSH1 0x0 CALLDATALOAD PUSH1 0xE0 SHR SWAP1 DUP2 PUSH4 0x932DF81 EQ PUSH2 0x1C9E JUMPI POP DUP1 PUSH4 0x964B7ED EQ PUSH2 0x1C81 JUMPI DUP1 PUSH4 0xB4B71CC EQ PUSH2 0x1C64 JUMPI DUP1 PUSH4 0x121A257F EQ PUSH2 0x1BD9 JUMPI DUP1 PUSH4 0x1E5C6222 EQ PUSH2 0x1BB6 JUMPI DUP1 PUSH4 0x1F320331 EQ PUSH2 0x152B JUMPI DUP1 PUSH4 0x249D39E9 EQ PUSH2 0x1B99 JUMPI DUP1 PUSH4 0x2C3C91C9 EQ PUSH2 0x1B74 JUMPI DUP1 PUSH4 0x32CB6B0C EQ PUSH2 0x1B4D JUMPI DUP1 PUSH4 0x36F732A1 EQ PUSH2 0x1B00 JUMPI DUP1 PUSH4 0x379607F5 EQ PUSH2 0x1999 JUMPI DUP1 PUSH4 0x3AF96B90 EQ PUSH2 0x1977 JUMPI DUP1 PUSH4 0x4F5E74C2 EQ PUSH2 0x194B JUMPI DUP1 PUSH4 0x4F64B2BE EQ PUSH2 0x1860 JUMPI DUP1 PUSH4 0x57EE9334 EQ PUSH2 0x1843 JUMPI DUP1 PUSH4 0x5D8CC808 EQ PUSH2 0x1825 JUMPI DUP1 PUSH4 0x5FF67B1B EQ PUSH2 0x1802 JUMPI DUP1 PUSH4 0x61D027B3 EQ PUSH2 0x17D9 JUMPI DUP1 PUSH4 0x627D55F6 EQ PUSH2 0x17BC JUMPI DUP1 PUSH4 0x636BCEBE EQ PUSH2 0x179F JUMPI DUP1 PUSH4 0x67DE8BE9 EQ PUSH2 0x1771 JUMPI DUP1 PUSH4 0x7A447ED3 EQ PUSH2 0x1755 JUMPI DUP1 PUSH4 0x89228817 EQ PUSH2 0x170D JUMPI DUP1 PUSH4 0x8DA5CB5B EQ PUSH2 0x16E4 JUMPI DUP1 PUSH4 0x92707869 EQ PUSH2 0x1619 JUMPI DUP1 PUSH4 0x9AF4694D EQ PUSH2 0x15EE JUMPI DUP1 PUSH4 0x9BEB5BAD EQ PUSH2 0x1591 JUMPI DUP1 PUSH4 0x9F181B5E EQ PUSH2 0x1573 JUMPI DUP1 PUSH4 0xA0C7F71C EQ PUSH2 0x1452 JUMPI DUP1 PUSH4 0xB0A79459 EQ PUSH2 0x152B JUMPI DUP1 PUSH4 0xB4F40C61 EQ PUSH2 0x150D JUMPI DUP1 PUSH4 0xB713CC40 EQ PUSH2 0x14C8 JUMPI DUP1 PUSH4 0xB7D86225 EQ PUSH2 0x149A JUMPI DUP1 PUSH4 0xB961CBE1 EQ PUSH2 0x1452 JUMPI DUP1 PUSH4 0xBE378228 EQ PUSH2 0x13EB JUMPI DUP1 PUSH4 0xC451BC95 EQ PUSH2 0x140C JUMPI DUP1 PUSH4 0xCC3CBD2A EQ PUSH2 0x13F0 JUMPI DUP1 PUSH4 0xD161C6A3 EQ PUSH2 0x13EB JUMPI DUP1 PUSH4 0xD3C9727C EQ PUSH2 0x1117 JUMPI DUP1 PUSH4 0xD6FEBDE8 EQ PUSH2 0xBF1 JUMPI DUP1 PUSH4 0xD84B2361 EQ PUSH2 0xB89 JUMPI DUP1 PUSH4 0xDCE0B4E4 EQ PUSH2 0xB6B JUMPI DUP1 PUSH4 0xDD7E8523 EQ PUSH2 0xB4F JUMPI DUP1 PUSH4 0xE4B50CB8 EQ PUSH2 0x980 JUMPI DUP1 PUSH4 0xE7572230 EQ PUSH2 0x940 JUMPI DUP1 PUSH4 0xE8C58763 EQ PUSH2 0x90D JUMPI DUP1 PUSH4 0xEC5AE7E8 EQ PUSH2 0x8F1 JUMPI DUP1 PUSH4 0xEFBE8FD1 EQ PUSH2 0x2E0 JUMPI PUSH4 0xF0F44260 EQ PUSH2 0x245 JUMPI CODESIZE PUSH2 0xF JUMP JUMPDEST CALLVALUE PUSH2 0x2DB JUMPI PUSH1 0x20 CALLDATASIZE PUSH1 0x3 NOT ADD SLT PUSH2 0x2DB JUMPI PUSH1 0x4 CALLDATALOAD PUSH1 0x1 PUSH1 0x1 PUSH1 0xA0 SHL SUB DUP2 AND SWAP1 DUP2 SWAP1 SUB PUSH2 0x2DB JUMPI PUSH2 0x280 PUSH1 0x1 DUP1 PUSH1 0xA0 SHL SUB PUSH1 0x0 SLOAD AND CALLER EQ PUSH2 0x1F1D JUMP JUMPDEST DUP1 ISZERO PUSH2 0x2A3 JUMPI PUSH12 0xFFFFFFFFFFFFFFFFFFFFFFFF PUSH1 0xA0 SHL PUSH1 0x1 SLOAD AND OR PUSH1 0x1 SSTORE PUSH1 0x0 DUP1 RETURN JUMPDEST PUSH1 0x40 MLOAD PUSH3 0x461BCD PUSH1 0xE5 SHL DUP2 MSTORE PUSH1 0x20 PUSH1 0x4 DUP3 ADD MSTORE PUSH1 0x10 PUSH1 0x24 DUP3 ADD MSTORE PUSH16 0x496E76616C6964207472656173757279 PUSH1 0x80 SHL PUSH1 0x44 DUP3 ADD MSTORE PUSH1 0x64 SWAP1 REVERT JUMPDEST PUSH1 0x0 DUP1 REVERT JUMPDEST PUSH1 0x80 CALLDATASIZE PUSH1 0x3 NOT ADD SLT PUSH2 0x2DB JUMPI PUSH1 0x4 CALLDATALOAD PUSH8 0xFFFFFFFFFFFFFFFF DUP2 GT PUSH2 0x2DB JUMPI PUSH2 0x30C SWAP1 CALLDATASIZE SWAP1 PUSH1 0x4 ADD PUSH2 0x1E5F JUMP JUMPDEST SWAP1 PUSH1 0x24 CALLDATALOAD PUSH8 0xFFFFFFFFFFFFFFFF DUP2 GT PUSH2 0x2DB JUMPI PUSH2 0x32D SWAP1 CALLDATASIZE SWAP1 PUSH1 0x4 ADD PUSH2 0x1E5F JUMP JUMPDEST SWAP1 PUSH1 0x44 CALLDATALOAD PUSH8 0xFFFFFFFFFFFFFFFF DUP2 GT PUSH2 0x2DB JUMPI PUSH2 0x34E SWAP1 CALLDATASIZE SWAP1 PUSH1 0x4 ADD PUSH2 0x1E5F JUMP JUMPDEST SWAP1 SWAP2 PUSH1 0x64 CALLDATALOAD SWAP4 PUSH1 0xFF PUSH1 0x4 SLOAD AND ISZERO PUSH2 0x89A JUMPI JUMPDEST PUSH2 0x5460 DUP6 EQ DUP1 ISZERO PUSH2 0x88F JUMPI JUMPDEST DUP1 ISZERO PUSH2 0x883 JUMPI JUMPDEST ISZERO PUSH2 0x84B JUMPI PUSH1 0x3 SLOAD DUP1 CALLVALUE LT PUSH2 0x806 JUMPI PUSH1 0x1 SLOAD PUSH2 0x398 SWAP2 SWAP1 PUSH1 0x1 PUSH1 0x1 PUSH1 0xA0 SHL SUB AND PUSH2 0x2642 JUMP JUMPDEST PUSH1 0x3 SLOAD DUP1 CALLVALUE GT PUSH2 0x7ED JUMPI JUMPDEST POP PUSH1 0x5 SLOAD SWAP6 PUSH2 0x3B1 DUP8 PUSH2 0x2001 JUMP JUMPDEST PUSH1 0x5 SSTORE PUSH1 0x0 DUP8 DUP2 MSTORE PUSH1 0x6 PUSH1 0x20 MSTORE PUSH1 0x40 SWAP1 KECCAK256 DUP1 SLOAD PUSH1 0x1 PUSH1 0x1 PUSH1 0xA0 SHL SUB NOT AND CALLER OR DUP2 SSTORE PUSH1 0x1 DUP2 ADD PUSH8 0xFFFFFFFFFFFFFFFF DUP11 GT PUSH2 0x66B JUMPI PUSH2 0x3EF DUP2 SLOAD PUSH2 0x1CE5 JUMP JUMPDEST PUSH1 0x1F DUP2 GT PUSH2 0x7A5 JUMPI JUMPDEST POP DUP10 PUSH1 0x0 PUSH1 0x1F DUP3 GT PUSH1 0x1 EQ PUSH2 0x742 JUMPI PUSH1 0x0 SWAP2 PUSH2 0x737 JUMPI JUMPDEST POP DUP11 PUSH1 0x1 SHL SWAP1 PUSH1 0x0 NOT DUP13 PUSH1 0x3 SHL SHR NOT AND OR SWAP1 SSTORE JUMPDEST PUSH1 0x2 DUP2 ADD PUSH8 0xFFFFFFFFFFFFFFFF DUP5 GT PUSH2 0x66B JUMPI PUSH2 0x440 DUP2 SLOAD PUSH2 0x1CE5 JUMP JUMPDEST PUSH1 0x1F DUP2 GT PUSH2 0x6EF JUMPI JUMPDEST POP DUP4 PUSH1 0x0 PUSH1 0x1F DUP3 GT PUSH1 0x1 EQ PUSH2 0x68C JUMPI PUSH1 0x0 SWAP2 PUSH2 0x681 JUMPI JUMPDEST POP DUP5 PUSH1 0x1 SHL SWAP1 PUSH1 0x0 NOT DUP7 PUSH1 0x3 SHL SHR NOT AND OR SWAP1 SSTORE JUMPDEST PUSH1 0x3 DUP2 ADD PUSH8 0xFFFFFFFFFFFFFFFF DUP7 GT PUSH2 0x66B JUMPI PUSH2 0x491 DUP2 SLOAD PUSH2 0x1CE5 JUMP JUMPDEST PUSH1 0x1F DUP2 GT PUSH2 0x623 JUMPI JUMPDEST POP SWAP2 DUP8 PUSH1 0x20 SWAP11 SWAP7 SWAP5 SWAP3 DUP11 SWAP9 SWAP7 SWAP5 PUSH1 0x0 PUSH1 0x1F DUP9 GT PUSH1 0x1 EQ PUSH2 0x56A JUMPI SWAP4 PUSH32 0xC81330F0F38D8570A8EEBD6A7C59421EB1FFF865E2FA9FC3859F96506109B3BA SWAP10 SWAP9 SWAP7 SWAP4 PUSH1 0x7 DUP10 SWAP8 SWAP5 PUSH2 0x530 SWAP5 PUSH2 0x54B SWAP12 PUSH2 0x53D SWAP10 PUSH1 0x0 SWAP2 PUSH2 0x55F JUMPI JUMPDEST POP DUP11 PUSH1 0x1 SHL SWAP1 PUSH1 0x0 NOT DUP13 PUSH1 0x3 SHL SHR NOT AND OR SWAP1 SSTORE JUMPDEST TIMESTAMP PUSH1 0x6 DUP3 ADD SSTORE ADD SSTORE DUP11 PUSH1 0x0 MSTORE PUSH1 0xB DUP15 MSTORE NUMBER PUSH1 0x40 PUSH1 0x0 KECCAK256 SSTORE PUSH1 0x40 MLOAD SWAP9 PUSH1 0x80 DUP11 MSTORE PUSH1 0x80 DUP11 ADD SWAP2 PUSH2 0x25E5 JUMP JUMPDEST SWAP2 DUP8 DUP4 SUB DUP14 DUP10 ADD MSTORE PUSH2 0x25E5 JUMP JUMPDEST SWAP2 DUP5 DUP4 SUB PUSH1 0x40 DUP7 ADD MSTORE PUSH2 0x25E5 JUMP JUMPDEST SWAP4 PUSH1 0x60 DUP3 ADD MSTORE DUP1 CALLER SWAP5 SUB SWAP1 LOG3 PUSH1 0x40 MLOAD SWAP1 DUP2 MSTORE RETURN JUMPDEST SWAP1 POP DUP12 ADD CALLDATALOAD CODESIZE PUSH2 0x4F3 JUMP JUMPDEST SWAP10 SWAP9 SWAP8 SWAP7 SWAP6 SWAP5 SWAP4 SWAP3 SWAP2 SWAP1 PUSH1 0x1F NOT DUP8 AND DUP2 DUP13 MSTORE DUP15 DUP13 KECCAK256 SWAP1 DUP13 JUMPDEST DUP2 DUP2 LT PUSH2 0x5F2 JUMPI POP PUSH2 0x530 SWAP4 DUP10 SWAP9 SWAP7 SWAP4 PUSH2 0x53D SWAP9 SWAP7 SWAP4 PUSH32 0xC81330F0F38D8570A8EEBD6A7C59421EB1FFF865E2FA9FC3859F96506109B3BA SWAP15 SWAP16 PUSH2 0x54B SWAP14 SWAP13 PUSH1 0x7 SWAP6 LT PUSH2 0x5D8 JUMPI JUMPDEST POP POP PUSH1 0x1 DUP11 DUP2 SHL ADD SWAP1 SSTORE PUSH2 0x507 JUMP JUMPDEST DUP13 ADD CALLDATALOAD PUSH1 0x0 NOT PUSH1 0x3 DUP14 SWAP1 SHL PUSH1 0xF8 AND SHR NOT AND SWAP1 SSTORE CODESIZE DUP1 PUSH2 0x5C9 JUMP JUMPDEST SWAP4 SWAP7 SWAP9 SWAP11 SWAP13 SWAP5 POP SWAP2 SWAP5 SWAP7 SWAP9 SWAP11 POP DUP15 PUSH1 0x1 DUP2 SWAP3 DUP7 DUP15 ADD CALLDATALOAD DUP2 SSTORE ADD SWAP5 ADD SWAP3 ADD SWAP3 DUP14 SWAP11 SWAP9 SWAP7 SWAP5 SWAP2 DUP14 SWAP5 SWAP13 SWAP11 SWAP9 SWAP7 SWAP4 SWAP13 PUSH2 0x582 JUMP JUMPDEST DUP2 PUSH1 0x0 MSTORE PUSH1 0x20 PUSH1 0x0 KECCAK256 PUSH1 0x1F DUP9 ADD PUSH1 0x5 SHR DUP2 ADD SWAP2 PUSH1 0x20 DUP10 LT PUSH2 0x661 JUMPI JUMPDEST PUSH1 0x1F ADD PUSH1 0x5 SHR ADD SWAP1 JUMPDEST DUP2 DUP2 LT PUSH2 0x655 JUMPI POP PUSH2 0x49A JUMP JUMPDEST PUSH1 0x0 DUP2 SSTORE PUSH1 0x1 ADD PUSH2 0x648 JUMP JUMPDEST SWAP1 SWAP2 POP DUP2 SWAP1 PUSH2 0x63F JUMP JUMPDEST PUSH4 0x4E487B71 PUSH1 0xE0 SHL PUSH1 0x0 MSTORE PUSH1 0x41 PUSH1 0x4 MSTORE PUSH1 0x24 PUSH1 0x0 REVERT JUMPDEST SWAP1 POP DUP6 ADD CALLDATALOAD DUP12 PUSH2 0x460 JUMP JUMPDEST DUP3 DUP2 MSTORE PUSH1 0x20 DUP2 KECCAK256 SWAP2 POP DUP6 PUSH1 0x1F NOT DUP2 AND DUP3 JUMPDEST DUP2 DUP2 LT PUSH2 0x6D4 JUMPI POP LT PUSH2 0x6BA JUMPI JUMPDEST POP POP PUSH1 0x1 DUP5 DUP2 SHL ADD SWAP1 SSTORE PUSH2 0x474 JUMP JUMPDEST DUP7 ADD CALLDATALOAD PUSH1 0x0 NOT PUSH1 0x3 DUP8 SWAP1 SHL PUSH1 0xF8 AND SHR NOT AND SWAP1 SSTORE DUP11 DUP1 PUSH2 0x6AB JUMP JUMPDEST DUP10 DUP5 ADD CALLDATALOAD DUP6 SSTORE PUSH1 0x1 SWAP1 SWAP5 ADD SWAP4 PUSH1 0x20 SWAP4 DUP5 ADD SWAP4 DUP10 SWAP4 POP ADD PUSH2 0x69D JUMP JUMPDEST DUP2 PUSH1 0x0 MSTORE PUSH1 0x20 PUSH1 0x0 KECCAK256 PUSH1 0x1F DUP7 ADD PUSH1 0x5 SHR DUP2 ADD SWAP2 PUSH1 0x20 DUP8 LT PUSH2 0x72D JUMPI JUMPDEST PUSH1 0x1F ADD PUSH1 0x5 SHR ADD SWAP1 JUMPDEST DUP2 DUP2 LT PUSH2 0x721 JUMPI POP PUSH2 0x449 JUMP JUMPDEST PUSH1 0x0 DUP2 SSTORE PUSH1 0x1 ADD PUSH2 0x714 JUMP JUMPDEST SWAP1 SWAP2 POP DUP2 SWAP1 PUSH2 0x70B JUMP JUMPDEST SWAP1 POP DUP4 ADD CALLDATALOAD DUP12 PUSH2 0x40F JUMP JUMPDEST DUP3 DUP2 MSTORE PUSH1 0x20 DUP2 KECCAK256 SWAP2 POP DUP12 PUSH1 0x1F NOT DUP2 AND DUP3 JUMPDEST DUP2 DUP2 LT PUSH2 0x78A JUMPI POP LT PUSH2 0x770 JUMPI JUMPDEST POP POP PUSH1 0x1 DUP11 DUP2 SHL ADD SWAP1 SSTORE PUSH2 0x423 JUMP JUMPDEST DUP5 ADD CALLDATALOAD PUSH1 0x0 NOT PUSH1 0x3 DUP14 SWAP1 SHL PUSH1 0xF8 AND SHR NOT AND SWAP1 SSTORE DUP11 DUP1 PUSH2 0x761 JUMP JUMPDEST DUP8 DUP5 ADD CALLDATALOAD DUP6 SSTORE PUSH1 0x1 SWAP1 SWAP5 ADD SWAP4 PUSH1 0x20 SWAP4 DUP5 ADD SWAP4 DUP16 SWAP4 POP ADD PUSH2 0x753 JUMP JUMPDEST DUP2 PUSH1 0x0 MSTORE PUSH1 0x20 PUSH1 0x0 KECCAK256 PUSH1 0x1F DUP13 ADD PUSH1 0x5 SHR DUP2 ADD SWAP2 PUSH1 0x20 DUP14 LT PUSH2 0x7E3 JUMPI JUMPDEST PUSH1 0x1F ADD PUSH1 0x5 SHR ADD SWAP1 JUMPDEST DUP2 DUP2 LT PUSH2 0x7D7 JUMPI POP PUSH2 0x3F8 JUMP JUMPDEST PUSH1 0x0 DUP2 SSTORE PUSH1 0x1 ADD PUSH2 0x7CA JUMP JUMPDEST SWAP1 SWAP2 POP DUP2 SWAP1 PUSH2 0x7C1 JUMP JUMPDEST PUSH2 0x7FA PUSH2 0x800 SWAP2 CALLVALUE PUSH2 0x1EF0 JUMP JUMPDEST CALLER PUSH2 0x2642 JUMP JUMPDEST DUP8 PUSH2 0x3A3 JUMP JUMPDEST PUSH1 0x40 MLOAD PUSH3 0x461BCD PUSH1 0xE5 SHL DUP2 MSTORE PUSH1 0x20 PUSH1 0x4 DUP3 ADD MSTORE PUSH1 0x19 PUSH1 0x24 DUP3 ADD MSTORE PUSH32 0x496E73756666696369656E74206372656174696F6E2066656500000000000000 PUSH1 0x44 DUP3 ADD MSTORE PUSH1 0x64 SWAP1 REVERT JUMPDEST PUSH1 0x40 MLOAD PUSH3 0x461BCD PUSH1 0xE5 SHL DUP2 MSTORE PUSH1 0x20 PUSH1 0x4 DUP3 ADD MSTORE PUSH1 0x10 PUSH1 0x24 DUP3 ADD MSTORE PUSH16 0x24B73B30B634B210323AB930BA34B7B7 PUSH1 0x81 SHL PUSH1 0x44 DUP3 ADD MSTORE PUSH1 0x64 SWAP1 REVERT JUMPDEST POP PUSH3 0x15180 DUP6 EQ PUSH2 0x373 JUMP JUMPDEST POP PUSH2 0xA8C0 DUP6 EQ PUSH2 0x36C JUMP JUMPDEST PUSH1 0x0 SLOAD PUSH1 0x1 PUSH1 0x1 PUSH1 0xA0 SHL SUB AND CALLER EQ PUSH2 0x360 JUMPI PUSH1 0x40 MLOAD PUSH3 0x461BCD PUSH1 0xE5 SHL DUP2 MSTORE PUSH1 0x20 PUSH1 0x4 DUP3 ADD MSTORE PUSH1 0x17 PUSH1 0x24 DUP3 ADD MSTORE PUSH32 0x4372656174696F6E206E6F74207075626C696320796574000000000000000000 PUSH1 0x44 DUP3 ADD MSTORE PUSH1 0x64 SWAP1 REVERT JUMPDEST CALLVALUE PUSH2 0x2DB JUMPI PUSH1 0x0 CALLDATASIZE PUSH1 0x3 NOT ADD SLT PUSH2 0x2DB JUMPI PUSH1 0x20 PUSH1 0x40 MLOAD PUSH1 0x2 DUP2 MSTORE RETURN JUMPDEST CALLVALUE PUSH2 0x2DB JUMPI PUSH1 0x20 CALLDATASIZE PUSH1 0x3 NOT ADD SLT PUSH2 0x2DB JUMPI PUSH1 0x20 PUSH2 0x938 PUSH1 0x4 CALLDATALOAD PUSH2 0x933 PUSH1 0x5 SLOAD DUP3 LT PUSH2 0x1E8D JUMP JUMPDEST PUSH2 0x25B2 JUMP JUMPDEST PUSH1 0x40 MLOAD SWAP1 DUP2 MSTORE RETURN JUMPDEST CALLVALUE PUSH2 0x2DB JUMPI PUSH1 0x20 CALLDATASIZE PUSH1 0x3 NOT ADD SLT PUSH2 0x2DB JUMPI PUSH1 0x4 CALLDATALOAD PUSH2 0x961 PUSH1 0x5 SLOAD DUP3 LT PUSH2 0x1E8D JUMP JUMPDEST PUSH1 0x0 MSTORE PUSH1 0x6 PUSH1 0x20 MSTORE PUSH1 0x20 PUSH2 0x938 PUSH1 0x4 PUSH1 0x40 PUSH1 0x0 KECCAK256 ADD SLOAD PUSH1 0x2 SLOAD SWAP1 PUSH2 0x26E0 JUMP JUMPDEST CALLVALUE PUSH2 0x2DB JUMPI PUSH1 0x20 CALLDATASIZE PUSH1 0x3 NOT ADD SLT PUSH2 0x2DB JUMPI PUSH1 0x4 CALLDATALOAD PUSH1 0x0 PUSH2 0x140 PUSH1 0x40 MLOAD PUSH2 0x9A5 DUP2 PUSH2 0x1D1F JUMP JUMPDEST DUP3 DUP2 MSTORE PUSH1 0x60 PUSH1 0x20 DUP3 ADD MSTORE PUSH1 0x60 PUSH1 0x40 DUP3 ADD MSTORE PUSH1 0x60 DUP1 DUP3 ADD MSTORE DUP3 PUSH1 0x80 DUP3 ADD MSTORE DUP3 PUSH1 0xA0 DUP3 ADD MSTORE DUP3 PUSH1 0xC0 DUP3 ADD MSTORE DUP3 PUSH1 0xE0 DUP3 ADD MSTORE DUP3 PUSH2 0x100 DUP3 ADD MSTORE DUP3 PUSH2 0x120 DUP3 ADD MSTORE ADD MSTORE PUSH2 0x9F1 PUSH1 0x5 SLOAD DUP3 LT PUSH2 0x1E8D JUMP JUMPDEST PUSH1 0x0 MSTORE PUSH1 0x6 PUSH1 0x20 MSTORE PUSH2 0x180 PUSH1 0x40 PUSH1 0x0 KECCAK256 PUSH1 0x40 MLOAD SWAP1 PUSH2 0xA0E DUP3 PUSH2 0x1D1F JUMP JUMPDEST DUP1 SLOAD PUSH1 0x1 PUSH1 0x1 PUSH1 0xA0 SHL SUB AND DUP3 MSTORE PUSH2 0xA27 PUSH1 0x1 DUP3 ADD PUSH2 0x1D5E JUMP JUMPDEST SWAP2 PUSH1 0x20 DUP2 ADD SWAP3 DUP4 MSTORE DUP1 PUSH1 0xFF PUSH2 0xA3E PUSH1 0x2 DUP6 ADD PUSH2 0x1D5E JUMP JUMPDEST SWAP4 PUSH1 0x40 DUP4 ADD SWAP5 DUP6 MSTORE PUSH2 0xA52 PUSH1 0x3 DUP3 ADD PUSH2 0x1D5E JUMP JUMPDEST SWAP5 PUSH1 0x60 DUP5 ADD SWAP6 DUP7 MSTORE PUSH1 0x4 DUP3 ADD SLOAD SWAP6 PUSH1 0x80 DUP6 ADD SWAP7 DUP8 MSTORE PUSH2 0xB18 PUSH1 0x5 DUP5 ADD SLOAD SWAP2 PUSH1 0xA0 DUP8 ADD SWAP3 DUP4 MSTORE PUSH2 0xB05 PUSH1 0x6 DUP7 ADD SLOAD SWAP5 PUSH1 0xC0 DUP10 ADD SWAP6 DUP7 MSTORE PUSH2 0xAF2 PUSH1 0x9 PUSH1 0x7 DUP10 ADD SLOAD SWAP9 PUSH1 0xE0 DUP13 ADD SWAP10 DUP11 MSTORE DUP11 PUSH2 0x120 PUSH1 0x8 DUP4 ADD SLOAD SWAP14 DUP15 PUSH2 0x100 DUP3 ADD SWAP15 DUP16 SWAP2 AND ISZERO ISZERO SWAP1 MSTORE ADD SWAP13 PUSH1 0x8 SHR AND ISZERO ISZERO DUP13 MSTORE ADD SLOAD SWAP11 PUSH2 0x140 DUP2 ADD SWAP12 DUP13 MSTORE PUSH1 0x40 MLOAD SWAP15 DUP16 SWAP15 DUP16 SWAP3 PUSH1 0x20 DUP5 MSTORE PUSH1 0x1 DUP1 PUSH1 0xA0 SHL SUB SWAP1 MLOAD AND PUSH1 0x20 DUP5 ADD MSTORE MLOAD SWAP2 PUSH2 0x160 PUSH1 0x40 DUP3 ADD MSTORE ADD SWAP1 PUSH2 0x1E02 JUMP JUMPDEST SWAP1 MLOAD DUP13 DUP3 SUB PUSH1 0x1F NOT ADD PUSH1 0x60 DUP15 ADD MSTORE PUSH2 0x1E02 JUMP JUMPDEST SWAP1 MLOAD DUP11 DUP3 SUB PUSH1 0x1F NOT ADD PUSH1 0x80 DUP13 ADD MSTORE PUSH2 0x1E02 JUMP JUMPDEST SWAP7 MLOAD PUSH1 0xA0 DUP10 ADD MSTORE MLOAD PUSH1 0xC0 DUP9 ADD MSTORE MLOAD PUSH1 0xE0 DUP8 ADD MSTORE MLOAD PUSH2 0x100 DUP7 ADD MSTORE MLOAD ISZERO ISZERO PUSH2 0x120 DUP6 ADD MSTORE MLOAD ISZERO ISZERO PUSH2 0x140 DUP5 ADD MSTORE MLOAD PUSH2 0x160 DUP4 ADD MSTORE SUB SWAP1 RETURN JUMPDEST CALLVALUE PUSH2 0x2DB JUMPI PUSH1 0x0 CALLDATASIZE PUSH1 0x3 NOT ADD SLT PUSH2 0x2DB JUMPI PUSH1 0x20 PUSH1 0x40 MLOAD PUSH1 0x5 DUP2 MSTORE RETURN JUMPDEST CALLVALUE PUSH2 0x2DB JUMPI PUSH1 0x0 CALLDATASIZE PUSH1 0x3 NOT ADD SLT PUSH2 0x2DB JUMPI PUSH1 0x20 PUSH1 0x3 SLOAD PUSH1 0x40 MLOAD SWAP1 DUP2 MSTORE RETURN JUMPDEST CALLVALUE PUSH2 0x2DB JUMPI PUSH1 0x20 CALLDATASIZE PUSH1 0x3 NOT ADD SLT PUSH2 0x2DB JUMPI PUSH1 0x4 CALLDATALOAD PUSH2 0xBAA PUSH1 0x5 SLOAD DUP3 LT PUSH2 0x1E8D JUMP JUMPDEST PUSH1 0x0 MSTORE PUSH1 0x6 PUSH1 0x20 MSTORE PUSH1 0x20 PUSH1 0x40 PUSH1 0x0 KECCAK256 PUSH1 0xFF PUSH1 0x8 DUP3 ADD SLOAD AND ISZERO SWAP1 DUP2 PUSH2 0xBD4 JUMPI JUMPDEST POP PUSH1 0x40 MLOAD SWAP1 ISZERO ISZERO DUP2 MSTORE RETURN JUMPDEST PUSH2 0xBE9 SWAP2 POP PUSH1 0x7 PUSH1 0x6 DUP3 ADD SLOAD SWAP2 ADD SLOAD SWAP1 PUSH2 0x1ED0 JUMP JUMPDEST TIMESTAMP LT DUP3 PUSH2 0xBC9 JUMP JUMPDEST PUSH2 0xBFA CALLDATASIZE PUSH2 0x1CB9 JUMP JUMPDEST SWAP1 PUSH2 0xC03 PUSH2 0x2606 JUMP JUMPDEST PUSH2 0xC10 PUSH1 0x5 SLOAD DUP3 LT PUSH2 0x1E8D JUMP JUMPDEST DUP1 PUSH1 0x0 MSTORE PUSH1 0x6 PUSH1 0x20 MSTORE PUSH2 0xC2E PUSH1 0xFF PUSH1 0x8 PUSH1 0x40 PUSH1 0x0 KECCAK256 ADD SLOAD AND ISZERO PUSH2 0x24FB JUMP JUMPDEST DUP1 PUSH1 0x0 MSTORE PUSH1 0x6 PUSH1 0x20 MSTORE PUSH2 0xC65 PUSH2 0xC5E PUSH1 0x6 PUSH1 0x40 PUSH1 0x0 KECCAK256 ADD SLOAD DUP4 PUSH1 0x0 MSTORE PUSH1 0x6 PUSH1 0x20 MSTORE PUSH1 0x7 PUSH1 0x40 PUSH1 0x0 KECCAK256 ADD SLOAD SWAP1 PUSH2 0x1ED0 JUMP JUMPDEST TIMESTAMP LT PUSH2 0x2537 JUMP JUMPDEST PUSH7 0x2386F26FC10000 CALLVALUE LT PUSH2 0x10DF JUMPI PUSH1 0x0 DUP2 DUP2 MSTORE PUSH1 0xC PUSH1 0x20 SWAP1 DUP2 MSTORE PUSH1 0x40 DUP1 DUP4 KECCAK256 CALLER DUP5 MSTORE SWAP1 SWAP2 MSTORE SWAP1 KECCAK256 SLOAD PUSH1 0x2 DUP2 ADD SWAP1 DUP2 LT PUSH2 0x101C JUMPI NUMBER GT ISZERO PUSH2 0x10A4 JUMPI PUSH1 0x0 DUP2 DUP2 MSTORE PUSH1 0xC PUSH1 0x20 SWAP1 DUP2 MSTORE PUSH1 0x40 DUP1 DUP4 KECCAK256 CALLER DUP5 MSTORE DUP3 MSTORE DUP1 DUP4 KECCAK256 NUMBER SWAP1 SSTORE DUP4 DUP4 MSTORE PUSH1 0x6 SWAP1 SWAP2 MSTORE SWAP1 KECCAK256 PUSH1 0x5 DUP2 ADD DUP1 SLOAD PUSH10 0x21E19E0C9BAB2400000 PUSH2 0xCE0 CALLVALUE DUP4 PUSH2 0x1ED0 JUMP JUMPDEST GT PUSH2 0x106C JUMPI PUSH1 0x64 CALLVALUE MUL SWAP3 CALLVALUE ISZERO SWAP4 CALLVALUE DUP2 DIV PUSH1 0x64 EQ DUP6 OR ISZERO PUSH2 0x101C JUMPI PUSH2 0x2710 SWAP1 DIV SWAP4 PUSH1 0x32 CALLVALUE MUL SWAP1 CALLVALUE DUP3 DIV PUSH1 0x32 EQ OR ISZERO PUSH2 0x101C JUMPI PUSH2 0x2710 SWAP1 DIV SWAP3 PUSH2 0xD2A DUP5 PUSH2 0xD25 DUP8 CALLVALUE PUSH2 0x1EF0 JUMP JUMPDEST PUSH2 0x1EF0 JUMP JUMPDEST SWAP3 PUSH1 0x4 DUP4 ADD SWAP4 DUP5 SLOAD SWAP2 PUSH2 0xD49 PUSH2 0xD40 DUP4 DUP6 PUSH2 0x276A JUMP JUMPDEST SWAP11 DUP12 LT ISZERO PUSH2 0x2572 JUMP JUMPDEST PUSH12 0x33B2E3C9FD0803CE8000000 PUSH2 0xD60 DUP12 DUP6 PUSH2 0x1ED0 JUMP JUMPDEST GT PUSH2 0x1032 JUMPI DUP9 PUSH1 0x0 MSTORE PUSH1 0xB PUSH1 0x20 MSTORE PUSH1 0x40 PUSH1 0x0 KECCAK256 SLOAD PUSH1 0x5 DUP2 ADD DUP1 SWAP2 GT PUSH2 0x101C JUMPI NUMBER LT PUSH2 0xF99 JUMPI JUMPDEST DUP9 PUSH1 0x0 MSTORE PUSH1 0x7 PUSH1 0x20 MSTORE PUSH1 0x40 PUSH1 0x0 KECCAK256 PUSH1 0x1 DUP1 PUSH1 0xA0 SHL SUB CALLER AND PUSH1 0x0 MSTORE PUSH1 0x20 MSTORE PUSH11 0x52B7D2DCC80CD2E4000000 PUSH2 0xDBE DUP12 PUSH1 0x40 PUSH1 0x0 KECCAK256 SLOAD PUSH2 0x1ED0 JUMP JUMPDEST GT PUSH2 0xF54 JUMPI PUSH2 0xDD0 DUP11 PUSH2 0xDD7 SWAP5 PUSH2 0x1ED0 JUMP JUMPDEST DUP7 SSTORE PUSH2 0x1ED0 JUMP JUMPDEST SWAP1 SSTORE DUP5 PUSH1 0x0 MSTORE PUSH1 0x7 PUSH1 0x20 MSTORE PUSH1 0x40 PUSH1 0x0 KECCAK256 PUSH1 0x1 DUP1 PUSH1 0xA0 SHL SUB CALLER AND PUSH1 0x0 MSTORE PUSH1 0x20 MSTORE PUSH1 0x40 PUSH1 0x0 KECCAK256 PUSH2 0xE06 DUP8 DUP3 SLOAD PUSH2 0x1ED0 JUMP JUMPDEST SWAP1 SSTORE PUSH1 0x0 DUP6 DUP2 MSTORE PUSH1 0x9 PUSH1 0x20 SWAP1 DUP2 MSTORE PUSH1 0x40 DUP1 DUP4 KECCAK256 CALLER DUP5 MSTORE SWAP1 SWAP2 MSTORE SWAP1 KECCAK256 SLOAD DUP4 SWAP1 PUSH1 0xFF AND ISZERO PUSH2 0xEC8 JUMPI JUMPDEST PUSH1 0x1 SLOAD PUSH2 0xE58 SWAP3 SWAP1 PUSH2 0xE49 SWAP1 DUP8 SWAP1 PUSH1 0x1 PUSH1 0x1 PUSH1 0xA0 SHL SUB AND PUSH2 0x2642 JUMP JUMPDEST SLOAD PUSH1 0x1 PUSH1 0x1 PUSH1 0xA0 SHL SUB AND PUSH2 0x2642 JUMP JUMPDEST SLOAD SWAP1 PUSH2 0xE66 PUSH1 0x2 SLOAD DUP4 PUSH2 0x26E0 JUMP JUMPDEST SWAP3 PUSH1 0x40 MLOAD SWAP6 PUSH1 0x1 DUP8 MSTORE PUSH1 0x20 DUP8 ADD MSTORE CALLVALUE PUSH1 0x40 DUP8 ADD MSTORE PUSH1 0x60 DUP7 ADD MSTORE PUSH1 0x80 DUP6 ADD MSTORE PUSH1 0xA0 DUP5 ADD MSTORE PUSH1 0xC0 DUP4 ADD MSTORE PUSH32 0x21FB2EF4DB4BF31F6D1E357C56A918E6FB61D5B270A2F9C5075FF638093819D7 PUSH1 0xE0 CALLER SWAP4 LOG3 PUSH1 0x1 PUSH1 0x0 DUP1 MLOAD PUSH1 0x20 PUSH2 0x28EB DUP4 CODECOPY DUP2 MLOAD SWAP2 MSTORE SSTORE STOP JUMPDEST POP PUSH1 0x0 DUP6 DUP2 MSTORE PUSH1 0x9 PUSH1 0x20 SWAP1 DUP2 MSTORE PUSH1 0x40 DUP1 DUP4 KECCAK256 CALLER DUP5 MSTORE DUP3 MSTORE DUP1 DUP4 KECCAK256 DUP1 SLOAD PUSH1 0xFF NOT AND PUSH1 0x1 OR SWAP1 SSTORE DUP8 DUP4 MSTORE PUSH1 0x8 SWAP1 SWAP2 MSTORE SWAP1 KECCAK256 DUP1 SLOAD SWAP1 SWAP2 PUSH9 0x10000000000000000 DUP3 LT ISZERO PUSH2 0x66B JUMPI PUSH2 0xF20 DUP3 PUSH2 0xE58 SWAP5 PUSH1 0x1 DUP9 SWAP6 ADD DUP2 SSTORE PUSH2 0x1FD3 JUMP JUMPDEST DUP2 SLOAD PUSH1 0x1 PUSH1 0x1 PUSH1 0xA0 SHL SUB PUSH1 0x3 SWAP3 SWAP1 SWAP3 SHL SWAP2 DUP3 SHL NOT AND CALLER SWAP1 SWAP2 SHL OR SWAP1 SSTORE PUSH1 0x9 DUP2 ADD DUP1 SLOAD PUSH2 0xF4B SWAP1 PUSH2 0x2001 JUMP JUMPDEST SWAP1 SSTORE SWAP2 POP PUSH2 0xE2D JUMP JUMPDEST PUSH1 0x40 MLOAD PUSH3 0x461BCD PUSH1 0xE5 SHL DUP2 MSTORE PUSH1 0x20 PUSH1 0x4 DUP3 ADD MSTORE PUSH1 0x18 PUSH1 0x24 DUP3 ADD MSTORE PUSH32 0x4D617820686F6C64696E67203130252065786365656465640000000000000000 PUSH1 0x44 DUP3 ADD MSTORE PUSH1 0x64 SWAP1 REVERT JUMPDEST DUP9 PUSH1 0x0 MSTORE PUSH1 0x7 PUSH1 0x20 MSTORE PUSH1 0x40 PUSH1 0x0 KECCAK256 PUSH1 0x1 DUP1 PUSH1 0xA0 SHL SUB CALLER AND PUSH1 0x0 MSTORE PUSH1 0x20 MSTORE PUSH11 0x84595161401484A000000 PUSH2 0xFD1 DUP12 PUSH1 0x40 PUSH1 0x0 KECCAK256 SLOAD PUSH2 0x1ED0 JUMP JUMPDEST GT ISZERO PUSH2 0xD86 JUMPI PUSH1 0x40 MLOAD PUSH3 0x461BCD PUSH1 0xE5 SHL DUP2 MSTORE PUSH1 0x20 PUSH1 0x4 DUP3 ADD MSTORE PUSH1 0x1D PUSH1 0x24 DUP3 ADD MSTORE PUSH32 0x416E74692D736E697065723A206D617820627579206578636565646564000000 PUSH1 0x44 DUP3 ADD MSTORE PUSH1 0x64 SWAP1 REVERT JUMPDEST PUSH4 0x4E487B71 PUSH1 0xE0 SHL PUSH1 0x0 MSTORE PUSH1 0x11 PUSH1 0x4 MSTORE PUSH1 0x24 PUSH1 0x0 REVERT JUMPDEST PUSH1 0x40 MLOAD PUSH3 0x461BCD PUSH1 0xE5 SHL DUP2 MSTORE PUSH1 0x20 PUSH1 0x4 DUP3 ADD MSTORE PUSH1 0x12 PUSH1 0x24 DUP3 ADD MSTORE PUSH18 0x13585E081CDD5C1C1B1E481C995858DA1959 PUSH1 0x72 SHL PUSH1 0x44 DUP3 ADD MSTORE PUSH1 0x64 SWAP1 REVERT JUMPDEST PUSH1 0x40 MLOAD PUSH3 0x461BCD PUSH1 0xE5 SHL DUP2 MSTORE PUSH1 0x20 PUSH1 0x4 DUP3 ADD MSTORE PUSH1 0x10 PUSH1 0x24 DUP3 ADD MSTORE PUSH16 0x141BDBDB0818D85C081C995858DA1959 PUSH1 0x82 SHL PUSH1 0x44 DUP3 ADD MSTORE PUSH1 0x64 SWAP1 REVERT JUMPDEST PUSH1 0x40 MLOAD PUSH3 0x461BCD PUSH1 0xE5 SHL DUP2 MSTORE PUSH1 0x20 PUSH1 0x4 DUP3 ADD MSTORE PUSH1 0x13 PUSH1 0x24 DUP3 ADD MSTORE PUSH19 0x42757920636F6F6C646F776E20616374697665 PUSH1 0x68 SHL PUSH1 0x44 DUP3 ADD MSTORE PUSH1 0x64 SWAP1 REVERT JUMPDEST PUSH1 0x40 MLOAD PUSH3 0x461BCD PUSH1 0xE5 SHL DUP2 MSTORE PUSH1 0x20 PUSH1 0x4 DUP3 ADD MSTORE PUSH1 0x10 PUSH1 0x24 DUP3 ADD MSTORE PUSH16 0x26B4B710313ABC90181718189026A7A7 PUSH1 0x81 SHL PUSH1 0x44 DUP3 ADD MSTORE PUSH1 0x64 SWAP1 REVERT JUMPDEST CALLVALUE PUSH2 0x2DB JUMPI PUSH1 0x60 CALLDATASIZE PUSH1 0x3 NOT ADD SLT PUSH2 0x2DB JUMPI PUSH1 0x24 CALLDATALOAD PUSH1 0x4 CALLDATALOAD PUSH2 0x1136 PUSH2 0x2606 JUMP JUMPDEST PUSH2 0x1143 PUSH1 0x5 SLOAD DUP3 LT PUSH2 0x1E8D JUMP JUMPDEST DUP1 PUSH1 0x0 MSTORE PUSH1 0x6 PUSH1 0x20 MSTORE PUSH2 0x1161 PUSH1 0xFF PUSH1 0x8 PUSH1 0x40 PUSH1 0x0 KECCAK256 ADD SLOAD AND ISZERO PUSH2 0x24FB JUMP JUMPDEST DUP1 PUSH1 0x0 MSTORE PUSH1 0x6 PUSH1 0x20 MSTORE PUSH2 0x1191 PUSH2 0xC5E PUSH1 0x6 PUSH1 0x40 PUSH1 0x0 KECCAK256 ADD SLOAD DUP4 PUSH1 0x0 MSTORE PUSH1 0x6 PUSH1 0x20 MSTORE PUSH1 0x7 PUSH1 0x40 PUSH1 0x0 KECCAK256 ADD SLOAD SWAP1 PUSH2 0x1ED0 JUMP JUMPDEST DUP2 ISZERO PUSH2 0x13B1 JUMPI PUSH1 0x0 DUP2 DUP2 MSTORE PUSH1 0x7 PUSH1 0x20 SWAP1 DUP2 MSTORE PUSH1 0x40 DUP1 DUP4 KECCAK256 CALLER DUP5 MSTORE SWAP1 SWAP2 MSTORE SWAP1 KECCAK256 SLOAD DUP3 GT PUSH2 0x1375 JUMPI DUP1 PUSH1 0x0 MSTORE PUSH1 0x6 PUSH1 0x20 MSTORE PUSH1 0x40 PUSH1 0x0 KECCAK256 PUSH1 0x4 DUP2 ADD DUP1 SLOAD SWAP2 PUSH2 0x11D9 PUSH1 0x2 SLOAD DUP7 DUP6 PUSH2 0x2700 JUMP JUMPDEST SWAP2 PUSH1 0x5 DUP3 ADD SWAP2 DUP3 SLOAD SWAP3 DUP4 DUP6 GT PUSH2 0x136C JUMPI JUMPDEST PUSH1 0x64 DUP6 MUL DUP6 ISZERO SWAP1 DUP7 DUP2 DIV PUSH1 0x64 EQ DUP3 OR ISZERO PUSH2 0x101C JUMPI PUSH2 0x2710 SWAP1 DIV SWAP6 PUSH1 0x32 DUP2 MUL SWAP2 DUP2 DUP4 DIV PUSH1 0x32 EQ OR ISZERO PUSH2 0x101C JUMPI PUSH2 0x2710 PUSH2 0x1246 SWAP3 DIV SWAP6 PUSH2 0x123F DUP12 PUSH2 0x1230 DUP10 PUSH2 0xD25 DUP13 DUP8 PUSH2 0x1EF0 JUMP JUMPDEST SWAP11 PUSH2 0xD25 PUSH1 0x44 CALLDATALOAD DUP14 LT ISZERO PUSH2 0x2572 JUMP JUMPDEST DUP7 SSTORE PUSH2 0x1EF0 JUMP JUMPDEST SWAP1 SSTORE DUP6 PUSH1 0x0 MSTORE PUSH1 0x7 PUSH1 0x20 MSTORE PUSH1 0x40 PUSH1 0x0 KECCAK256 PUSH1 0x1 DUP1 PUSH1 0xA0 SHL SUB CALLER AND PUSH1 0x0 MSTORE PUSH1 0x20 MSTORE PUSH1 0x40 PUSH1 0x0 KECCAK256 PUSH2 0x1275 DUP9 DUP3 SLOAD PUSH2 0x1EF0 JUMP JUMPDEST SWAP1 SSTORE PUSH1 0x0 DUP7 DUP2 MSTORE PUSH1 0x7 PUSH1 0x20 SWAP1 DUP2 MSTORE PUSH1 0x40 DUP1 DUP4 KECCAK256 CALLER DUP5 MSTORE SWAP1 SWAP2 MSTORE SWAP1 KECCAK256 SLOAD DUP4 SWAP1 ISZERO PUSH2 0x132E JUMPI JUMPDEST PUSH1 0x1 SLOAD PUSH2 0x12B5 SWAP3 SWAP1 PUSH2 0xE49 SWAP1 DUP8 SWAP1 PUSH1 0x1 PUSH1 0x1 PUSH1 0xA0 SHL SUB AND PUSH2 0x2642 JUMP JUMPDEST PUSH2 0x12BF DUP5 CALLER PUSH2 0x2642 JUMP JUMPDEST SLOAD SWAP2 PUSH2 0x12CD PUSH1 0x2 SLOAD DUP5 PUSH2 0x26E0 JUMP JUMPDEST SWAP4 PUSH1 0x40 MLOAD SWAP7 PUSH1 0x0 DUP9 MSTORE PUSH1 0x20 DUP9 ADD MSTORE PUSH1 0x40 DUP8 ADD MSTORE PUSH1 0x60 DUP7 ADD MSTORE PUSH1 0x80 DUP6 ADD MSTORE PUSH1 0xA0 DUP5 ADD MSTORE PUSH1 0xC0 DUP4 ADD MSTORE PUSH32 0x21FB2EF4DB4BF31F6D1E357C56A918E6FB61D5B270A2F9C5075FF638093819D7 PUSH1 0xE0 CALLER SWAP4 LOG3 PUSH1 0x1 PUSH1 0x0 DUP1 MLOAD PUSH1 0x20 PUSH2 0x28EB DUP4 CODECOPY DUP2 MLOAD SWAP2 MSTORE SSTORE STOP JUMPDEST POP PUSH1 0x0 DUP7 DUP2 MSTORE PUSH1 0x9 PUSH1 0x20 DUP2 DUP2 MSTORE PUSH1 0x40 DUP1 DUP5 KECCAK256 CALLER DUP6 MSTORE SWAP1 SWAP2 MSTORE SWAP1 SWAP2 KECCAK256 DUP1 SLOAD PUSH1 0xFF NOT AND SWAP1 SSTORE DUP2 ADD DUP1 SLOAD SWAP1 SWAP2 DUP2 ISZERO PUSH2 0x101C JUMPI PUSH1 0x0 NOT SWAP1 SWAP2 ADD SWAP1 SWAP2 SSTORE DUP3 PUSH2 0x1299 JUMP JUMPDEST SWAP4 POP DUP3 SWAP4 PUSH2 0x11EA JUMP JUMPDEST PUSH1 0x40 MLOAD PUSH3 0x461BCD PUSH1 0xE5 SHL DUP2 MSTORE PUSH1 0x20 PUSH1 0x4 DUP3 ADD MSTORE PUSH1 0x14 PUSH1 0x24 DUP3 ADD MSTORE PUSH20 0x496E73756666696369656E742062616C616E6365 PUSH1 0x60 SHL PUSH1 0x44 DUP3 ADD MSTORE PUSH1 0x64 SWAP1 REVERT JUMPDEST PUSH1 0x40 MLOAD PUSH3 0x461BCD PUSH1 0xE5 SHL DUP2 MSTORE PUSH1 0x20 PUSH1 0x4 DUP3 ADD MSTORE PUSH1 0x12 PUSH1 0x24 DUP3 ADD MSTORE PUSH18 0x416D6F756E74206D757374206265203E203 PUSH1 0x74 SHL PUSH1 0x44 DUP3 ADD MSTORE PUSH1 0x64 SWAP1 REVERT JUMPDEST PUSH2 0x1E43 JUMP JUMPDEST CALLVALUE PUSH2 0x2DB JUMPI PUSH1 0x0 CALLDATASIZE PUSH1 0x3 NOT ADD SLT PUSH2 0x2DB JUMPI PUSH1 0x20 PUSH1 0x40 MLOAD PUSH1 0x32 DUP2 MSTORE RETURN JUMPDEST CALLVALUE PUSH2 0x2DB JUMPI PUSH1 0x20 CALLDATASIZE PUSH1 0x3 NOT ADD SLT PUSH2 0x2DB JUMPI PUSH1 0x4 CALLDATALOAD DUP1 ISZERO ISZERO DUP1 SWAP2 SUB PUSH2 0x2DB JUMPI PUSH2 0x143F PUSH1 0x1 DUP1 PUSH1 0xA0 SHL SUB PUSH1 0x0 SLOAD AND CALLER EQ PUSH2 0x1F1D JUMP JUMPDEST PUSH1 0xFF DUP1 NOT PUSH1 0x4 SLOAD AND SWAP2 AND OR PUSH1 0x4 SSTORE PUSH1 0x0 DUP1 RETURN JUMPDEST CALLVALUE PUSH2 0x2DB JUMPI PUSH1 0x40 CALLDATASIZE PUSH1 0x3 NOT ADD SLT PUSH2 0x2DB JUMPI PUSH2 0x146B PUSH2 0x1CCF JUMP JUMPDEST PUSH1 0x4 CALLDATALOAD PUSH1 0x0 MSTORE PUSH1 0xA PUSH1 0x20 MSTORE PUSH1 0x40 PUSH1 0x0 KECCAK256 SWAP1 PUSH1 0x1 DUP1 PUSH1 0xA0 SHL SUB AND PUSH1 0x0 MSTORE PUSH1 0x20 MSTORE PUSH1 0x20 PUSH1 0x40 PUSH1 0x0 KECCAK256 SLOAD PUSH1 0x40 MLOAD SWAP1 DUP2 MSTORE RETURN JUMPDEST CALLVALUE PUSH2 0x2DB JUMPI PUSH1 0x20 CALLDATASIZE PUSH1 0x3 NOT ADD SLT PUSH2 0x2DB JUMPI PUSH2 0x14C0 PUSH1 0x1 DUP1 PUSH1 0xA0 SHL SUB PUSH1 0x0 SLOAD AND CALLER EQ PUSH2 0x1F1D JUMP JUMPDEST PUSH1 0x4 CALLDATALOAD PUSH1 0x3 SSTORE STOP JUMPDEST CALLVALUE PUSH2 0x2DB JUMPI PUSH1 0x20 CALLDATASIZE PUSH1 0x3 NOT ADD SLT PUSH2 0x2DB JUMPI PUSH2 0x14F9 PUSH1 0x4 CALLDATALOAD PUSH2 0x14E7 PUSH2 0x2606 JUMP JUMPDEST PUSH2 0x14F4 PUSH1 0x5 SLOAD DUP3 LT PUSH2 0x1E8D JUMP JUMPDEST PUSH2 0x2010 JUMP JUMPDEST PUSH1 0x1 PUSH1 0x0 DUP1 MLOAD PUSH1 0x20 PUSH2 0x28EB DUP4 CODECOPY DUP2 MLOAD SWAP2 MSTORE SSTORE STOP JUMPDEST CALLVALUE PUSH2 0x2DB JUMPI PUSH1 0x0 CALLDATASIZE PUSH1 0x3 NOT ADD SLT PUSH2 0x2DB JUMPI PUSH1 0x20 PUSH1 0x2 SLOAD PUSH1 0x40 MLOAD SWAP1 DUP2 MSTORE RETURN JUMPDEST CALLVALUE PUSH2 0x2DB JUMPI PUSH1 0x40 CALLDATASIZE PUSH1 0x3 NOT ADD SLT PUSH2 0x2DB JUMPI PUSH2 0x1544 PUSH2 0x1CCF JUMP JUMPDEST PUSH1 0x4 CALLDATALOAD PUSH1 0x0 MSTORE PUSH1 0x7 PUSH1 0x20 MSTORE PUSH1 0x40 PUSH1 0x0 KECCAK256 SWAP1 PUSH1 0x1 DUP1 PUSH1 0xA0 SHL SUB AND PUSH1 0x0 MSTORE PUSH1 0x20 MSTORE PUSH1 0x20 PUSH1 0x40 PUSH1 0x0 KECCAK256 SLOAD PUSH1 0x40 MLOAD SWAP1 DUP2 MSTORE RETURN JUMPDEST CALLVALUE PUSH2 0x2DB JUMPI PUSH1 0x0 CALLDATASIZE PUSH1 0x3 NOT ADD SLT PUSH2 0x2DB JUMPI PUSH1 0x20 PUSH1 0x5 SLOAD PUSH1 0x40 MLOAD SWAP1 DUP2 MSTORE RETURN JUMPDEST CALLVALUE PUSH2 0x2DB JUMPI PUSH2 0x15CB PUSH2 0x15A2 CALLDATASIZE PUSH2 0x1CB9 JUMP JUMPDEST SWAP1 PUSH2 0x15B0 PUSH1 0x5 SLOAD DUP3 LT PUSH2 0x1E8D JUMP JUMPDEST PUSH1 0x0 MSTORE PUSH1 0x6 PUSH1 0x20 MSTORE PUSH1 0x4 PUSH1 0x40 PUSH1 0x0 KECCAK256 ADD SLOAD SWAP1 PUSH1 0x2 SLOAD SWAP2 PUSH2 0x2700 JUMP JUMPDEST PUSH1 0x96 DUP2 MUL DUP2 DUP2 DIV PUSH1 0x96 EQ DUP3 ISZERO OR ISZERO PUSH2 0x101C JUMPI PUSH1 0x20 SWAP2 PUSH2 0x2710 PUSH2 0x938 SWAP3 DIV SWAP1 PUSH2 0x1EF0 JUMP JUMPDEST CALLVALUE PUSH2 0x2DB JUMPI PUSH1 0x20 CALLDATASIZE PUSH1 0x3 NOT ADD SLT PUSH2 0x2DB JUMPI PUSH1 0x20 PUSH2 0x938 PUSH1 0x4 CALLDATALOAD PUSH2 0x1614 PUSH1 0x5 SLOAD DUP3 LT PUSH2 0x1E8D JUMP JUMPDEST PUSH2 0x1F55 JUMP JUMPDEST CALLVALUE PUSH2 0x2DB JUMPI PUSH1 0x20 CALLDATASIZE PUSH1 0x3 NOT ADD SLT PUSH2 0x2DB JUMPI PUSH1 0x4 CALLDATALOAD PUSH2 0x163A PUSH1 0x5 SLOAD DUP3 LT PUSH2 0x1E8D JUMP JUMPDEST PUSH1 0x0 MSTORE PUSH1 0x8 PUSH1 0x20 MSTORE PUSH1 0x40 PUSH1 0x0 KECCAK256 PUSH1 0x40 MLOAD DUP1 PUSH1 0x20 DUP4 SLOAD SWAP2 DUP3 DUP2 MSTORE ADD SWAP1 DUP2 SWAP4 PUSH1 0x0 MSTORE PUSH1 0x20 PUSH1 0x0 KECCAK256 SWAP1 PUSH1 0x0 JUMPDEST DUP2 DUP2 LT PUSH2 0x16C5 JUMPI POP POP POP DUP2 PUSH2 0x1679 SWAP2 SUB DUP3 PUSH2 0x1D3C JUMP JUMPDEST PUSH1 0x40 MLOAD SWAP2 DUP3 SWAP2 PUSH1 0x20 DUP4 ADD SWAP1 PUSH1 0x20 DUP5 MSTORE MLOAD DUP1 SWAP2 MSTORE PUSH1 0x40 DUP4 ADD SWAP2 SWAP1 PUSH1 0x0 JUMPDEST DUP2 DUP2 LT PUSH2 0x16A3 JUMPI POP POP POP SUB SWAP1 RETURN JUMPDEST DUP3 MLOAD PUSH1 0x1 PUSH1 0x1 PUSH1 0xA0 SHL SUB AND DUP5 MSTORE DUP6 SWAP5 POP PUSH1 0x20 SWAP4 DUP5 ADD SWAP4 SWAP1 SWAP3 ADD SWAP2 PUSH1 0x1 ADD PUSH2 0x1695 JUMP JUMPDEST DUP3 SLOAD PUSH1 0x1 PUSH1 0x1 PUSH1 0xA0 SHL SUB AND DUP5 MSTORE PUSH1 0x20 SWAP1 SWAP4 ADD SWAP3 PUSH1 0x1 SWAP3 DUP4 ADD SWAP3 ADD PUSH2 0x1663 JUMP JUMPDEST CALLVALUE PUSH2 0x2DB JUMPI PUSH1 0x0 CALLDATASIZE PUSH1 0x3 NOT ADD SLT PUSH2 0x2DB JUMPI PUSH1 0x0 SLOAD PUSH1 0x40 MLOAD PUSH1 0x1 PUSH1 0x1 PUSH1 0xA0 SHL SUB SWAP1 SWAP2 AND DUP2 MSTORE PUSH1 0x20 SWAP1 RETURN JUMPDEST CALLVALUE PUSH2 0x2DB JUMPI PUSH1 0x40 CALLDATASIZE PUSH1 0x3 NOT ADD SLT PUSH2 0x2DB JUMPI PUSH2 0x1726 PUSH2 0x1CCF JUMP JUMPDEST PUSH1 0x4 CALLDATALOAD PUSH1 0x0 MSTORE PUSH1 0xC PUSH1 0x20 MSTORE PUSH1 0x40 PUSH1 0x0 KECCAK256 SWAP1 PUSH1 0x1 DUP1 PUSH1 0xA0 SHL SUB AND PUSH1 0x0 MSTORE PUSH1 0x20 MSTORE PUSH1 0x20 PUSH1 0x40 PUSH1 0x0 KECCAK256 SLOAD PUSH1 0x40 MLOAD SWAP1 DUP2 MSTORE RETURN JUMPDEST CALLVALUE PUSH2 0x2DB JUMPI PUSH1 0x0 CALLDATASIZE PUSH1 0x3 NOT ADD SLT PUSH2 0x2DB JUMPI PUSH1 0x20 PUSH1 0x40 MLOAD PUSH1 0x3 DUP2 MSTORE RETURN JUMPDEST CALLVALUE PUSH2 0x2DB JUMPI PUSH1 0x20 CALLDATASIZE PUSH1 0x3 NOT ADD SLT PUSH2 0x2DB JUMPI PUSH2 0x1797 PUSH1 0x1 DUP1 PUSH1 0xA0 SHL SUB PUSH1 0x0 SLOAD AND CALLER EQ PUSH2 0x1F1D JUMP JUMPDEST PUSH1 0x4 CALLDATALOAD PUSH1 0x2 SSTORE STOP JUMPDEST CALLVALUE PUSH2 0x2DB JUMPI PUSH1 0x0 CALLDATASIZE PUSH1 0x3 NOT ADD SLT PUSH2 0x2DB JUMPI PUSH1 0x20 PUSH1 0x40 MLOAD PUSH2 0x1E14 DUP2 MSTORE RETURN JUMPDEST CALLVALUE PUSH2 0x2DB JUMPI PUSH1 0x0 CALLDATASIZE PUSH1 0x3 NOT ADD SLT PUSH2 0x2DB JUMPI PUSH1 0x20 PUSH1 0x40 MLOAD PUSH2 0x3E8 DUP2 MSTORE RETURN JUMPDEST CALLVALUE PUSH2 0x2DB JUMPI PUSH1 0x0 CALLDATASIZE PUSH1 0x3 NOT ADD SLT PUSH2 0x2DB JUMPI PUSH1 0x1 SLOAD PUSH1 0x40 MLOAD PUSH1 0x1 PUSH1 0x1 PUSH1 0xA0 SHL SUB SWAP1 SWAP2 AND DUP2 MSTORE PUSH1 0x20 SWAP1 RETURN JUMPDEST CALLVALUE PUSH2 0x2DB JUMPI PUSH1 0x0 CALLDATASIZE PUSH1 0x3 NOT ADD SLT PUSH2 0x2DB JUMPI PUSH1 0x20 PUSH1 0xFF PUSH1 0x4 SLOAD AND PUSH1 0x40 MLOAD SWAP1 ISZERO ISZERO DUP2 MSTORE RETURN JUMPDEST CALLVALUE PUSH2 0x2DB JUMPI PUSH1 0x0 CALLDATASIZE PUSH1 0x3 NOT ADD SLT PUSH2 0x2DB JUMPI PUSH1 0x20 PUSH1 0x40 MLOAD PUSH3 0x15180 DUP2 MSTORE RETURN JUMPDEST CALLVALUE PUSH2 0x2DB JUMPI PUSH1 0x0 CALLDATASIZE PUSH1 0x3 NOT ADD SLT PUSH2 0x2DB JUMPI PUSH1 0x20 PUSH1 0x40 MLOAD PUSH2 0x5460 DUP2 MSTORE RETURN JUMPDEST CALLVALUE PUSH2 0x2DB JUMPI PUSH1 0x20 CALLDATASIZE PUSH1 0x3 NOT ADD SLT PUSH2 0x2DB JUMPI PUSH1 0x4 CALLDATALOAD PUSH1 0x0 MSTORE PUSH1 0x6 PUSH1 0x20 MSTORE PUSH2 0x160 PUSH1 0x40 PUSH1 0x0 KECCAK256 PUSH1 0x1 DUP1 PUSH1 0xA0 SHL SUB DUP2 SLOAD AND SWAP1 PUSH2 0x189B PUSH1 0x1 DUP3 ADD PUSH2 0x1D5E JUMP JUMPDEST PUSH1 0xFF PUSH2 0x18A9 PUSH1 0x2 DUP5 ADD PUSH2 0x1D5E JUMP JUMPDEST SWAP3 PUSH2 0x18B6 PUSH1 0x3 DUP3 ADD PUSH2 0x1D5E JUMP JUMPDEST SWAP4 PUSH1 0x4 DUP3 ADD SLOAD SWAP5 PUSH1 0x5 DUP4 ADD SLOAD PUSH2 0x1915 PUSH1 0x6 DUP6 ADD SLOAD SWAP3 PUSH2 0x1907 PUSH1 0x7 DUP8 ADD SLOAD SWAP6 PUSH2 0x18F9 PUSH1 0x9 PUSH1 0x8 DUP11 ADD SLOAD SWAP10 ADD SLOAD SWAP11 PUSH1 0x40 MLOAD SWAP15 DUP16 SWAP15 DUP16 SWAP1 DUP2 MSTORE DUP2 PUSH1 0x20 DUP3 ADD MSTORE ADD SWAP1 PUSH2 0x1E02 JUMP JUMPDEST DUP13 DUP2 SUB PUSH1 0x40 DUP15 ADD MSTORE SWAP1 PUSH2 0x1E02 JUMP JUMPDEST SWAP1 DUP11 DUP3 SUB PUSH1 0x60 DUP13 ADD MSTORE PUSH2 0x1E02 JUMP JUMPDEST SWAP7 PUSH1 0x80 DUP10 ADD MSTORE PUSH1 0xA0 DUP9 ADD MSTORE PUSH1 0xC0 DUP8 ADD MSTORE PUSH1 0xE0 DUP7 ADD MSTORE DUP2 DUP2 AND ISZERO ISZERO PUSH2 0x100 DUP7 ADD MSTORE PUSH1 0x8 SHR AND ISZERO ISZERO PUSH2 0x120 DUP5 ADD MSTORE PUSH2 0x140 DUP4 ADD MSTORE SUB SWAP1 RETURN JUMPDEST CALLVALUE PUSH2 0x2DB JUMPI PUSH1 0x20 CALLDATASIZE PUSH1 0x3 NOT ADD SLT PUSH2 0x2DB JUMPI PUSH1 0x4 CALLDATALOAD PUSH1 0x0 MSTORE PUSH1 0xB PUSH1 0x20 MSTORE PUSH1 0x20 PUSH1 0x40 PUSH1 0x0 KECCAK256 SLOAD PUSH1 0x40 MLOAD SWAP1 DUP2 MSTORE RETURN JUMPDEST CALLVALUE PUSH2 0x2DB JUMPI PUSH1 0x0 CALLDATASIZE PUSH1 0x3 NOT ADD SLT PUSH2 0x2DB JUMPI PUSH1 0x20 PUSH1 0x40 MLOAD PUSH7 0x2386F26FC10000 DUP2 MSTORE RETURN JUMPDEST CALLVALUE PUSH2 0x2DB JUMPI PUSH1 0x20 CALLDATASIZE PUSH1 0x3 NOT ADD SLT PUSH2 0x2DB JUMPI PUSH1 0x4 CALLDATALOAD PUSH2 0x19B5 PUSH2 0x2606 JUMP JUMPDEST PUSH2 0x19C2 PUSH1 0x5 SLOAD DUP3 LT PUSH2 0x1E8D JUMP JUMPDEST DUP1 PUSH1 0x0 MSTORE PUSH1 0x6 PUSH1 0x20 MSTORE PUSH1 0xFF PUSH1 0x8 PUSH1 0x40 PUSH1 0x0 KECCAK256 ADD SLOAD AND DUP1 PUSH2 0x1AE2 JUMPI JUMPDEST ISZERO PUSH2 0x1AA9 JUMPI PUSH1 0x0 DUP2 DUP2 MSTORE PUSH1 0xA PUSH1 0x20 SWAP1 DUP2 MSTORE PUSH1 0x40 DUP1 DUP4 KECCAK256 CALLER DUP5 MSTORE SWAP1 SWAP2 MSTORE SWAP1 KECCAK256 SLOAD SWAP1 DUP2 ISZERO PUSH2 0x1A71 JUMPI DUP1 PUSH1 0x0 MSTORE PUSH1 0xA PUSH1 0x20 MSTORE PUSH1 0x40 PUSH1 0x0 KECCAK256 PUSH1 0x1 DUP1 PUSH1 0xA0 SHL SUB CALLER AND PUSH1 0x0 MSTORE PUSH1 0x20 MSTORE PUSH1 0x0 PUSH1 0x40 DUP2 KECCAK256 SSTORE PUSH2 0x1A31 DUP3 CALLER PUSH2 0x2642 JUMP JUMPDEST PUSH1 0x40 MLOAD SWAP2 DUP3 MSTORE PUSH32 0x4EC90E965519D92681267467F775ADA5BD214AA92C0DC93D90A5E880CE9ED026 PUSH1 0x20 CALLER SWAP4 LOG3 PUSH1 0x1 PUSH1 0x0 DUP1 MLOAD PUSH1 0x20 PUSH2 0x28EB DUP4 CODECOPY DUP2 MLOAD SWAP2 MSTORE SSTORE STOP JUMPDEST PUSH1 0x40 MLOAD PUSH3 0x461BCD PUSH1 0xE5 SHL DUP2 MSTORE PUSH1 0x20 PUSH1 0x4 DUP3 ADD MSTORE PUSH1 0x10 PUSH1 0x24 DUP3 ADD MSTORE PUSH16 0x4E6F7468696E6720746F20636C61696D PUSH1 0x80 SHL PUSH1 0x44 DUP3 ADD MSTORE PUSH1 0x64 SWAP1 REVERT JUMPDEST PUSH1 0x40 MLOAD PUSH3 0x461BCD PUSH1 0xE5 SHL DUP2 MSTORE PUSH1 0x20 PUSH1 0x4 DUP3 ADD MSTORE PUSH1 0x11 PUSH1 0x24 DUP3 ADD MSTORE PUSH17 0x139BDD0818DB185A5B58589B19481E595D PUSH1 0x7A SHL PUSH1 0x44 DUP3 ADD MSTORE PUSH1 0x64 SWAP1 REVERT JUMPDEST POP DUP1 PUSH1 0x0 MSTORE PUSH1 0x6 PUSH1 0x20 MSTORE PUSH1 0xFF PUSH1 0x8 PUSH1 0x40 PUSH1 0x0 KECCAK256 ADD SLOAD PUSH1 0x8 SHR AND PUSH2 0x19DD JUMP JUMPDEST CALLVALUE PUSH2 0x2DB JUMPI PUSH1 0x40 CALLDATASIZE PUSH1 0x3 NOT ADD SLT PUSH2 0x2DB JUMPI PUSH2 0x1B19 PUSH2 0x1CCF JUMP JUMPDEST PUSH1 0x4 CALLDATALOAD PUSH1 0x0 MSTORE PUSH1 0x9 PUSH1 0x20 MSTORE PUSH1 0x40 PUSH1 0x0 KECCAK256 SWAP1 PUSH1 0x1 DUP1 PUSH1 0xA0 SHL SUB AND PUSH1 0x0 MSTORE PUSH1 0x20 MSTORE PUSH1 0x20 PUSH1 0xFF PUSH1 0x40 PUSH1 0x0 KECCAK256 SLOAD AND PUSH1 0x40 MLOAD SWAP1 ISZERO ISZERO DUP2 MSTORE RETURN JUMPDEST CALLVALUE PUSH2 0x2DB JUMPI PUSH1 0x0 CALLDATASIZE PUSH1 0x3 NOT ADD SLT PUSH2 0x2DB JUMPI PUSH1 0x20 PUSH1 0x40 MLOAD PUSH12 0x33B2E3C9FD0803CE8000000 DUP2 MSTORE RETURN JUMPDEST CALLVALUE PUSH2 0x2DB JUMPI PUSH1 0x0 CALLDATASIZE PUSH1 0x3 NOT ADD SLT PUSH2 0x2DB JUMPI PUSH1 0x20 PUSH1 0x40 MLOAD PUSH10 0x21E19E0C9BAB2400000 DUP2 MSTORE RETURN JUMPDEST CALLVALUE PUSH2 0x2DB JUMPI PUSH1 0x0 CALLDATASIZE PUSH1 0x3 NOT ADD SLT PUSH2 0x2DB JUMPI PUSH1 0x20 PUSH1 0x40 MLOAD PUSH2 0x2710 DUP2 MSTORE RETURN JUMPDEST CALLVALUE PUSH2 0x2DB JUMPI PUSH1 0x0 CALLDATASIZE PUSH1 0x3 NOT ADD SLT PUSH2 0x2DB JUMPI PUSH1 0x20 PUSH1 0x40 MLOAD PUSH8 0x16345785D8A0000 DUP2 MSTORE RETURN JUMPDEST CALLVALUE PUSH2 0x2DB JUMPI PUSH8 0xDE0B6B3A7640000 PUSH2 0x1C3F PUSH2 0x1BF3 CALLDATASIZE PUSH2 0x1CB9 JUMP JUMPDEST SWAP1 PUSH2 0x1C01 PUSH1 0x5 SLOAD DUP3 LT PUSH2 0x1E8D JUMP JUMPDEST PUSH1 0x0 MSTORE PUSH1 0x6 PUSH1 0x20 MSTORE PUSH2 0x1C39 PUSH1 0x4 PUSH1 0x40 PUSH1 0x0 KECCAK256 ADD SLOAD PUSH2 0x1C33 PUSH2 0x1C2D PUSH2 0x1C28 PUSH1 0x2 SLOAD SWAP6 DUP5 PUSH2 0x1ED0 JUMP JUMPDEST PUSH2 0x284F JUMP JUMPDEST SWAP2 PUSH2 0x284F JUMP JUMPDEST SWAP1 PUSH2 0x1EF0 JUMP JUMPDEST SWAP1 PUSH2 0x1EDD JUMP JUMPDEST DIV PUSH2 0x2710 DUP2 MUL SWAP1 DUP1 DUP3 DIV PUSH2 0x2710 EQ SWAP1 ISZERO OR ISZERO PUSH2 0x101C JUMPI PUSH2 0x267A PUSH1 0x20 SWAP2 DIV PUSH1 0x40 MLOAD SWAP1 DUP2 MSTORE RETURN JUMPDEST CALLVALUE PUSH2 0x2DB JUMPI PUSH1 0x0 CALLDATASIZE PUSH1 0x3 NOT ADD SLT PUSH2 0x2DB JUMPI PUSH1 0x20 PUSH1 0x40 MLOAD PUSH2 0x8FC DUP2 MSTORE RETURN JUMPDEST CALLVALUE PUSH2 0x2DB JUMPI PUSH1 0x0 CALLDATASIZE PUSH1 0x3 NOT ADD SLT PUSH2 0x2DB JUMPI PUSH1 0x20 PUSH1 0x40 MLOAD PUSH2 0x12C DUP2 MSTORE RETURN JUMPDEST CALLVALUE PUSH2 0x2DB JUMPI PUSH1 0x0 CALLDATASIZE PUSH1 0x3 NOT ADD SLT PUSH2 0x2DB JUMPI DUP1 PUSH2 0xA8C0 PUSH1 0x20 SWAP3 MSTORE RETURN JUMPDEST PUSH1 0x40 SWAP1 PUSH1 0x3 NOT ADD SLT PUSH2 0x2DB JUMPI PUSH1 0x4 CALLDATALOAD SWAP1 PUSH1 0x24 CALLDATALOAD SWAP1 JUMP JUMPDEST PUSH1 0x24 CALLDATALOAD SWAP1 PUSH1 0x1 PUSH1 0x1 PUSH1 0xA0 SHL SUB DUP3 AND DUP3 SUB PUSH2 0x2DB JUMPI JUMP JUMPDEST SWAP1 PUSH1 0x1 DUP3 DUP2 SHR SWAP3 AND DUP1 ISZERO PUSH2 0x1D15 JUMPI JUMPDEST PUSH1 0x20 DUP4 LT EQ PUSH2 0x1CFF JUMPI JUMP JUMPDEST PUSH4 0x4E487B71 PUSH1 0xE0 SHL PUSH1 0x0 MSTORE PUSH1 0x22 PUSH1 0x4 MSTORE PUSH1 0x24 PUSH1 0x0 REVERT JUMPDEST SWAP2 PUSH1 0x7F AND SWAP2 PUSH2 0x1CF4 JUMP JUMPDEST PUSH2 0x160 DUP2 ADD SWAP1 DUP2 LT PUSH8 0xFFFFFFFFFFFFFFFF DUP3 GT OR PUSH2 0x66B JUMPI PUSH1 0x40 MSTORE JUMP JUMPDEST SWAP1 PUSH1 0x1F DUP1 NOT SWAP2 ADD AND DUP2 ADD SWAP1 DUP2 LT PUSH8 0xFFFFFFFFFFFFFFFF DUP3 GT OR PUSH2 0x66B JUMPI PUSH1 0x40 MSTORE JUMP JUMPDEST SWAP1 PUSH1 0x40 MLOAD SWAP2 DUP3 PUSH1 0x0 DUP3 SLOAD SWAP3 PUSH2 0x1D72 DUP5 PUSH2 0x1CE5 JUMP JUMPDEST DUP1 DUP5 MSTORE SWAP4 PUSH1 0x1 DUP2 AND SWAP1 DUP2 ISZERO PUSH2 0x1DE0 JUMPI POP PUSH1 0x1 EQ PUSH2 0x1D99 JUMPI JUMPDEST POP PUSH2 0x1D97 SWAP3 POP SUB DUP4 PUSH2 0x1D3C JUMP JUMPDEST JUMP JUMPDEST SWAP1 POP PUSH1 0x0 SWAP3 SWAP2 SWAP3 MSTORE PUSH1 0x20 PUSH1 0x0 KECCAK256 SWAP1 PUSH1 0x0 SWAP2 JUMPDEST DUP2 DUP4 LT PUSH2 0x1DC4 JUMPI POP POP SWAP1 PUSH1 0x20 PUSH2 0x1D97 SWAP3 DUP3 ADD ADD CODESIZE PUSH2 0x1D8A JUMP JUMPDEST PUSH1 0x20 SWAP2 SWAP4 POP DUP1 PUSH1 0x1 SWAP2 SLOAD DUP4 DUP6 DUP10 ADD ADD MSTORE ADD SWAP2 ADD SWAP1 SWAP2 DUP5 SWAP3 PUSH2 0x1DAB JUMP JUMPDEST SWAP1 POP PUSH1 0x20 SWAP3 POP PUSH2 0x1D97 SWAP5 SWAP2 POP PUSH1 0xFF NOT AND DUP3 DUP5 ADD MSTORE ISZERO ISZERO PUSH1 0x5 SHL DUP3 ADD ADD CODESIZE PUSH2 0x1D8A JUMP JUMPDEST SWAP2 SWAP1 DUP3 MLOAD SWAP3 DUP4 DUP3 MSTORE PUSH1 0x0 JUMPDEST DUP5 DUP2 LT PUSH2 0x1E2E JUMPI POP POP DUP3 PUSH1 0x0 PUSH1 0x20 DUP1 SWAP5 SWAP6 DUP5 ADD ADD MSTORE PUSH1 0x1F DUP1 NOT SWAP2 ADD AND ADD ADD SWAP1 JUMP JUMPDEST DUP1 PUSH1 0x20 DUP1 SWAP3 DUP5 ADD ADD MLOAD DUP3 DUP3 DUP7 ADD ADD MSTORE ADD PUSH2 0x1E0D JUMP JUMPDEST CALLVALUE PUSH2 0x2DB JUMPI PUSH1 0x0 CALLDATASIZE PUSH1 0x3 NOT ADD SLT PUSH2 0x2DB JUMPI PUSH1 0x20 PUSH1 0x40 MLOAD PUSH1 0x64 DUP2 MSTORE RETURN JUMPDEST SWAP2 DUP2 PUSH1 0x1F DUP5 ADD SLT ISZERO PUSH2 0x2DB JUMPI DUP3 CALLDATALOAD SWAP2 PUSH8 0xFFFFFFFFFFFFFFFF DUP4 GT PUSH2 0x2DB JUMPI PUSH1 0x20 DUP4 DUP2 DUP7 ADD SWAP6 ADD ADD GT PUSH2 0x2DB JUMPI JUMP JUMPDEST ISZERO PUSH2 0x1E94 JUMPI JUMP JUMPDEST PUSH1 0x40 MLOAD PUSH3 0x461BCD PUSH1 0xE5 SHL DUP2 MSTORE PUSH1 0x20 PUSH1 0x4 DUP3 ADD MSTORE PUSH1 0x14 PUSH1 0x24 DUP3 ADD MSTORE PUSH20 0x151BDAD95B88191BD95CC81B9BDD08195E1A5CDD PUSH1 0x62 SHL PUSH1 0x44 DUP3 ADD MSTORE PUSH1 0x64 SWAP1 REVERT JUMPDEST SWAP2 SWAP1 DUP3 ADD DUP1 SWAP3 GT PUSH2 0x101C JUMPI JUMP JUMPDEST DUP2 DUP2 MUL SWAP3 SWAP2 DUP2 ISZERO SWAP2 DUP5 DIV EQ OR ISZERO PUSH2 0x101C JUMPI JUMP JUMPDEST SWAP2 SWAP1 DUP3 SUB SWAP2 DUP3 GT PUSH2 0x101C JUMPI JUMP JUMPDEST DUP2 ISZERO PUSH2 0x1F07 JUMPI DIV SWAP1 JUMP JUMPDEST PUSH4 0x4E487B71 PUSH1 0xE0 SHL PUSH1 0x0 MSTORE PUSH1 0x12 PUSH1 0x4 MSTORE PUSH1 0x24 PUSH1 0x0 REVERT JUMPDEST ISZERO PUSH2 0x1F24 JUMPI JUMP JUMPDEST PUSH1 0x40 MLOAD PUSH3 0x461BCD PUSH1 0xE5 SHL DUP2 MSTORE PUSH1 0x20 PUSH1 0x4 DUP3 ADD MSTORE PUSH1 0x9 PUSH1 0x24 DUP3 ADD MSTORE PUSH9 0x2737BA1037BBB732B9 PUSH1 0xB9 SHL PUSH1 0x44 DUP3 ADD MSTORE PUSH1 0x64 SWAP1 REVERT JUMPDEST DUP1 PUSH1 0x0 MSTORE PUSH1 0x6 PUSH1 0x20 MSTORE PUSH1 0x4 PUSH1 0x40 PUSH1 0x0 KECCAK256 ADD SLOAD ISZERO PUSH2 0x1FCD JUMPI PUSH1 0x0 MSTORE PUSH1 0x6 PUSH1 0x20 MSTORE PUSH1 0x4 PUSH1 0x40 PUSH1 0x0 KECCAK256 ADD SLOAD PUSH8 0xDE0B6B3A7640000 PUSH2 0x1FA0 PUSH2 0x1F96 PUSH1 0x2 SLOAD DUP1 SWAP5 PUSH2 0x26E0 JUMP JUMPDEST SWAP3 PUSH2 0x1C39 DUP4 PUSH2 0x2886 JUMP JUMPDEST DIV DUP1 ISZERO PUSH2 0x1FC6 JUMPI PUSH1 0x64 DUP3 MUL SWAP2 DUP1 DUP4 DIV PUSH1 0x64 EQ SWAP1 ISZERO OR ISZERO PUSH2 0x101C JUMPI PUSH2 0x1FC3 SWAP2 PUSH2 0x1EFD JUMP JUMPDEST SWAP1 JUMP JUMPDEST POP POP PUSH1 0x0 SWAP1 JUMP JUMPDEST POP PUSH1 0x0 SWAP1 JUMP JUMPDEST DUP1 SLOAD DUP3 LT ISZERO PUSH2 0x1FEB JUMPI PUSH1 0x0 MSTORE PUSH1 0x20 PUSH1 0x0 KECCAK256 ADD SWAP1 PUSH1 0x0 SWAP1 JUMP JUMPDEST PUSH4 0x4E487B71 PUSH1 0xE0 SHL PUSH1 0x0 MSTORE PUSH1 0x32 PUSH1 0x4 MSTORE PUSH1 0x24 PUSH1 0x0 REVERT JUMPDEST PUSH1 0x0 NOT DUP2 EQ PUSH2 0x101C JUMPI PUSH1 0x1 ADD SWAP1 JUMP JUMPDEST DUP1 PUSH1 0x0 MSTORE PUSH1 0x6 PUSH1 0x20 MSTORE PUSH1 0x40 PUSH1 0x0 KECCAK256 PUSH1 0x8 DUP2 ADD DUP1 SLOAD SWAP1 PUSH1 0xFF DUP3 AND PUSH2 0x24C7 JUMPI PUSH2 0x2040 PUSH1 0x6 DUP5 ADD SLOAD PUSH1 0x7 DUP6 ADD SLOAD SWAP1 PUSH2 0x1ED0 JUMP JUMPDEST TIMESTAMP LT PUSH2 0x2490 JUMPI PUSH1 0xFF NOT DUP3 AND PUSH1 0x1 OR DUP2 SSTORE PUSH1 0x5 DUP4 ADD DUP1 SLOAD SWAP1 SWAP3 DUP2 ISZERO PUSH2 0x244E JUMPI POP PUSH1 0x0 PUSH8 0x16345785D8A0000 DUP3 LT PUSH2 0x2443 JUMPI POP PUSH2 0x2084 PUSH8 0x16345785D8A0000 DUP1 SWAP3 PUSH2 0x1EF0 JUMP JUMPDEST PUSH2 0x12C DUP2 MUL DUP2 DUP2 DIV PUSH2 0x12C EQ DUP3 ISZERO OR ISZERO PUSH2 0x101C JUMPI PUSH2 0x2710 PUSH2 0x20A7 SWAP2 DIV DUP1 SWAP3 PUSH2 0x1EF0 JUMP JUMPDEST SWAP5 PUSH2 0x1E14 DUP7 MUL DUP7 DUP2 DIV PUSH2 0x1E14 EQ DUP8 ISZERO OR ISZERO PUSH2 0x101C JUMPI PUSH2 0x2710 SWAP1 DIV SWAP1 PUSH2 0x20CC DUP3 DUP9 PUSH2 0x1EF0 JUMP JUMPDEST SWAP1 DUP9 PUSH1 0x0 MSTORE PUSH1 0x8 PUSH1 0x20 MSTORE PUSH1 0x40 PUSH1 0x0 KECCAK256 SLOAD PUSH1 0x80 MSTORE PUSH1 0x80 MLOAD ISZERO SWAP3 DUP4 ISZERO SWAP2 DUP3 DUP1 SWAP4 PUSH2 0x2436 JUMPI JUMPDEST PUSH2 0x237E JUMPI JUMPDEST POP POP DUP1 PUSH2 0x2375 JUMPI JUMPDEST PUSH2 0x2185 JUMPI JUMPDEST POP POP SWAP3 PUSH32 0xF005309A8A7FC7EF4FE267D20B85954D99222BED1E4E1DACC388FC820A8659E SWAP5 SWAP3 PUSH1 0x0 SWAP3 PUSH2 0x2140 PUSH1 0x40 SWAP7 PUSH1 0x1 DUP1 PUSH1 0xA0 SHL SUB PUSH1 0x1 SLOAD AND PUSH2 0x2642 JUMP JUMPDEST DUP1 ISZERO ISZERO DUP1 PUSH2 0x217B JUMPI JUMPDEST PUSH2 0x216B JUMPI JUMPDEST POP DUP1 SLOAD PUSH2 0xFF00 NOT AND PUSH2 0x100 OR SWAP1 SSTORE SSTORE DUP2 MLOAD SWAP1 DUP2 MSTORE CALLER PUSH1 0x20 DUP3 ADD MSTORE LOG2 JUMP JUMPDEST PUSH2 0x2175 SWAP1 CALLER PUSH2 0x2642 JUMP JUMPDEST CODESIZE PUSH2 0x214E JUMP JUMPDEST POP DUP1 SELFBALANCE LT ISZERO PUSH2 0x2149 JUMP JUMPDEST SWAP6 SWAP4 SWAP2 SWAP7 SWAP5 SWAP3 PUSH1 0x3 PUSH1 0x0 SWAP10 SWAP3 SWAP10 SWAP8 DIV SWAP5 PUSH1 0x0 SWAP5 PUSH1 0x0 NOT NUMBER ADD SWAP5 DUP6 BLOCKHASH SWAP7 JUMPDEST PUSH1 0x3 DUP2 LT DUP1 PUSH2 0x236A JUMPI JUMPDEST ISZERO PUSH2 0x22EF JUMPI NUMBER DUP8 GT PUSH2 0x101C JUMPI PUSH1 0x40 MLOAD PUSH1 0x20 DUP2 ADD SWAP1 DUP10 DUP3 MSTORE DUP12 PUSH1 0x40 DUP3 ADD MSTORE DUP3 PUSH1 0x60 DUP3 ADD MSTORE PUSH1 0x80 MLOAD PUSH1 0x80 DUP3 ADD MSTORE TIMESTAMP PUSH1 0xA0 DUP3 ADD MSTORE PUSH1 0xA0 DUP2 MSTORE PUSH2 0x21EC PUSH1 0xC0 DUP3 PUSH2 0x1D3C JUMP JUMPDEST MLOAD SWAP1 KECCAK256 PUSH1 0x0 DUP15 JUMPDEST PUSH1 0x80 MLOAD DUP3 LT PUSH2 0x220E JUMPI JUMPDEST POP POP POP PUSH2 0x2209 SWAP1 PUSH2 0x2001 JUMP JUMPDEST PUSH2 0x21A2 JUMP JUMPDEST PUSH2 0x2218 DUP3 DUP5 PUSH2 0x1ED0 JUMP JUMPDEST SWAP1 PUSH2 0x1F07 JUMPI PUSH2 0x2239 SWAP1 DUP14 PUSH1 0x0 MSTORE PUSH1 0x8 PUSH1 0x20 MSTORE PUSH1 0x80 MLOAD SWAP1 MOD PUSH1 0x40 PUSH1 0x0 KECCAK256 PUSH2 0x1FD3 JUMP JUMPDEST SWAP1 SLOAD PUSH1 0x0 DUP15 DUP2 MSTORE PUSH1 0x7 PUSH1 0x20 SWAP1 DUP2 MSTORE PUSH1 0x40 DUP1 DUP4 KECCAK256 PUSH1 0x3 SWAP6 SWAP1 SWAP6 SHL SWAP4 SWAP1 SWAP4 SHR PUSH1 0x1 PUSH1 0x1 PUSH1 0xA0 SHL SUB AND DUP1 DUP4 MSTORE SWAP4 SWAP1 MSTORE KECCAK256 SLOAD PUSH2 0x227B JUMPI POP PUSH2 0x2275 SWAP1 PUSH2 0x2001 JUMP JUMPDEST DUP15 PUSH2 0x21F3 JUMP JUMPDEST SWAP13 PUSH2 0x2209 SWAP4 SWAP3 POP PUSH2 0x22BA SWAP2 POP PUSH1 0x40 DUP15 DUP15 PUSH1 0x0 MSTORE PUSH1 0xA PUSH1 0x20 MSTORE DUP2 PUSH1 0x0 KECCAK256 PUSH1 0x0 SWAP2 PUSH1 0x1 DUP1 PUSH1 0xA0 SHL SUB AND DUP3 MSTORE PUSH1 0x20 MSTORE KECCAK256 PUSH2 0x22B3 DUP14 DUP3 SLOAD PUSH2 0x1ED0 JUMP JUMPDEST SWAP1 SSTORE PUSH2 0x2001 JUMP JUMPDEST SWAP12 DUP12 PUSH32 0x327DC80A042147E77D98C1F6D26EBC8AEF4078AF7E6AB437F1D6452A19CB108B PUSH1 0x20 DUP14 PUSH1 0x40 MLOAD SWAP1 DUP2 MSTORE LOG3 SWAP1 CODESIZE DUP15 PUSH2 0x21FD JUMP JUMPDEST POP SWAP6 POP SWAP6 SWAP3 SWAP10 POP SWAP6 SWAP8 SWAP3 POP SWAP6 PUSH1 0x3 DUP2 LT PUSH2 0x230E JUMPI JUMPDEST SWAP6 SWAP3 SWAP4 SWAP5 SWAP6 PUSH2 0x2101 JUMP JUMPDEST PUSH1 0x3 SWAP6 SWAP5 SWAP3 SWAP4 SWAP2 SWAP6 SUB SWAP6 PUSH1 0x3 DUP8 GT PUSH2 0x101C JUMPI PUSH2 0x2140 PUSH2 0x235C PUSH1 0x0 SWAP6 PUSH2 0x2356 PUSH1 0x40 SWAP10 PUSH32 0xF005309A8A7FC7EF4FE267D20B85954D99222BED1E4E1DACC388FC820A8659E SWAP12 PUSH2 0x1EDD JUMP JUMPDEST SWAP1 PUSH2 0x1ED0 JUMP JUMPDEST SWAP4 SWAP6 SWAP7 POP POP SWAP6 DUP2 SWAP4 POP PUSH2 0x2304 JUMP JUMPDEST POP PUSH1 0x80 MLOAD DUP2 LT PUSH2 0x21AC JUMP JUMPDEST POP DUP1 ISZERO ISZERO PUSH2 0x20FC JUMP JUMPDEST PUSH1 0x0 JUMPDEST PUSH1 0x80 MLOAD DUP2 LT PUSH2 0x2390 JUMPI POP PUSH2 0x20F4 JUMP JUMPDEST PUSH1 0x1 SWAP1 DUP13 PUSH1 0x0 MSTORE PUSH1 0x8 PUSH1 0x20 MSTORE DUP13 PUSH2 0x23AB DUP3 PUSH1 0x40 PUSH1 0x0 KECCAK256 PUSH2 0x1FD3 JUMP JUMPDEST DUP5 DUP1 PUSH1 0xA0 SHL SUB SWAP2 SLOAD SWAP1 PUSH1 0x3 SHL SHR AND DUP2 PUSH1 0x0 MSTORE PUSH1 0x7 PUSH1 0x20 MSTORE PUSH1 0x40 DUP1 PUSH1 0x0 KECCAK256 PUSH1 0x0 SWAP1 DUP7 DUP1 PUSH1 0xA0 SHL SUB DUP5 AND DUP3 MSTORE PUSH1 0x20 MSTORE KECCAK256 SLOAD DUP1 PUSH2 0x23E9 JUMPI JUMPDEST POP POP POP ADD PUSH2 0x2381 JUMP JUMPDEST PUSH2 0x242C SWAP2 PUSH2 0x2407 PUSH2 0x23FC PUSH1 0x40 SWAP4 DUP11 PUSH2 0x1EDD JUMP JUMPDEST PUSH1 0x4 DUP10 ADD SLOAD SWAP1 PUSH2 0x1EFD JUMP JUMPDEST SWAP4 PUSH1 0x0 MSTORE PUSH1 0xA PUSH1 0x20 MSTORE DUP2 PUSH1 0x0 KECCAK256 PUSH1 0x0 SWAP2 DUP8 DUP1 PUSH1 0xA0 SHL SUB AND DUP3 MSTORE PUSH1 0x20 MSTORE KECCAK256 SWAP2 DUP3 SLOAD PUSH2 0x1ED0 JUMP JUMPDEST SWAP1 SSTORE DUP13 CODESIZE DUP1 PUSH2 0x23E0 JUMP JUMPDEST POP PUSH1 0x4 DUP2 ADD SLOAD ISZERO ISZERO PUSH2 0x20EF JUMP JUMPDEST PUSH2 0x2084 SWAP1 DUP1 SWAP3 PUSH2 0x1EF0 JUMP JUMPDEST PUSH2 0xFFFF NOT AND PUSH2 0x101 OR SWAP1 SWAP2 SSTORE POP POP PUSH1 0x40 DUP1 MLOAD PUSH1 0x0 DUP2 MSTORE CALLER PUSH1 0x20 DUP3 ADD MSTORE PUSH32 0xF005309A8A7FC7EF4FE267D20B85954D99222BED1E4E1DACC388FC820A8659E SWAP3 POP LOG2 JUMP JUMPDEST PUSH1 0x40 MLOAD PUSH3 0x461BCD PUSH1 0xE5 SHL DUP2 MSTORE PUSH1 0x20 PUSH1 0x4 DUP3 ADD MSTORE PUSH1 0xF PUSH1 0x24 DUP3 ADD MSTORE PUSH15 0x139BDD08195E1C1A5C9959081E595D PUSH1 0x8A SHL PUSH1 0x44 DUP3 ADD MSTORE PUSH1 0x64 SWAP1 REVERT JUMPDEST PUSH1 0x40 MLOAD PUSH3 0x461BCD PUSH1 0xE5 SHL DUP2 MSTORE PUSH1 0x20 PUSH1 0x4 DUP3 ADD MSTORE PUSH1 0xC PUSH1 0x24 DUP3 ADD MSTORE PUSH12 0x105B1C9958591E4819195859 PUSH1 0xA2 SHL PUSH1 0x44 DUP3 ADD MSTORE PUSH1 0x64 SWAP1 REVERT JUMPDEST ISZERO PUSH2 0x2502 JUMPI JUMP JUMPDEST PUSH1 0x40 MLOAD PUSH3 0x461BCD PUSH1 0xE5 SHL DUP2 MSTORE PUSH1 0x20 PUSH1 0x4 DUP3 ADD MSTORE PUSH1 0xD PUSH1 0x24 DUP3 ADD MSTORE PUSH13 0x151BDAD95B881A5CC819195859 PUSH1 0x9A SHL PUSH1 0x44 DUP3 ADD MSTORE PUSH1 0x64 SWAP1 REVERT JUMPDEST ISZERO PUSH2 0x253E JUMPI JUMP JUMPDEST PUSH1 0x40 MLOAD PUSH3 0x461BCD PUSH1 0xE5 SHL DUP2 MSTORE PUSH1 0x20 PUSH1 0x4 DUP3 ADD MSTORE PUSH1 0xC PUSH1 0x24 DUP3 ADD MSTORE PUSH12 0x151A5B5948195E1C1A5C9959 PUSH1 0xA2 SHL PUSH1 0x44 DUP3 ADD MSTORE PUSH1 0x64 SWAP1 REVERT JUMPDEST ISZERO PUSH2 0x2579 JUMPI JUMP JUMPDEST PUSH1 0x40 MLOAD PUSH3 0x461BCD PUSH1 0xE5 SHL DUP2 MSTORE PUSH1 0x20 PUSH1 0x4 DUP3 ADD MSTORE PUSH1 0x11 PUSH1 0x24 DUP3 ADD MSTORE PUSH17 0x14DB1A5C1C1859D948195E18D959591959 PUSH1 0x7A SHL PUSH1 0x44 DUP3 ADD MSTORE PUSH1 0x64 SWAP1 REVERT JUMPDEST PUSH1 0x0 MSTORE PUSH1 0x6 PUSH1 0x20 MSTORE PUSH2 0x25D2 PUSH1 0x40 PUSH1 0x0 KECCAK256 PUSH1 0x7 PUSH1 0x6 DUP3 ADD SLOAD SWAP2 ADD SLOAD SWAP1 PUSH2 0x1ED0 JUMP JUMPDEST DUP1 TIMESTAMP LT ISZERO PUSH2 0x1FCD JUMPI PUSH2 0x1FC3 SWAP1 TIMESTAMP SWAP1 PUSH2 0x1EF0 JUMP JUMPDEST SWAP1 DUP1 PUSH1 0x20 SWAP4 SWAP3 DUP2 DUP5 MSTORE DUP5 DUP5 ADD CALLDATACOPY PUSH1 0x0 DUP3 DUP3 ADD DUP5 ADD MSTORE PUSH1 0x1F ADD PUSH1 0x1F NOT AND ADD ADD SWAP1 JUMP JUMPDEST PUSH1 0x2 PUSH1 0x0 DUP1 MLOAD PUSH1 0x20 PUSH2 0x28EB DUP4 CODECOPY DUP2 MLOAD SWAP2 MSTORE SLOAD EQ PUSH2 0x2631 JUMPI PUSH1 0x2 PUSH1 0x0 DUP1 MLOAD PUSH1 0x20 PUSH2 0x28EB DUP4 CODECOPY DUP2 MLOAD SWAP2 MSTORE SSTORE JUMP JUMPDEST PUSH4 0x3EE5AEB5 PUSH1 0xE0 SHL PUSH1 0x0 MSTORE PUSH1 0x4 PUSH1 0x0 REVERT JUMPDEST DUP2 ISZERO PUSH2 0x26DC JUMPI PUSH1 0x0 SWAP2 DUP3 SWAP2 DUP3 SWAP2 DUP3 SWAP2 PUSH1 0x1 PUSH1 0x1 PUSH1 0xA0 SHL SUB AND GAS CALL RETURNDATASIZE ISZERO PUSH2 0x26D7 JUMPI RETURNDATASIZE PUSH8 0xFFFFFFFFFFFFFFFF DUP2 GT PUSH2 0x66B JUMPI PUSH1 0x40 MLOAD SWAP1 PUSH2 0x268A PUSH1 0x1F DUP3 ADD PUSH1 0x1F NOT AND PUSH1 0x20 ADD DUP4 PUSH2 0x1D3C JUMP JUMPDEST DUP2 MSTORE PUSH1 0x0 PUSH1 0x20 RETURNDATASIZE SWAP3 ADD RETURNDATACOPY JUMPDEST ISZERO PUSH2 0x269C JUMPI JUMP JUMPDEST PUSH1 0x40 MLOAD PUSH3 0x461BCD PUSH1 0xE5 SHL DUP2 MSTORE PUSH1 0x20 PUSH1 0x4 DUP3 ADD MSTORE PUSH1 0x13 PUSH1 0x24 DUP3 ADD MSTORE PUSH19 0x1353D3881D1C985B9CD9995C8819985A5B1959 PUSH1 0x6A SHL PUSH1 0x44 DUP3 ADD MSTORE PUSH1 0x64 SWAP1 REVERT JUMPDEST PUSH2 0x2695 JUMP JUMPDEST POP POP JUMP JUMPDEST DUP1 ISZERO PUSH2 0x1FC6 JUMPI PUSH8 0xDE0B6B3A7640000 SWAP2 PUSH2 0x1C39 PUSH2 0x26FC SWAP3 PUSH2 0x2886 JUMP JUMPDEST DIV SWAP1 JUMP JUMPDEST SWAP1 SWAP2 DUP2 DUP4 GT PUSH2 0x272F JUMPI PUSH2 0x1C39 DUP3 PUSH2 0x1C33 PUSH2 0x1C2D PUSH2 0x2729 PUSH8 0xDE0B6B3A7640000 SWAP8 PUSH2 0x26FC SWAP8 PUSH2 0x1EF0 JUMP JUMPDEST SWAP3 PUSH2 0x284F JUMP JUMPDEST PUSH1 0x40 MLOAD PUSH3 0x461BCD PUSH1 0xE5 SHL DUP2 MSTORE PUSH1 0x20 PUSH1 0x4 DUP3 ADD MSTORE PUSH1 0x13 PUSH1 0x24 DUP3 ADD MSTORE PUSH19 0x53656C6C206578636565647320737570706C79 PUSH1 0x68 SHL PUSH1 0x44 DUP3 ADD MSTORE PUSH1 0x64 SWAP1 REVERT JUMPDEST PUSH1 0x0 SWAP2 DUP2 PUSH12 0x33B2E3C9FD0803CE8000000 SUB PUSH12 0x33B2E3C9FD0803CE8000000 DUP2 GT PUSH2 0x283B JUMPI DUP3 PUSH12 0x33B2E3C9FD0803CE8000000 EQ PUSH2 0x2835 JUMPI SWAP2 SWAP1 PUSH1 0x2 SLOAD JUMPDEST DUP4 DUP6 LT PUSH2 0x27B6 JUMPI POP POP POP POP SWAP1 JUMP JUMPDEST SWAP1 SWAP2 SWAP3 SWAP4 PUSH2 0x27C4 DUP6 DUP3 PUSH2 0x1ED0 JUMP JUMPDEST PUSH1 0x1 DUP2 ADD DUP1 SWAP2 GT PUSH2 0x101C JUMPI PUSH1 0x1 SHR SWAP1 DUP4 PUSH8 0xDE0B6B3A7640000 PUSH2 0x27FF PUSH2 0x27F9 PUSH2 0x27F0 PUSH2 0x1C28 DUP8 DUP12 PUSH2 0x1ED0 JUMP JUMPDEST PUSH2 0x1C33 DUP11 PUSH2 0x284F JUMP JUMPDEST DUP7 PUSH2 0x1EDD JUMP JUMPDEST DIV GT PUSH2 0x2810 JUMPI POP SWAP4 JUMPDEST SWAP3 SWAP2 SWAP1 PUSH2 0x27A8 JUMP JUMPDEST SWAP5 POP PUSH1 0x0 NOT DUP2 ADD SWAP1 DUP2 GT ISZERO PUSH2 0x2808 JUMPI PUSH4 0x4E487B71 PUSH1 0xE0 SHL PUSH1 0x0 MSTORE PUSH1 0x11 PUSH1 0x4 MSTORE PUSH1 0x24 PUSH1 0x0 REVERT JUMPDEST POP POP POP SWAP1 JUMP JUMPDEST PUSH4 0x4E487B71 PUSH1 0xE0 SHL DUP5 MSTORE PUSH1 0x11 PUSH1 0x4 MSTORE PUSH1 0x24 DUP5 REVERT JUMPDEST DUP1 ISZERO PUSH2 0x1FCD JUMPI PUSH2 0x286B DUP2 PUSH2 0x1C39 PUSH8 0xDE0B6B3A7640000 SWAP4 PUSH2 0x2886 JUMP JUMPDEST DIV PUSH1 0x1 PUSH1 0x1 PUSH1 0xFF SHL SUB DUP2 AND DUP2 SUB PUSH2 0x101C JUMPI PUSH1 0x3 SWAP1 PUSH1 0x1 SHL DIV SWAP1 JUMP JUMPDEST SWAP1 DUP2 ISZERO PUSH2 0x28E4 JUMPI PUSH8 0xDE0B6B3A7640000 DUP3 MUL SWAP2 DUP3 DIV PUSH8 0xDE0B6B3A7640000 SUB PUSH2 0x101C JUMPI DUP2 PUSH1 0x1 DUP2 ADD DUP1 DUP3 GT PUSH2 0x101C JUMPI PUSH1 0x1 SHR SWAP1 JUMPDEST DUP4 DUP3 LT PUSH2 0x28C5 JUMPI POP POP JUMP JUMPDEST SWAP1 SWAP3 POP PUSH2 0x28DB DUP4 PUSH2 0x28D6 DUP2 DUP5 PUSH2 0x1EFD JUMP JUMPDEST PUSH2 0x1ED0 JUMP JUMPDEST PUSH1 0x1 SHR SWAP1 PUSH2 0x28BA JUMP JUMPDEST PUSH1 0x0 SWAP2 POP JUMP INVALID SWAP12 PUSH24 0x9B17422D0DF92223018B32B4D1FA46E071723D6817E2486D STOP EXTCODESIZE 0xEC 0xC5 PUSH0 STOP LOG2 PUSH5 0x6970667358 0x22 SLT KECCAK256 DUP7 0xAF 0xC5 CALLER OR 0x1E DUP11 SMOD 0x2A 0x25 0xC4 MSTORE8 SWAP9 SLT 0x26 0x4D 0xEE ORIGIN 0xDF PUSH30 0xD905F1A4F333E2436F3DCC3164736F6C634300081C003300000000000000 "
        },
        "methodIdentifiers": {
          "BPS()": "249d39e9",
          "BUY_COOLDOWN_BLOCKS()": "ec5ae7e8",
          "CREATOR_FEE_BPS()": "cc3cbd2a",
          "DEATH_TAX_BPS()": "0964b7ed",
          "DEATH_TRIGGER_BONUS()": "1e5c6222",
          "DURATION_12H()": "0932df81",
          "DURATION_24H()": "5d8cc808",
          "DURATION_6H()": "57ee9334",
          "LOTTERY_BPS()": "0b4b71cc",
          "LOTTERY_WINNERS()": "7a447ed3",
          "MAX_BUY_BPS_EARLY()": "d161c6a3",
          "MAX_HOLDING_BPS()": "627d55f6",
          "MAX_POOL()": "2c3c91c9",
          "MAX_SUPPLY()": "32cb6b0c",
          "MIN_BUY()": "3af96b90",
          "PROTOCOL_FEE_BPS()": "be378228",
          "PRO_RATA_BPS()": "636bcebe",
          "SNIPER_BLOCKS()": "dd7e8523",
          "balances(uint256,address)": "1f320331",
          "buy(uint256,uint256)": "d6febde8",
          "claim(uint256)": "379607f5",
          "claimable(uint256,address)": "a0c7f71c",
          "createToken(string,string,string,uint256)": "efbe8fd1",
          "creationBlock(uint256)": "4f5e74c2",
          "creationFee()": "dce0b4e4",
          "getBalance(uint256,address)": "b0a79459",
          "getBuyCost(uint256,uint256)": "121a257f",
          "getClaimable(uint256,address)": "b961cbe1",
          "getFirstBuyerMultiplier(uint256)": "9af4694d",
          "getHolders(uint256)": "92707869",
          "getPrice(uint256)": "e7572230",
          "getSellQuote(uint256,uint256)": "9beb5bad",
          "getTimeLeft(uint256)": "e8c58763",
          "getToken(uint256)": "e4b50cb8",
          "isAlive(uint256)": "d84b2361",
          "isHolder(uint256,address)": "36f732a1",
          "k()": "b4f40c61",
          "lastBuyBlock(uint256,address)": "89228817",
          "owner()": "8da5cb5b",
          "publicCreation()": "5ff67b1b",
          "sell(uint256,uint256,uint256)": "d3c9727c",
          "setCreationFee(uint256)": "b7d86225",
          "setK(uint256)": "67de8be9",
          "setPublicCreation(bool)": "c451bc95",
          "setTreasury(address)": "f0f44260",
          "tokenCount()": "9f181b5e",
          "tokens(uint256)": "4f64b2be",
          "treasury()": "61d027b3",
          "triggerDeath(uint256)": "b713cc40"
        }
      }
    }
  }
}